{"abi":[{"type":"constructor","inputs":[],"stateMutability":"nonpayable"},{"type":"receive","stateMutability":"payable"},{"type":"function","name":"WETH","inputs":[],"outputs":[{"name":"","type":"address","internalType":"address"}],"stateMutability":"view"},{"type":"function","name":"addLidoDepositHook","inputs":[{"name":"nextHook","type":"address","internalType":"address"}],"outputs":[],"stateMutability":"nonpayable"},{"type":"function","name":"addRiskManager","inputs":[{"name":"limit","type":"uint256","internalType":"uint256"}],"outputs":[],"stateMutability":"nonpayable"},{"type":"function","name":"addSubvault","inputs":[{"name":"subvault_","type":"address","internalType":"address"},{"name":"asset_","type":"address","internalType":"contract MockERC20"},{"name":"amount_","type":"uint256","internalType":"uint256"}],"outputs":[],"stateMutability":"nonpayable"},{"type":"function","name":"afterDepositHookCall","inputs":[{"name":"asset","type":"address","internalType":"address"},{"name":"assets","type":"uint256","internalType":"uint256"}],"outputs":[],"stateMutability":"nonpayable"},{"type":"function","name":"beforeRedeemHookCall","inputs":[{"name":"asset","type":"address","internalType":"address"},{"name":"assets","type":"uint256","internalType":"uint256"}],"outputs":[],"stateMutability":"nonpayable"},{"type":"function","name":"getLiquidAssetsCall","inputs":[{"name":"asset","type":"address","internalType":"address"}],"outputs":[{"name":"","type":"uint256","internalType":"uint256"}],"stateMutability":"view"},{"type":"function","name":"hookPullAssets","inputs":[{"name":"subvault_","type":"address","internalType":"address"},{"name":"asset","type":"address","internalType":"address"},{"name":"value","type":"uint256","internalType":"uint256"}],"outputs":[],"stateMutability":"nonpayable"},{"type":"function","name":"hookPushAssets","inputs":[{"name":"subvault_","type":"address","internalType":"address"},{"name":"asset","type":"address","internalType":"address"},{"name":"value","type":"uint256","internalType":"uint256"}],"outputs":[],"stateMutability":"nonpayable"},{"type":"function","name":"lidoDepositHook","inputs":[],"outputs":[{"name":"","type":"address","internalType":"address"}],"stateMutability":"view"},{"type":"function","name":"lidoDepositHookCall","inputs":[{"name":"asset","type":"address","internalType":"address"},{"name":"assets","type":"uint256","internalType":"uint256"}],"outputs":[],"stateMutability":"nonpayable"},{"type":"function","name":"pullAssets","inputs":[{"name":"subvault_","type":"address","internalType":"address"},{"name":"asset","type":"address","internalType":"address"},{"name":"value","type":"uint256","internalType":"uint256"}],"outputs":[],"stateMutability":"nonpayable"},{"type":"function","name":"pushAssets","inputs":[{"name":"subvault_","type":"address","internalType":"address"},{"name":"asset","type":"address","internalType":"address"},{"name":"value","type":"uint256","internalType":"uint256"}],"outputs":[],"stateMutability":"nonpayable"},{"type":"function","name":"redeemHook","inputs":[],"outputs":[{"name":"","type":"address","internalType":"address"}],"stateMutability":"view"},{"type":"function","name":"redirectingDepositHook","inputs":[],"outputs":[{"name":"","type":"address","internalType":"address"}],"stateMutability":"view"},{"type":"function","name":"riskManager","inputs":[],"outputs":[{"name":"","type":"address","internalType":"contract IRiskManager"}],"stateMutability":"view"},{"type":"function","name":"subvaultAt","inputs":[{"name":"index","type":"uint256","internalType":"uint256"}],"outputs":[{"name":"","type":"address","internalType":"address"}],"stateMutability":"view"},{"type":"function","name":"subvaults","inputs":[],"outputs":[{"name":"","type":"uint256","internalType":"uint256"}],"stateMutability":"view"},{"type":"function","name":"test","inputs":[],"outputs":[],"stateMutability":"nonpayable"},{"type":"function","name":"wstETH","inputs":[],"outputs":[{"name":"","type":"address","internalType":"address"}],"stateMutability":"view"},{"type":"error","name":"AddressEmptyCode","inputs":[{"name":"target","type":"address","internalType":"address"}]},{"type":"error","name":"FailedCall","inputs":[]}],"bytecode":{"object":"0x60c0604052737f39c581f595b53c5cb19bd0b3f8da6c935e2ca060805273c02aaa39b223fe8d0a0e5c4f27ead9083c756cc260a05234801561003f575f80fd5b5060405161004c906100d1565b604051809103905ff080158015610065573d5f803e3d5ffd5b50600180546001600160a01b0319166001600160a01b0392909216919091179055604051610092906100de565b604051809103905ff0801580156100ab573d5f803e3d5ffd5b50600280546001600160a01b0319166001600160a01b03929092169190911790556100eb565b6106388061176783390190565b6103f480611d9f83390190565b60805160a05161164d61011a5f395f81816102be015261049201525f81816101d30152610471015261164d5ff3fe60806040526004361061011e575f3560e01c8063a35f620a1161009d578063e4ec21c011610062578063e4ec21c01461031e578063e6c8cd9f1461033d578063e717e0c31461035c578063e984f3531461033d578063f8a8fd6d1461037b575f80fd5b8063a35f620a14610290578063ad5c4648146102ad578063b014f44514610129578063d977831c146102e0578063da09bd7e146102ff575f80fd5b80634acbe766116100e35780634acbe766146101f55780635447e69c1461021457806355d0d13d146102335780639434438c146102525780639bd0911b14610271575f80fd5b806317cbc8b11461012957806326fc0c2b1461014a57806340a119ec1461016957806347842663146101a55780634aa07e64146101c2575f80fd5b3661012557005b5f80fd5b348015610134575f80fd5b5061014861014336600461085c565b610386565b005b348015610155575f80fd5b5061014861016436600461089a565b6103e9565b348015610174575f80fd5b50600354610188906001600160a01b031681565b6040516001600160a01b0390911681526020015b60405180910390f35b3480156101b0575f80fd5b506004546001600160a01b0316610188565b3480156101cd575f80fd5b506101887f000000000000000000000000000000000000000000000000000000000000000081565b348015610200575f80fd5b50600154610188906001600160a01b031681565b34801561021f575f80fd5b5061014861022e36600461089a565b610444565b34801561023e575f80fd5b5061014861024d3660046108c4565b61046f565b34801561025d575f80fd5b5061014861026c36600461085c565b61051b565b34801561027c575f80fd5b5061018861028b3660046108df565b61059d565b34801561029b575f80fd5b505f545b60405190815260200161019c565b3480156102b8575f80fd5b506101887f000000000000000000000000000000000000000000000000000000000000000081565b3480156102eb575f80fd5b50600254610188906001600160a01b031681565b34801561030a575f80fd5b506101486103193660046108df565b6105ca565b348015610329575f80fd5b5061014861033836600461089a565b61061a565b348015610348575f80fd5b5061014861035736600461085c565b610645565b348015610367575f80fd5b5061029f6103763660046108c4565b6106bb565b348015610148575f80fd5b604051630a43004160e31b81526001600160a01b038481166004830152602482018390528316906352180208906044015b5f604051808303815f87803b1580156103ce575f80fd5b505af11580156103e0573d5f803e3d5ffd5b50505050505050565b6001546040516001600160a01b0384811660248301526044820184905261043f9216906064015b60408051601f198184030181529190526020810180516001600160e01b03166330f736c160e21b17905261072d565b505050565b6002546040516001600160a01b0384811660248301526044820184905261043f921690606401610410565b7f00000000000000000000000000000000000000000000000000000000000000007f0000000000000000000000000000000000000000000000000000000000000000826040516104be9061082e565b6001600160a01b03938416815291831660208301529091166040820152606001604051809103905ff0801580156104f7573d5f803e3d5ffd5b50600380546001600160a01b0319166001600160a01b039290921691909117905550565b5f80546001810182559080527f290decd9548b62a8d60345a988386fc84ba6bc95484008f6362f93160ef3e5630180546001600160a01b0319166001600160a01b038516179055801561043f576040516340c10f1960e01b81526001600160a01b038481166004830152602482018390528316906340c10f19906044016103b7565b5f8082815481106105b0576105b06108f6565b5f918252602090912001546001600160a01b031692915050565b806040516105d79061083b565b908152602001604051809103905ff0801580156105f6573d5f803e3d5ffd5b50600480546001600160a01b0319166001600160a01b039290921691909117905550565b6003546040516001600160a01b0384811660248301526044820184905261043f921690606401610410565b60405163a9059cbb60e01b81526001600160a01b0384811660048301526024820183905283169063a9059cbb906044016020604051808303815f875af1158015610691573d5f803e3d5ffd5b505050506040513d601f19601f820116820180604052508101906106b5919061090a565b50505050565b600154604051630af5049b60e11b81526001600160a01b0383811660048301525f9216906315ea093690602401602060405180830381865afa158015610703573d5f803e3d5ffd5b505050506040513d601f19601f820116820180604052508101906107279190610929565b92915050565b60605f80846001600160a01b0316846040516107499190610940565b5f60405180830381855af49150503d805f8114610781576040519150601f19603f3d011682016040523d82523d5f602084013e610786565b606091505b509150915061079685838361079f565b95945050505050565b6060826107b4576107af82610802565b6107fb565b81511580156107cb57506001600160a01b0384163b155b156107f857604051639996b31560e01b81526001600160a01b038516600482015260240160405180910390fd5b50805b9392505050565b8051156108125780518082602001fd5b60405163d6bda27560e01b815260040160405180910390fd5b50565b610b988061095783390190565b610129806114ef83390190565b6001600160a01b038116811461082b575f80fd5b5f805f6060848603121561086e575f80fd5b833561087981610848565b9250602084013561088981610848565b929592945050506040919091013590565b5f80604083850312156108ab575f80fd5b82356108b681610848565b946020939093013593505050565b5f602082840312156108d4575f80fd5b81356107fb81610848565b5f602082840312156108ef575f80fd5b5035919050565b634e487b7160e01b5f52603260045260245ffd5b5f6020828403121561091a575f80fd5b815180151581146107fb575f80fd5b5f60208284031215610939575f80fd5b5051919050565b5f82518060208501845e5f92019182525091905056fe610100604052348015610010575f80fd5b50604051610b98380380610b9883398101604081905261002f916100d4565b6001600160a01b03831660808190526040805163183fc7c960e31b8152905163c1fe3e48916004808201926020929091908290030181865afa158015610077573d5f803e3d5ffd5b505050506040513d601f19601f8201168201806040525081019061009b9190610114565b6001600160a01b0390811660a05291821660c0521660e05250610134565b80516001600160a01b03811681146100cf575f80fd5b919050565b5f805f606084860312156100e6575f80fd5b6100ef846100b9565b92506100fd602085016100b9565b915061010b604085016100b9565b90509250925092565b5f60208284031215610124575f80fd5b61012d826100b9565b9392505050565b60805160a05160c05160e0516109d96101bf5f395f818160c8015281816104c6015261053201525f8181605e01528181610306015261035301525f818160a1015281816101eb015261022f01525f81816101040152818161012801528181610176015281816102510152818161028c0152818161040901528181610445015261050001526109d95ff3fe608060405234801561000f575f80fd5b5060043610610055575f3560e01c80633fc8cef314610059578063953d7ee21461009c578063b17af3c0146100c3578063c3dcdb04146100ea578063d1d8bce7146100ff575b5f80fd5b6100807f000000000000000000000000000000000000000000000000000000000000000081565b6040516001600160a01b03909116815260200160405180910390f35b6100807f000000000000000000000000000000000000000000000000000000000000000081565b6100807f000000000000000000000000000000000000000000000000000000000000000081565b6100fd6100f8366004610907565b610126565b005b6100807f000000000000000000000000000000000000000000000000000000000000000081565b7f00000000000000000000000000000000000000000000000000000000000000006001600160a01b0316826001600160a01b0316146104c4576040516370a0823160e01b81523060048201525f907f00000000000000000000000000000000000000000000000000000000000000006001600160a01b0316906370a0823190602401602060405180830381865afa1580156101c3573d5f803e3d5ffd5b505050506040513d601f19601f820116820180604052508101906101e7919061093c565b90507f00000000000000000000000000000000000000000000000000000000000000006001600160a01b0316836001600160a01b031603610304576102766001600160a01b037f0000000000000000000000000000000000000000000000000000000000000000167f00000000000000000000000000000000000000000000000000000000000000008461058a565b604051630ea598cb60e41b8152600481018390527f00000000000000000000000000000000000000000000000000000000000000006001600160a01b03169063ea598cb0906024016020604051808303815f875af11580156102da573d5f803e3d5ffd5b505050506040513d601f19601f820116820180604052508101906102fe919061093c565b5061042e565b7f00000000000000000000000000000000000000000000000000000000000000006001600160a01b0316836001600160a01b0316036103b757604051632e1a7d4d60e01b8152600481018390527f00000000000000000000000000000000000000000000000000000000000000006001600160a01b031690632e1a7d4d906024015f604051808303815f87803b15801561039c575f80fd5b505af11580156103ae573d5f803e3d5ffd5b50505050610404565b6001600160a01b03831673eeeeeeeeeeeeeeeeeeeeeeeeeeeeeeeeeeeeeeee146104045760405163ee84f40b60e01b81526001600160a01b03841660048201526024015b60405180910390fd5b61042e7f000000000000000000000000000000000000000000000000000000000000000083610617565b6040516370a0823160e01b815230600482015281907f00000000000000000000000000000000000000000000000000000000000000006001600160a01b0316906370a0823190602401602060405180830381865afa158015610492573d5f803e3d5ffd5b505050506040513d601f19601f820116820180604052508101906104b6919061093c565b6104c09190610967565b9150505b7f00000000000000000000000000000000000000000000000000000000000000006001600160a01b031615610586576040516001600160a01b037f000000000000000000000000000000000000000000000000000000000000000016602482015260448101829052610584907f00000000000000000000000000000000000000000000000000000000000000009060640160408051601f198184030181529190526020810180516001600160e01b03166330f736c160e21b1790526106a3565b505b5050565b604051636eb1769f60e11b81523060048201526001600160a01b0383811660248301525f919085169063dd62ed3e90604401602060405180830381865afa1580156105d7573d5f803e3d5ffd5b505050506040513d601f19601f820116820180604052508101906105fb919061093c565b9050610611848461060c858561097a565b610717565b50505050565b804710156106415760405163cf47918160e01b8152476004820152602481018290526044016103fb565b5f80836001600160a01b0316836040515f6040518083038185875af1925050503d805f811461068b576040519150601f19603f3d011682016040523d82523d5f602084013e610690565b606091505b50915091508161061157610611816107ca565b60605f80846001600160a01b0316846040516106bf919061098d565b5f60405180830381855af49150503d805f81146106f7576040519150601f19603f3d011682016040523d82523d5f602084013e6106fc565b606091505b509150915061070c8583836107f3565b925050505b92915050565b604080516001600160a01b038416602482015260448082018490528251808303909101815260649091019091526020810180516001600160e01b031663095ea7b360e01b1790526107688482610852565b61061157604080516001600160a01b03851660248201525f6044808301919091528251808303909101815260649091019091526020810180516001600160e01b031663095ea7b360e01b1790526107c090859061089b565b610611848261089b565b8051156107da5780518082602001fd5b60405163d6bda27560e01b815260040160405180910390fd5b60608261080857610803826107ca565b61084b565b815115801561081f57506001600160a01b0384163b155b1561084857604051639996b31560e01b81526001600160a01b03851660048201526024016103fb565b50805b9392505050565b5f805f8060205f8651602088015f8a5af192503d91505f519050828015610891575081156108835780600114610891565b5f866001600160a01b03163b115b9695505050505050565b5f8060205f8451602086015f885af1806108ba576040513d5f823e3d81fd5b50505f513d915081156108d15780600114156108de565b6001600160a01b0384163b155b1561061157604051635274afe760e01b81526001600160a01b03851660048201526024016103fb565b5f8060408385031215610918575f80fd5b82356001600160a01b038116811461092e575f80fd5b946020939093013593505050565b5f6020828403121561094c575f80fd5b5051919050565b634e487b7160e01b5f52601160045260245ffd5b8181038181111561071157610711610953565b8082018082111561071157610711610953565b5f82518060208501845e5f92019182525091905056fea264697066735822122031e2f54b2d1d52c4e0530e7c11fb91f85dae3e9b0bab2480caf9cce79e154c1864736f6c634300081900336080604052348015600e575f80fd5b50604051610129380380610129833981016040819052602b916031565b5f556047565b5f602082840312156040575f80fd5b5051919050565b60d6806100535f395ff3fe6080604052348015600e575f80fd5b50600436106030575f3560e01c806376016870146034578063f8a8fd6d146058575b5f80fd5b6046603f3660046074565b50505f5490565b60405190815260200160405180910390f35b005b80356001600160a01b0381168114606f575f80fd5b919050565b5f80604083850312156084575f80fd5b608b83605a565b9150609760208401605a565b9050925092905056fea264697066735822122080b5eb623f94f2bb9c478671312b29a65609b3eb55a9ec2832236122dd5037f664736f6c63430008190033a26469706673582212204a8d2b9477024f44bd517d6b490d1d9dc0dc50230b41ee983875cffdaadf422364736f6c634300081900336080604052348015600e575f80fd5b5061061c8061001c5f395ff3fe608060405234801561000f575f80fd5b5060043610610034575f3560e01c806315ea093614610038578063c3dcdb041461005d575b5f80fd5b61004b610046366004610528565b610072565b60405190815260200160405180910390f35b61007061006b36600461054a565b61023d565b005b6040516370a0823160e01b815233600482018190525f916001600160a01b038416906370a0823190602401602060405180830381865afa1580156100b8573d5f803e3d5ffd5b505050506040513d601f19601f820116820180604052508101906100dc9190610574565b91505f816001600160a01b031663a35f620a6040518163ffffffff1660e01b8152600401602060405180830381865afa15801561011b573d5f803e3d5ffd5b505050506040513d601f19601f8201168201806040525081019061013f9190610574565b90505f5b8181101561023557604051639bd0911b60e01b8152600481018290525f906001600160a01b03851690639bd0911b90602401602060405180830381865afa158015610190573d5f803e3d5ffd5b505050506040513d601f19601f820116820180604052508101906101b4919061058b565b6040516370a0823160e01b81526001600160a01b038083166004830152919250908716906370a0823190602401602060405180830381865afa1580156101fc573d5f803e3d5ffd5b505050506040513d601f19601f820116820180604052508101906102209190610574565b61022a90866105ba565b945050600101610143565b505050919050565b6040516370a0823160e01b81523060048201819052905f906001600160a01b038516906370a0823190602401602060405180830381865afa158015610284573d5f803e3d5ffd5b505050506040513d601f19601f820116820180604052508101906102a89190610574565b90508281106102b75750505050565b5f6102c282856105d3565b90505f836001600160a01b031663a35f620a6040518163ffffffff1660e01b8152600401602060405180830381865afa158015610301573d5f803e3d5ffd5b505050506040513d601f19601f820116820180604052508101906103259190610574565b90505f5b8181101561050857604051639bd0911b60e01b8152600481018290525f906001600160a01b03871690639bd0911b90602401602060405180830381865afa158015610376573d5f803e3d5ffd5b505050506040513d601f19601f8201168201806040525081019061039a919061058b565b6040516370a0823160e01b81526001600160a01b0380831660048301529192505f918a16906370a0823190602401602060405180830381865afa1580156103e3573d5f803e3d5ffd5b505050506040513d601f19601f820116820180604052508101906104079190610574565b9050805f03610417575050610500565b84811061048a5760405163b014f44560e01b81526001600160a01b0383811660048301528a811660248301526044820187905288169063b014f445906064015f604051808303815f87803b15801561046d575f80fd5b505af115801561047f573d5f803e3d5ffd5b505050505050610508565b60405163b014f44560e01b81526001600160a01b0383811660048301528a811660248301526044820183905288169063b014f445906064015f604051808303815f87803b1580156104d9575f80fd5b505af11580156104eb573d5f803e3d5ffd5b5050505080856104fb91906105d3565b945050505b600101610329565b50505050505050565b6001600160a01b0381168114610525575f80fd5b50565b5f60208284031215610538575f80fd5b813561054381610511565b9392505050565b5f806040838503121561055b575f80fd5b823561056681610511565b946020939093013593505050565b5f60208284031215610584575f80fd5b5051919050565b5f6020828403121561059b575f80fd5b815161054381610511565b634e487b7160e01b5f52601160045260245ffd5b808201808211156105cd576105cd6105a6565b92915050565b818103818111156105cd576105cd6105a656fea2646970667358221220babbb98d764794d08a44b2e1e65f338149c45919ec56e4a4f93e3068245925dd64736f6c634300081900336080604052348015600e575f80fd5b506103d88061001c5f395ff3fe608060405234801561000f575f80fd5b5060043610610029575f3560e01c8063c3dcdb041461002d575b5f80fd5b61004061003b36600461031a565b610042565b005b5f3090505f816001600160a01b031663478426636040518163ffffffff1660e01b8152600401602060405180830381865afa158015610083573d5f803e3d5ffd5b505050506040513d601f19601f820116820180604052508101906100a79190610344565b90505f826001600160a01b031663a35f620a6040518163ffffffff1660e01b8152600401602060405180830381865afa1580156100e6573d5f803e3d5ffd5b505050506040513d601f19601f8201168201806040525081019061010a9190610366565b90505f5b818110156102fb57604051639bd0911b60e01b8152600481018290525f906001600160a01b03861690639bd0911b90602401602060405180830381865afa15801561015b573d5f803e3d5ffd5b505050506040513d601f19601f8201168201806040525081019061017f9190610344565b604051630760168760e41b81526001600160a01b03808316600483015289811660248301529192505f91861690637601687090604401602060405180830381865afa1580156101d0573d5f803e3d5ffd5b505050506040513d601f19601f820116820180604052508101906101f49190610366565b9050805f036102045750506102f3565b868110156102845760405163e6c8cd9f60e01b81526001600160a01b03838116600483015289811660248301526044820183905287169063e6c8cd9f906064015f604051808303815f87803b15801561025b575f80fd5b505af115801561026d573d5f803e3d5ffd5b50505050808761027d919061037d565b96506102f0565b60405163e6c8cd9f60e01b81526001600160a01b03838116600483015289811660248301526044820189905287169063e6c8cd9f906064015f604051808303815f87803b1580156102d3575f80fd5b505af11580156102e5573d5f803e3d5ffd5b5050505050506102fb565b50505b60010161010e565b505050505050565b6001600160a01b0381168114610317575f80fd5b50565b5f806040838503121561032b575f80fd5b823561033681610303565b946020939093013593505050565b5f60208284031215610354575f80fd5b815161035f81610303565b9392505050565b5f60208284031215610376575f80fd5b5051919050565b8181038181111561039c57634e487b7160e01b5f52601160045260245ffd5b9291505056fea264697066735822122014603c7dc909a58caa4e1da0904c2ab2e4097c530ffb20267b9a7b25652bcf1364736f6c63430008190033","linkReferences":{}},"methodIdentifiers":{"WETH()":"ad5c4648","addLidoDepositHook(address)":"55d0d13d","addRiskManager(uint256)":"da09bd7e","addSubvault(address,address,uint256)":"9434438c","afterDepositHookCall(address,uint256)":"5447e69c","beforeRedeemHookCall(address,uint256)":"26fc0c2b","getLiquidAssetsCall(address)":"e717e0c3","hookPullAssets(address,address,uint256)":"b014f445","hookPushAssets(address,address,uint256)":"e6c8cd9f","lidoDepositHook()":"40a119ec","lidoDepositHookCall(address,uint256)":"e4ec21c0","pullAssets(address,address,uint256)":"17cbc8b1","pushAssets(address,address,uint256)":"e984f353","redeemHook()":"4acbe766","redirectingDepositHook()":"d977831c","riskManager()":"47842663","subvaultAt(uint256)":"9bd0911b","subvaults()":"a35f620a","test()":"f8a8fd6d","wstETH()":"4aa07e64"},"id":156}