{"abi":[{"type":"constructor","inputs":[{"name":"delegationManager_","type":"address","internalType":"address"},{"name":"strategyManager_","type":"address","internalType":"address"},{"name":"rewardsCoordinator_","type":"address","internalType":"address"},{"name":"name_","type":"string","internalType":"string"},{"name":"version_","type":"uint256","internalType":"uint256"}],"stateMutability":"nonpayable"},{"type":"function","name":"ASSET_ROLE","inputs":[],"outputs":[{"name":"","type":"bytes32","internalType":"bytes32"}],"stateMutability":"view"},{"type":"function","name":"CALLER_ROLE","inputs":[],"outputs":[{"name":"","type":"bytes32","internalType":"bytes32"}],"stateMutability":"view"},{"type":"function","name":"DEFAULT_ADMIN_ROLE","inputs":[],"outputs":[{"name":"","type":"bytes32","internalType":"bytes32"}],"stateMutability":"view"},{"type":"function","name":"MELLOW_VAULT_ROLE","inputs":[],"outputs":[{"name":"","type":"bytes32","internalType":"bytes32"}],"stateMutability":"view"},{"type":"function","name":"OPERATOR_ROLE","inputs":[],"outputs":[{"name":"","type":"bytes32","internalType":"bytes32"}],"stateMutability":"view"},{"type":"function","name":"RECEIVER_ROLE","inputs":[],"outputs":[{"name":"","type":"bytes32","internalType":"bytes32"}],"stateMutability":"view"},{"type":"function","name":"STRATEGY_ROLE","inputs":[],"outputs":[{"name":"","type":"bytes32","internalType":"bytes32"}],"stateMutability":"view"},{"type":"function","name":"delegationManager","inputs":[],"outputs":[{"name":"","type":"address","internalType":"contract IDelegationManager"}],"stateMutability":"view"},{"type":"function","name":"getRoleAdmin","inputs":[{"name":"role","type":"bytes32","internalType":"bytes32"}],"outputs":[{"name":"","type":"bytes32","internalType":"bytes32"}],"stateMutability":"view"},{"type":"function","name":"getRoleMember","inputs":[{"name":"role","type":"bytes32","internalType":"bytes32"},{"name":"index","type":"uint256","internalType":"uint256"}],"outputs":[{"name":"","type":"address","internalType":"address"}],"stateMutability":"view"},{"type":"function","name":"getRoleMemberCount","inputs":[{"name":"role","type":"bytes32","internalType":"bytes32"}],"outputs":[{"name":"","type":"uint256","internalType":"uint256"}],"stateMutability":"view"},{"type":"function","name":"getRoleMembers","inputs":[{"name":"role","type":"bytes32","internalType":"bytes32"}],"outputs":[{"name":"","type":"address[]","internalType":"address[]"}],"stateMutability":"view"},{"type":"function","name":"grantRole","inputs":[{"name":"role","type":"bytes32","internalType":"bytes32"},{"name":"account","type":"address","internalType":"address"}],"outputs":[],"stateMutability":"nonpayable"},{"type":"function","name":"hasRole","inputs":[{"name":"role","type":"bytes32","internalType":"bytes32"},{"name":"account","type":"address","internalType":"address"}],"outputs":[{"name":"","type":"bool","internalType":"bool"}],"stateMutability":"view"},{"type":"function","name":"hasSupportedRole","inputs":[{"name":"role","type":"bytes32","internalType":"bytes32"}],"outputs":[{"name":"","type":"bool","internalType":"bool"}],"stateMutability":"view"},{"type":"function","name":"initialize","inputs":[{"name":"data","type":"bytes","internalType":"bytes"}],"outputs":[],"stateMutability":"nonpayable"},{"type":"function","name":"renounceRole","inputs":[{"name":"role","type":"bytes32","internalType":"bytes32"},{"name":"callerConfirmation","type":"address","internalType":"address"}],"outputs":[],"stateMutability":"nonpayable"},{"type":"function","name":"revokeRole","inputs":[{"name":"role","type":"bytes32","internalType":"bytes32"},{"name":"account","type":"address","internalType":"address"}],"outputs":[],"stateMutability":"nonpayable"},{"type":"function","name":"rewardsCoordinator","inputs":[],"outputs":[{"name":"","type":"address","internalType":"contract IRewardsCoordinator"}],"stateMutability":"view"},{"type":"function","name":"strategyManager","inputs":[],"outputs":[{"name":"","type":"address","internalType":"contract IStrategyManager"}],"stateMutability":"view"},{"type":"function","name":"supportedRoleAt","inputs":[{"name":"index","type":"uint256","internalType":"uint256"}],"outputs":[{"name":"","type":"bytes32","internalType":"bytes32"}],"stateMutability":"view"},{"type":"function","name":"supportedRoles","inputs":[],"outputs":[{"name":"","type":"uint256","internalType":"uint256"}],"stateMutability":"view"},{"type":"function","name":"supportsInterface","inputs":[{"name":"interfaceId","type":"bytes4","internalType":"bytes4"}],"outputs":[{"name":"","type":"bool","internalType":"bool"}],"stateMutability":"view"},{"type":"function","name":"verifyCall","inputs":[{"name":"who","type":"address","internalType":"address"},{"name":"where","type":"address","internalType":"address"},{"name":"value","type":"uint256","internalType":"uint256"},{"name":"callData","type":"bytes","internalType":"bytes"},{"name":"","type":"bytes","internalType":"bytes"}],"outputs":[{"name":"","type":"bool","internalType":"bool"}],"stateMutability":"view"},{"type":"event","name":"Initialized","inputs":[{"name":"version","type":"uint64","indexed":false,"internalType":"uint64"}],"anonymous":false},{"type":"event","name":"RoleAdded","inputs":[{"name":"role","type":"bytes32","indexed":true,"internalType":"bytes32"}],"anonymous":false},{"type":"event","name":"RoleAdminChanged","inputs":[{"name":"role","type":"bytes32","indexed":true,"internalType":"bytes32"},{"name":"previousAdminRole","type":"bytes32","indexed":true,"internalType":"bytes32"},{"name":"newAdminRole","type":"bytes32","indexed":true,"internalType":"bytes32"}],"anonymous":false},{"type":"event","name":"RoleGranted","inputs":[{"name":"role","type":"bytes32","indexed":true,"internalType":"bytes32"},{"name":"account","type":"address","indexed":true,"internalType":"address"},{"name":"sender","type":"address","indexed":true,"internalType":"address"}],"anonymous":false},{"type":"event","name":"RoleRemoved","inputs":[{"name":"role","type":"bytes32","indexed":true,"internalType":"bytes32"}],"anonymous":false},{"type":"event","name":"RoleRevoked","inputs":[{"name":"role","type":"bytes32","indexed":true,"internalType":"bytes32"},{"name":"account","type":"address","indexed":true,"internalType":"address"},{"name":"sender","type":"address","indexed":true,"internalType":"address"}],"anonymous":false},{"type":"error","name":"AccessControlBadConfirmation","inputs":[]},{"type":"error","name":"AccessControlUnauthorizedAccount","inputs":[{"name":"account","type":"address","internalType":"address"},{"name":"neededRole","type":"bytes32","internalType":"bytes32"}]},{"type":"error","name":"InvalidInitialization","inputs":[]},{"type":"error","name":"NotInitializing","inputs":[]},{"type":"error","name":"ZeroValue","inputs":[]}],"bytecode":{"object":"0x610100604052348015610010575f80fd5b506040516127db3803806127db83398101604081905261002f91610203565b818181816100656040518060400160405280600981526020016813595b1b1bddd050d360ba1b815250838361009c60201b60201c565b60805261007061010d565b5061007b905061010d565b5050506001600160a01b0393841660a0525090821660c0521660e052610366565b5f60ff5f1b1960018585856040516020016100b9939291906102ff565b604051602081830303815290604052805190602001205f1c6100db9190610347565b6040516020016100ed91815260200190565b604051602081830303815290604052805190602001201690509392505050565b5f6101166101aa565b805490915068010000000000000000900460ff16156101485760405163f92ee8a960e01b815260040160405180910390fd5b80546001600160401b03908116146101a75780546001600160401b0319166001600160401b0390811782556040519081527fc7f505b2f371ae2175ee4913f4499e1f2633a7b5936321eed1cdaeb6115181d29060200160405180910390a15b50565b5f807ff0c57e16840df040f15088dc2f81fe391c3923bec73e23a9662efc9c229c6a005b92915050565b80516001600160a01b03811681146101ea575f80fd5b919050565b634e487b7160e01b5f52604160045260245ffd5b5f805f805f60a08688031215610217575f80fd5b610220866101d4565b945061022e602087016101d4565b935061023c604087016101d4565b60608701519093506001600160401b0380821115610258575f80fd5b818801915088601f83011261026b575f80fd5b81518181111561027d5761027d6101ef565b604051601f8201601f19908116603f011681019083821181831017156102a5576102a56101ef565b816040528281528b60208487010111156102bd575f80fd5b8260208601602083015e5f602084830101528096505050505050608086015190509295509295909350565b5f81518060208401855e5f93019283525090919050565b7f6d656c6c6f772e666c657869626c652d7661756c74732e73746f726167652e0081525f610339610333601f8401876102e8565b856102e8565b928352505060200192915050565b818103818111156101ce57634e487b7160e01b5f52601160045260245ffd5b60805160a05160c05160e0516124116103ca5f395f81816102d60152610ce101525f81816101f4015261075501525f81816103aa01526108c101525f818161049d015281816106c801528181610eb601528181610fa1015261102a01526124115ff3fe608060405234801561000f575f80fd5b5060043610610153575f3560e01c8063774237fc116100bf578063a2cb31e511610079578063a2cb31e51461034c578063a3246ad31461035f578063ca15c8731461037f578063d547741f14610392578063ea4d3c9b146103a5578063f5b541a6146103cc575f80fd5b8063774237fc146102aa5780638a2fc4e3146102d15780639010d07c146102f857806391d148541461030b5780639e17403b1461031e578063a217fddf14610345575f80fd5b80633cfa1929116101105780633cfa19291461022e578063419a205314610255578063439fab911461025d5780634a46b4cf14610270578063580b7c2e1461028357806370e46bcb14610297575f80fd5b806301ffc9a71461015757806303100aa41461017f578063248a9ca3146101b45780632f2ff15d146101c757806336568abe146101dc57806339b70e38146101ef575b5f80fd5b61016a610165366004611492565b6103f3565b60405190151581526020015b60405180910390f35b6101a67f7a2ed8c36fc77fb21dfb67d40423dad2ecf5e9539694580ecb4f6aaec99d266e81565b604051908152602001610176565b6101a66101c23660046114b9565b61041d565b6101da6101d53660046114f4565b61043d565b005b6101da6101ea3660046114f4565b61045f565b6102167f000000000000000000000000000000000000000000000000000000000000000081565b6040516001600160a01b039091168152602001610176565b6101a67f935fd7b940d597b587bde3e2081c175c3c2ef95cd30a83492573ee0907ad6aaa81565b6101a6610497565b6101da61026b366004611566565b6104c6565b61016a61027e3660046114b9565b6106c2565b6101a65f805160206123bc83398151915281565b61016a6102a53660046115a4565b6106ed565b6101a67f429987c65ae1b21d36923ef95ce6fcd59f7bf9663738a09ee8eefcf6f777562b81565b6102167f000000000000000000000000000000000000000000000000000000000000000081565b61021661030636600461163b565b610e4d565b61016a6103193660046114f4565b610e7a565b6101a67f59b484ad6f5409567fc5a4860c4c34866eec78f8cc4024ed3e17efb0f215d8db81565b6101a65f81565b6101a661035a3660046114b9565b610eb0565b61037261036d3660046114b9565b610edb565b604051610176919061169e565b6101a661038d3660046114b9565b610f0b565b6101da6103a03660046114f4565b610f2f565b6102167f000000000000000000000000000000000000000000000000000000000000000081565b6101a67fcf0cbc050f25c592622c05ff9a7f25030deea63c230fa4d7b8d226d8c083720181565b5f6001600160e01b03198216635a05180f60e01b1480610417575061041782610f4b565b92915050565b5f9081525f8051602061239c833981519152602052604090206001015490565b6104468261041d565b61044f81610f7f565b6104598383610f8c565b50505050565b6001600160a01b03811633146104885760405163334bd91960e11b815260040160405180910390fd5b6104928282611006565b505050565b5f6104c17f0000000000000000000000000000000000000000000000000000000000000000611082565b905090565b5f6104cf61108b565b805490915060ff600160401b82041615906001600160401b03165f811580156104f55750825b90505f826001600160401b031660011480156105105750303b155b90508115801561051e575080155b1561053c5760405163f92ee8a960e01b815260040160405180910390fd5b845467ffffffffffffffff19166001178555831561056657845460ff60401b1916600160401b1785555b5f8080610575898b018b6117f7565b919450925090506001600160a01b0383166105a357604051637c946ed760e01b815260040160405180910390fd5b6105ad5f84610f8c565b505f5b825181101561066f575f6001600160a01b03168382815181106105d5576105d56118bb565b60200260200101516001600160a01b0316148061060c57505f801b828281518110610602576106026118bb565b6020026020010151145b1561062a57604051637c946ed760e01b815260040160405180910390fd5b61066682828151811061063f5761063f6118bb565b6020026020010151848381518110610659576106596118bb565b6020026020010151610f8c565b506001016105b0565b5050505083156106b957845460ff60401b19168555604051600181527fc7f505b2f371ae2175ee4913f4499e1f2633a7b5936321eed1cdaeb6115181d29060200160405180910390a15b50505050505050565b5f6104177f0000000000000000000000000000000000000000000000000000000000000000836110b3565b5f60048410806106fc57508515155b8061072e575061072c7f429987c65ae1b21d36923ef95ce6fcd59f7bf9663738a09ee8eefcf6f777562b89610e7a565b155b1561073a57505f610e42565b5f61074860048287896118cf565b610751916118f6565b90507f00000000000000000000000000000000000000000000000000000000000000006001600160a01b0316886001600160a01b0316036108bf57630c2fd7ab60e11b6001600160e01b03198216016108b6575f80806107b4886004818c6118cf565b8101906107c19190611926565b9250925092506107de5f805160206123bc83398151915284610e7a565b1580610811575061080f7f7a2ed8c36fc77fb21dfb67d40423dad2ecf5e9539694580ecb4f6aaec99d266e83610e7a565b155b8061081a575080155b1561082b575f945050505050610e42565b888860405161083b929190611964565b6040519081900381206001600160a01b03808616602484015284166044830152606482018390529085906084015b60408051601f198184030181529190526020810180516001600160e01b03166001600160e01b0319909316929092178252519020146108ae575f945050505050610e42565b505050610e3c565b5f915050610e42565b7f00000000000000000000000000000000000000000000000000000000000000006001600160a01b0316886001600160a01b031603610cdf57631156f9b560e01b6001600160e01b031982160161099b575f8080610920886004818c6118cf565b81019061092d91906119de565b92509250925061095d7fcf0cbc050f25c592622c05ff9a7f25030deea63c230fa4d7b8d226d8c083720184610e7a565b61096d575f945050505050610e42565b888860405161097d929190611964565b60405180910390208484848460405160240161086993929190611a9a565b637913917f60e11b6001600160e01b0319821601610b30575f6109c1866004818a6118cf565b8101906109ce9190611b36565b905080516001146109e3575f92505050610e42565b5f815f815181106109f6576109f66118bb565b60200260200101519050805f0151516001141580610a375750805180515f91908290610a2457610a246118bb565b60200260200101516001600160a01b0316145b80610a485750806020015151600114155b80610a6f575080602001515f81518110610a6457610a646118bb565b60200260200101515f145b80610aaa5750610aa85f805160206123bc833981519152825f01515f81518110610a9b57610a9b6118bb565b6020026020010151610e7a565b155b15610aba575f9350505050610e42565b8282604051602401610acc9190611c78565b60408051601f198184030181529181526020820180516001600160e01b03166001600160e01b031990941693909317835290519091209051610b11908a908a90611964565b604051809103902014610b29575f9350505050610e42565b5050610e3c565b6301b33c0760e41b6001600160e01b03198216016108b6575f8080610b58886004818c6118cf565b810190610b659190611d34565b9250925092505f8360a001515f81518110610b8257610b826118bb565b6020026020010151905082516001141580610b9b575081155b80610bd05750610bce7f935fd7b940d597b587bde3e2081c175c3c2ef95cd30a83492573ee0907ad6aaa855f0151610e7a565b155b80610be157508360a0015151600114155b80610bf357506001600160a01b038116155b80610c125750610c105f805160206123bc83398151915282610e7a565b155b80610c505750610c4e7f7a2ed8c36fc77fb21dfb67d40423dad2ecf5e9539694580ecb4f6aaec99d266e845f81518110610a9b57610a9b6118bb565b155b15610c62575f95505050505050610e42565b8989604051610c72929190611964565b604051809103902085858585604051602401610c9093929190611e3f565b60408051601f198184030181529190526020810180516001600160e01b03166001600160e01b031990931692909217825251902014610cd6575f95505050505050610e42565b50505050610e3c565b7f00000000000000000000000000000000000000000000000000000000000000006001600160a01b0316886001600160a01b0316036108b65763c33379e360e01b6001600160e01b03198216016108b6575f80610d3f876004818b6118cf565b810190610d4c9190612087565b91509150610d817f935fd7b940d597b587bde3e2081c175c3c2ef95cd30a83492573ee0907ad6aaa83606001515f0151610e7a565b610d90575f9350505050610e42565b610dba7f59b484ad6f5409567fc5a4860c4c34866eec78f8cc4024ed3e17efb0f215d8db82610e7a565b610dc9575f9350505050610e42565b8787604051610dd9929190611964565b6040518091039020838383604051602401610df592919061226e565b60408051601f198184030181529190526020810180516001600160e01b03166001600160e01b031990931692909217825251902014610e39575f9350505050610e42565b50505b60019150505b979650505050505050565b5f8281525f8051602061237c833981519152602081905260408220610e7290846110ca565b949350505050565b5f9182525f8051602061239c833981519152602090815260408084206001600160a01b0393909316845291905290205460ff1690565b5f6104177f0000000000000000000000000000000000000000000000000000000000000000836110ca565b5f8181525f8051602061237c8339815191526020819052604090912060609190610f04906110d5565b9392505050565b5f8181525f8051602061237c833981519152602081905260408220610f0490611082565b610f388261041d565b610f4181610f7f565b6104598383611006565b5f6001600160e01b03198216637965db0b60e01b148061041757506301ffc9a760e01b6001600160e01b0319831614610417565b610f8981336110e1565b50565b5f610f978383611122565b15610ffe57610fc67f000000000000000000000000000000000000000000000000000000000000000084611164565b15610ff65760405183907fea0f1c470fa813c725756c036120b6688028969f5afbc607918fcd1ff9229435905f90a25b506001610417565b505f92915050565b5f611011838361116f565b15610ffe5761101f83610f0b565b5f03610ff65761104f7f0000000000000000000000000000000000000000000000000000000000000000846111a8565b5060405183907f4c9a714f78b79aa08074addab7cbdb196cccdf6d67efbf0b99914db8a6b08e73905f90a2506001610417565b5f610417825490565b5f807ff0c57e16840df040f15088dc2f81fe391c3923bec73e23a9662efc9c229c6a00610417565b5f8181526001830160205260408120541515610f04565b5f610f0483836111b3565b60605f610f04836111d9565b6110eb8282610e7a565b61111e5760405163e2517d3f60e01b81526001600160a01b03821660048201526024810183905260440160405180910390fd5b5050565b5f5f8051602061237c8339815191528161113c8585611232565b90508015610e72575f85815260208390526040902061115b90856112d3565b50949350505050565b5f610f0483836112e3565b5f5f8051602061237c83398151915281611189858561132f565b90508015610e72575f85815260208390526040902061115b90856113a8565b5f610f0483836113b8565b5f825f0182815481106111c8576111c86118bb565b905f5260205f200154905092915050565b6060815f0180548060200260200160405190810160405280929190818152602001828054801561122657602002820191905f5260205f20905b815481526020019060010190808311611212575b50505050509050919050565b5f5f8051602061239c83398151915261124b8484610e7a565b6112ca575f848152602082815260408083206001600160a01b03871684529091529020805460ff191660011790556112803390565b6001600160a01b0316836001600160a01b0316857f2f8788117e7eff1d82e926ec794901d17c78024a50270940304540a733656f0d60405160405180910390a46001915050610417565b5f915050610417565b5f610f04836001600160a01b0384165b5f81815260018301602052604081205461132857508154600181810184555f848152602080822090930184905584548482528286019093526040902091909155610417565b505f610417565b5f5f8051602061239c8339815191526113488484610e7a565b156112ca575f848152602082815260408083206001600160a01b0387168085529252808320805460ff1916905551339287917ff6391f5c32d9c69d2a47ea670b442974b53935d1edc7fd64eb21e047a839171b9190a46001915050610417565b5f610f04836001600160a01b0384165b5f81815260018301602052604081205480156112ca575f6113da600183612348565b85549091505f906113ed90600190612348565b905080821461144c575f865f01828154811061140b5761140b6118bb565b905f5260205f200154905080875f01848154811061142b5761142b6118bb565b5f918252602080832090910192909255918252600188019052604090208390555b855486908061145d5761145d612367565b600190038181905f5260205f20015f90559055856001015f8681526020019081526020015f205f905560019350505050610417565b5f602082840312156114a2575f80fd5b81356001600160e01b031981168114610f04575f80fd5b5f602082840312156114c9575f80fd5b5035919050565b6001600160a01b0381168114610f89575f80fd5b80356114ef816114d0565b919050565b5f8060408385031215611505575f80fd5b823591506020830135611517816114d0565b809150509250929050565b5f8083601f840112611532575f80fd5b5081356001600160401b03811115611548575f80fd5b60208301915083602082850101111561155f575f80fd5b9250929050565b5f8060208385031215611577575f80fd5b82356001600160401b0381111561158c575f80fd5b61159885828601611522565b90969095509350505050565b5f805f805f805f60a0888a0312156115ba575f80fd5b87356115c5816114d0565b965060208801356115d5816114d0565b95506040880135945060608801356001600160401b03808211156115f7575f80fd5b6116038b838c01611522565b909650945060808a013591508082111561161b575f80fd5b506116288a828b01611522565b989b979a50959850939692959293505050565b5f806040838503121561164c575f80fd5b50508035926020909101359150565b5f815180845260208085019450602084015f5b838110156116935781516001600160a01b03168752958201959082019060010161166e565b509495945050505050565b602081525f610f04602083018461165b565b634e487b7160e01b5f52604160045260245ffd5b604080519081016001600160401b03811182821017156116e6576116e66116b0565b60405290565b604051606081016001600160401b03811182821017156116e6576116e66116b0565b60405160e081016001600160401b03811182821017156116e6576116e66116b0565b604051601f8201601f191681016001600160401b0381118282101715611758576117586116b0565b604052919050565b5f6001600160401b03821115611778576117786116b0565b5060051b60200190565b5f82601f830112611791575f80fd5b813560206117a66117a183611760565b611730565b8083825260208201915060208460051b8701019350868411156117c7575f80fd5b602086015b848110156117ec5780356117df816114d0565b83529183019183016117cc565b509695505050505050565b5f805f60608486031215611809575f80fd5b8335611814816114d0565b92506020848101356001600160401b0380821115611830575f80fd5b61183c88838901611782565b94506040870135915080821115611851575f80fd5b508501601f81018713611862575f80fd5b80356118706117a182611760565b81815260059190911b8201830190838101908983111561188e575f80fd5b928401925b828410156118ac57833582529284019290840190611893565b80955050505050509250925092565b634e487b7160e01b5f52603260045260245ffd5b5f80858511156118dd575f80fd5b838611156118e9575f80fd5b5050820193919092039150565b6001600160e01b0319813581811691600485101561191e5780818660040360031b1b83161692505b505092915050565b5f805f60608486031215611938575f80fd5b8335611943816114d0565b92506020840135611953816114d0565b929592945050506040919091013590565b818382375f9101908152919050565b5f82601f830112611982575f80fd5b81356001600160401b0381111561199b5761199b6116b0565b6119ae601f8201601f1916602001611730565b8181528460208386010111156119c2575f80fd5b816020850160208301375f918101602001919091529392505050565b5f805f606084860312156119f0575f80fd5b83356119fb816114d0565b925060208401356001600160401b0380821115611a16575f80fd5b9085019060408288031215611a29575f80fd5b611a316116c4565b823582811115611a3f575f80fd5b611a4b89828601611973565b82525060208301356020820152809450505050604084013590509250925092565b5f81518084528060208401602086015e5f602082860101526020601f19601f83011685010191505092915050565b60018060a01b0384168152606060208201525f835160406060840152611ac360a0840182611a6c565b602095909501516080840152505060400152919050565b5f82601f830112611ae9575f80fd5b81356020611af96117a183611760565b8083825260208201915060208460051b870101935086841115611b1a575f80fd5b602086015b848110156117ec5780358352918301918301611b1f565b5f6020808385031215611b47575f80fd5b82356001600160401b0380821115611b5d575f80fd5b818501915085601f830112611b70575f80fd5b8135611b7e6117a182611760565b81815260059190911b83018401908481019088831115611b9c575f80fd5b8585015b83811015611c3c57803585811115611bb6575f80fd5b86016060818c03601f1901811315611bcc575f80fd5b611bd46116ec565b8983013588811115611be4575f80fd5b611bf28e8c83870101611782565b82525060408084013589811115611c07575f80fd5b611c158f8d83880101611ada565b838d0152509282013592611c28846114d0565b810192909252508352918601918601611ba0565b5098975050505050505050565b5f815180845260208085019450602084015f5b8381101561169357815187529582019590820190600101611c5c565b5f60208083018184528085518083526040925060408601915060408160051b8701018488015f5b83811015611d0457603f19898403018552815160608151818652611cc58287018261165b565b915050888201518582038a870152611cdd8282611c49565b928901516001600160a01b0316958901959095525094870194925090860190600101611c9f565b509098975050505050505050565b803563ffffffff811681146114ef575f80fd5b803580151581146114ef575f80fd5b5f805f60608486031215611d46575f80fd5b83356001600160401b0380821115611d5c575f80fd5b9085019060e08288031215611d6f575f80fd5b611d7761170e565b611d80836114e4565b8152611d8e602084016114e4565b6020820152611d9f604084016114e4565b604082015260608301356060820152611dba60808401611d12565b608082015260a083013582811115611dd0575f80fd5b611ddc89828601611782565b60a08301525060c083013582811115611df3575f80fd5b611dff89828601611ada565b60c08301525094506020860135915080821115611e1a575f80fd5b50611e2786828701611782565b925050611e3660408501611d25565b90509250925092565b606081525f60018060a01b038086511660608401528060208701511660808401528060408701511660a084015250606085015160c08301526080850151611e8e60e084018263ffffffff169052565b5060a085015160e0610100840152611eaa61014084018261165b565b905060c0860151605f1984830301610120850152611ec88282611c49565b9150508281036020840152611edd818661165b565b915050610e72604083018415159052565b5f60408284031215611efe575f80fd5b611f066116c4565b90508135611f13816114d0565b808252506020820135602082015292915050565b5f82601f830112611f36575f80fd5b81356020611f466117a183611760565b8083825260208201915060208460051b870101935086841115611f67575f80fd5b602086015b848110156117ec57611f7d81611d12565b8352918301918301611f6c565b5f82601f830112611f99575f80fd5b81356020611fa96117a183611760565b82815260059290921b84018101918181019086841115611fc7575f80fd5b8286015b848110156117ec5780356001600160401b03811115611fe8575f80fd5b611ff68986838b0101611973565b845250918301918301611fcb565b5f82601f830112612013575f80fd5b813560206120236117a183611760565b82815260069290921b84018101918181019086841115612041575f80fd5b8286015b848110156117ec576040818903121561205c575f80fd5b6120646116c4565b813561206f816114d0565b81528185013585820152835291830191604001612045565b5f8060408385031215612098575f80fd5b82356001600160401b03808211156120ae575f80fd5b9084019061010082870312156120c2575f80fd5b6120ca61170e565b6120d383611d12565b81526120e160208401611d12565b60208201526040830135828111156120f7575f80fd5b61210388828601611973565b6040830152506121168760608501611eee565b606082015260a08301358281111561212c575f80fd5b61213888828601611f27565b60808301525060c08301358281111561214f575f80fd5b61215b88828601611f8a565b60a08301525060e083013582811115612172575f80fd5b61217e88828601612004565b60c0830152509350612195915050602084016114e4565b90509250929050565b5f815180845260208085019450602084015f5b8381101561169357815163ffffffff16875295820195908201906001016121b1565b5f8282518085526020808601955060208260051b840101602086015f5b8481101561221e57601f1986840301895261220c838351611a6c565b988401989250908301906001016121f0565b5090979650505050505050565b5f815180845260208085019450602084015f5b8381101561169357815180516001600160a01b03168852830151838801526040909601959082019060010161223e565b6040815263ffffffff83511660408201525f6020840151612297606084018263ffffffff169052565b5060408401516101008060808501526122b4610140850183611a6c565b606087015180516001600160a01b031660a08701526020015160c08601526080870151858203603f1990810160e0880152919350906122f3848361219e565b935060a0880151915080868503018387015261230f84836121d3565b935060c088015192508086850301610120870152505061232f828261222b565b92505050610f0460208301846001600160a01b03169052565b8181038181111561041757634e487b7160e01b5f52601160045260245ffd5b634e487b7160e01b5f52603160045260245ffdfec1f6fe24621ce81ec5827caf0253cadb74709b061630e6b55e8237170593200002dd7bc7dec4dceedda775e58dd541e08a116c6c53815c0bd028192f7b6268002eab4b6bd944eae98f56071c3f2866a8355e10331fc8a04157ddf9ee0feff1e0a264697066735822122079ec49ab7dc6243b3052ec5c2658bbaa5e73350d9b79fbb3dc1aa59f9404763764736f6c63430008190033","linkReferences":{}},"methodIdentifiers":{"ASSET_ROLE()":"03100aa4","CALLER_ROLE()":"774237fc","DEFAULT_ADMIN_ROLE()":"a217fddf","MELLOW_VAULT_ROLE()":"3cfa1929","OPERATOR_ROLE()":"f5b541a6","RECEIVER_ROLE()":"9e17403b","STRATEGY_ROLE()":"580b7c2e","delegationManager()":"ea4d3c9b","getRoleAdmin(bytes32)":"248a9ca3","getRoleMember(bytes32,uint256)":"9010d07c","getRoleMemberCount(bytes32)":"ca15c873","getRoleMembers(bytes32)":"a3246ad3","grantRole(bytes32,address)":"2f2ff15d","hasRole(bytes32,address)":"91d14854","hasSupportedRole(bytes32)":"4a46b4cf","initialize(bytes)":"439fab91","renounceRole(bytes32,address)":"36568abe","revokeRole(bytes32,address)":"d547741f","rewardsCoordinator()":"8a2fc4e3","strategyManager()":"39b70e38","supportedRoleAt(uint256)":"a2cb31e5","supportedRoles()":"419a2053","supportsInterface(bytes4)":"01ffc9a7","verifyCall(address,address,uint256,bytes,bytes)":"70e46bcb"},"id":133}