{"abi":[{"type":"constructor","inputs":[],"stateMutability":"nonpayable"},{"type":"function","name":"allowance","inputs":[{"name":"owner","type":"address","internalType":"address"},{"name":"spender","type":"address","internalType":"address"}],"outputs":[{"name":"","type":"uint256","internalType":"uint256"}],"stateMutability":"view"},{"type":"function","name":"approve","inputs":[{"name":"spender","type":"address","internalType":"address"},{"name":"value","type":"uint256","internalType":"uint256"}],"outputs":[{"name":"","type":"bool","internalType":"bool"}],"stateMutability":"nonpayable"},{"type":"function","name":"balanceOf","inputs":[{"name":"account","type":"address","internalType":"address"}],"outputs":[{"name":"","type":"uint256","internalType":"uint256"}],"stateMutability":"view"},{"type":"function","name":"burn","inputs":[{"name":"to","type":"address","internalType":"address"},{"name":"value","type":"uint256","internalType":"uint256"}],"outputs":[],"stateMutability":"nonpayable"},{"type":"function","name":"decimals","inputs":[],"outputs":[{"name":"","type":"uint8","internalType":"uint8"}],"stateMutability":"view"},{"type":"function","name":"mint","inputs":[{"name":"to","type":"address","internalType":"address"},{"name":"value","type":"uint256","internalType":"uint256"}],"outputs":[],"stateMutability":"nonpayable"},{"type":"function","name":"name","inputs":[],"outputs":[{"name":"","type":"string","internalType":"string"}],"stateMutability":"view"},{"type":"function","name":"symbol","inputs":[],"outputs":[{"name":"","type":"string","internalType":"string"}],"stateMutability":"view"},{"type":"function","name":"take","inputs":[{"name":"from","type":"address","internalType":"address"},{"name":"value","type":"uint256","internalType":"uint256"}],"outputs":[],"stateMutability":"nonpayable"},{"type":"function","name":"totalSupply","inputs":[],"outputs":[{"name":"","type":"uint256","internalType":"uint256"}],"stateMutability":"view"},{"type":"function","name":"transfer","inputs":[{"name":"to","type":"address","internalType":"address"},{"name":"value","type":"uint256","internalType":"uint256"}],"outputs":[{"name":"","type":"bool","internalType":"bool"}],"stateMutability":"nonpayable"},{"type":"function","name":"transferFrom","inputs":[{"name":"from","type":"address","internalType":"address"},{"name":"to","type":"address","internalType":"address"},{"name":"value","type":"uint256","internalType":"uint256"}],"outputs":[{"name":"","type":"bool","internalType":"bool"}],"stateMutability":"nonpayable"},{"type":"event","name":"Approval","inputs":[{"name":"owner","type":"address","indexed":true,"internalType":"address"},{"name":"spender","type":"address","indexed":true,"internalType":"address"},{"name":"value","type":"uint256","indexed":false,"internalType":"uint256"}],"anonymous":false},{"type":"event","name":"Transfer","inputs":[{"name":"from","type":"address","indexed":true,"internalType":"address"},{"name":"to","type":"address","indexed":true,"internalType":"address"},{"name":"value","type":"uint256","indexed":false,"internalType":"uint256"}],"anonymous":false},{"type":"error","name":"ERC20InsufficientAllowance","inputs":[{"name":"spender","type":"address","internalType":"address"},{"name":"allowance","type":"uint256","internalType":"uint256"},{"name":"needed","type":"uint256","internalType":"uint256"}]},{"type":"error","name":"ERC20InsufficientBalance","inputs":[{"name":"sender","type":"address","internalType":"address"},{"name":"balance","type":"uint256","internalType":"uint256"},{"name":"needed","type":"uint256","internalType":"uint256"}]},{"type":"error","name":"ERC20InvalidApprover","inputs":[{"name":"approver","type":"address","internalType":"address"}]},{"type":"error","name":"ERC20InvalidReceiver","inputs":[{"name":"receiver","type":"address","internalType":"address"}]},{"type":"error","name":"ERC20InvalidSender","inputs":[{"name":"sender","type":"address","internalType":"address"}]},{"type":"error","name":"ERC20InvalidSpender","inputs":[{"name":"spender","type":"address","internalType":"address"}]}],"bytecode":{"object":"0x608060405234801561000f575f80fd5b506040518060400160405280600981526020016804d6f636b45524332360bc1b8152506040518060400160405280600481526020016304d4532360e41b815250816003908161005e919061010b565b50600461006b828261010b565b5050506101ca565b634e487b7160e01b5f52604160045260245ffd5b600181811c9082168061009b57607f821691505b6020821081036100b957634e487b7160e01b5f52602260045260245ffd5b50919050565b601f82111561010657805f5260205f20601f840160051c810160208510156100e45750805b601f840160051c820191505b81811015610103575f81556001016100f0565b50505b505050565b81516001600160401b0381111561012457610124610073565b610138816101328454610087565b846100bf565b602080601f83116001811461016b575f84156101545750858301515b5f19600386901b1c1916600185901b1785556101c2565b5f85815260208120601f198616915b828110156101995788860151825594840194600190910190840161017a565b50858210156101b657878501515f19600388901b60f8161c191681555b505060018460011b0185555b505050505050565b6107ca806101d75f395ff3fe608060405234801561000f575f80fd5b50600436106100b1575f3560e01c8063521802081161006e578063521802081461013f57806370a082311461015257806395d89b411461017a5780639dc29fac14610182578063a9059cbb14610195578063dd62ed3e146101a8575f80fd5b806306fdde03146100b5578063095ea7b3146100d357806318160ddd146100f657806323b872dd14610108578063313ce5671461011b57806340c10f191461012a575b5f80fd5b6100bd6101e0565b6040516100ca919061063b565b60405180910390f35b6100e66100e136600461068b565b610270565b60405190151581526020016100ca565b6002545b6040519081526020016100ca565b6100e66101163660046106b3565b610289565b604051601281526020016100ca565b61013d61013836600461068b565b6102ac565b005b61013d61014d36600461068b565b6102ba565b6100fa6101603660046106ec565b6001600160a01b03165f9081526020819052604090205490565b6100bd6102c5565b61013d61019036600461068b565b6102d4565b6100e66101a336600461068b565b6102de565b6100fa6101b636600461070c565b6001600160a01b039182165f90815260016020908152604080832093909416825291909152205490565b6060600380546101ef9061073d565b80601f016020809104026020016040519081016040528092919081815260200182805461021b9061073d565b80156102665780601f1061023d57610100808354040283529160200191610266565b820191905f5260205f20905b81548152906001019060200180831161024957829003601f168201915b5050505050905090565b5f3361027d8185856102eb565b60019150505b92915050565b5f336102968582856102fd565b6102a185858561037e565b506001949350505050565b6102b682826103db565b5050565b6102b682338361037e565b6060600480546101ef9061073d565b6102b6828261040f565b5f3361027d81858561037e565b6102f88383836001610443565b505050565b6001600160a01b038381165f908152600160209081526040808320938616835292905220545f19811015610378578181101561036a57604051637dc7a0d960e11b81526001600160a01b038416600482015260248101829052604481018390526064015b60405180910390fd5b61037884848484035f610443565b50505050565b6001600160a01b0383166103a757604051634b637e8f60e11b81525f6004820152602401610361565b6001600160a01b0382166103d05760405163ec442f0560e01b81525f6004820152602401610361565b6102f8838383610515565b6001600160a01b0382166104045760405163ec442f0560e01b81525f6004820152602401610361565b6102b65f8383610515565b6001600160a01b03821661043857604051634b637e8f60e11b81525f6004820152602401610361565b6102b6825f83610515565b6001600160a01b03841661046c5760405163e602df0560e01b81525f6004820152602401610361565b6001600160a01b03831661049557604051634a1406b160e11b81525f6004820152602401610361565b6001600160a01b038085165f908152600160209081526040808320938716835292905220829055801561037857826001600160a01b0316846001600160a01b03167f8c5be1e5ebec7d5bd14f71427d1e84f3dd0314c0f7b2291e5b200ac8c7c3b9258460405161050791815260200190565b60405180910390a350505050565b6001600160a01b03831661053f578060025f8282546105349190610775565b909155506105af9050565b6001600160a01b0383165f90815260208190526040902054818110156105915760405163391434e360e21b81526001600160a01b03851660048201526024810182905260448101839052606401610361565b6001600160a01b0384165f9081526020819052604090209082900390555b6001600160a01b0382166105cb576002805482900390556105e9565b6001600160a01b0382165f9081526020819052604090208054820190555b816001600160a01b0316836001600160a01b03167fddf252ad1be2c89b69c2b068fc378daa952ba7f163c4a11628f55a4df523b3ef8360405161062e91815260200190565b60405180910390a3505050565b602081525f82518060208401528060208501604085015e5f604082850101526040601f19601f83011684010191505092915050565b80356001600160a01b0381168114610686575f80fd5b919050565b5f806040838503121561069c575f80fd5b6106a583610670565b946020939093013593505050565b5f805f606084860312156106c5575f80fd5b6106ce84610670565b92506106dc60208501610670565b9150604084013590509250925092565b5f602082840312156106fc575f80fd5b61070582610670565b9392505050565b5f806040838503121561071d575f80fd5b61072683610670565b915061073460208401610670565b90509250929050565b600181811c9082168061075157607f821691505b60208210810361076f57634e487b7160e01b5f52602260045260245ffd5b50919050565b8082018082111561028357634e487b7160e01b5f52601160045260245ffdfea2646970667358221220497cf4e782dcba81def05474c7b57cf21a50983dc34eed8365d020bb3482103d64736f6c63430008190033","linkReferences":{}},"methodIdentifiers":{"allowance(address,address)":"dd62ed3e","approve(address,uint256)":"095ea7b3","balanceOf(address)":"70a08231","burn(address,uint256)":"9dc29fac","decimals()":"313ce567","mint(address,uint256)":"40c10f19","name()":"06fdde03","symbol()":"95d89b41","take(address,uint256)":"52180208","totalSupply()":"18160ddd","transfer(address,uint256)":"a9059cbb","transferFrom(address,address,uint256)":"23b872dd"},"id":154}