{"abi":[{"type":"constructor","inputs":[{"name":"limit","type":"uint256","internalType":"uint256"}],"stateMutability":"nonpayable"},{"type":"function","name":"maxDeposit","inputs":[{"name":"","type":"address","internalType":"address"},{"name":"","type":"address","internalType":"address"}],"outputs":[{"name":"","type":"uint256","internalType":"uint256"}],"stateMutability":"view"},{"type":"function","name":"test","inputs":[],"outputs":[],"stateMutability":"nonpayable"}],"bytecode":{"object":"0x6080604052348015600e575f80fd5b50604051610129380380610129833981016040819052602b916031565b5f556047565b5f602082840312156040575f80fd5b5051919050565b60d6806100535f395ff3fe6080604052348015600e575f80fd5b50600436106030575f3560e01c806376016870146034578063f8a8fd6d146058575b5f80fd5b6046603f3660046074565b50505f5490565b60405190815260200160405180910390f35b005b80356001600160a01b0381168114606f575f80fd5b919050565b5f80604083850312156084575f80fd5b608b83605a565b9150609760208401605a565b9050925092905056fea264697066735822122080b5eb623f94f2bb9c478671312b29a65609b3eb55a9ec2832236122dd5037f664736f6c63430008190033","linkReferences":{}},"methodIdentifiers":{"maxDeposit(address,address)":"76016870","test()":"f8a8fd6d"},"id":155}