{"abi":[{"type":"constructor","inputs":[{"name":"owner","type":"address","internalType":"address"}],"stateMutability":"nonpayable"},{"type":"function","name":"claim","inputs":[{"name":"subvault","type":"address","internalType":"address"},{"name":"symbioticVault","type":"address","internalType":"address"},{"name":"epoch","type":"uint256","internalType":"uint256"},{"name":"verificationPayload","type":"tuple","internalType":"struct IVerifier.VerificationPayload","components":[{"name":"verificationType","type":"uint8","internalType":"enum IVerifier.VerificationType"},{"name":"verificationData","type":"bytes","internalType":"bytes"},{"name":"proof","type":"bytes32[]","internalType":"bytes32[]"}]}],"outputs":[],"stateMutability":"nonpayable"},{"type":"function","name":"deposit","inputs":[{"name":"subvault","type":"address","internalType":"address"},{"name":"symbioticVault","type":"address","internalType":"address"},{"name":"assets","type":"uint256","internalType":"uint256"},{"name":"verificationPayload","type":"tuple[2]","internalType":"struct IVerifier.VerificationPayload[2]","components":[{"name":"verificationType","type":"uint8","internalType":"enum IVerifier.VerificationType"},{"name":"verificationData","type":"bytes","internalType":"bytes"},{"name":"proof","type":"bytes32[]","internalType":"bytes32[]"}]}],"outputs":[],"stateMutability":"nonpayable"},{"type":"function","name":"owner","inputs":[],"outputs":[{"name":"","type":"address","internalType":"address"}],"stateMutability":"view"},{"type":"function","name":"renounceOwnership","inputs":[],"outputs":[],"stateMutability":"nonpayable"},{"type":"function","name":"transferOwnership","inputs":[{"name":"newOwner","type":"address","internalType":"address"}],"outputs":[],"stateMutability":"nonpayable"},{"type":"function","name":"withdraw","inputs":[{"name":"subvault","type":"address","internalType":"address"},{"name":"symbioticVault","type":"address","internalType":"address"},{"name":"assets","type":"uint256","internalType":"uint256"},{"name":"verificationPayload","type":"tuple","internalType":"struct IVerifier.VerificationPayload","components":[{"name":"verificationType","type":"uint8","internalType":"enum IVerifier.VerificationType"},{"name":"verificationData","type":"bytes","internalType":"bytes"},{"name":"proof","type":"bytes32[]","internalType":"bytes32[]"}]}],"outputs":[],"stateMutability":"nonpayable"},{"type":"event","name":"OwnershipTransferred","inputs":[{"name":"previousOwner","type":"address","indexed":true,"internalType":"address"},{"name":"newOwner","type":"address","indexed":true,"internalType":"address"}],"anonymous":false},{"type":"error","name":"ApproveCallFailed","inputs":[]},{"type":"error","name":"OwnableInvalidOwner","inputs":[{"name":"owner","type":"address","internalType":"address"}]},{"type":"error","name":"OwnableUnauthorizedAccount","inputs":[{"name":"account","type":"address","internalType":"address"}]}],"bytecode":{"object":"0x608060405234801561000f575f80fd5b506040516109e33803806109e383398101604081905261002e916100bb565b806001600160a01b03811661005c57604051631e4fbdf760e01b81525f600482015260240160405180910390fd5b6100658161006c565b50506100e8565b5f80546001600160a01b038381166001600160a01b0319831681178455604051919092169283917f8be0079c531659141344cd1fd0a4f28419497f9722a3daafe3b4186f6b6457e09190a35050565b5f602082840312156100cb575f80fd5b81516001600160a01b03811681146100e1575f80fd5b9392505050565b6108ee806100f55f395ff3fe608060405234801561000f575f80fd5b5060043610610060575f3560e01c8063023042b91461006457806360ac59c114610079578063715018a61461008c5780638da5cb5b14610094578063c6f70721146100b2578063f2fde38b146100c5575b5f80fd5b610077610072366004610525565b6100d8565b005b610077610087366004610525565b610195565b610077610209565b5f54604080516001600160a01b039092168252519081900360200190f35b6100776100c0366004610591565b61021c565b6100776100d33660046105f2565b610454565b6100e0610496565b604080516001600160a01b03861660248201819052604480830186905283518084039091018152606490920183526020820180516001600160e01b0316635569f64b60e11b179052915163a6df3a8d60e01b815263a6df3a8d9161014c9187915f9187906004016106b8565b5f604051808303815f875af1158015610167573d5f803e3d5ffd5b505050506040513d5f823e601f3d908101601f1916820160405261018e91908101906107b5565b5050505050565b61019d610496565b604080516001600160a01b03861660248201819052604480830186905283518084039091018152606490920183526020820180516001600160e01b031663f3fef3a360e01b179052915163a6df3a8d60e01b815263a6df3a8d9161014c9187915f9187906004016106b8565b610211610496565b61021a5f6104c2565b565b610224610496565b5f836001600160a01b031663d8dfeb456040518163ffffffff1660e01b8152600401602060405180830381865afa158015610261573d5f803e3d5ffd5b505050506040513d601f19601f820116820180604052508101906102859190610860565b90505f856001600160a01b031663a6df3a8d835f88886040516024016102c09291906001600160a01b03929092168252602082015260400190565b60408051601f198184030181529190526020810180516001600160e01b031663095ea7b360e01b1790526102f4888061087b565b6040518563ffffffff1660e01b815260040161031394939291906106b8565b5f604051808303815f875af115801561032e573d5f803e3d5ffd5b505050506040513d5f823e601f3d908101601f1916820160405261035591908101906107b5565b90508080602001905181019061036b9190610899565b61038857604051633662e51760e01b815260040160405180910390fd5b6040516001600160a01b03871660248201819052604482018690529063a6df3a8d9087905f9060640160408051808303601f19018152919052602080820180516311f9fbc960e21b6001600160e01b039091161790526103ea9089018961087b565b6040518563ffffffff1660e01b815260040161040994939291906106b8565b5f604051808303815f875af1158015610424573d5f803e3d5ffd5b505050506040513d5f823e601f3d908101601f1916820160405261044b91908101906107b5565b50505050505050565b61045c610496565b6001600160a01b03811661048a57604051631e4fbdf760e01b81525f60048201526024015b60405180910390fd5b610493816104c2565b50565b5f546001600160a01b0316331461021a5760405163118cdaa760e01b8152336004820152602401610481565b5f80546001600160a01b038381166001600160a01b0319831681178455604051919092169283917f8be0079c531659141344cd1fd0a4f28419497f9722a3daafe3b4186f6b6457e09190a35050565b6001600160a01b0381168114610493575f80fd5b5f805f8060808587031215610538575f80fd5b843561054381610511565b9350602085013561055381610511565b925060408501359150606085013567ffffffffffffffff811115610575575f80fd5b850160608188031215610586575f80fd5b939692955090935050565b5f805f80608085870312156105a4575f80fd5b84356105af81610511565b935060208501356105bf81610511565b925060408501359150606085013567ffffffffffffffff8111156105e1575f80fd5b850160408101871015610586575f80fd5b5f60208284031215610602575f80fd5b813561060d81610511565b9392505050565b81835281816020850137505f828201602090810191909152601f909101601f19169091010190565b5f808335601e19843603018112610651575f80fd5b830160208101925035905067ffffffffffffffff811115610670575f80fd5b8060051b3603821315610681575f80fd5b9250929050565b8183525f6001600160fb1b0383111561069f575f80fd5b8260051b80836020870137939093016020019392505050565b60018060a01b0385168152836020820152608060408201525f8351806080840152806020860160a085015e5f60a08285010152601f19601f8201168301905060a0838203016060840152833560048110610710575f80fd5b60a0820152602084013536859003601e1901811261072c575f80fd5b840160208101903567ffffffffffffffff811115610748575f80fd5b803603821315610756575f80fd5b606060c084015261076c61010084018284610614565b91505061077c604086018661063c565b838303609f190160e0850152610793838284610688565b9a9950505050505050505050565b634e487b7160e01b5f52604160045260245ffd5b5f602082840312156107c5575f80fd5b815167ffffffffffffffff808211156107dc575f80fd5b818401915084601f8301126107ef575f80fd5b815181811115610801576108016107a1565b604051601f8201601f19908116603f01168101908382118183101715610829576108296107a1565b81604052828152876020848701011115610841575f80fd5b8260208601602083015e5f928101602001929092525095945050505050565b5f60208284031215610870575f80fd5b815161060d81610511565b5f8235605e1983360301811261088f575f80fd5b9190910192915050565b5f602082840312156108a9575f80fd5b8151801515811461060d575f80fdfea2646970667358221220260b90a56d8f46d056cff708e19407483e60d00f5ff02aa9cda2276568a589ef64736f6c63430008190033","linkReferences":{}},"methodIdentifiers":{"claim(address,address,uint256,(uint8,bytes,bytes32[]))":"023042b9","deposit(address,address,uint256,(uint8,bytes,bytes32[])[2])":"c6f70721","owner()":"8da5cb5b","renounceOwnership()":"715018a6","transferOwnership(address)":"f2fde38b","withdraw(address,address,uint256,(uint8,bytes,bytes32[]))":"60ac59c1"},"id":142}