{"abi":[{"type":"constructor","inputs":[{"name":"name_","type":"string","internalType":"string"},{"name":"version_","type":"uint256","internalType":"uint256"}],"stateMutability":"nonpayable"},{"type":"function","name":"SET_ACCOUNT_INFO_ROLE","inputs":[],"outputs":[{"name":"","type":"bytes32","internalType":"bytes32"}],"stateMutability":"view"},{"type":"function","name":"SET_FLAGS_ROLE","inputs":[],"outputs":[{"name":"","type":"bytes32","internalType":"bytes32"}],"stateMutability":"view"},{"type":"function","name":"SET_WHITELIST_MERKLE_ROOT_ROLE","inputs":[],"outputs":[{"name":"","type":"bytes32","internalType":"bytes32"}],"stateMutability":"view"},{"type":"function","name":"accounts","inputs":[{"name":"account","type":"address","internalType":"address"}],"outputs":[{"name":"","type":"tuple","internalType":"struct IShareManager.AccountInfo","components":[{"name":"canDeposit","type":"bool","internalType":"bool"},{"name":"canTransfer","type":"bool","internalType":"bool"},{"name":"isBlacklisted","type":"bool","internalType":"bool"},{"name":"lockedUntil","type":"uint32","internalType":"uint32"}]}],"stateMutability":"view"},{"type":"function","name":"activeShares","inputs":[],"outputs":[{"name":"","type":"uint256","internalType":"uint256"}],"stateMutability":"view"},{"type":"function","name":"activeSharesOf","inputs":[{"name":"account","type":"address","internalType":"address"}],"outputs":[{"name":"","type":"uint256","internalType":"uint256"}],"stateMutability":"view"},{"type":"function","name":"allocateShares","inputs":[{"name":"value","type":"uint256","internalType":"uint256"}],"outputs":[],"stateMutability":"nonpayable"},{"type":"function","name":"allocatedShares","inputs":[],"outputs":[{"name":"","type":"uint256","internalType":"uint256"}],"stateMutability":"view"},{"type":"function","name":"burn","inputs":[{"name":"account","type":"address","internalType":"address"},{"name":"value","type":"uint256","internalType":"uint256"}],"outputs":[],"stateMutability":"nonpayable"},{"type":"function","name":"claimShares","inputs":[{"name":"account","type":"address","internalType":"address"}],"outputs":[],"stateMutability":"nonpayable"},{"type":"function","name":"claimableSharesOf","inputs":[{"name":"account","type":"address","internalType":"address"}],"outputs":[{"name":"","type":"uint256","internalType":"uint256"}],"stateMutability":"view"},{"type":"function","name":"flags","inputs":[],"outputs":[{"name":"f","type":"tuple","internalType":"struct IShareManager.Flags","components":[{"name":"hasMintPause","type":"bool","internalType":"bool"},{"name":"hasBurnPause","type":"bool","internalType":"bool"},{"name":"hasTransferPause","type":"bool","internalType":"bool"},{"name":"hasWhitelist","type":"bool","internalType":"bool"},{"name":"hasTransferWhitelist","type":"bool","internalType":"bool"},{"name":"globalLockup","type":"uint32","internalType":"uint32"},{"name":"targetedLockup","type":"uint32","internalType":"uint32"}]}],"stateMutability":"view"},{"type":"function","name":"initialize","inputs":[{"name":"data","type":"bytes","internalType":"bytes"}],"outputs":[],"stateMutability":"nonpayable"},{"type":"function","name":"isDepositorWhitelisted","inputs":[{"name":"account","type":"address","internalType":"address"},{"name":"merkleProof","type":"bytes32[]","internalType":"bytes32[]"}],"outputs":[{"name":"","type":"bool","internalType":"bool"}],"stateMutability":"view"},{"type":"function","name":"mint","inputs":[{"name":"account","type":"address","internalType":"address"},{"name":"value","type":"uint256","internalType":"uint256"}],"outputs":[],"stateMutability":"nonpayable"},{"type":"function","name":"mintAllocatedShares","inputs":[{"name":"account","type":"address","internalType":"address"},{"name":"value","type":"uint256","internalType":"uint256"}],"outputs":[],"stateMutability":"nonpayable"},{"type":"function","name":"setAccountInfo","inputs":[{"name":"account","type":"address","internalType":"address"},{"name":"info","type":"tuple","internalType":"struct IShareManager.AccountInfo","components":[{"name":"canDeposit","type":"bool","internalType":"bool"},{"name":"canTransfer","type":"bool","internalType":"bool"},{"name":"isBlacklisted","type":"bool","internalType":"bool"},{"name":"lockedUntil","type":"uint32","internalType":"uint32"}]}],"outputs":[],"stateMutability":"nonpayable"},{"type":"function","name":"setFlags","inputs":[{"name":"f","type":"tuple","internalType":"struct IShareManager.Flags","components":[{"name":"hasMintPause","type":"bool","internalType":"bool"},{"name":"hasBurnPause","type":"bool","internalType":"bool"},{"name":"hasTransferPause","type":"bool","internalType":"bool"},{"name":"hasWhitelist","type":"bool","internalType":"bool"},{"name":"hasTransferWhitelist","type":"bool","internalType":"bool"},{"name":"globalLockup","type":"uint32","internalType":"uint32"},{"name":"targetedLockup","type":"uint32","internalType":"uint32"}]}],"outputs":[],"stateMutability":"nonpayable"},{"type":"function","name":"setVault","inputs":[{"name":"vault_","type":"address","internalType":"address"}],"outputs":[],"stateMutability":"nonpayable"},{"type":"function","name":"setWhitelistMerkleRoot","inputs":[{"name":"newWhitelistMerkleRoot","type":"bytes32","internalType":"bytes32"}],"outputs":[],"stateMutability":"nonpayable"},{"type":"function","name":"sharesOf","inputs":[{"name":"account","type":"address","internalType":"address"}],"outputs":[{"name":"","type":"uint256","internalType":"uint256"}],"stateMutability":"view"},{"type":"function","name":"totalShares","inputs":[],"outputs":[{"name":"","type":"uint256","internalType":"uint256"}],"stateMutability":"view"},{"type":"function","name":"updateChecks","inputs":[{"name":"from","type":"address","internalType":"address"},{"name":"to","type":"address","internalType":"address"}],"outputs":[],"stateMutability":"view"},{"type":"function","name":"vault","inputs":[],"outputs":[{"name":"","type":"address","internalType":"address"}],"stateMutability":"view"},{"type":"function","name":"whitelistMerkleRoot","inputs":[],"outputs":[{"name":"","type":"bytes32","internalType":"bytes32"}],"stateMutability":"view"},{"type":"event","name":"AllocateShares","inputs":[{"name":"value","type":"int256","indexed":false,"internalType":"int256"}],"anonymous":false},{"type":"event","name":"Burn","inputs":[{"name":"account","type":"address","indexed":true,"internalType":"address"},{"name":"shares","type":"uint256","indexed":false,"internalType":"uint256"}],"anonymous":false},{"type":"event","name":"Initialized","inputs":[{"name":"version","type":"uint64","indexed":false,"internalType":"uint64"}],"anonymous":false},{"type":"event","name":"Initialized","inputs":[{"name":"initParams","type":"bytes","indexed":false,"internalType":"bytes"}],"anonymous":false},{"type":"event","name":"Mint","inputs":[{"name":"account","type":"address","indexed":true,"internalType":"address"},{"name":"shares","type":"uint256","indexed":false,"internalType":"uint256"},{"name":"lockedUntil","type":"uint32","indexed":false,"internalType":"uint32"}],"anonymous":false},{"type":"event","name":"SetAccountInfo","inputs":[{"name":"account","type":"address","indexed":true,"internalType":"address"},{"name":"info","type":"tuple","indexed":false,"internalType":"struct IShareManager.AccountInfo","components":[{"name":"canDeposit","type":"bool","internalType":"bool"},{"name":"canTransfer","type":"bool","internalType":"bool"},{"name":"isBlacklisted","type":"bool","internalType":"bool"},{"name":"lockedUntil","type":"uint32","internalType":"uint32"}]}],"anonymous":false},{"type":"event","name":"SetFlags","inputs":[{"name":"flags","type":"tuple","indexed":false,"internalType":"struct IShareManager.Flags","components":[{"name":"hasMintPause","type":"bool","internalType":"bool"},{"name":"hasBurnPause","type":"bool","internalType":"bool"},{"name":"hasTransferPause","type":"bool","internalType":"bool"},{"name":"hasWhitelist","type":"bool","internalType":"bool"},{"name":"hasTransferWhitelist","type":"bool","internalType":"bool"},{"name":"globalLockup","type":"uint32","internalType":"uint32"},{"name":"targetedLockup","type":"uint32","internalType":"uint32"}]}],"anonymous":false},{"type":"event","name":"SetVault","inputs":[{"name":"vault","type":"address","indexed":true,"internalType":"address"}],"anonymous":false},{"type":"event","name":"SetWhitelistMerkleRoot","inputs":[{"name":"newWhitelistMerkleRoot","type":"bytes32","indexed":false,"internalType":"bytes32"}],"anonymous":false},{"type":"event","name":"Transfer","inputs":[{"name":"from","type":"address","indexed":true,"internalType":"address"},{"name":"to","type":"address","indexed":true,"internalType":"address"},{"name":"value","type":"uint256","indexed":false,"internalType":"uint256"}],"anonymous":false},{"type":"error","name":"Blacklisted","inputs":[{"name":"account","type":"address","internalType":"address"}]},{"type":"error","name":"BurnPaused","inputs":[]},{"type":"error","name":"ERC20InsufficientBalance","inputs":[{"name":"sender","type":"address","internalType":"address"},{"name":"balance","type":"uint256","internalType":"uint256"},{"name":"needed","type":"uint256","internalType":"uint256"}]},{"type":"error","name":"ERC20InvalidReceiver","inputs":[{"name":"receiver","type":"address","internalType":"address"}]},{"type":"error","name":"ERC20InvalidSender","inputs":[{"name":"sender","type":"address","internalType":"address"}]},{"type":"error","name":"Forbidden","inputs":[]},{"type":"error","name":"GlobalLockupNotExpired","inputs":[{"name":"timestamp","type":"uint256","internalType":"uint256"},{"name":"globalLockup","type":"uint32","internalType":"uint32"}]},{"type":"error","name":"InsufficientAllocatedShares","inputs":[{"name":"value","type":"uint256","internalType":"uint256"},{"name":"allocated","type":"uint256","internalType":"uint256"}]},{"type":"error","name":"InvalidInitialization","inputs":[]},{"type":"error","name":"LimitExceeded","inputs":[{"name":"value","type":"uint256","internalType":"uint256"},{"name":"limit","type":"uint256","internalType":"uint256"}]},{"type":"error","name":"MintPaused","inputs":[]},{"type":"error","name":"NotInitializing","inputs":[]},{"type":"error","name":"NotWhitelisted","inputs":[{"name":"account","type":"address","internalType":"address"}]},{"type":"error","name":"TargetedLockupNotExpired","inputs":[{"name":"timestamp","type":"uint256","internalType":"uint256"},{"name":"targetedLockup","type":"uint32","internalType":"uint32"}]},{"type":"error","name":"TransferNotAllowed","inputs":[{"name":"from","type":"address","internalType":"address"},{"name":"to","type":"address","internalType":"address"}]},{"type":"error","name":"TransferPaused","inputs":[]},{"type":"error","name":"ZeroValue","inputs":[]}],"bytecode":{"object":"0x60a060405234801561000f575f80fd5b506040516120a73803806120a783398101604081905261002e916101c5565b81816100656040518060400160405280600c81526020016b29b430b932a6b0b730b3b2b960a11b815250838361007960201b60201c565b6080526100706100ea565b505050506102f7565b5f60ff5f1b19600185858560405160200161009693929190610290565b604051602081830303815290604052805190602001205f1c6100b891906102d8565b6040516020016100ca91815260200190565b604051602081830303815290604052805190602001201690509392505050565b5f6100f3610187565b805490915068010000000000000000900460ff16156101255760405163f92ee8a960e01b815260040160405180910390fd5b80546001600160401b03908116146101845780546001600160401b0319166001600160401b0390811782556040519081527fc7f505b2f371ae2175ee4913f4499e1f2633a7b5936321eed1cdaeb6115181d29060200160405180910390a15b50565b5f807ff0c57e16840df040f15088dc2f81fe391c3923bec73e23a9662efc9c229c6a005b92915050565b634e487b7160e01b5f52604160045260245ffd5b5f80604083850312156101d6575f80fd5b82516001600160401b03808211156101ec575f80fd5b818501915085601f8301126101ff575f80fd5b815181811115610211576102116101b1565b604051601f8201601f19908116603f01168101908382118183101715610239576102396101b1565b81604052828152886020848701011115610251575f80fd5b8260208601602083015e5f602084830101528096505050505050602083015190509250929050565b5f81518060208401855e5f93019283525090919050565b7f6d656c6c6f772e666c657869626c652d7661756c74732e73746f726167652e0081525f6102ca6102c4601f840187610279565b85610279565b928352505060200192915050565b818103818111156101ab57634e487b7160e01b5f52601160045260245ffd5b608051611d9861030f5f395f6114f10152611d985ff3fe608060405234801561000f575f80fd5b506004361061016d575f3560e01c80638027e64d116100d9578063bd32fb6611610093578063f31cb0c61161006e578063f31cb0c614610376578063f5eb42dc14610389578063f8d21fed1461039c578063fbfa77cf146103af575f80fd5b8063bd32fb6614610348578063bdef952f1461035b578063bfefcd7b1461036e575f80fd5b80638027e64d146102c4578063837b820c146102eb5780638c4429e9146103125780639d66201b1461031a5780639dc29fac1461032d578063aa98e0c614610340575f80fd5b8063439fab911161012a578063439fab91146101fd57806346d261ae146102105780635e5c06e2146102375780636279d8af1461028957806364cc4aa51461029c5780636817031b146102b1575f80fd5b8063141caa0e146101715780631c14724f1461018657806321896ab1146101ac57806331d3a224146101bf5780633a98ef39146101e257806340c10f19146101ea575b5f80fd5b61018461017f3660046118a5565b6103cf565b005b6101996101943660046118d7565b6104df565b6040519081526020015b60405180910390f35b6101846101ba36600461191e565b610558565b6101d26101cd3660046119cb565b61070a565b60405190151581526020016101a3565b6101996107f7565b6101846101f8366004611a4a565b61081b565b61018461020b366004611a72565b6109f3565b6101997f78b235a1fa2fd5e00dba7867d599bed6f088684010a7fee7b9fe05fa1082d01e81565b61024a6102453660046118d7565b610b31565b6040516101a3919081511515815260208083015115159082015260408083015115159082015260609182015163ffffffff169181019190915260800190565b610184610297366004611ade565b610bc7565b6102a4610ef3565b6040516101a39190611b0f565b6101846102bf3660046118d7565b610f9e565b6101997fca196afb47c2d16c8388ba0ef201b98a808acb83a856576ffc57360840a5fd9981565b6101997f58258f737b9cea9d7da81a3a12943f800a9668a2494235fec0d84cc60ad04cff81565b610199611041565b6101996103283660046118d7565b611053565b61018461033b366004611a4a565b611079565b610199611185565b6101846103563660046118a5565b611197565b610184610369366004611a4a565b61129f565b610199611342565b6101846103843660046118d7565b611356565b6101996103973660046118d7565b6113b2565b6101846103aa366004611b7a565b6113cf565b6103b76114d7565b6040516001600160a01b0390911681526020016101a3565b6103d76114ef565b546001600160a01b0316634b694b96336040516001600160e01b031960e084901b1681526001600160a01b039091166004820152602401602060405180830381865afa158015610429573d5f803e3d5ffd5b505050506040513d601f19601f8201168201806040525081019061044d9190611b90565b61046a57604051631dd2188d60e31b815260040160405180910390fd5b805f0361048a57604051637c946ed760e01b815260040160405180910390fd5b806104936114ef565b6002015f8282546104a49190611bbf565b90915550506040518181527f3b0e13a89616dde4b6c088789bed03010da2881f275d5b73f0905e611aa8fd8b9060200160405180910390a150565b5f6104e86114ef565b54604051631c14724f60e01b81526001600160a01b03848116600483015290911690631c14724f90602401602060405180830381865afa15801561052e573d5f803e3d5ffd5b505050506040513d601f19601f820116820180604052508101906105529190611bd2565b92915050565b7f58258f737b9cea9d7da81a3a12943f800a9668a2494235fec0d84cc60ad04cff6105816114ef565b546001600160a01b03166391d1485482336040516001600160e01b031960e085901b16815260048101929092526001600160a01b03166024820152604401602060405180830381865afa1580156105da573d5f803e3d5ffd5b505050506040513d601f19601f820116820180604052508101906105fe9190611b90565b61061b57604051631dd2188d60e31b815260040160405180910390fd5b816106246114ef565b6001600160a01b0385165f818152600492909201602090815260409283902084518154868401518787015160609889015161ffff1990931693151561ff00191693909317610100911515919091021766ffffffffff00001916620100009215159290920266ffffffff000000191691909117630100000063ffffffff92831602179091558351875115158152878301511515928101929092528684015115159382019390935285840151909216928201929092527f52bb128546c9a521166ecb2bb99336013d0d56f58d1e81363f6f862df749a4919060800160405180910390a2505050565b5f806107146114ef565b90506107268160010154600816151590565b801561074c57506001600160a01b0385165f90815260048201602052604090205460ff16155b1561075a575f9150506107f0565b60038101548015806107eb57506107eb8585808060200260200160405190810160405280939291908181526020018383602002808284375f9201919091525050604080516001600160a01b038c16602082015286935001905060408051601f198184030181528282528051602091820120908301520160405160208183030381529060405280519060200120611513565b925050505b9392505050565b5f610800611342565b6108086114ef565b600201546108169190611bbf565b905090565b335f6108256114d7565b9050806001600160a01b0316826001600160a01b0316141580156108ae57506040516325b4a5cb60e11b81526001600160a01b038381166004830152821690634b694b9690602401602060405180830381865afa158015610888573d5f803e3d5ffd5b505050506040513d601f19601f820116820180604052508101906108ac9190611b90565b155b156108cc57604051631dd2188d60e31b815260040160405180910390fd5b825f036108ec57604051637c946ed760e01b815260040160405180910390fd5b6108f68484611528565b5f6108ff6114ef565b90505f610910826001015460251c90565b905063ffffffff8116156109a7575f6109298242611be9565b6001600160a01b0388165f818152600486016020908152604091829020805466ffffffff0000001916630100000063ffffffff87169081029190911790915582518b81529182015292935090917f42810bc690fb4c2a145be3ad30e7230a3441ab6625e2faa52bcc247e14ae6451910160405180910390a2506109eb565b604080518681525f60208201526001600160a01b038816917f42810bc690fb4c2a145be3ad30e7230a3441ab6625e2faa52bcc247e14ae6451910160405180910390a25b505050505050565b5f6109fc6115f3565b805490915060ff600160401b820416159067ffffffffffffffff165f81158015610a235750825b90505f8267ffffffffffffffff166001148015610a3f5750303b155b905081158015610a4d575080155b15610a6b5760405163f92ee8a960e01b815260040160405180910390fd5b845467ffffffffffffffff191660011785558315610a9557845460ff60401b1916600160401b1785555b610aa9610aa4878901896118a5565b61161b565b7f5e399709a9ff1709f6f6be7268c8e5c3eeaa9da9cd9797e78f07ef287c3717fe8787604051610ada929190611c06565b60405180910390a18315610b2857845460ff60401b19168555604051600181527fc7f505b2f371ae2175ee4913f4499e1f2633a7b5936321eed1cdaeb6115181d29060200160405180910390a15b50505050505050565b604080516080810182525f808252602082018190529181018290526060810191909152610b5c6114ef565b6001600160a01b03929092165f908152600490920160209081526040928390208351608081018552905460ff80821615158352610100820481161515938301939093526201000081049092161515938101939093526301000000900463ffffffff1660608301525090565b5f610bd06114ef565b6001810154604080516080810182525f808252602082018190529181018290526060810191909152919250906001600160a01b03851615610deb57506001600160a01b0384165f9081526004830160209081526040918290208251608081018452905460ff80821615158352610100820481161515938301939093526201000081049092161515928101929092526301000000900463ffffffff166060820152600582901c63ffffffff16421015610cba5742610c8d8360051c90565b60405163114c80df60e11b8152600481019290925263ffffffff1660248201526044015b60405180910390fd5b806060015163ffffffff16421015610cf957606081015160405163768cbff560e11b815242600482015263ffffffff9091166024820152604401610cb1565b806040015115610d2a576040516001620b633d60e31b031981526001600160a01b0386166004820152602401610cb1565b6001600160a01b03841615610dc9576004821615610d5b5760405163cd1fda9f60e01b815260040160405180910390fd5b6010821615610dc457806020015180610d9357506001600160a01b0384165f908152600484016020526040902054610100900460ff16155b15610dc457604051638fd7fe1b60e01b81526001600160a01b03808716600483015285166024820152604401610cb1565b610eec565b6002821615610dc457604051630fb9408f60e41b815260040160405180910390fd5b6001821615610e0d57604051636be9245d60e11b815260040160405180910390fd5b6001600160a01b03841615610eec57506001600160a01b0383165f9081526004830160209081526040918290208251608081018452905460ff80821615158352610100820481161515938301939093526201000081049092161515928101929092526301000000900463ffffffff1660608201526008821615158015610e9257508051155b15610ebb57604051636f8bf18b60e11b81526001600160a01b0385166004820152602401610cb1565b806040015115610eec576040516001620b633d60e31b031981526001600160a01b0385166004820152602401610cb1565b5050505050565b6040805160e0810182525f80825260208201819052918101829052606081018290526080810182905260a0810182905260c0810182905290610f336114ef565b600101549050610f4581600116151590565b151582526002811615156020830152600481161515604083015260088116151560608301526010811615156080830152600581901c63ffffffff1660a0830152610f8f8160251c90565b63ffffffff1660c08301525090565b6001600160a01b038116610fc557604051637c946ed760e01b815260040160405180910390fd5b5f610fce6114ef565b80549091506001600160a01b031615610ffa5760405163f92ee8a960e01b815260040160405180910390fd5b80546001600160a01b0319166001600160a01b03831690811782556040517fd459c7242e23d490831b5676a611c4342d899d28f342d89ae80793e56a930f30905f90a25050565b5f61104a6114ef565b60020154905090565b6001600160a01b03165f9081525f80516020611d43833981519152602052604090205490565b6110816114ef565b546001600160a01b0316634b694b96336040516001600160e01b031960e084901b1681526001600160a01b039091166004820152602401602060405180830381865afa1580156110d3573d5f803e3d5ffd5b505050506040513d601f19601f820116820180604052508101906110f79190611b90565b61111457604051631dd2188d60e31b815260040160405180910390fd5b805f0361113457604051637c946ed760e01b815260040160405180910390fd5b61113e8282611633565b816001600160a01b03167fcc16f5dbb4873280815c1ee09dbd06736cffcc184412cf7a71a0fdb75d397ca58260405161117991815260200190565b60405180910390a25050565b5f61118e6114ef565b60030154905090565b7fca196afb47c2d16c8388ba0ef201b98a808acb83a856576ffc57360840a5fd996111c06114ef565b546001600160a01b03166391d1485482336040516001600160e01b031960e085901b16815260048101929092526001600160a01b03166024820152604401602060405180830381865afa158015611219573d5f803e3d5ffd5b505050506040513d601f19601f8201168201806040525081019061123d9190611b90565b61125a57604051631dd2188d60e31b815260040160405180910390fd5b816112636114ef565b600301556040518281527f632b0f6532084e9afddeadf7a5c751a706e124066b1419275caa8c025ae44e61906020015b60405180910390a15050565b5f6112a86114ef565b905080600201548211156112df576002810154604051633cdf8f8760e11b8152610cb1918491600401918252602082015260400190565b81816002015f8282546112f29190611c34565b909155507f3b0e13a89616dde4b6c088789bed03010da2881f275d5b73f0905e611aa8fd8b905061132283611c47565b60405190815260200160405180910390a161133d838361081b565b505050565b5f5f80516020611d4383398151915261104a565b61135e6114d7565b60405163798e586360e11b81526001600160a01b038381166004830152919091169063f31cb0c6906024015f604051808303815f87803b1580156113a0575f80fd5b505af1158015610eec573d5f803e3d5ffd5b5f6113bc826104df565b6113c583611053565b6105529190611bbf565b7f78b235a1fa2fd5e00dba7867d599bed6f088684010a7fee7b9fe05fa1082d01e6113f86114ef565b546001600160a01b03166391d1485482336040516001600160e01b031960e085901b16815260048101929092526001600160a01b03166024820152604401602060405180830381865afa158015611451573d5f803e3d5ffd5b505050506040513d601f19601f820116820180604052508101906114759190611b90565b61149257604051631dd2188d60e31b815260040160405180910390fd5b61149b82611727565b6114a36114ef565b600101556040517f474b110852c7a5280036d98a0958a1d1669990762b636c0320667ac9b346970990611293908490611c61565b5f6114e06114ef565b546001600160a01b0316919050565b7f000000000000000000000000000000000000000000000000000000000000000090565b5f8261151f85846117fa565b14949350505050565b6001600160a01b0382166115515760405163ec442f0560e01b81525f6004820152602401610cb1565b61155b5f83610bc7565b7f52c63247e1f47db19d5ce0460030c497f067ca4cebf71ba98eeadabe20bace0280545f80516020611d438339815191529183915f9061159c908490611bbf565b90915550506001600160a01b0383165f81815260208381526040808320805487019055518581527fddf252ad1be2c89b69c2b068fc378daa952ba7f163c4a11628f55a4df523b3ef910160405180910390a3505050565b5f807ff0c57e16840df040f15088dc2f81fe391c3923bec73e23a9662efc9c229c6a00610552565b61162361183c565b8061162c6114ef565b6003015550565b6001600160a01b03821661165c57604051634b637e8f60e11b81525f6004820152602401610cb1565b611666825f610bc7565b6001600160a01b0382165f9081525f80516020611d438339815191526020819052604090912054828110156116c75760405163391434e360e21b81526001600160a01b03851660048201526024810182905260448101849052606401610cb1565b6001600160a01b0384165f8181526020848152604080832087860390556002860180548890039055518681529192917fddf252ad1be2c89b69c2b068fc378daa952ba7f163c4a11628f55a4df523b3ef910160405180910390a350505050565b5f602561173a60e0840160c08501611cfa565b63ffffffff16901b600561175460c0850160a08601611cfa565b63ffffffff16901b61176c60a0850160808601611d13565b611776575f611779565b60105b6117896080860160608701611d13565b611793575f611796565b60085b6117a66060870160408801611d13565b6117b0575f6117b3565b60045b6117c36040880160208901611d13565b6117cd575f6117d0565b60025b6117dd6020890189611d13565b6117e7575f6117ea565b60015b1717171760ff1617179050919050565b5f81815b84518110156118345761182a8286838151811061181d5761181d611d2e565b6020026020010151611863565b91506001016117fe565b509392505050565b61184461188c565b61186157604051631afcd79f60e31b815260040160405180910390fd5b565b5f81831061187d575f8281526020849052604090206107f0565b505f9182526020526040902090565b5f6118956115f3565b54600160401b900460ff16919050565b5f602082840312156118b5575f80fd5b5035919050565b80356001600160a01b03811681146118d2575f80fd5b919050565b5f602082840312156118e7575f80fd5b6107f0826118bc565b80151581146118fd575f80fd5b50565b80356118d2816118f0565b803563ffffffff811681146118d2575f80fd5b5f8082840360a0811215611930575f80fd5b611939846118bc565b92506080601f198201121561194c575f80fd5b506040516080810181811067ffffffffffffffff8211171561197c57634e487b7160e01b5f52604160045260245ffd5b60405261198b60208501611900565b815261199960408501611900565b60208201526119aa60608501611900565b60408201526119bb6080850161190b565b6060820152809150509250929050565b5f805f604084860312156119dd575f80fd5b6119e6846118bc565b9250602084013567ffffffffffffffff80821115611a02575f80fd5b818601915086601f830112611a15575f80fd5b813581811115611a23575f80fd5b8760208260051b8501011115611a37575f80fd5b6020830194508093505050509250925092565b5f8060408385031215611a5b575f80fd5b611a64836118bc565b946020939093013593505050565b5f8060208385031215611a83575f80fd5b823567ffffffffffffffff80821115611a9a575f80fd5b818501915085601f830112611aad575f80fd5b813581811115611abb575f80fd5b866020828501011115611acc575f80fd5b60209290920196919550909350505050565b5f8060408385031215611aef575f80fd5b611af8836118bc565b9150611b06602084016118bc565b90509250929050565b5f60e08201905082511515825260208301511515602083015260408301511515604083015260608301511515606083015260808301511515608083015263ffffffff60a08401511660a083015260c0830151611b7360c084018263ffffffff169052565b5092915050565b5f60e08284031215611b8a575f80fd5b50919050565b5f60208284031215611ba0575f80fd5b81516107f0816118f0565b634e487b7160e01b5f52601160045260245ffd5b8082018082111561055257610552611bab565b5f60208284031215611be2575f80fd5b5051919050565b63ffffffff818116838216019080821115611b7357611b73611bab565b60208152816020820152818360408301375f818301604090810191909152601f909201601f19160101919050565b8181038181111561055257610552611bab565b5f600160ff1b8201611c5b57611c5b611bab565b505f0390565b60e081018235611c70816118f0565b151582526020830135611c82816118f0565b151560208301526040830135611c97816118f0565b151560408301526060830135611cac816118f0565b15156060830152611cbf60808401611900565b15156080830152611cd260a0840161190b565b63ffffffff1660a0830152611ce960c0840161190b565b63ffffffff811660c0840152611b73565b5f60208284031215611d0a575f80fd5b6107f08261190b565b5f60208284031215611d23575f80fd5b81356107f0816118f0565b634e487b7160e01b5f52603260045260245ffdfe52c63247e1f47db19d5ce0460030c497f067ca4cebf71ba98eeadabe20bace00a2646970667358221220470ab4afe313873be6f3a5bb385b013f1f87fde8b8c438b1a712cf47d6fe86a264736f6c63430008190033","linkReferences":{}},"methodIdentifiers":{"SET_ACCOUNT_INFO_ROLE()":"837b820c","SET_FLAGS_ROLE()":"46d261ae","SET_WHITELIST_MERKLE_ROOT_ROLE()":"8027e64d","accounts(address)":"5e5c06e2","activeShares()":"bfefcd7b","activeSharesOf(address)":"9d66201b","allocateShares(uint256)":"141caa0e","allocatedShares()":"8c4429e9","burn(address,uint256)":"9dc29fac","claimShares(address)":"f31cb0c6","claimableSharesOf(address)":"1c14724f","flags()":"64cc4aa5","initialize(bytes)":"439fab91","isDepositorWhitelisted(address,bytes32[])":"31d3a224","mint(address,uint256)":"40c10f19","mintAllocatedShares(address,uint256)":"bdef952f","setAccountInfo(address,(bool,bool,bool,uint32))":"21896ab1","setFlags((bool,bool,bool,bool,bool,uint32,uint32))":"f8d21fed","setVault(address)":"6817031b","setWhitelistMerkleRoot(bytes32)":"bd32fb66","sharesOf(address)":"f5eb42dc","totalShares()":"3a98ef39","updateChecks(address,address)":"6279d8af","vault()":"fbfa77cf","whitelistMerkleRoot()":"aa98e0c6"},"id":115}