{"abi":[{"type":"constructor","inputs":[{"name":"wsteth_","type":"address","internalType":"address"},{"name":"weth_","type":"address","internalType":"address"},{"name":"nextHook_","type":"address","internalType":"address"}],"stateMutability":"nonpayable"},{"type":"function","name":"callHook","inputs":[{"name":"asset","type":"address","internalType":"address"},{"name":"assets","type":"uint256","internalType":"uint256"}],"outputs":[],"stateMutability":"nonpayable"},{"type":"function","name":"nextHook","inputs":[],"outputs":[{"name":"","type":"address","internalType":"address"}],"stateMutability":"view"},{"type":"function","name":"steth","inputs":[],"outputs":[{"name":"","type":"address","internalType":"address"}],"stateMutability":"view"},{"type":"function","name":"weth","inputs":[],"outputs":[{"name":"","type":"address","internalType":"address"}],"stateMutability":"view"},{"type":"function","name":"wsteth","inputs":[],"outputs":[{"name":"","type":"address","internalType":"address"}],"stateMutability":"view"},{"type":"error","name":"AddressEmptyCode","inputs":[{"name":"target","type":"address","internalType":"address"}]},{"type":"error","name":"FailedCall","inputs":[]},{"type":"error","name":"InsufficientBalance","inputs":[{"name":"balance","type":"uint256","internalType":"uint256"},{"name":"needed","type":"uint256","internalType":"uint256"}]},{"type":"error","name":"SafeERC20FailedOperation","inputs":[{"name":"token","type":"address","internalType":"address"}]},{"type":"error","name":"UnsupportedAsset","inputs":[{"name":"asset","type":"address","internalType":"address"}]}],"bytecode":{"object":"0x610100604052348015610010575f80fd5b50604051610b98380380610b9883398101604081905261002f916100d4565b6001600160a01b03831660808190526040805163183fc7c960e31b8152905163c1fe3e48916004808201926020929091908290030181865afa158015610077573d5f803e3d5ffd5b505050506040513d601f19601f8201168201806040525081019061009b9190610114565b6001600160a01b0390811660a05291821660c0521660e05250610134565b80516001600160a01b03811681146100cf575f80fd5b919050565b5f805f606084860312156100e6575f80fd5b6100ef846100b9565b92506100fd602085016100b9565b915061010b604085016100b9565b90509250925092565b5f60208284031215610124575f80fd5b61012d826100b9565b9392505050565b60805160a05160c05160e0516109d96101bf5f395f818160c8015281816104c6015261053201525f8181605e01528181610306015261035301525f818160a1015281816101eb015261022f01525f81816101040152818161012801528181610176015281816102510152818161028c0152818161040901528181610445015261050001526109d95ff3fe608060405234801561000f575f80fd5b5060043610610055575f3560e01c80633fc8cef314610059578063953d7ee21461009c578063b17af3c0146100c3578063c3dcdb04146100ea578063d1d8bce7146100ff575b5f80fd5b6100807f000000000000000000000000000000000000000000000000000000000000000081565b6040516001600160a01b03909116815260200160405180910390f35b6100807f000000000000000000000000000000000000000000000000000000000000000081565b6100807f000000000000000000000000000000000000000000000000000000000000000081565b6100fd6100f8366004610907565b610126565b005b6100807f000000000000000000000000000000000000000000000000000000000000000081565b7f00000000000000000000000000000000000000000000000000000000000000006001600160a01b0316826001600160a01b0316146104c4576040516370a0823160e01b81523060048201525f907f00000000000000000000000000000000000000000000000000000000000000006001600160a01b0316906370a0823190602401602060405180830381865afa1580156101c3573d5f803e3d5ffd5b505050506040513d601f19601f820116820180604052508101906101e7919061093c565b90507f00000000000000000000000000000000000000000000000000000000000000006001600160a01b0316836001600160a01b031603610304576102766001600160a01b037f0000000000000000000000000000000000000000000000000000000000000000167f00000000000000000000000000000000000000000000000000000000000000008461058a565b604051630ea598cb60e41b8152600481018390527f00000000000000000000000000000000000000000000000000000000000000006001600160a01b03169063ea598cb0906024016020604051808303815f875af11580156102da573d5f803e3d5ffd5b505050506040513d601f19601f820116820180604052508101906102fe919061093c565b5061042e565b7f00000000000000000000000000000000000000000000000000000000000000006001600160a01b0316836001600160a01b0316036103b757604051632e1a7d4d60e01b8152600481018390527f00000000000000000000000000000000000000000000000000000000000000006001600160a01b031690632e1a7d4d906024015f604051808303815f87803b15801561039c575f80fd5b505af11580156103ae573d5f803e3d5ffd5b50505050610404565b6001600160a01b03831673eeeeeeeeeeeeeeeeeeeeeeeeeeeeeeeeeeeeeeee146104045760405163ee84f40b60e01b81526001600160a01b03841660048201526024015b60405180910390fd5b61042e7f000000000000000000000000000000000000000000000000000000000000000083610617565b6040516370a0823160e01b815230600482015281907f00000000000000000000000000000000000000000000000000000000000000006001600160a01b0316906370a0823190602401602060405180830381865afa158015610492573d5f803e3d5ffd5b505050506040513d601f19601f820116820180604052508101906104b6919061093c565b6104c09190610967565b9150505b7f00000000000000000000000000000000000000000000000000000000000000006001600160a01b031615610586576040516001600160a01b037f000000000000000000000000000000000000000000000000000000000000000016602482015260448101829052610584907f00000000000000000000000000000000000000000000000000000000000000009060640160408051601f198184030181529190526020810180516001600160e01b03166330f736c160e21b1790526106a3565b505b5050565b604051636eb1769f60e11b81523060048201526001600160a01b0383811660248301525f919085169063dd62ed3e90604401602060405180830381865afa1580156105d7573d5f803e3d5ffd5b505050506040513d601f19601f820116820180604052508101906105fb919061093c565b9050610611848461060c858561097a565b610717565b50505050565b804710156106415760405163cf47918160e01b8152476004820152602481018290526044016103fb565b5f80836001600160a01b0316836040515f6040518083038185875af1925050503d805f811461068b576040519150601f19603f3d011682016040523d82523d5f602084013e610690565b606091505b50915091508161061157610611816107ca565b60605f80846001600160a01b0316846040516106bf919061098d565b5f60405180830381855af49150503d805f81146106f7576040519150601f19603f3d011682016040523d82523d5f602084013e6106fc565b606091505b509150915061070c8583836107f3565b925050505b92915050565b604080516001600160a01b038416602482015260448082018490528251808303909101815260649091019091526020810180516001600160e01b031663095ea7b360e01b1790526107688482610852565b61061157604080516001600160a01b03851660248201525f6044808301919091528251808303909101815260649091019091526020810180516001600160e01b031663095ea7b360e01b1790526107c090859061089b565b610611848261089b565b8051156107da5780518082602001fd5b60405163d6bda27560e01b815260040160405180910390fd5b60608261080857610803826107ca565b61084b565b815115801561081f57506001600160a01b0384163b155b1561084857604051639996b31560e01b81526001600160a01b03851660048201526024016103fb565b50805b9392505050565b5f805f8060205f8651602088015f8a5af192503d91505f519050828015610891575081156108835780600114610891565b5f866001600160a01b03163b115b9695505050505050565b5f8060205f8451602086015f885af1806108ba576040513d5f823e3d81fd5b50505f513d915081156108d15780600114156108de565b6001600160a01b0384163b155b1561061157604051635274afe760e01b81526001600160a01b03851660048201526024016103fb565b5f8060408385031215610918575f80fd5b82356001600160a01b038116811461092e575f80fd5b946020939093013593505050565b5f6020828403121561094c575f80fd5b5051919050565b634e487b7160e01b5f52601160045260245ffd5b8181038181111561071157610711610953565b8082018082111561071157610711610953565b5f82518060208501845e5f92019182525091905056fea264697066735822122031e2f54b2d1d52c4e0530e7c11fb91f85dae3e9b0bab2480caf9cce79e154c1864736f6c63430008190033","linkReferences":{}},"methodIdentifiers":{"callHook(address,uint256)":"c3dcdb04","nextHook()":"b17af3c0","steth()":"953d7ee2","weth()":"3fc8cef3","wsteth()":"d1d8bce7"},"id":75}