{"abi":[{"type":"constructor","inputs":[{"name":"name_","type":"string","internalType":"string"},{"name":"version_","type":"uint256","internalType":"uint256"}],"stateMutability":"nonpayable"},{"type":"receive","stateMutability":"payable"},{"type":"function","name":"asset","inputs":[],"outputs":[{"name":"","type":"address","internalType":"address"}],"stateMutability":"view"},{"type":"function","name":"batchAt","inputs":[{"name":"index","type":"uint256","internalType":"uint256"}],"outputs":[{"name":"assets","type":"uint256","internalType":"uint256"},{"name":"shares","type":"uint256","internalType":"uint256"}],"stateMutability":"view"},{"type":"function","name":"canBeRemoved","inputs":[],"outputs":[{"name":"","type":"bool","internalType":"bool"}],"stateMutability":"view"},{"type":"function","name":"claim","inputs":[{"name":"receiver","type":"address","internalType":"address"},{"name":"timestamps","type":"uint32[]","internalType":"uint32[]"}],"outputs":[{"name":"assets","type":"uint256","internalType":"uint256"}],"stateMutability":"nonpayable"},{"type":"function","name":"getState","inputs":[],"outputs":[{"name":"","type":"uint256","internalType":"uint256"},{"name":"","type":"uint256","internalType":"uint256"},{"name":"","type":"uint256","internalType":"uint256"},{"name":"","type":"uint256","internalType":"uint256"}],"stateMutability":"view"},{"type":"function","name":"handleBatches","inputs":[{"name":"batches","type":"uint256","internalType":"uint256"}],"outputs":[{"name":"counter","type":"uint256","internalType":"uint256"}],"stateMutability":"nonpayable"},{"type":"function","name":"handleReport","inputs":[{"name":"priceD18","type":"uint224","internalType":"uint224"},{"name":"timestamp","type":"uint32","internalType":"uint32"}],"outputs":[],"stateMutability":"nonpayable"},{"type":"function","name":"initialize","inputs":[{"name":"data","type":"bytes","internalType":"bytes"}],"outputs":[],"stateMutability":"nonpayable"},{"type":"function","name":"redeem","inputs":[{"name":"shares","type":"uint256","internalType":"uint256"}],"outputs":[],"stateMutability":"nonpayable"},{"type":"function","name":"requestsOf","inputs":[{"name":"account","type":"address","internalType":"address"},{"name":"offset","type":"uint256","internalType":"uint256"},{"name":"limit","type":"uint256","internalType":"uint256"}],"outputs":[{"name":"requests","type":"tuple[]","internalType":"struct IRedeemQueue.Request[]","components":[{"name":"timestamp","type":"uint256","internalType":"uint256"},{"name":"shares","type":"uint256","internalType":"uint256"},{"name":"isClaimable","type":"bool","internalType":"bool"},{"name":"assets","type":"uint256","internalType":"uint256"}]}],"stateMutability":"view"},{"type":"function","name":"vault","inputs":[],"outputs":[{"name":"","type":"address","internalType":"address"}],"stateMutability":"view"},{"type":"event","name":"Initialized","inputs":[{"name":"version","type":"uint64","indexed":false,"internalType":"uint64"}],"anonymous":false},{"type":"event","name":"Initialized","inputs":[{"name":"initParams","type":"bytes","indexed":false,"internalType":"bytes"}],"anonymous":false},{"type":"event","name":"RedeemRequestClaimed","inputs":[{"name":"account","type":"address","indexed":true,"internalType":"address"},{"name":"receiver","type":"address","indexed":true,"internalType":"address"},{"name":"assets","type":"uint256","indexed":false,"internalType":"uint256"},{"name":"timestamp","type":"uint32","indexed":false,"internalType":"uint32"}],"anonymous":false},{"type":"event","name":"RedeemRequested","inputs":[{"name":"account","type":"address","indexed":true,"internalType":"address"},{"name":"shares","type":"uint256","indexed":false,"internalType":"uint256"},{"name":"timestamp","type":"uint256","indexed":false,"internalType":"uint256"}],"anonymous":false},{"type":"event","name":"RedeemRequestsHandled","inputs":[{"name":"counter","type":"uint256","indexed":false,"internalType":"uint256"},{"name":"demand","type":"uint256","indexed":false,"internalType":"uint256"}],"anonymous":false},{"type":"event","name":"ReportHandled","inputs":[{"name":"priceD18","type":"uint224","indexed":false,"internalType":"uint224"},{"name":"timestamp","type":"uint32","indexed":false,"internalType":"uint32"}],"anonymous":false},{"type":"error","name":"CheckpointUnorderedInsertion","inputs":[]},{"type":"error","name":"FailedCall","inputs":[]},{"type":"error","name":"Forbidden","inputs":[]},{"type":"error","name":"InsufficientBalance","inputs":[{"name":"balance","type":"uint256","internalType":"uint256"},{"name":"needed","type":"uint256","internalType":"uint256"}]},{"type":"error","name":"InvalidInitialization","inputs":[]},{"type":"error","name":"InvalidReport","inputs":[]},{"type":"error","name":"NotInitializing","inputs":[]},{"type":"error","name":"QueuePaused","inputs":[]},{"type":"error","name":"ReentrancyGuardReentrantCall","inputs":[]},{"type":"error","name":"SafeERC20FailedOperation","inputs":[{"name":"token","type":"address","internalType":"address"}]},{"type":"error","name":"ZeroValue","inputs":[]}],"bytecode":{"object":"0x60c060405234801561000f575f80fd5b506040516128bf3803806128bf83398101604081905261002e916101ef565b818161005e60405180604001604052806005815260200164517565756560d81b81525083836100a360201b60201c565b608052610069610114565b505060408051808201909152600b81526a52656465656d517565756560a81b60208201526100989083836100a3565b60a052506103219050565b5f60ff5f1b1960018585856040516020016100c0939291906102ba565b604051602081830303815290604052805190602001205f1c6100e29190610302565b6040516020016100f491815260200190565b604051602081830303815290604052805190602001201690509392505050565b5f61011d6101b1565b805490915068010000000000000000900460ff161561014f5760405163f92ee8a960e01b815260040160405180910390fd5b80546001600160401b03908116146101ae5780546001600160401b0319166001600160401b0390811782556040519081527fc7f505b2f371ae2175ee4913f4499e1f2633a7b5936321eed1cdaeb6115181d29060200160405180910390a15b50565b5f807ff0c57e16840df040f15088dc2f81fe391c3923bec73e23a9662efc9c229c6a005b92915050565b634e487b7160e01b5f52604160045260245ffd5b5f8060408385031215610200575f80fd5b82516001600160401b0380821115610216575f80fd5b818501915085601f830112610229575f80fd5b81518181111561023b5761023b6101db565b604051601f8201601f19908116603f01168101908382118183101715610263576102636101db565b8160405282815288602084870101111561027b575f80fd5b8260208601602083015e5f602084830101528096505050505050602083015190509250929050565b5f81518060208401855e5f93019283525090919050565b7f6d656c6c6f772e666c657869626c652d7661756c74732e73746f726167652e0081525f6102f46102ee601f8401876102a3565b856102a3565b928352505060200192915050565b818103818111156101d557634e487b7160e01b5f52601160045260245ffd5b60805160a05161252a6103955f395f818160b6015281816104c30152818161054401528181610772015281816107eb01528181610dc301528181610f8d01526113fe01525f81816102840152818161079b01528181610de9015281816112f80152818161139c0152611421015261252a5ff3fe60806040526004361061009d575f3560e01c8063c12e43e611610062578063c12e43e6146101b3578063c2f21896146101e0578063d493597214610204578063db006a7514610230578063ed1bccd91461024f578063fbfa77cf1461026e575f80fd5b80631865c57d146100a857806338d52e0f14610113578063439fab911461013f578063b8c5ea8a14610160578063bdec525a1461017f575f80fd5b366100a457005b5f80fd5b3480156100b3575f80fd5b507f0000000000000000000000000000000000000000000000000000000000000000600181015460068201546002830154600390930154919290916040805194855260208501939093529183015260608201526080015b60405180910390f35b34801561011e575f80fd5b50610127610282565b6040516001600160a01b03909116815260200161010a565b34801561014a575f80fd5b5061015e61015936600461207d565b6102b0565b005b34801561016b575f80fd5b5061015e61017a3660046120fc565b6103f9565b34801561018a575f80fd5b5061019e61019936600461213a565b6104c1565b6040805192835260208301919091520161010a565b3480156101be575f80fd5b506101d26101cd366004612165565b610534565b60405190815260200161010a565b3480156101eb575f80fd5b506101f4610770565b604051901515815260200161010a565b34801561020f575f80fd5b5061022361021e3660046121e6565b6107db565b60405161010a9190612218565b34801561023b575f80fd5b5061015e61024a36600461213a565b610a92565b34801561025a575f80fd5b506101d261026936600461213a565b610f82565b348015610279575f80fd5b506101276112f4565b7f0000000000000000000000000000000000000000000000000000000000000000546001600160a01b031690565b5f6102b9611325565b805490915060ff600160401b820416159067ffffffffffffffff165f811580156102e05750825b90505f8267ffffffffffffffff1660011480156102fc5750303b155b90508115801561030a575080155b156103285760405163f92ee8a960e01b815260040160405180910390fd5b845467ffffffffffffffff19166001178555831561035257845460ff60401b1916600160401b1785555b5f80610360888a018a612291565b509150915061036f828261134f565b7f5e399709a9ff1709f6f6be7268c8e5c3eeaa9da9cd9797e78f07ef287c3717fe89896040516103a0929190612360565b60405180910390a1505083156103f057845460ff60401b19168555604051600181527fc7f505b2f371ae2175ee4913f4499e1f2633a7b5936321eed1cdaeb6115181d29060200160405180910390a15b50505050505050565b6104016112f4565b6001600160a01b0316336001600160a01b03161461043257604051631dd2188d60e31b815260040160405180910390fd5b6001600160e01b038216158061044e5750428163ffffffff1610155b1561046c57604051632d56b1d560e21b815260040160405180910390fd5b61047682826113fc565b604080516001600160e01b038416815263ffffffff831660208201527fe77959fec4c88854df13b1bb591bdba32c0915ce12f89d2fae561946b20dfa4f910160405180910390a15050565b7f000000000000000000000000000000000000000000000000000000000000000060068101545f91829184106104fc57505f93849350915050565b5f8160060185815481106105125761051261238e565b905f5260205f2090600202019050805f01548160010154935093505050915091565b5f61053d6115c9565b335f8181527f0000000000000000000000000000000000000000000000000000000000000000600481016020526040822090929161057d60078501611600565b509150508063ffffffff165f0361059a575f945050505050610753565b60018401545f5b8781101561073a575f8989838181106105bc576105bc61238e565b90506020020160208101906105d191906123a2565b90508363ffffffff168163ffffffff1611156105ed5750610732565b5f806106028763ffffffff8086169061166a16565b915091508161061357505050610732565b801561071a575f61062760078b0185611687565b6001600160e01b031690508581106106425750505050610732565b5f8a60060182815481106106585761065861238e565b905f5260205f20906002020190505f61067984835f015484600101546116cc565b9050610685818e6123cf565b9c5080825f015f82825461069991906123e2565b9250508190555083826001015f8282546106b391906123e2565b925050819055508f6001600160a01b03168b6001600160a01b03167fb9ffaf4ddb49764cada66e304da6ebff5a1beee1375b83c26d6e340f2bffd2b7838960405161070e92919091825263ffffffff16602082015260400190565b60405180910390a35050505b61072d8763ffffffff8086169061177c16565b505050505b6001016105a1565b5061074d610746610282565b8a88611787565b50505050505b61076960015f805160206124d583398151915255565b9392505050565b7f000000000000000000000000000000000000000000000000000000000000000080545f91906107c17f00000000000000000000000000000000000000000000000000000000000000006002015490565b1480156107d5575060068101546001820154145b91505090565b6001600160a01b0383165f9081527f00000000000000000000000000000000000000000000000000000000000000006004810160205260408220606092610821826117e2565b905085811161088657604080515f808252602082019092529061087b565b61086860405180608001604052805f81526020015f81526020015f151581526020015f81525090565b81526020019060019003908161083f5790505b509350505050610769565b61089961089387836123e2565b866117ec565b94508467ffffffffffffffff8111156108b4576108b461227d565b60405190808252806020026020018201604052801561090e57816020015b6108fb60405180608001604052805f81526020015f81526020015f151581526020015f81525090565b8152602001906001900390816108d25790505b5060018401549094505f61092460078601611600565b5091505061094360405180604001604052805f81526020015f81525090565b5f5b88811015610a84575f8061096361095c8d856123cf565b89906117fb565b91509150818a848151811061097a5761097a61238e565b60200260200101515f018181525050808a848151811061099c5761099c61238e565b602002602001015160200181815250508463ffffffff168211156109c1575050610a7c565b5f6109cf60078b0184611687565b6001600160e01b031690508960060181815481106109ef576109ef61238e565b905f5260205f2090600202016040518060400160405290815f82015481526020016001820154815250509450610a2d82865f015187602001516116cc565b8b8581518110610a3f57610a3f61238e565b602002602001015160600181815250508681108b8581518110610a6457610a6461238e565b60209081029190910101519015156040909101525050505b600101610945565b505050505050509392505050565b610a9a6115c9565b805f03610aba57604051637c946ed760e01b815260040160405180910390fd5b335f610ac46112f4565b60405163219e7b5f60e21b81523060048201529091506001600160a01b03821690638679ed7c90602401602060405180830381865afa158015610b09573d5f803e3d5ffd5b505050506040513d601f19601f82011682018060405250810190610b2d91906123f5565b15610b4b5760405163191a2e9560e31b815260040160405180910390fd5b5f816001600160a01b0316635c60173d6040518163ffffffff1660e01b8152600401602060405180830381865afa158015610b88573d5f803e3d5ffd5b505050506040513d601f19601f82011682018060405250810190610bac9190612414565b604051632770a7eb60e21b81526001600160a01b0385811660048301526024820187905291925090821690639dc29fac906044015f604051808303815f87803b158015610bf7575f80fd5b505af1158015610c09573d5f803e3d5ffd5b505050505f826001600160a01b031663d0fb02036040518163ffffffff1660e01b8152600401602060405180830381865afa158015610c4a573d5f803e3d5ffd5b505050506040513d601f19601f82011682018060405250810190610c6e9190612414565b6040516307f0c60160e41b8152600481018790529091505f906001600160a01b03831690637f0c601090602401602060405180830381865afa158015610cb6573d5f803e3d5ffd5b505050506040513d601f19601f82011682018060405250810190610cda919061242f565b90508015610dbb57826001600160a01b03166340c10f19836001600160a01b031663469048406040518163ffffffff1660e01b8152600401602060405180830381865afa158015610d2d573d5f803e3d5ffd5b505050506040513d601f19601f82011682018060405250810190610d519190612414565b6040516001600160e01b031960e084901b1681526001600160a01b039091166004820152602481018490526044015f604051808303815f87803b158015610d96575f80fd5b505af1158015610da8573d5f803e3d5ffd5b505050508086610db891906123e2565b95505b50505f610de57f000000000000000000000000000000000000000000000000000000000000000090565b60027f000000000000000000000000000000000000000000000000000000000000000001805491925042915f610e1a83611600565b509150508363ffffffff168163ffffffff161015610e7d57610e3d838584611809565b5050600585015f610e4f6001856123e2565b81526020019081526020015f205489610e6891906123cf565b5f838152600587016020526040902055610eb0565b88600586015f610e8c85612446565b94508481526020019081526020015f205f828254610eaa91906123cf565b90915550505b6001600160a01b0388165f908152600486016020526040812090610edd8263ffffffff8089169061166a16565b9150610efd905063ffffffff8716610ef58d846123cf565b849190611823565b508a876003015f828254610f1191906123cf565b9091555050604080518c815263ffffffff881660208201526001600160a01b038c16917f58fe322fc5911ed072ec92f570e517b9793e350eb1ff7be0019fd9f3fade87bc910160405180910390a250505050505050505050610f7f60015f805160206124d583398151915255565b50565b5f610f8b6115c9565b7f0000000000000000000000000000000000000000000000000000000000000000600181015460068201548082101580610fc3575084155b15610fd3575f93505050506112d9565b610fe685610fe184846123e2565b6117ec565b94505f610ff16112f4565b90505f816001600160a01b0316635d66b00a6040518163ffffffff1660e01b8152600401602060405180830381865afa158015611030573d5f803e3d5ffd5b505050506040513d601f19601f82011682018060405250810190611054919061242f565b90505f8061107360405180604001604052805f81526020015f81525090565b5f5b8a811015611111576006890161108b828a6123cf565b8154811061109b5761109b61238e565b905f5260205f2090600202016040518060400160405290815f8201548152602001600182015481525050915084825f0151856110d791906123cf565b116111115781516110e890856123cf565b93508160200151836110fa91906123cf565b9250896111068161245b565b9a5050600101611075565b5088156112d05782156112645760405163d27d250360e01b8152600481018490526001600160a01b0386169063d27d2503906024015f604051808303815f87803b15801561115d575f80fd5b505af115801561116f573d5f803e3d5ffd5b50505050846001600160a01b031663478426636040518163ffffffff1660e01b8152600401602060405180830381865afa1580156111af573d5f803e3d5ffd5b505050506040513d601f19601f820116820180604052508101906111d39190612414565b6001600160a01b03166382dcf0746111e9610282565b6111f286612473565b6040516001600160e01b031960e085901b1681526001600160a01b03909216600483015260248201526044015f604051808303815f87803b158015611235575f80fd5b505af1158015611247573d5f803e3d5ffd5b5050505082886002015f82825461125e91906123e2565b90915550505b88886001015f82825461127791906123cf565b9250508190555081886003015f82825461129191906123e2565b9091555050604080518a8152602081018590527f0e6455e20f0311b7e812c0a7d83f32566f1004a28f3a5611247da5b55ee827b2910160405180910390a15b50505050505050505b6112ef60015f805160206124d583398151915255565b919050565b60017f000000000000000000000000000000000000000000000000000000000000000001546001600160a01b031690565b5f807ff0c57e16840df040f15088dc2f81fe391c3923bec73e23a9662efc9c229c6a005b92915050565b611357611837565b61135f61185e565b6001600160a01b038216158061137c57506001600160a01b038116155b1561139a57604051637c946ed760e01b815260040160405180910390fd5b7f000000000000000000000000000000000000000000000000000000000000000080546001600160a01b038481166001600160a01b0319928316178355600183018054918516919092161790556113f560028201425f611809565b5050505050565b7f000000000000000000000000000000000000000000000000000000000000000060027f0000000000000000000000000000000000000000000000000000000000000000015f8061144c83611600565b92509250505f8563ffffffff168363ffffffff161161147557506001600160e01b0381166114a8565b61147f848761186e565b6001600160e01b03169050805f0361149a5750505050505050565b806114a481612446565b9150505b8454808210156114bc575050505050505050565b5f81156114e657600587015f6114d36001856123e2565b81526020019081526020015f20546114e8565b5f5b5f84815260058901602052604090205461150291906123e2565b905061150f8360016123cf565b87555f81900361152457505050505050505050565b5f611530886007015490565b9050611540600789018a83611809565b50505f61155f83670de0b6b3a76400008d6001600160e01b03166116cc565b60408051808201909152818152602080820186815260068d018054600181810183555f9283529382209451600291820290950194855591519390920192909255908b01805492935083929091906115b79084906123cf565b90915550505050505050505050505050565b5f805160206124d58339815191528054600119016115fa57604051633ee5aeb560e01b815260040160405180910390fd5b60029055565b80545f908190819080820361161e575f805f93509350935050611663565b5f61163b8661162e6001856123e2565b5f91825260209091200190565b546001955063ffffffff81169450600160201b90046001600160e01b03169250611663915050565b9193909250565b5f808080611678868661190f565b909450925050505b9250929050565b81545f908161169885858385611947565b90508181146116c1575f85815260209020810154600160201b90046001600160e01b03166116c3565b5f5b95945050505050565b5f805f6116d986866119a2565b91509150815f036116fd578381816116f3576116f361248d565b0492505050610769565b8184116117145761171460038515026011186119be565b5f848688095f868103871696879004966002600389028118808a02820302808a02820302808a02820302808a02820302808a02820302808a02909103029181900381900460010185841190960395909502919093039390930492909217029150509392505050565b5f61076983836119cf565b73eeeeeeeeeeeeeeeeeeeeeeeeeeeeeeeeeeeeeeed196001600160a01b038416016117bb576117b682826119eb565b505050565b6117b66001600160a01b0384168383611a82565b60015f805160206124d583398151915255565b5f61134982611ad4565b5f828218828410028218610769565b5f8080806116788686611ade565b5f80611816858585611b07565b915091505b935093915050565b5f61182f848484611c4b565b949350505050565b61183f611c67565b61185c57604051631afcd79f60e31b815260040160405180910390fd5b565b611866611837565b61185c611c80565b81545f90818160058111156118c8575f61188784611c88565b61189190856123e2565b5f8881526020902090915081015463ffffffff90811690871610156118b8578091506118c6565b6118c38160016123cf565b92505b505b5f6118d587878585611dda565b90508015611902576118ec8761162e6001846123e2565b54600160201b90046001600160e01b0316611904565b5f5b979650505050505050565b5f81815260028301602052604081205481908061193c576119308585611e2d565b92505f91506116809050565b600192509050611680565b5f5b8183101561199a575f61195c8484611e38565b5f8781526020902090915063ffffffff86169082015463ffffffff161015611990576119898160016123cf565b9350611994565b8092505b50611949565b509392505050565b5f805f1983850993909202808410938190039390930393915050565b634e487b715f52806020526024601cfd5b5f81815260028301602052604081208190556107698383611e52565b80471015611a1a5760405163cf47918160e01b8152476004820152602481018290526044015b60405180910390fd5b5f80836001600160a01b0316836040515f6040518083038185875af1925050503d805f8114611a64576040519150601f19603f3d011682016040523d82523d5f602084013e611a69565b606091505b509150915081611a7c57611a7c81611e5d565b50505050565b604080516001600160a01b038416602482015260448082018490528251808303909101815260649091019091526020810180516001600160e01b031663a9059cbb60e01b1790526117b6908490611e86565b5f61134982611ef2565b5f8080611aeb8585611efb565b5f81815260029690960160205260409095205494959350505050565b82545f9081908015611bf3575f611b238761162e6001856123e2565b805490915063ffffffff80821691600160201b90046001600160e01b0316908816821115611b6457604051632520601d60e01b815260040160405180910390fd5b8763ffffffff168263ffffffff1603611b9757825463ffffffff16600160201b6001600160e01b03891602178355611be5565b6040805180820190915263ffffffff808a1682526001600160e01b03808a1660208085019182528d54600181018f555f8f81529190912094519151909216600160201b029216919091179101555b945085935061181b92505050565b50506040805180820190915263ffffffff80851682526001600160e01b0380851660208085019182528854600181018a555f8a815291822095519251909316600160201b02919093161792019190915590508161181b565b5f828152600284016020526040812082905561182f8484611f06565b5f611c70611325565b54600160401b900460ff16919050565b6117cf611837565b5f60018211611c95575090565b816001600160801b8210611cae5760809190911c9060401b5b600160401b8210611cc45760409190911c9060201b5b600160201b8210611cda5760209190911c9060101b5b620100008210611cef5760109190911c9060081b5b6101008210611d035760089190911c9060041b5b60108210611d165760049190911c9060021b5b60048210611d225760011b5b600302600190811c90818581611d3a57611d3a61248d565b048201901c90506001818581611d5257611d5261248d565b048201901c90506001818581611d6a57611d6a61248d565b048201901c90506001818581611d8257611d8261248d565b048201901c90506001818581611d9a57611d9a61248d565b048201901c90506001818581611db257611db261248d565b048201901c9050611dd1818581611dcb57611dcb61248d565b04821190565b90039392505050565b5f5b8183101561199a575f611def8484611e38565b5f8781526020902090915063ffffffff86169082015463ffffffff161115611e1957809250611e27565b611e248160016123cf565b93505b50611ddc565b5f6107698383611f11565b5f611e4660028484186124a1565b610769908484166123cf565b5f6107698383611f28565b805115611e6d5780518082602001fd5b60405163d6bda27560e01b815260040160405180910390fd5b5f8060205f8451602086015f885af180611ea5576040513d5f823e3d81fd5b50505f513d91508115611ebc578060011415611ec9565b6001600160a01b0384163b155b15611a7c57604051635274afe760e01b81526001600160a01b0385166004820152602401611a11565b5f611349825490565b5f610769838361200b565b5f6107698383612031565b5f8181526001830160205260408120541515610769565b5f8181526001830160205260408120548015612002575f611f4a6001836123e2565b85549091505f90611f5d906001906123e2565b9050808214611fbc575f865f018281548110611f7b57611f7b61238e565b905f5260205f200154905080875f018481548110611f9b57611f9b61238e565b5f918252602080832090910192909255918252600188019052604090208390555b8554869080611fcd57611fcd6124c0565b600190038181905f5260205f20015f90559055856001015f8681526020019081526020015f205f905560019350505050611349565b5f915050611349565b5f825f0182815481106120205761202061238e565b905f5260205f200154905092915050565b5f81815260018301602052604081205461207657508154600181810184555f848152602080822090930184905584548482528286019093526040902091909155611349565b505f611349565b5f806020838503121561208e575f80fd5b823567ffffffffffffffff808211156120a5575f80fd5b818501915085601f8301126120b8575f80fd5b8135818111156120c6575f80fd5b8660208285010111156120d7575f80fd5b60209290920196919550909350505050565b803563ffffffff811681146112ef575f80fd5b5f806040838503121561210d575f80fd5b82356001600160e01b0381168114612123575f80fd5b9150612131602084016120e9565b90509250929050565b5f6020828403121561214a575f80fd5b5035919050565b6001600160a01b0381168114610f7f575f80fd5b5f805f60408486031215612177575f80fd5b833561218281612151565b9250602084013567ffffffffffffffff8082111561219e575f80fd5b818601915086601f8301126121b1575f80fd5b8135818111156121bf575f80fd5b8760208260051b85010111156121d3575f80fd5b6020830194508093505050509250925092565b5f805f606084860312156121f8575f80fd5b833561220381612151565b95602085013595506040909401359392505050565b602080825282518282018190525f919060409081850190868401855b82811015612270578151805185528681015187860152858101511515868601526060908101519085015260809093019290850190600101612234565b5091979650505050505050565b634e487b7160e01b5f52604160045260245ffd5b5f805f606084860312156122a3575f80fd5b83356122ae81612151565b925060208401356122be81612151565b9150604084013567ffffffffffffffff808211156122da575f80fd5b818601915086601f8301126122ed575f80fd5b8135818111156122ff576122ff61227d565b604051601f8201601f19908116603f011681019083821181831017156123275761232761227d565b8160405282815289602084870101111561233f575f80fd5b826020860160208301375f6020848301015280955050505050509250925092565b60208152816020820152818360408301375f818301604090810191909152601f909201601f19160101919050565b634e487b7160e01b5f52603260045260245ffd5b5f602082840312156123b2575f80fd5b610769826120e9565b634e487b7160e01b5f52601160045260245ffd5b80820180821115611349576113496123bb565b81810381811115611349576113496123bb565b5f60208284031215612405575f80fd5b81518015158114610769575f80fd5b5f60208284031215612424575f80fd5b815161076981612151565b5f6020828403121561243f575f80fd5b5051919050565b5f81612454576124546123bb565b505f190190565b5f6001820161246c5761246c6123bb565b5060010190565b5f600160ff1b8201612487576124876123bb565b505f0390565b634e487b7160e01b5f52601260045260245ffd5b5f826124bb57634e487b7160e01b5f52601260045260245ffd5b500490565b634e487b7160e01b5f52603160045260245ffdfe9b779b17422d0df92223018b32b4d1fa46e071723d6817e2486d003becc55f00a2646970667358221220c13f6d59e2b532b6250a6b60dc432ecb07f72455fb3c461a22907a373705c1b364736f6c63430008190033","linkReferences":{}},"methodIdentifiers":{"asset()":"38d52e0f","batchAt(uint256)":"bdec525a","canBeRemoved()":"c2f21896","claim(address,uint32[])":"c12e43e6","getState()":"1865c57d","handleBatches(uint256)":"ed1bccd9","handleReport(uint224,uint32)":"b8c5ea8a","initialize(bytes)":"439fab91","redeem(uint256)":"db006a75","requestsOf(address,uint256,uint256)":"d4935972","vault()":"fbfa77cf"},"id":138}