{"abi":[{"type":"function","name":"callHook","inputs":[{"name":"asset","type":"address","internalType":"address"},{"name":"assets","type":"uint256","internalType":"uint256"}],"outputs":[],"stateMutability":"nonpayable"},{"type":"function","name":"getLiquidAssets","inputs":[{"name":"asset","type":"address","internalType":"address"}],"outputs":[{"name":"assets","type":"uint256","internalType":"uint256"}],"stateMutability":"view"}],"bytecode":{"object":"0x6080604052348015600e575f80fd5b5061061c8061001c5f395ff3fe608060405234801561000f575f80fd5b5060043610610034575f3560e01c806315ea093614610038578063c3dcdb041461005d575b5f80fd5b61004b610046366004610528565b610072565b60405190815260200160405180910390f35b61007061006b36600461054a565b61023d565b005b6040516370a0823160e01b815233600482018190525f916001600160a01b038416906370a0823190602401602060405180830381865afa1580156100b8573d5f803e3d5ffd5b505050506040513d601f19601f820116820180604052508101906100dc9190610574565b91505f816001600160a01b031663a35f620a6040518163ffffffff1660e01b8152600401602060405180830381865afa15801561011b573d5f803e3d5ffd5b505050506040513d601f19601f8201168201806040525081019061013f9190610574565b90505f5b8181101561023557604051639bd0911b60e01b8152600481018290525f906001600160a01b03851690639bd0911b90602401602060405180830381865afa158015610190573d5f803e3d5ffd5b505050506040513d601f19601f820116820180604052508101906101b4919061058b565b6040516370a0823160e01b81526001600160a01b038083166004830152919250908716906370a0823190602401602060405180830381865afa1580156101fc573d5f803e3d5ffd5b505050506040513d601f19601f820116820180604052508101906102209190610574565b61022a90866105ba565b945050600101610143565b505050919050565b6040516370a0823160e01b81523060048201819052905f906001600160a01b038516906370a0823190602401602060405180830381865afa158015610284573d5f803e3d5ffd5b505050506040513d601f19601f820116820180604052508101906102a89190610574565b90508281106102b75750505050565b5f6102c282856105d3565b90505f836001600160a01b031663a35f620a6040518163ffffffff1660e01b8152600401602060405180830381865afa158015610301573d5f803e3d5ffd5b505050506040513d601f19601f820116820180604052508101906103259190610574565b90505f5b8181101561050857604051639bd0911b60e01b8152600481018290525f906001600160a01b03871690639bd0911b90602401602060405180830381865afa158015610376573d5f803e3d5ffd5b505050506040513d601f19601f8201168201806040525081019061039a919061058b565b6040516370a0823160e01b81526001600160a01b0380831660048301529192505f918a16906370a0823190602401602060405180830381865afa1580156103e3573d5f803e3d5ffd5b505050506040513d601f19601f820116820180604052508101906104079190610574565b9050805f03610417575050610500565b84811061048a5760405163b014f44560e01b81526001600160a01b0383811660048301528a811660248301526044820187905288169063b014f445906064015f604051808303815f87803b15801561046d575f80fd5b505af115801561047f573d5f803e3d5ffd5b505050505050610508565b60405163b014f44560e01b81526001600160a01b0383811660048301528a811660248301526044820183905288169063b014f445906064015f604051808303815f87803b1580156104d9575f80fd5b505af11580156104eb573d5f803e3d5ffd5b5050505080856104fb91906105d3565b945050505b600101610329565b50505050505050565b6001600160a01b0381168114610525575f80fd5b50565b5f60208284031215610538575f80fd5b813561054381610511565b9392505050565b5f806040838503121561055b575f80fd5b823561056681610511565b946020939093013593505050565b5f60208284031215610584575f80fd5b5051919050565b5f6020828403121561059b575f80fd5b815161054381610511565b634e487b7160e01b5f52601160045260245ffd5b808201808211156105cd576105cd6105a6565b92915050565b818103818111156105cd576105cd6105a656fea2646970667358221220babbb98d764794d08a44b2e1e65f338149c45919ec56e4a4f93e3068245925dd64736f6c63430008190033","linkReferences":{}},"methodIdentifiers":{"callHook(address,uint256)":"c3dcdb04","getLiquidAssets(address)":"15ea0936"},"id":74}