{"abi":[{"type":"constructor","inputs":[{"name":"name_","type":"string","internalType":"string"},{"name":"version_","type":"uint256","internalType":"uint256"}],"stateMutability":"nonpayable"},{"type":"function","name":"asset","inputs":[],"outputs":[{"name":"","type":"address","internalType":"address"}],"stateMutability":"view"},{"type":"function","name":"canBeRemoved","inputs":[],"outputs":[{"name":"","type":"bool","internalType":"bool"}],"stateMutability":"view"},{"type":"function","name":"cancelDepositRequest","inputs":[],"outputs":[],"stateMutability":"nonpayable"},{"type":"function","name":"claim","inputs":[{"name":"account","type":"address","internalType":"address"}],"outputs":[{"name":"","type":"bool","internalType":"bool"}],"stateMutability":"nonpayable"},{"type":"function","name":"claimableOf","inputs":[{"name":"account","type":"address","internalType":"address"}],"outputs":[{"name":"","type":"uint256","internalType":"uint256"}],"stateMutability":"view"},{"type":"function","name":"deposit","inputs":[{"name":"assets","type":"uint224","internalType":"uint224"},{"name":"referral","type":"address","internalType":"address"},{"name":"merkleProof","type":"bytes32[]","internalType":"bytes32[]"}],"outputs":[],"stateMutability":"payable"},{"type":"function","name":"handleReport","inputs":[{"name":"priceD18","type":"uint224","internalType":"uint224"},{"name":"timestamp","type":"uint32","internalType":"uint32"}],"outputs":[],"stateMutability":"nonpayable"},{"type":"function","name":"initialize","inputs":[{"name":"data","type":"bytes","internalType":"bytes"}],"outputs":[],"stateMutability":"nonpayable"},{"type":"function","name":"requestOf","inputs":[{"name":"account","type":"address","internalType":"address"}],"outputs":[{"name":"timestamp","type":"uint256","internalType":"uint256"},{"name":"assets","type":"uint256","internalType":"uint256"}],"stateMutability":"view"},{"type":"function","name":"vault","inputs":[],"outputs":[{"name":"","type":"address","internalType":"address"}],"stateMutability":"view"},{"type":"event","name":"DepositRequestCanceled","inputs":[{"name":"account","type":"address","indexed":true,"internalType":"address"},{"name":"assets","type":"uint256","indexed":false,"internalType":"uint256"},{"name":"timestamp","type":"uint32","indexed":false,"internalType":"uint32"}],"anonymous":false},{"type":"event","name":"DepositRequestClaimed","inputs":[{"name":"account","type":"address","indexed":true,"internalType":"address"},{"name":"shares","type":"uint256","indexed":false,"internalType":"uint256"},{"name":"timestamp","type":"uint32","indexed":false,"internalType":"uint32"}],"anonymous":false},{"type":"event","name":"DepositRequested","inputs":[{"name":"account","type":"address","indexed":true,"internalType":"address"},{"name":"referral","type":"address","indexed":true,"internalType":"address"},{"name":"assets","type":"uint224","indexed":false,"internalType":"uint224"},{"name":"timestamp","type":"uint32","indexed":false,"internalType":"uint32"}],"anonymous":false},{"type":"event","name":"Initialized","inputs":[{"name":"version","type":"uint64","indexed":false,"internalType":"uint64"}],"anonymous":false},{"type":"event","name":"Initialized","inputs":[{"name":"initParams","type":"bytes","indexed":false,"internalType":"bytes"}],"anonymous":false},{"type":"event","name":"ReportHandled","inputs":[{"name":"priceD18","type":"uint224","indexed":false,"internalType":"uint224"},{"name":"timestamp","type":"uint32","indexed":false,"internalType":"uint32"}],"anonymous":false},{"type":"error","name":"CheckpointUnorderedInsertion","inputs":[]},{"type":"error","name":"ClaimableRequestExists","inputs":[]},{"type":"error","name":"DepositNotAllowed","inputs":[]},{"type":"error","name":"FailedCall","inputs":[]},{"type":"error","name":"Forbidden","inputs":[]},{"type":"error","name":"IndexOutOfBounds","inputs":[]},{"type":"error","name":"InsufficientBalance","inputs":[{"name":"balance","type":"uint256","internalType":"uint256"},{"name":"needed","type":"uint256","internalType":"uint256"}]},{"type":"error","name":"InvalidInitialization","inputs":[]},{"type":"error","name":"InvalidLength","inputs":[]},{"type":"error","name":"InvalidReport","inputs":[]},{"type":"error","name":"InvalidValue","inputs":[]},{"type":"error","name":"NoPendingRequest","inputs":[]},{"type":"error","name":"NotInitializing","inputs":[]},{"type":"error","name":"PendingRequestExists","inputs":[]},{"type":"error","name":"QueuePaused","inputs":[]},{"type":"error","name":"ReentrancyGuardReentrantCall","inputs":[]},{"type":"error","name":"SafeERC20FailedOperation","inputs":[{"name":"token","type":"address","internalType":"address"}]},{"type":"error","name":"ZeroValue","inputs":[]}],"bytecode":{"object":"0x60c060405234801561000f575f80fd5b5060405161283538038061283583398101604081905261002e916101f0565b818161005e60405180604001604052806005815260200164517565756560d81b81525083836100a460201b60201c565b608052610069610115565b505060408051808201909152600c81526b4465706f736974517565756560a01b60208201526100999083836100a4565b60a052506103229050565b5f60ff5f1b1960018585856040516020016100c1939291906102bb565b604051602081830303815290604052805190602001205f1c6100e39190610303565b6040516020016100f591815260200190565b604051602081830303815290604052805190602001201690509392505050565b5f61011e6101b2565b805490915068010000000000000000900460ff16156101505760405163f92ee8a960e01b815260040160405180910390fd5b80546001600160401b03908116146101af5780546001600160401b0319166001600160401b0390811782556040519081527fc7f505b2f371ae2175ee4913f4499e1f2633a7b5936321eed1cdaeb6115181d29060200160405180910390a15b50565b5f807ff0c57e16840df040f15088dc2f81fe391c3923bec73e23a9662efc9c229c6a005b92915050565b634e487b7160e01b5f52604160045260245ffd5b5f8060408385031215610201575f80fd5b82516001600160401b0380821115610217575f80fd5b818501915085601f83011261022a575f80fd5b81518181111561023c5761023c6101dc565b604051601f8201601f19908116603f01168101908382118183101715610264576102646101dc565b8160405282815288602084870101111561027c575f80fd5b8260208601602083015e5f602084830101528096505050505050602083015190509250929050565b5f81518060208401855e5f93019283525090919050565b7f6d656c6c6f772e666c657869626c652d7661756c74732e73746f726167652e0081525f6102f56102ef601f8401876102a4565b856102a4565b928352505060200192915050565b818103818111156101d657634e487b7160e01b5f52601160045260245ffd5b60805160a05161249e6103975f395f81816101500152818161027c0152818161081c015281816108d101528181610a9601528181610acb01528181610d99015261136501525f81816104950152818161072a01528181610a6e01528181610d31015281816111b70152611388015261249e5ff3fe60806040526004361061008f575f3560e01c80638903ab9d116100575780638903ab9d146101c0578063b8c5ea8a146101ed578063c2f218961461020c578063e672025414610220578063fbfa77cf14610234575f80fd5b80631dbd773b146100935780631e83409a146100a857806338d52e0f146100dc578063439fab911461010857806379e2e31c14610127575b5f80fd5b6100a66100a1366004612045565b610248565b005b3480156100b3575f80fd5b506100c76100c23660046120d1565b610718565b60405190151581526020015b60405180910390f35b3480156100e7575f80fd5b506100f0610728565b6040516001600160a01b0390911681526020016100d3565b348015610113575f80fd5b506100a66101223660046120ec565b610756565b348015610132575f80fd5b506101ab6101413660046120d1565b6001600160a01b03165f9081527f0000000000000000000000000000000000000000000000000000000000000000600101602090815260409182902082518084019093525463ffffffff8116808452600160201b9091046001600160e01b03169290910182905291565b604080519283526020830191909152016100d3565b3480156101cb575f80fd5b506101df6101da3660046120d1565b6108cd565b6040519081526020016100d3565b3480156101f8575f80fd5b506100a6610207366004612158565b6109a0565b348015610217575f80fd5b506100c7610a68565b34801561022b575f80fd5b506100a6610abc565b34801561023f575f80fd5b506100f0610d2d565b610250610d5e565b836001600160e01b03165f0361027957604051637c946ed760e01b815260040160405180910390fd5b337f00000000000000000000000000000000000000000000000000000000000000005f6102a4610d2d565b60405163219e7b5f60e21b81523060048201529091506001600160a01b03821690638679ed7c90602401602060405180830381865afa1580156102e9573d5f803e3d5ffd5b505050506040513d601f19601f8201168201806040525081019061030d9190612195565b1561032b5760405163191a2e9560e31b815260040160405180910390fd5b806001600160a01b0316635c60173d6040518163ffffffff1660e01b8152600401602060405180830381865afa158015610367573d5f803e3d5ffd5b505050506040513d601f19601f8201168201806040525081019061038b91906121b4565b6001600160a01b03166331d3a2248487876040518463ffffffff1660e01b81526004016103ba939291906121cf565b602060405180830381865afa1580156103d5573d5f803e3d5ffd5b505050506040513d601f19601f820116820180604052508101906103f99190612195565b610416576040516301ec871560e51b815260040160405180910390fd5b6001600160a01b0383165f908152600183016020526040902054600160201b90046001600160e01b031615801590610454575061045283610d95565b155b1561047257604051631685ecdd60e31b815260040160405180910390fd5b5f61047b610728565b905061049181858a6001600160e01b0316610f98565b60027f00000000000000000000000000000000000000000000000000000000000000000180544291905f6104c483610ff7565b509150508363ffffffff168163ffffffff161015610506576104e7838584611061565b50506003870154829003610501576105018760020161107b565b610512565b61050f8261222b565b91505b856001600160a01b031663478426636040518163ffffffff1660e01b8152600401602060405180830381865afa15801561054e573d5f803e3d5ffd5b505050506040513d601f19601f8201168201806040525081019061057291906121b4565b604051630314d53360e11b81526001600160a01b0387811660048301526001600160e01b038f1660248301529190911690630629aa66906044015f604051808303815f87803b1580156105c3575f80fd5b505af11580156105d5573d5f803e3d5ffd5b506105f19250505060028801836001600160e01b038f166110f1565b60405180604001604052808563ffffffff1681526020018d6001600160e01b0316815250876001015f8a6001600160a01b03166001600160a01b031681526020019081526020015f205f820151815f015f6101000a81548163ffffffff021916908363ffffffff1602179055506020820151815f0160046101000a8154816001600160e01b0302191690836001600160e01b031602179055509050508a6001600160a01b0316886001600160a01b03167fa640e3413e5bbcc760106ee6a397d4fb8df0ad326569f66d750b96a00a845e3c8e876040516106ec9291906001600160e01b0392909216825263ffffffff16602082015260400190565b60405180910390a3505050505050505061071260015f8051602061244983398151915255565b50505050565b5f61072282610d95565b92915050565b7f0000000000000000000000000000000000000000000000000000000000000000546001600160a01b031690565b5f61075f611142565b805490915060ff600160401b820416159067ffffffffffffffff165f811580156107865750825b90505f8267ffffffffffffffff1660011480156107a25750303b155b9050811580156107b0575080155b156107ce5760405163f92ee8a960e01b815260040160405180910390fd5b845467ffffffffffffffff1916600117855583156107f857845460ff60401b1916600160401b1785555b5f80610806888a018a612254565b5091509150610815828261116a565b61084360027f0000000000000000000000000000000000000000000000000000000000000000016010611217565b7f5e399709a9ff1709f6f6be7268c8e5c3eeaa9da9cd9797e78f07ef287c3717fe8989604051610874929190612323565b60405180910390a1505083156108c457845460ff60401b19168555604051600181527fc7f505b2f371ae2175ee4913f4499e1f2633a7b5936321eed1cdaeb6115181d29060200160405180910390a15b50505050505050565b5f807f00000000000000000000000000000000000000000000000000000000000000006001600160a01b0384165f908152600182016020908152604080832081518083019092525463ffffffff8116808352600160201b9091046001600160e01b031692820192909252929350900361094957505f9392505050565b80515f9061095b906004850190611263565b6001600160e01b03169050805f0361097757505f949350505050565b61099782602001516001600160e01b031682670de0b6b3a76400006112a7565b95945050505050565b6109a8610d2d565b6001600160a01b0316336001600160a01b0316146109d957604051631dd2188d60e31b815260040160405180910390fd5b6001600160e01b03821615806109f55750428163ffffffff1610155b15610a1357604051632d56b1d560e21b815260040160405180910390fd5b610a1d8282611358565b604080516001600160e01b038416815263ffffffff831660208201527fe77959fec4c88854df13b1bb591bdba32c0915ce12f89d2fae561946b20dfa4f910160405180910390a15050565b5f610a947f00000000000000000000000000000000000000000000000000000000000000006002015490565b7f00000000000000000000000000000000000000000000000000000000000000005414919050565b610ac4610d5e565b335f8181527f0000000000000000000000000000000000000000000000000000000000000000600181016020908152604080842081518083019092525463ffffffff81168252600160201b90046001600160e01b03169181018290529192819003610b425760405163198580dd60e31b815260040160405180910390fd5b5f610b4b610728565b90505f805f610b5c87600401610ff7565b6001600160e01b0316925092509250828015610b875750855f015163ffffffff168263ffffffff1610155b15610ba557604051630889bcf960e01b815260040160405180910390fd5b6001600160a01b0388165f908152600188016020526040812055610bc7610d2d565b6001600160a01b031663478426636040518163ffffffff1660e01b8152600401602060405180830381865afa158015610c02573d5f803e3d5ffd5b505050506040513d601f19601f82011682018060405250810190610c2691906121b4565b6001600160a01b0316630629aa6685610c3e88612351565b6040516001600160e01b031960e085901b1681526001600160a01b03909216600483015260248201526044015f604051808303815f87803b158015610c81575f80fd5b505af1158015610c93573d5f803e3d5ffd5b50505050610cb08186610ca590612351565b60028a0191906110f1565b610cbb8489876118db565b85516040516001600160a01b038a16917f3a3b7a01d783a7522adfe2d188faf3ffdfd3cdb6b6a657c3dfab15d62fd80aaa91610d059189825263ffffffff16602082015260400190565b60405180910390a25050505050505050610d2b60015f8051602061244983398151915255565b565b60017f000000000000000000000000000000000000000000000000000000000000000001546001600160a01b031690565b5f80516020612449833981519152805460011901610d8f57604051633ee5aeb560e01b815260040160405180910390fd5b60029055565b5f807f00000000000000000000000000000000000000000000000000000000000000006001600160a01b0384165f908152600182016020908152604080832081518083019092525463ffffffff808216808452600160201b9092046001600160e01b03169383019390935293945092610e149160048601919061126316565b6001600160e01b03169050805f03610e3057505f949350505050565b5f610e5183602001516001600160e01b031683670de0b6b3a76400006112a7565b6001600160a01b0387165f90815260018601602052604081205590508015610f3a57610e7b610d2d565b6001600160a01b0316635c60173d6040518163ffffffff1660e01b8152600401602060405180830381865afa158015610eb6573d5f803e3d5ffd5b505050506040513d601f19601f82011682018060405250810190610eda91906121b4565b60405163bdef952f60e01b81526001600160a01b03888116600483015260248201849052919091169063bdef952f906044015f604051808303815f87803b158015610f23575f80fd5b505af1158015610f35573d5f803e3d5ffd5b505050505b82516040516001600160a01b038816917fb60eed69ad15d483504224ac8ebe0df7832e20b638698c6c215115a6f736029f91610f849185825263ffffffff16602082015260400190565b60405180910390a250600195945050505050565b73eeeeeeeeeeeeeeeeeeeeeeeeeeeeeeeeeeeeeeed196001600160a01b03841601610fe257803414610fdd57604051632a9ffab760e21b815260040160405180910390fd5b505050565b610fdd6001600160a01b03841683308461191e565b80545f9081908190808203611015575f805f9350935093505061105a565b5f6110328661102560018561236b565b5f91825260209091200190565b546001955063ffffffff81169450600160201b90046001600160e01b0316925061105a915050565b9193909250565b5f8061106e858585611985565b915091505b935093915050565b6001810154600160ff1b81106110a45760405163251f56a160e21b815260040160405180910390fd5b600181811b8382015582905f906110bb908461236b565b81526020019081526020015f2054825f015f60018085901b6110dd919061236b565b815260208101919091526040015f20555050565b600183015480831061111657604051634e23d03560e01b815260040160405180910390fd5b815f036111235750505050565b61071284848385611ac9565b60015f8051602061244983398151915255565b5f807ff0c57e16840df040f15088dc2f81fe391c3923bec73e23a9662efc9c229c6a00610722565b611172611b08565b61117a611b2d565b6001600160a01b038216158061119757506001600160a01b038116155b156111b557604051637c946ed760e01b815260040160405180910390fd5b7f000000000000000000000000000000000000000000000000000000000000000080546001600160a01b038481166001600160a01b03199283161783556001830180549185169190921617905561121060028201425f611061565b5050505050565b6001820154151580611227575080155b8061123d575061123860018261236b565b811615155b1561125b5760405163251f56a160e21b815260040160405180910390fd5b600190910155565b81545f908161127485858385611b3d565b905081811461129d575f85815260209020810154600160201b90046001600160e01b0316610997565b5f95945050505050565b5f805f6112b48686611b98565b91509150815f036112d8578381816112ce576112ce61237e565b0492505050611351565b8184116112ef576112ef6003851502601118611bb4565b5f848688095f868103871696879004966002600389028118808a02820302808a02820302808a02820302808a02820302808a02820302808a02909103029181900381900460010185841190960395909502919093039390930492909217029150505b9392505050565b5f611361610d2d565b90507f000000000000000000000000000000000000000000000000000000000000000060027f0000000000000000000000000000000000000000000000000000000000000000015f80806113b484610ff7565b92509250508663ffffffff168263ffffffff16116113dd57806001600160e01b03169250611411565b6113e78488611bc5565b6001600160e01b03169250825f03611403575050505050505050565b8261140d8161222b565b9350505b8454831015611424575050505050505050565b505082545f9061143990600286019084611c66565b9050611446826001612392565b845f01819055505f856001600160a01b031663d0fb02036040518163ffffffff1660e01b8152600401602060405180830381865afa15801561148a573d5f803e3d5ffd5b505050506040513d601f19601f820116820180604052508101906114ae91906121b4565b60405163247d284b60e01b81526001600160e01b038a1660048201529091505f906001600160a01b0383169063247d284b90602401602060405180830381865afa1580156114fe573d5f803e3d5ffd5b505050506040513d601f19601f8201168201806040525081019061152291906123a5565b90505f61152f828b6123bc565b905061153f600488018a83611061565b5050835f036115545750505050505050505050565b5f886001600160a01b0316635c60173d6040518163ffffffff1660e01b8152600401602060405180830381865afa158015611591573d5f803e3d5ffd5b505050506040513d601f19601f820116820180604052508101906115b591906121b4565b90505f6115d486846001600160e01b0316670de0b6b3a76400006112a7565b9050801561163257604051630a0e550760e11b8152600481018290526001600160a01b0383169063141caa0e906024015f604051808303815f87803b15801561161b575f80fd5b505af115801561162d573d5f803e3d5ffd5b505050505b5f81611650888f6001600160e01b0316670de0b6b3a76400006112a7565b61165a919061236b565b9050801561172d57826001600160a01b03166340c10f19876001600160a01b031663469048406040518163ffffffff1660e01b8152600401602060405180830381865afa1580156116ad573d5f803e3d5ffd5b505050506040513d601f19601f820116820180604052508101906116d191906121b4565b6040516001600160e01b031960e084901b1681526001600160a01b039091166004820152602481018490526044015f604051808303815f87803b158015611716575f80fd5b505af1158015611728573d5f803e3d5ffd5b505050505b5050505f611739610728565b9050611746818a876118db565b5f896001600160a01b031663478426636040518163ffffffff1660e01b8152600401602060405180830381865afa158015611783573d5f803e3d5ffd5b505050506040513d601f19601f820116820180604052508101906117a791906121b4565b90506001600160a01b038116630629aa66836117c289612351565b6040516001600160e01b031960e085901b1681526001600160a01b03909216600483015260248201526044015f604051808303815f87803b158015611805575f80fd5b505af1158015611817573d5f803e3d5ffd5b50506040516320b73c1d60e21b81526001600160a01b038581166004830152602482018a9052841692506382dcf07491506044015f604051808303815f87803b158015611862575f80fd5b505af1158015611874573d5f803e3d5ffd5b505060405163d27d250360e01b8152600481018990526001600160a01b038d16925063d27d250391506024015f604051808303815f87803b1580156118b7575f80fd5b505af11580156118c9573d5f803e3d5ffd5b50505050505050505050505050505050565b73eeeeeeeeeeeeeeeeeeeeeeeeeeeeeeeeeeeeeeed196001600160a01b0384160161190a57610fdd8282611cb3565b610fdd6001600160a01b0384168383611d44565b6040516001600160a01b0384811660248301528381166044830152606482018390526107129186918216906323b872dd906084015b604051602081830303815290604052915060e01b6020820180516001600160e01b038381831617835250505050611d75565b82545f9081908015611a71575f6119a18761102560018561236b565b805490915063ffffffff80821691600160201b90046001600160e01b03169088168211156119e257604051632520601d60e01b815260040160405180910390fd5b8763ffffffff168263ffffffff1603611a1557825463ffffffff16600160201b6001600160e01b03891602178355611a63565b6040805180820190915263ffffffff808a1682526001600160e01b03808a1660208085019182528d54600181018f555f8f81529190912094519151909216600160201b029216919091179101555b945085935061107392505050565b50506040805180820190915263ffffffff80851682526001600160e01b0380851660208085019182528854600181018a555f8a815291822095519251909316600160201b029190931617920191909155905081611073565b81831015610712575f8381526020859052604081208054839290611aee9084906123e3565b90915550611aff9050836001612392565b83179250611ac9565b611b10611de1565b610d2b57604051631afcd79f60e31b815260040160405180910390fd5b611b35611b08565b610d2b611dfa565b5f5b81831015611b90575f611b528484611e02565b5f8781526020902090915063ffffffff86169082015463ffffffff161015611b8657611b7f816001612392565b9350611b8a565b8092505b50611b3f565b509392505050565b5f805f1983850993909202808410938190039390930393915050565b634e487b715f52806020526024601cfd5b81545f9081816005811115611c1f575f611bde84611e1c565b611be8908561236b565b5f8881526020902090915081015463ffffffff9081169087161015611c0f57809150611c1d565b611c1a816001612392565b92505b505b5f611c2c87878585611f6e565b90508015611c5957611c438761102560018461236b565b54600160201b90046001600160e01b0316611c5b565b5f5b979650505050505050565b5f81831115611c7657505f611351565b8215611c9557611c9084611c8b60018661236b565b611fc1565b611c97565b5f5b611ca18584611fc1565b611cab919061240a565b949350505050565b80471015611ce25760405163cf47918160e01b8152476004820152602481018290526044015b60405180910390fd5b5f80836001600160a01b0316836040515f6040518083038185875af1925050503d805f8114611d2c576040519150601f19603f3d011682016040523d82523d5f602084013e611d31565b606091505b5091509150816107125761071281611fea565b6040516001600160a01b03838116602483015260448201839052610fdd91859182169063a9059cbb90606401611953565b5f8060205f8451602086015f885af180611d94576040513d5f823e3d81fd5b50505f513d91508115611dab578060011415611db8565b6001600160a01b0384163b155b1561071257604051635274afe760e01b81526001600160a01b0385166004820152602401611cd9565b5f611dea611142565b54600160401b900460ff16919050565b61112f611b08565b5f611e106002848418612429565b61135190848416612392565b5f60018211611e29575090565b816001600160801b8210611e425760809190911c9060401b5b600160401b8210611e585760409190911c9060201b5b600160201b8210611e6e5760209190911c9060101b5b620100008210611e835760109190911c9060081b5b6101008210611e975760089190911c9060041b5b60108210611eaa5760049190911c9060021b5b60048210611eb65760011b5b600302600190811c90818581611ece57611ece61237e565b048201901c90506001818581611ee657611ee661237e565b048201901c90506001818581611efe57611efe61237e565b048201901c90506001818581611f1657611f1661237e565b048201901c90506001818581611f2e57611f2e61237e565b048201901c90506001818581611f4657611f4661237e565b048201901c9050611f65818581611f5f57611f5f61237e565b04821190565b90039392505050565b5f5b81831015611b90575f611f838484611e02565b5f8781526020902090915063ffffffff86169082015463ffffffff161115611fad57809250611fbb565b611fb8816001612392565b93505b50611f70565b5f826020525b5f8281526040902054600183019092169101811561072257600182039150611fc7565b805115611ffa5780518082602001fd5b60405163d6bda27560e01b815260040160405180910390fd5b50565b80356001600160e01b038116811461202c575f80fd5b919050565b6001600160a01b0381168114612013575f80fd5b5f805f8060608587031215612058575f80fd5b61206185612016565b9350602085013561207181612031565b9250604085013567ffffffffffffffff8082111561208d575f80fd5b818701915087601f8301126120a0575f80fd5b8135818111156120ae575f80fd5b8860208260051b85010111156120c2575f80fd5b95989497505060200194505050565b5f602082840312156120e1575f80fd5b813561135181612031565b5f80602083850312156120fd575f80fd5b823567ffffffffffffffff80821115612114575f80fd5b818501915085601f830112612127575f80fd5b813581811115612135575f80fd5b866020828501011115612146575f80fd5b60209290920196919550909350505050565b5f8060408385031215612169575f80fd5b61217283612016565b9150602083013563ffffffff8116811461218a575f80fd5b809150509250929050565b5f602082840312156121a5575f80fd5b81518015158114611351575f80fd5b5f602082840312156121c4575f80fd5b815161135181612031565b6001600160a01b038416815260406020820181905281018290525f6001600160fb1b038311156121fd575f80fd5b8260051b8085606085013791909101606001949350505050565b634e487b7160e01b5f52601160045260245ffd5b5f8161223957612239612217565b505f190190565b634e487b7160e01b5f52604160045260245ffd5b5f805f60608486031215612266575f80fd5b833561227181612031565b9250602084013561228181612031565b9150604084013567ffffffffffffffff8082111561229d575f80fd5b818601915086601f8301126122b0575f80fd5b8135818111156122c2576122c2612240565b604051601f8201601f19908116603f011681019083821181831017156122ea576122ea612240565b81604052828152896020848701011115612302575f80fd5b826020860160208301375f6020848301015280955050505050509250925092565b60208152816020820152818360408301375f818301604090810191909152601f909201601f19160101919050565b5f600160ff1b820161236557612365612217565b505f0390565b8181038181111561072257610722612217565b634e487b7160e01b5f52601260045260245ffd5b8082018082111561072257610722612217565b5f602082840312156123b5575f80fd5b5051919050565b6001600160e01b038281168282160390808211156123dc576123dc612217565b5092915050565b8082018281125f83128015821682158216171561240257612402612217565b505092915050565b8181035f8312801583831316838312821617156123dc576123dc612217565b5f8261244357634e487b7160e01b5f52601260045260245ffd5b50049056fe9b779b17422d0df92223018b32b4d1fa46e071723d6817e2486d003becc55f00a264697066735822122094dd223837f512b85ee4c90349b81f0a94acffc0db25039de154055fa9e6532564736f6c63430008190033","linkReferences":{}},"methodIdentifiers":{"asset()":"38d52e0f","canBeRemoved()":"c2f21896","cancelDepositRequest()":"e6720254","claim(address)":"1e83409a","claimableOf(address)":"8903ab9d","deposit(uint224,address,bytes32[])":"1dbd773b","handleReport(uint224,uint32)":"b8c5ea8a","initialize(bytes)":"439fab91","requestOf(address)":"79e2e31c","vault()":"fbfa77cf"},"id":136}