{"abi":[{"type":"constructor","inputs":[{"name":"name_","type":"string","internalType":"string"},{"name":"version_","type":"uint256","internalType":"uint256"}],"stateMutability":"nonpayable"},{"type":"function","name":"ALLOW_SUBVAULT_ASSETS_ROLE","inputs":[],"outputs":[{"name":"","type":"bytes32","internalType":"bytes32"}],"stateMutability":"view"},{"type":"function","name":"DISALLOW_SUBVAULT_ASSETS_ROLE","inputs":[],"outputs":[{"name":"","type":"bytes32","internalType":"bytes32"}],"stateMutability":"view"},{"type":"function","name":"MODIFY_PENDING_ASSETS_ROLE","inputs":[],"outputs":[{"name":"","type":"bytes32","internalType":"bytes32"}],"stateMutability":"view"},{"type":"function","name":"MODIFY_SUBVAULT_BALANCE_ROLE","inputs":[],"outputs":[{"name":"","type":"bytes32","internalType":"bytes32"}],"stateMutability":"view"},{"type":"function","name":"MODIFY_VAULT_BALANCE_ROLE","inputs":[],"outputs":[{"name":"","type":"bytes32","internalType":"bytes32"}],"stateMutability":"view"},{"type":"function","name":"SET_SUBVAULT_LIMIT_ROLE","inputs":[],"outputs":[{"name":"","type":"bytes32","internalType":"bytes32"}],"stateMutability":"view"},{"type":"function","name":"SET_VAULT_LIMIT_ROLE","inputs":[],"outputs":[{"name":"","type":"bytes32","internalType":"bytes32"}],"stateMutability":"view"},{"type":"function","name":"allowSubvaultAssets","inputs":[{"name":"subvault","type":"address","internalType":"address"},{"name":"assets","type":"address[]","internalType":"address[]"}],"outputs":[],"stateMutability":"nonpayable"},{"type":"function","name":"allowedAssetAt","inputs":[{"name":"subvault","type":"address","internalType":"address"},{"name":"index","type":"uint256","internalType":"uint256"}],"outputs":[{"name":"","type":"address","internalType":"address"}],"stateMutability":"view"},{"type":"function","name":"allowedAssets","inputs":[{"name":"subvault","type":"address","internalType":"address"}],"outputs":[{"name":"","type":"uint256","internalType":"uint256"}],"stateMutability":"view"},{"type":"function","name":"convertToShares","inputs":[{"name":"asset","type":"address","internalType":"address"},{"name":"value","type":"int256","internalType":"int256"}],"outputs":[{"name":"shares","type":"int256","internalType":"int256"}],"stateMutability":"view"},{"type":"function","name":"disallowSubvaultAssets","inputs":[{"name":"subvault","type":"address","internalType":"address"},{"name":"assets","type":"address[]","internalType":"address[]"}],"outputs":[],"stateMutability":"nonpayable"},{"type":"function","name":"initialize","inputs":[{"name":"data","type":"bytes","internalType":"bytes"}],"outputs":[],"stateMutability":"nonpayable"},{"type":"function","name":"isAllowedAsset","inputs":[{"name":"subvault","type":"address","internalType":"address"},{"name":"asset","type":"address","internalType":"address"}],"outputs":[{"name":"","type":"bool","internalType":"bool"}],"stateMutability":"view"},{"type":"function","name":"maxDeposit","inputs":[{"name":"subvault","type":"address","internalType":"address"},{"name":"asset","type":"address","internalType":"address"}],"outputs":[{"name":"limit","type":"uint256","internalType":"uint256"}],"stateMutability":"view"},{"type":"function","name":"modifyPendingAssets","inputs":[{"name":"asset","type":"address","internalType":"address"},{"name":"change","type":"int256","internalType":"int256"}],"outputs":[],"stateMutability":"nonpayable"},{"type":"function","name":"modifySubvaultBalance","inputs":[{"name":"subvault","type":"address","internalType":"address"},{"name":"asset","type":"address","internalType":"address"},{"name":"change","type":"int256","internalType":"int256"}],"outputs":[],"stateMutability":"nonpayable"},{"type":"function","name":"modifyVaultBalance","inputs":[{"name":"asset","type":"address","internalType":"address"},{"name":"change","type":"int256","internalType":"int256"}],"outputs":[],"stateMutability":"nonpayable"},{"type":"function","name":"pendingAssets","inputs":[{"name":"asset","type":"address","internalType":"address"}],"outputs":[{"name":"","type":"int256","internalType":"int256"}],"stateMutability":"view"},{"type":"function","name":"pendingBalance","inputs":[],"outputs":[{"name":"","type":"int256","internalType":"int256"}],"stateMutability":"view"},{"type":"function","name":"pendingShares","inputs":[{"name":"asset","type":"address","internalType":"address"}],"outputs":[{"name":"","type":"int256","internalType":"int256"}],"stateMutability":"view"},{"type":"function","name":"requireValidSubvault","inputs":[{"name":"vault_","type":"address","internalType":"address"},{"name":"subvault","type":"address","internalType":"address"}],"outputs":[],"stateMutability":"view"},{"type":"function","name":"setSubvaultLimit","inputs":[{"name":"subvault","type":"address","internalType":"address"},{"name":"limit","type":"int256","internalType":"int256"}],"outputs":[],"stateMutability":"nonpayable"},{"type":"function","name":"setVault","inputs":[{"name":"vault_","type":"address","internalType":"address"}],"outputs":[],"stateMutability":"nonpayable"},{"type":"function","name":"setVaultLimit","inputs":[{"name":"limit","type":"int256","internalType":"int256"}],"outputs":[],"stateMutability":"nonpayable"},{"type":"function","name":"subvaultState","inputs":[{"name":"subvault","type":"address","internalType":"address"}],"outputs":[{"name":"","type":"tuple","internalType":"struct IRiskManager.State","components":[{"name":"balance","type":"int256","internalType":"int256"},{"name":"limit","type":"int256","internalType":"int256"}]}],"stateMutability":"view"},{"type":"function","name":"vault","inputs":[],"outputs":[{"name":"","type":"address","internalType":"address"}],"stateMutability":"view"},{"type":"function","name":"vaultState","inputs":[],"outputs":[{"name":"","type":"tuple","internalType":"struct IRiskManager.State","components":[{"name":"balance","type":"int256","internalType":"int256"},{"name":"limit","type":"int256","internalType":"int256"}]}],"stateMutability":"view"},{"type":"event","name":"AllowSubvaultAssets","inputs":[{"name":"subvault","type":"address","indexed":true,"internalType":"address"},{"name":"assets","type":"address[]","indexed":false,"internalType":"address[]"}],"anonymous":false},{"type":"event","name":"DisallowSubvaultAssets","inputs":[{"name":"subvault","type":"address","indexed":true,"internalType":"address"},{"name":"assets","type":"address[]","indexed":false,"internalType":"address[]"}],"anonymous":false},{"type":"event","name":"Initialized","inputs":[{"name":"version","type":"uint64","indexed":false,"internalType":"uint64"}],"anonymous":false},{"type":"event","name":"Initialized","inputs":[{"name":"initParams","type":"bytes","indexed":false,"internalType":"bytes"}],"anonymous":false},{"type":"event","name":"ModifyPendingAssets","inputs":[{"name":"asset","type":"address","indexed":true,"internalType":"address"},{"name":"change","type":"int256","indexed":false,"internalType":"int256"},{"name":"pendingAssetsAfter","type":"int256","indexed":false,"internalType":"int256"},{"name":"pendingSharesAfter","type":"int256","indexed":false,"internalType":"int256"}],"anonymous":false},{"type":"event","name":"ModifySubvaultBalance","inputs":[{"name":"subvault","type":"address","indexed":true,"internalType":"address"},{"name":"asset","type":"address","indexed":true,"internalType":"address"},{"name":"change","type":"int256","indexed":false,"internalType":"int256"},{"name":"newBalance","type":"int256","indexed":false,"internalType":"int256"}],"anonymous":false},{"type":"event","name":"ModifyVaultBalance","inputs":[{"name":"asset","type":"address","indexed":true,"internalType":"address"},{"name":"shares","type":"int256","indexed":false,"internalType":"int256"},{"name":"newBalance","type":"int256","indexed":false,"internalType":"int256"}],"anonymous":false},{"type":"event","name":"SetSubvaultLimit","inputs":[{"name":"subvault","type":"address","indexed":true,"internalType":"address"},{"name":"limit","type":"int256","indexed":false,"internalType":"int256"}],"anonymous":false},{"type":"event","name":"SetVault","inputs":[{"name":"vault","type":"address","indexed":true,"internalType":"address"}],"anonymous":false},{"type":"event","name":"SetVaultLimit","inputs":[{"name":"limit","type":"int256","indexed":false,"internalType":"int256"}],"anonymous":false},{"type":"error","name":"AlreadyAllowedAsset","inputs":[{"name":"asset","type":"address","internalType":"address"}]},{"type":"error","name":"Forbidden","inputs":[]},{"type":"error","name":"InvalidInitialization","inputs":[]},{"type":"error","name":"InvalidReport","inputs":[]},{"type":"error","name":"LimitExceeded","inputs":[{"name":"newValue","type":"int256","internalType":"int256"},{"name":"maxValue","type":"int256","internalType":"int256"}]},{"type":"error","name":"NotAllowedAsset","inputs":[{"name":"asset","type":"address","internalType":"address"}]},{"type":"error","name":"NotInitializing","inputs":[]},{"type":"error","name":"NotSubvault","inputs":[{"name":"subvault","type":"address","internalType":"address"}]},{"type":"error","name":"ZeroValue","inputs":[]}],"bytecode":{"object":"0x60a060405234801561000f575f80fd5b5060405161226938038061226983398101604081905261002e916101b9565b60408051808201909152600b81526a2934b9b5a6b0b730b3b2b960a91b602082015261005b90838361006d565b6080526100666100de565b50506102eb565b5f60ff5f1b19600185858560405160200161008a93929190610284565b604051602081830303815290604052805190602001205f1c6100ac91906102cc565b6040516020016100be91815260200190565b604051602081830303815290604052805190602001201690509392505050565b5f6100e761017b565b805490915068010000000000000000900460ff16156101195760405163f92ee8a960e01b815260040160405180910390fd5b80546001600160401b03908116146101785780546001600160401b0319166001600160401b0390811782556040519081527fc7f505b2f371ae2175ee4913f4499e1f2633a7b5936321eed1cdaeb6115181d29060200160405180910390a15b50565b5f807ff0c57e16840df040f15088dc2f81fe391c3923bec73e23a9662efc9c229c6a005b92915050565b634e487b7160e01b5f52604160045260245ffd5b5f80604083850312156101ca575f80fd5b82516001600160401b03808211156101e0575f80fd5b818501915085601f8301126101f3575f80fd5b815181811115610205576102056101a5565b604051601f8201601f19908116603f0116810190838211818310171561022d5761022d6101a5565b81604052828152886020848701011115610245575f80fd5b8260208601602083015e5f602084830101528096505050505050602083015190509250929050565b5f81518060208401855e5f93019283525090919050565b7f6d656c6c6f772e666c657869626c652d7661756c74732e73746f726167652e0081525f6102be6102b8601f84018761026d565b8561026d565b928352505060200192915050565b8181038181111561019f57634e487b7160e01b5f52601160045260245ffd5b608051611f666103035f395f61186f0152611f665ff3fe608060405234801561000f575f80fd5b50600436106101bb575f3560e01c806382dcf074116100f3578063ae76c04411610093578063d287bba11161006e578063d287bba114610455578063f26a1ba214610468578063fbfa77cf1461047b578063fea34d9814610483575f80fd5b8063ae76c04414610408578063bf78fbc01461042f578063ca3c9a4214610442575f80fd5b8063951287d4116100ce578063951287d414610394578063a37773f7146103bb578063a4c1cccb146103e2578063a9dc69bb146103f5575f80fd5b806382dcf0741461034b578063939b89b71461035e5780639481241a14610381575f80fd5b80634439f8911161015e5780636817031b116101395780636817031b146102eb57806369a38f0f146102fe57806376016870146103255780637cb8bb3214610338575f80fd5b80634439f8911461029157806344739f60146102b857806357b4d18e146102e3575f80fd5b80632d9d5336116101995780632d9d53361461023157806336f1409f146102445780633e3b11c414610257578063439fab911461027e575f80fd5b80630123abd0146101bf5780630629aa66146101f95780632728f3331461020e575b5f80fd5b6101e67fcaa6b67a612f0bc4bdf15a48dde19f543e93099681b3ceaee93d630e38bcff3881565b6040519081526020015b60405180910390f35b61020c610207366004611b67565b610496565b005b610216610713565b604080518251815260209283015192810192909252016101f0565b6101e661023f366004611b91565b61074f565b610216610252366004611b91565b610779565b6101e67fa7ecfd54b0ab6ce6ecc88746fe62beba4e9a103dbb00d88cfedffbc0c6069ce881565b61020c61028c366004611bac565b6107cc565b6101e67f94b8a54d503c6b752e707c591f9345ae8ccc138255588e460ee15622d499fdba81565b6102cb6102c6366004611b67565b61090f565b6040516001600160a01b0390911681526020016101f0565b6101e6610946565b61020c6102f9366004611b91565b610958565b6101e67f4a899e3e648ea55418d9c99177e5c522df621b1953c0ad7e99da3711043ba1c181565b6101e6610333366004611c18565b6109fb565b61020c610346366004611c18565b610ba2565b61020c610359366004611b67565b610c36565b61037161036c366004611c18565b610e41565b60405190151581526020016101f0565b61020c61038f366004611b67565b610e6f565b6101e67f35c8c55cb15b3aef15751488f551edf793583e377f8951cf9738f035a1649ec581565b6101e67f253eb39d0edc77da10bbc4bcaa23c44e40e3c67ed649fbecb18a3f7c51bfbb1081565b6101e66103f0366004611b91565b610fb1565b61020c610403366004611c4f565b610fdd565b6101e67f2b2a32ecca586a148d15aea321ddbb421a2a3ac6b4d56c0a9ad9de32e84cf5c481565b6101e661043d366004611b67565b6110e3565b61020c610450366004611c66565b61126d565b6101e6610463366004611b91565b61144b565b61020c610476366004611c66565b611475565b6102cb611640565b61020c610491366004611ce7565b611658565b7fcaa6b67a612f0bc4bdf15a48dde19f543e93099681b3ceaee93d630e38bcff38335f6104c1611640565b6040516325b4a5cb60e11b81526001600160a01b03848116600483015291925090821690634b694b9690602401602060405180830381865afa158015610509573d5f803e3d5ffd5b505050506040513d601f19601f8201168201806040525081019061052d9190611d39565b1580156105a65750604051632474521560e21b8152600481018490526001600160a01b0383811660248301528216906391d1485490604401602060405180830381865afa158015610580573d5f803e3d5ffd5b505050506040513d601f19601f820116820180604052508101906105a49190611d39565b155b156105c457604051631dd2188d60e31b815260040160405180910390fd5b5f6105cd61186d565b6001600160a01b0387165f9081526004820160209081526040808320546005850190925282205492935091906106038884611d66565b90505f6106108a836110e3565b90505f61061d8483611d85565b90505f8187600301546106309190611d66565b90505f82138015610653575060028701546001880154610651908390611d66565b135b15610694576001870154610668908290611d66565b6002880154604051635ac3879d60e11b8152600481019290925260248201526044015b60405180910390fd5b6001600160a01b038c165f818152600489016020908152604080832088905560058b0182529182902086905560038a0184905581518e81529081018790529081018590527f7e018fd9f1e68a0b25ac9f6613e0ff8890a528853bebe00f3c15fc5e27c579a79060600160405180910390a2505050505050505050505050565b604080518082019091525f808252602082015261072e61186d565b60408051808201909152600182015481526002909101546020820152919050565b5f61075861186d565b6001600160a01b039092165f90815260059290920160205250604090205490565b604080518082019091525f808252602082015261079461186d565b6001600160a01b039092165f908152600692909201602090815260409283902083518085019094528054845260010154908301525090565b5f6107d5611891565b805490915060ff600160401b820416159067ffffffffffffffff165f811580156107fc5750825b90505f8267ffffffffffffffff1660011480156108185750303b155b905081158015610826575080155b156108445760405163f92ee8a960e01b815260040160405180910390fd5b845467ffffffffffffffff19166001178555831561086e57845460ff60401b1916600160401b1785555b61087a86880188611c4f565b61088261186d565b600201556040517f5e399709a9ff1709f6f6be7268c8e5c3eeaa9da9cd9797e78f07ef287c3717fe906108b89089908990611da4565b60405180910390a1831561090657845460ff60401b19168555604051600181527fc7f505b2f371ae2175ee4913f4499e1f2633a7b5936321eed1cdaeb6115181d29060200160405180910390a15b50505050505050565b5f61093d8261091c61186d565b6001600160a01b0386165f90815260079190910160205260409020906118b9565b90505b92915050565b5f61094f61186d565b60030154905090565b6001600160a01b03811661097f57604051637c946ed760e01b815260040160405180910390fd5b5f61098861186d565b80549091506001600160a01b0316156109b45760405163f92ee8a960e01b815260040160405180910390fd5b80546001600160a01b0319166001600160a01b03831690811782556040517fd459c7242e23d490831b5676a611c4342d899d28f342d89ae80793e56a930f30905f90a25050565b5f80610a0561186d565b6001600160a01b0385165f9081526007820160205260409020909150610a2b90846118c4565b610a38575f915050610940565b6001600160a01b0384165f908152600682016020526040812080546001820154919291610a659190611d85565b90505f8113610a79575f9350505050610940565b8254604080516307dc0d1d60e41b815290515f926001600160a01b031691637dc0d1d09160048083019260209291908290030181865afa158015610abf573d5f803e3d5ffd5b505050506040513d601f19601f82011682018060405250810190610ae39190611dd2565b6040516351ded71f60e11b81526001600160a01b038881166004830152919091169063a3bdae3e90602401606060405180830381865afa158015610b29573d5f803e3d5ffd5b505050506040513d601f19601f82011682018060405250810190610b4d9190611ded565b9050806040015180610b67575080516001600160e01b0316155b15610b78575f945050505050610940565b610b9782670de0b6b3a7640000835f01516001600160e01b03166118e5565b979650505050505050565b604051638333903b60e01b81526001600160a01b038281166004830152831690638333903b90602401602060405180830381865afa158015610be6573d5f803e3d5ffd5b505050506040513d601f19601f82011682018060405250810190610c0a9190611d39565b610c32576040516313f7815760e31b81526001600160a01b038216600482015260240161068b565b5050565b7f94b8a54d503c6b752e707c591f9345ae8ccc138255588e460ee15622d499fdba335f610c61611640565b6040516325b4a5cb60e11b81526001600160a01b03848116600483015291925090821690634b694b9690602401602060405180830381865afa158015610ca9573d5f803e3d5ffd5b505050506040513d601f19601f82011682018060405250810190610ccd9190611d39565b158015610d465750604051632474521560e21b8152600481018490526001600160a01b0383811660248301528216906391d1485490604401602060405180830381865afa158015610d20573d5f803e3d5ffd5b505050506040513d601f19601f82011682018060405250810190610d449190611d39565b155b15610d6457604051631dd2188d60e31b815260040160405180910390fd5b5f610d6f86866110e3565b90505f610d7a61186d565b90505f82826001015f0154610d8f9190611d66565b90505f83138015610db1575060028201546003830154610daf9083611d66565b135b15610dec576003820154610dc59082611d66565b6002830154604051635ac3879d60e11b81526004810192909252602482015260440161068b565b6001820181905560408051848152602081018390526001600160a01b038a16917fc2b6fc513028c6829b542ca03929e65c3f4ded8c21c4097de7e471eeb0ae1c46910160405180910390a25050505050505050565b5f61093d82610e4e61186d565b6001600160a01b0386165f90815260079190910160205260409020906118c4565b7f253eb39d0edc77da10bbc4bcaa23c44e40e3c67ed649fbecb18a3f7c51bfbb10610e98611640565b6001600160a01b03166391d1485482336040516001600160e01b031960e085901b16815260048101929092526001600160a01b03166024820152604401602060405180830381865afa158015610ef0573d5f803e3d5ffd5b505050506040513d601f19601f82011682018060405250810190610f149190611d39565b610f3157604051631dd2188d60e31b815260040160405180910390fd5b5f610f3a61186d565b8054909150610f52906001600160a01b031685610ba2565b6001600160a01b0384165f81815260068301602052604090819020600101859055517f445cf08fe55c070bdeb50f0686f3e6ac95bf7d14d82d3ba9cc73d396b763d42b90610fa39086815260200190565b60405180910390a250505050565b5f610940610fbd61186d565b6001600160a01b0384165f90815260079190910160205260409020611996565b7f2b2a32ecca586a148d15aea321ddbb421a2a3ac6b4d56c0a9ad9de32e84cf5c4611006611640565b6001600160a01b03166391d1485482336040516001600160e01b031960e085901b16815260048101929092526001600160a01b03166024820152604401602060405180830381865afa15801561105e573d5f803e3d5ffd5b505050506040513d601f19601f820116820180604052508101906110829190611d39565b61109f57604051631dd2188d60e31b815260040160405180910390fd5b816110a861186d565b600201556040518281527fc572a51922a6ae362c0a4f0b3146175a0b5abc8eee6f1ad542e5deac72cf021e9060200160405180910390a15050565b5f806110ed61186d565b90505f815f015f9054906101000a90046001600160a01b03166001600160a01b0316637dc0d1d06040518163ffffffff1660e01b8152600401602060405180830381865afa158015611141573d5f803e3d5ffd5b505050506040513d601f19601f820116820180604052508101906111659190611dd2565b6040516351ded71f60e11b81526001600160a01b038781166004830152919091169063a3bdae3e90602401606060405180830381865afa1580156111ab573d5f803e3d5ffd5b505050506040513d601f19601f820116820180604052508101906111cf9190611ded565b90508060400151806111e9575080516001600160e01b0316155b1561120757604051632d56b1d560e21b815260040160405180910390fd5b5f8412156112465761123461121b85611e7a565b82516001600160e01b0316670de0b6b3a76400006118e5565b61123d90611e7a565b92505050610940565b61123d84825f01516001600160e01b0316670de0b6b3a76400006118e5565b505092915050565b7f4a899e3e648ea55418d9c99177e5c522df621b1953c0ad7e99da3711043ba1c1611296611640565b6001600160a01b03166391d1485482336040516001600160e01b031960e085901b16815260048101929092526001600160a01b03166024820152604401602060405180830381865afa1580156112ee573d5f803e3d5ffd5b505050506040513d601f19601f820116820180604052508101906113129190611d39565b61132f57604051631dd2188d60e31b815260040160405180910390fd5b5f61133861186d565b8054909150611350906001600160a01b031686610ba2565b6001600160a01b0385165f9081526007820160205260408120905b848110156113ff576113a486868381811061138857611388611e94565b905060200201602081019061139d9190611b91565b839061199f565b6113f7578585828181106113ba576113ba611e94565b90506020020160208101906113cf9190611b91565b60405160016262a50d60e01b031981526001600160a01b03909116600482015260240161068b565b60010161136b565b50856001600160a01b03167febf14ddd862f0e6032a4225cdb5ac46a2c9f7d966568ecac5b021a91f2878067868660405161143b929190611ea8565b60405180910390a2505050505050565b5f61145461186d565b6001600160a01b039092165f90815260049290920160205250604090205490565b7f35c8c55cb15b3aef15751488f551edf793583e377f8951cf9738f035a1649ec561149e611640565b6001600160a01b03166391d1485482336040516001600160e01b031960e085901b16815260048101929092526001600160a01b03166024820152604401602060405180830381865afa1580156114f6573d5f803e3d5ffd5b505050506040513d601f19601f8201168201806040525081019061151a9190611d39565b61153757604051631dd2188d60e31b815260040160405180910390fd5b5f61154061186d565b8054909150611558906001600160a01b031686610ba2565b6001600160a01b0385165f9081526007820160205260408120905b84811015611604576115ac86868381811061159057611590611e94565b90506020020160208101906115a59190611b91565b83906119b3565b6115fc578585828181106115c2576115c2611e94565b90506020020160208101906115d79190611b91565b6040516311a3666560e21b81526001600160a01b03909116600482015260240161068b565b600101611573565b50856001600160a01b03167f662bfa2e3ed539f9b363de0f6a6f46b68700d579cbd607673a58413249381e8a868660405161143b929190611ea8565b5f61164961186d565b546001600160a01b0316919050565b7fa7ecfd54b0ab6ce6ecc88746fe62beba4e9a103dbb00d88cfedffbc0c6069ce8335f611683611640565b9050806001600160a01b0316826001600160a01b0316141580156117135750604051632474521560e21b8152600481018490526001600160a01b0383811660248301528216906391d1485490604401602060405180830381865afa1580156116ed573d5f803e3d5ffd5b505050506040513d601f19601f820116820180604052508101906117119190611d39565b155b1561173157604051631dd2188d60e31b815260040160405180910390fd5b5f61173a61186d565b8054909150611752906001600160a01b031688610ba2565b6001600160a01b0387165f908152600782016020526040902061177590876118c4565b61179d576040516311a3666560e21b81526001600160a01b038716600482015260240161068b565b6001600160a01b0387165f9081526006820160205260408120906117c188886110e3565b90505f81835f01546117d39190611d66565b90505f821380156117e75750826001015481135b15611815576001830154604051635ac3879d60e11b815261068b918391600401918252602082015260400190565b80835560408051898152602081018390526001600160a01b038b811692908d16917f51888b585b39cafa271420fc87d948502d1132154bf3c4fd448b23156031d879910160405180910390a350505050505050505050565b7f000000000000000000000000000000000000000000000000000000000000000090565b5f807ff0c57e16840df040f15088dc2f81fe391c3923bec73e23a9662efc9c229c6a00610940565b5f61093d83836119c7565b6001600160a01b0381165f908152600183016020526040812054151561093d565b5f805f6118f286866119ed565b91509150815f036119165783818161190c5761190c611ef5565b049250505061198f565b81841161192d5761192d6003851502601118611a09565b5f848688095f868103871696879004966002600389028118808a02820302808a02820302808a02820302808a02820302808a02820302808a02909103029181900381900460010185841190960395909502919093039390930492909217029150505b9392505050565b5f610940825490565b5f61093d836001600160a01b038416611a1a565b5f61093d836001600160a01b038416611a66565b5f825f0182815481106119dc576119dc611e94565b905f5260205f200154905092915050565b5f805f1983850993909202808410938190039390930393915050565b634e487b715f52806020526024601cfd5b5f818152600183016020526040812054611a5f57508154600181810184555f848152602080822090930184905584548482528286019093526040902091909155610940565b505f610940565b5f8181526001830160205260408120548015611b40575f611a88600183611f09565b85549091505f90611a9b90600190611f09565b9050808214611afa575f865f018281548110611ab957611ab9611e94565b905f5260205f200154905080875f018481548110611ad957611ad9611e94565b5f918252602080832090910192909255918252600188019052604090208390555b8554869080611b0b57611b0b611f1c565b600190038181905f5260205f20015f90559055856001015f8681526020019081526020015f205f905560019350505050610940565b5f915050610940565b5092915050565b6001600160a01b0381168114611b64575f80fd5b50565b5f8060408385031215611b78575f80fd5b8235611b8381611b50565b946020939093013593505050565b5f60208284031215611ba1575f80fd5b813561198f81611b50565b5f8060208385031215611bbd575f80fd5b823567ffffffffffffffff80821115611bd4575f80fd5b818501915085601f830112611be7575f80fd5b813581811115611bf5575f80fd5b866020828501011115611c06575f80fd5b60209290920196919550909350505050565b5f8060408385031215611c29575f80fd5b8235611c3481611b50565b91506020830135611c4481611b50565b809150509250929050565b5f60208284031215611c5f575f80fd5b5035919050565b5f805f60408486031215611c78575f80fd5b8335611c8381611b50565b9250602084013567ffffffffffffffff80821115611c9f575f80fd5b818601915086601f830112611cb2575f80fd5b813581811115611cc0575f80fd5b8760208260051b8501011115611cd4575f80fd5b6020830194508093505050509250925092565b5f805f60608486031215611cf9575f80fd5b8335611d0481611b50565b92506020840135611d1481611b50565b929592945050506040919091013590565b80518015158114611d34575f80fd5b919050565b5f60208284031215611d49575f80fd5b61093d82611d25565b634e487b7160e01b5f52601160045260245ffd5b8082018281125f83128015821682158216171561126557611265611d52565b8181035f831280158383131683831282161715611b4957611b49611d52565b60208152816020820152818360408301375f818301604090810191909152601f909201601f19160101919050565b5f60208284031215611de2575f80fd5b815161198f81611b50565b5f60608284031215611dfd575f80fd5b6040516060810181811067ffffffffffffffff82111715611e2c57634e487b7160e01b5f52604160045260245ffd5b60405282516001600160e01b0381168114611e45575f80fd5b8152602083015163ffffffff81168114611e5d575f80fd5b6020820152611e6e60408401611d25565b60408201529392505050565b5f600160ff1b8201611e8e57611e8e611d52565b505f0390565b634e487b7160e01b5f52603260045260245ffd5b60208082528181018390525f908460408401835b86811015611eea578235611ecf81611b50565b6001600160a01b031682529183019190830190600101611ebc565b509695505050505050565b634e487b7160e01b5f52601260045260245ffd5b8181038181111561094057610940611d52565b634e487b7160e01b5f52603160045260245ffdfea2646970667358221220d7d71afd74779a241cfd97a663b58cdb4fe8245e729ccafbf6d0708155ff6a4f64736f6c63430008190033","linkReferences":{}},"methodIdentifiers":{"ALLOW_SUBVAULT_ASSETS_ROLE()":"69a38f0f","DISALLOW_SUBVAULT_ASSETS_ROLE()":"951287d4","MODIFY_PENDING_ASSETS_ROLE()":"0123abd0","MODIFY_SUBVAULT_BALANCE_ROLE()":"3e3b11c4","MODIFY_VAULT_BALANCE_ROLE()":"4439f891","SET_SUBVAULT_LIMIT_ROLE()":"a37773f7","SET_VAULT_LIMIT_ROLE()":"ae76c044","allowSubvaultAssets(address,address[])":"ca3c9a42","allowedAssetAt(address,uint256)":"44739f60","allowedAssets(address)":"a4c1cccb","convertToShares(address,int256)":"bf78fbc0","disallowSubvaultAssets(address,address[])":"f26a1ba2","initialize(bytes)":"439fab91","isAllowedAsset(address,address)":"939b89b7","maxDeposit(address,address)":"76016870","modifyPendingAssets(address,int256)":"0629aa66","modifySubvaultBalance(address,address,int256)":"fea34d98","modifyVaultBalance(address,int256)":"82dcf074","pendingAssets(address)":"d287bba1","pendingBalance()":"57b4d18e","pendingShares(address)":"2d9d5336","requireValidSubvault(address,address)":"7cb8bb32","setSubvaultLimit(address,int256)":"9481241a","setVault(address)":"6817031b","setVaultLimit(int256)":"a9dc69bb","subvaultState(address)":"36f1409f","vault()":"fbfa77cf","vaultState()":"2728f333"},"id":117}