{"abi":[{"type":"constructor","inputs":[{"name":"name_","type":"string","internalType":"string"},{"name":"version_","type":"uint256","internalType":"uint256"}],"stateMutability":"nonpayable"},{"type":"receive","stateMutability":"payable"},{"type":"function","name":"call","inputs":[{"name":"where","type":"address","internalType":"address"},{"name":"value","type":"uint256","internalType":"uint256"},{"name":"data","type":"bytes","internalType":"bytes"},{"name":"payload","type":"tuple","internalType":"struct IVerifier.VerificationPayload","components":[{"name":"verificationType","type":"uint8","internalType":"enum IVerifier.VerificationType"},{"name":"verificationData","type":"bytes","internalType":"bytes"},{"name":"proof","type":"bytes32[]","internalType":"bytes32[]"}]}],"outputs":[{"name":"response","type":"bytes","internalType":"bytes"}],"stateMutability":"nonpayable"},{"type":"function","name":"getStorageAt","inputs":[{"name":"slot","type":"bytes32","internalType":"bytes32"}],"outputs":[{"name":"","type":"tuple","internalType":"struct StorageSlot.Bytes32Slot","components":[{"name":"value","type":"bytes32","internalType":"bytes32"}]}],"stateMutability":"pure"},{"type":"function","name":"initialize","inputs":[{"name":"initParams","type":"bytes","internalType":"bytes"}],"outputs":[],"stateMutability":"nonpayable"},{"type":"function","name":"onERC721Received","inputs":[{"name":"","type":"address","internalType":"address"},{"name":"","type":"address","internalType":"address"},{"name":"","type":"uint256","internalType":"uint256"},{"name":"","type":"bytes","internalType":"bytes"}],"outputs":[{"name":"","type":"bytes4","internalType":"bytes4"}],"stateMutability":"pure"},{"type":"function","name":"pullAssets","inputs":[{"name":"asset","type":"address","internalType":"address"},{"name":"value","type":"uint256","internalType":"uint256"}],"outputs":[],"stateMutability":"nonpayable"},{"type":"function","name":"vault","inputs":[],"outputs":[{"name":"","type":"address","internalType":"address"}],"stateMutability":"view"},{"type":"function","name":"verifier","inputs":[],"outputs":[{"name":"","type":"address","internalType":"contract IVerifier"}],"stateMutability":"view"},{"type":"event","name":"AssetsPulled","inputs":[{"name":"asset","type":"address","indexed":true,"internalType":"address"},{"name":"to","type":"address","indexed":true,"internalType":"address"},{"name":"value","type":"uint256","indexed":false,"internalType":"uint256"}],"anonymous":false},{"type":"event","name":"Initialized","inputs":[{"name":"version","type":"uint64","indexed":false,"internalType":"uint64"}],"anonymous":false},{"type":"event","name":"Initialized","inputs":[{"name":"initParams","type":"bytes","indexed":false,"internalType":"bytes"}],"anonymous":false},{"type":"error","name":"AddressEmptyCode","inputs":[{"name":"target","type":"address","internalType":"address"}]},{"type":"error","name":"FailedCall","inputs":[]},{"type":"error","name":"InsufficientBalance","inputs":[{"name":"balance","type":"uint256","internalType":"uint256"},{"name":"needed","type":"uint256","internalType":"uint256"}]},{"type":"error","name":"InvalidInitialization","inputs":[]},{"type":"error","name":"NotInitializing","inputs":[]},{"type":"error","name":"NotVault","inputs":[]},{"type":"error","name":"ReentrancyGuardReentrantCall","inputs":[]},{"type":"error","name":"SafeERC20FailedOperation","inputs":[{"name":"token","type":"address","internalType":"address"}]},{"type":"error","name":"ZeroAddress","inputs":[]}],"bytecode":{"object":"0x60c060405234801561000f575f80fd5b5060405161108b38038061108b83398101604081905261002e916101f8565b8181818161003a6100ac565b60408051808201909152600e81526d56657269666965724d6f64756c6560901b602082015261006a908383610149565b608052505060408051808201909152600e81526d5375627661756c744d6f64756c6560901b602082015261009f908383610149565b60a0525061032a92505050565b5f6100b56101ba565b805490915068010000000000000000900460ff16156100e75760405163f92ee8a960e01b815260040160405180910390fd5b80546001600160401b03908116146101465780546001600160401b0319166001600160401b0390811782556040519081527fc7f505b2f371ae2175ee4913f4499e1f2633a7b5936321eed1cdaeb6115181d29060200160405180910390a15b50565b5f60ff5f1b196001858585604051602001610166939291906102c3565b604051602081830303815290604052805190602001205f1c610188919061030b565b60405160200161019a91815260200190565b604051602081830303815290604052805190602001201690509392505050565b5f807ff0c57e16840df040f15088dc2f81fe391c3923bec73e23a9662efc9c229c6a005b92915050565b634e487b7160e01b5f52604160045260245ffd5b5f8060408385031215610209575f80fd5b82516001600160401b038082111561021f575f80fd5b818501915085601f830112610232575f80fd5b815181811115610244576102446101e4565b604051601f8201601f19908116603f0116810190838211818310171561026c5761026c6101e4565b81604052828152886020848701011115610284575f80fd5b8260208601602083015e5f602084830101528096505050505050602083015190509250929050565b5f81518060208401855e5f93019283525090919050565b7f6d656c6c6f772e666c657869626c652d7661756c74732e73746f726167652e0081525f6102fd6102f7601f8401876102ac565b856102ac565b928352505060200192915050565b818103818111156101de57634e487b7160e01b5f52601160045260245ffd5b60805160a051610d326103595f395f81816104ff01526105a101525f81816101c101526105550152610d325ff3fe608060405260043610610071575f3560e01c8063439fab911161004c578063439fab911461012c57806387cd303d1461014d578063a6df3a8d1461016c578063fbfa77cf14610198575f80fd5b8063150b7a021461007c5780631ca0027a146100b95780632b7ac3f314610100575f80fd5b3661007857005b5f80fd5b348015610087575f80fd5b5061009b61009636600461097a565b6101ac565b6040516001600160e01b031990911681526020015b60405180910390f35b3480156100c4575f80fd5b506100f16100d33660046109e8565b60408051602080820183525f90915281519081019091529054815290565b604051905181526020016100b0565b34801561010b575f80fd5b506101146101be565b6040516001600160a01b0390911681526020016100b0565b348015610137575f80fd5b5061014b6101463660046109ff565b6101f0565b005b348015610158575f80fd5b5061014b610167366004610a3e565b610355565b348015610177575f80fd5b5061018b610186366004610a68565b61041d565b6040516100b09190610aee565b3480156101a3575f80fd5b506101146104fc565b630a85bd0160e11b5b95945050505050565b5f7f00000000000000000000000000000000000000000000000000000000000000005b546001600160a01b0316919050565b7ff0c57e16840df040f15088dc2f81fe391c3923bec73e23a9662efc9c229c6a008054600160401b810460ff16159067ffffffffffffffff165f811580156102355750825b90505f8267ffffffffffffffff1660011480156102515750303b155b90508115801561025f575080155b1561027d5760405163f92ee8a960e01b815260040160405180910390fd5b845467ffffffffffffffff1916600117855583156102a757845460ff60401b1916600160401b1785555b5f806102b5888a018a610b23565b915091506102c282610523565b6102cb81610596565b7f5e399709a9ff1709f6f6be7268c8e5c3eeaa9da9cd9797e78f07ef287c3717fe89896040516102fc929190610b82565b60405180910390a15050831561034c57845460ff60401b19168555604051600181527fc7f505b2f371ae2175ee4913f4499e1f2633a7b5936321eed1cdaeb6115181d29060200160405180910390a15b50505050505050565b61035d6105c5565b336103666104fc565b6001600160a01b0316816001600160a01b031614610397576040516362df054560e01b815260040160405180910390fd5b6103a283828461060f565b806001600160a01b0316836001600160a01b03167f409f90100010c596e4859c24945544ea3430a899b81522dadfd9671b9bc1a402846040516103e791815260200190565b60405180910390a35061041960017f9b779b17422d0df92223018b32b4d1fa46e071723d6817e2486d003becc55f0055565b5050565b60606104276105c5565b61042f6101be565b6001600160a01b03166310749ebd3388888888886040518763ffffffff1660e01b815260040161046496959493929190610c12565b5f6040518083038186803b15801561047a575f80fd5b505afa15801561048c573d5f803e3d5ffd5b505050506104d18685858080601f0160208091040260200160405190810160405280939291908181526020018383808284375f920191909152508a9250610657915050565b90506101b560017f9b779b17422d0df92223018b32b4d1fa46e071723d6817e2486d003becc55f0055565b5f7f00000000000000000000000000000000000000000000000000000000000000006101e1565b61052b6106fe565b6001600160a01b0381166105525760405163d92e233d60e01b815260040160405180910390fd5b807f00000000000000000000000000000000000000000000000000000000000000005b80546001600160a01b0319166001600160a01b039290921691909117905550565b61059e6106fe565b807f0000000000000000000000000000000000000000000000000000000000000000610575565b7f9b779b17422d0df92223018b32b4d1fa46e071723d6817e2486d003becc55f0080546001190161060957604051633ee5aeb560e01b815260040160405180910390fd5b60029055565b73eeeeeeeeeeeeeeeeeeeeeeeeeeeeeeeeeeeeeeed196001600160a01b038416016106435761063e8282610749565b505050565b61063e6001600160a01b03841683836107db565b6060814710156106885760405163cf47918160e01b8152476004820152602481018390526044015b60405180910390fd5b5f80856001600160a01b031684866040516106a39190610ce6565b5f6040518083038185875af1925050503d805f81146106dd576040519150601f19603f3d011682016040523d82523d5f602084013e6106e2565b606091505b50915091506106f286838361082d565b925050505b9392505050565b7ff0c57e16840df040f15088dc2f81fe391c3923bec73e23a9662efc9c229c6a0054600160401b900460ff1661074757604051631afcd79f60e31b815260040160405180910390fd5b565b804710156107735760405163cf47918160e01b81524760048201526024810182905260440161067f565b5f80836001600160a01b0316836040515f6040518083038185875af1925050503d805f81146107bd576040519150601f19603f3d011682016040523d82523d5f602084013e6107c2565b606091505b5091509150816107d5576107d581610889565b50505050565b604080516001600160a01b038416602482015260448082018490528251808303909101815260649091019091526020810180516001600160e01b031663a9059cbb60e01b17905261063e9084906108b5565b6060826108425761083d82610889565b6106f7565b815115801561085957506001600160a01b0384163b155b1561088257604051639996b31560e01b81526001600160a01b038516600482015260240161067f565b50806106f7565b8051156108995780518082602001fd5b60405163d6bda27560e01b815260040160405180910390fd5b50565b5f8060205f8451602086015f885af1806108d4576040513d5f823e3d81fd5b50505f513d915081156108eb5780600114156108f8565b6001600160a01b0384163b155b156107d557604051635274afe760e01b81526001600160a01b038516600482015260240161067f565b6001600160a01b03811681146108b2575f80fd5b5f8083601f840112610945575f80fd5b50813567ffffffffffffffff81111561095c575f80fd5b602083019150836020828501011115610973575f80fd5b9250929050565b5f805f805f6080868803121561098e575f80fd5b853561099981610921565b945060208601356109a981610921565b935060408601359250606086013567ffffffffffffffff8111156109cb575f80fd5b6109d788828901610935565b969995985093965092949392505050565b5f602082840312156109f8575f80fd5b5035919050565b5f8060208385031215610a10575f80fd5b823567ffffffffffffffff811115610a26575f80fd5b610a3285828601610935565b90969095509350505050565b5f8060408385031215610a4f575f80fd5b8235610a5a81610921565b946020939093013593505050565b5f805f805f60808688031215610a7c575f80fd5b8535610a8781610921565b945060208601359350604086013567ffffffffffffffff80821115610aaa575f80fd5b610ab689838a01610935565b90955093506060880135915080821115610ace575f80fd5b50860160608189031215610ae0575f80fd5b809150509295509295909350565b602081525f82518060208401528060208501604085015e5f604082850101526040601f19601f83011684010191505092915050565b5f8060408385031215610b34575f80fd5b8235610b3f81610921565b91506020830135610b4f81610921565b809150509250929050565b81835281816020850137505f828201602090810191909152601f909101601f19169091010190565b602081525f610b95602083018486610b5a565b949350505050565b5f808335601e19843603018112610bb2575f80fd5b830160208101925035905067ffffffffffffffff811115610bd1575f80fd5b8060051b3603821315610973575f80fd5b8183525f6001600160fb1b03831115610bf9575f80fd5b8260051b80836020870137939093016020019392505050565b6001600160a01b038781168252861660208201526040810185905260a0606082018190525f90610c459083018587610b5a565b8281036080840152833560048110610c5b575f80fd5b8152602084013536859003601e19018112610c74575f80fd5b840160208101903567ffffffffffffffff811115610c90575f80fd5b803603821315610c9e575f80fd5b60606020840152610cb3606084018284610b5a565b915050610cc36040860186610b9d565b8383036040850152610cd6838284610be2565b9c9b505050505050505050505050565b5f82518060208501845e5f92019182525091905056fea2646970667358221220ee04b7a44d15c56e550941b9bf68d2449a4d4f0f5587016eb2b06d8dba0e6e0a64736f6c63430008190033","linkReferences":{}},"methodIdentifiers":{"call(address,uint256,bytes,(uint8,bytes,bytes32[]))":"a6df3a8d","getStorageAt(bytes32)":"1ca0027a","initialize(bytes)":"439fab91","onERC721Received(address,address,uint256,bytes)":"150b7a02","pullAssets(address,uint256)":"87cd303d","vault()":"fbfa77cf","verifier()":"2b7ac3f3"},"id":143}