{"abi":[{"type":"constructor","inputs":[{"name":"name_","type":"string","internalType":"string"},{"name":"version_","type":"uint256","internalType":"uint256"}],"stateMutability":"nonpayable"},{"type":"function","name":"addSigner","inputs":[{"name":"signer","type":"address","internalType":"address"},{"name":"threshold_","type":"uint256","internalType":"uint256"},{"name":"signatureType","type":"uint8","internalType":"enum IConsensus.SignatureType"}],"outputs":[],"stateMutability":"nonpayable"},{"type":"function","name":"checkSignatures","inputs":[{"name":"orderHash","type":"bytes32","internalType":"bytes32"},{"name":"signatures","type":"tuple[]","internalType":"struct IConsensus.Signature[]","components":[{"name":"signer","type":"address","internalType":"address"},{"name":"signature","type":"bytes","internalType":"bytes"}]}],"outputs":[{"name":"","type":"bool","internalType":"bool"}],"stateMutability":"view"},{"type":"function","name":"initialize","inputs":[{"name":"data","type":"bytes","internalType":"bytes"}],"outputs":[],"stateMutability":"nonpayable"},{"type":"function","name":"isSigner","inputs":[{"name":"account","type":"address","internalType":"address"}],"outputs":[{"name":"","type":"bool","internalType":"bool"}],"stateMutability":"view"},{"type":"function","name":"owner","inputs":[],"outputs":[{"name":"","type":"address","internalType":"address"}],"stateMutability":"view"},{"type":"function","name":"removeSigner","inputs":[{"name":"signer","type":"address","internalType":"address"},{"name":"threshold_","type":"uint256","internalType":"uint256"}],"outputs":[],"stateMutability":"nonpayable"},{"type":"function","name":"renounceOwnership","inputs":[],"outputs":[],"stateMutability":"nonpayable"},{"type":"function","name":"requireValidSignatures","inputs":[{"name":"orderHash","type":"bytes32","internalType":"bytes32"},{"name":"signatures","type":"tuple[]","internalType":"struct IConsensus.Signature[]","components":[{"name":"signer","type":"address","internalType":"address"},{"name":"signature","type":"bytes","internalType":"bytes"}]}],"outputs":[],"stateMutability":"view"},{"type":"function","name":"setThreshold","inputs":[{"name":"threshold_","type":"uint256","internalType":"uint256"}],"outputs":[],"stateMutability":"nonpayable"},{"type":"function","name":"signerAt","inputs":[{"name":"index","type":"uint256","internalType":"uint256"}],"outputs":[{"name":"","type":"address","internalType":"address"},{"name":"","type":"uint256","internalType":"uint256"}],"stateMutability":"view"},{"type":"function","name":"signers","inputs":[],"outputs":[{"name":"","type":"uint256","internalType":"uint256"}],"stateMutability":"view"},{"type":"function","name":"threshold","inputs":[],"outputs":[{"name":"","type":"uint256","internalType":"uint256"}],"stateMutability":"view"},{"type":"function","name":"transferOwnership","inputs":[{"name":"newOwner","type":"address","internalType":"address"}],"outputs":[],"stateMutability":"nonpayable"},{"type":"event","name":"Initialized","inputs":[{"name":"version","type":"uint64","indexed":false,"internalType":"uint64"}],"anonymous":false},{"type":"event","name":"Initialized","inputs":[{"name":"initParams","type":"bytes","indexed":false,"internalType":"bytes"}],"anonymous":false},{"type":"event","name":"OwnershipTransferred","inputs":[{"name":"previousOwner","type":"address","indexed":true,"internalType":"address"},{"name":"newOwner","type":"address","indexed":true,"internalType":"address"}],"anonymous":false},{"type":"event","name":"SignerAdded","inputs":[{"name":"signer","type":"address","indexed":true,"internalType":"address"},{"name":"signatureType","type":"uint8","indexed":false,"internalType":"enum IConsensus.SignatureType"}],"anonymous":false},{"type":"event","name":"SignerRemoved","inputs":[{"name":"signer","type":"address","indexed":true,"internalType":"address"}],"anonymous":false},{"type":"event","name":"ThresholdSet","inputs":[{"name":"threshold","type":"uint256","indexed":true,"internalType":"uint256"}],"anonymous":false},{"type":"error","name":"ECDSAInvalidSignature","inputs":[]},{"type":"error","name":"ECDSAInvalidSignatureLength","inputs":[{"name":"length","type":"uint256","internalType":"uint256"}]},{"type":"error","name":"ECDSAInvalidSignatureS","inputs":[{"name":"s","type":"bytes32","internalType":"bytes32"}]},{"type":"error","name":"InvalidInitialization","inputs":[]},{"type":"error","name":"InvalidSignatures","inputs":[{"name":"orderHash","type":"bytes32","internalType":"bytes32"},{"name":"signatures","type":"tuple[]","internalType":"struct IConsensus.Signature[]","components":[{"name":"signer","type":"address","internalType":"address"},{"name":"signature","type":"bytes","internalType":"bytes"}]}]},{"type":"error","name":"InvalidThreshold","inputs":[{"name":"threshold","type":"uint256","internalType":"uint256"}]},{"type":"error","name":"NotInitializing","inputs":[]},{"type":"error","name":"OwnableInvalidOwner","inputs":[{"name":"owner","type":"address","internalType":"address"}]},{"type":"error","name":"OwnableUnauthorizedAccount","inputs":[{"name":"account","type":"address","internalType":"address"}]},{"type":"error","name":"SignerAlreadyExists","inputs":[{"name":"signer","type":"address","internalType":"address"}]},{"type":"error","name":"SignerNotFound","inputs":[{"name":"signer","type":"address","internalType":"address"}]},{"type":"error","name":"ZeroAddress","inputs":[]}],"bytecode":{"object":"0x60a060405234801561000f575f80fd5b5060405161167938038061167983398101604081905261002e916101b7565b604080518082019091526009815268436f6e73656e73757360b81b602082015261005990838361006b565b6080526100646100dc565b50506102e9565b5f60ff5f1b19600185858560405160200161008893929190610282565b604051602081830303815290604052805190602001205f1c6100aa91906102ca565b6040516020016100bc91815260200190565b604051602081830303815290604052805190602001201690509392505050565b5f6100e5610179565b805490915068010000000000000000900460ff16156101175760405163f92ee8a960e01b815260040160405180910390fd5b80546001600160401b03908116146101765780546001600160401b0319166001600160401b0390811782556040519081527fc7f505b2f371ae2175ee4913f4499e1f2633a7b5936321eed1cdaeb6115181d29060200160405180910390a15b50565b5f807ff0c57e16840df040f15088dc2f81fe391c3923bec73e23a9662efc9c229c6a005b92915050565b634e487b7160e01b5f52604160045260245ffd5b5f80604083850312156101c8575f80fd5b82516001600160401b03808211156101de575f80fd5b818501915085601f8301126101f1575f80fd5b815181811115610203576102036101a3565b604051601f8201601f19908116603f0116810190838211818310171561022b5761022b6101a3565b81604052828152886020848701011115610243575f80fd5b8260208601602083015e5f602084830101528096505050505050602083015190509250929050565b5f81518060208401855e5f93019283525090919050565b7f6d656c6c6f772e666c657869626c652d7661756c74732e73746f726167652e0081525f6102bc6102b6601f84018761026b565b8561026b565b928352505060200192915050565b8181038181111561019d57634e487b7160e01b5f52601160045260245ffd5b6080516113486103315f395f818160e60152818161023801528181610413015281816104550152818161049e0152818161057d0152818161084b015261091d01526113485ff3fe608060405234801561000f575f80fd5b50600436106100cb575f3560e01c80638da5cb5b11610088578063b31078d311610063578063b31078d3146101c3578063f2fde38b146101d6578063fa3e6da4146101e9578063faa4da341461021b575f80fd5b80638da5cb5b14610163578063960bfe041461019d5780639aa1a31a146101b0575f80fd5b80633bad5426146100cf57806342cde4e8146100e4578063439fab911461011d57806346f0975a14610130578063715018a6146101385780637df73e2714610140575b5f80fd5b6100e26100dd366004610f51565b61022e565b005b7f0000000000000000000000000000000000000000000000000000000000000000600301545b6040519081526020015b60405180910390f35b6100e261012b366004610f7b565b6102cf565b61010a61040d565b6100e261043c565b61015361014e366004610fe7565b61044f565b6040519015158152602001610114565b7f9016d09d72d40fdae2fd8ceac6b6234c7706214fd39c1cd1e609a0528c199300546040516001600160a01b039091168152602001610114565b6100e26101ab366004611002565b610480565b6100e26101be366004611019565b610494565b6101536101d136600461105b565b61057a565b6100e26101e4366004610fe7565b61080a565b6101fc6101f7366004611002565b610844565b604080516001600160a01b039093168352602083019190915201610114565b6100e261022936600461105b565b610879565b6102366108ac565b7f00000000000000000000000000000000000000000000000000000000000000006102618184610907565b61028e576040516353b1def160e01b81526001600160a01b03841660048201526024015b60405180910390fd5b6102978261091b565b6040516001600160a01b038416907f3525e22824a8a7df2c9a6029941c824cf95b6447f1e13d5128fd3826d35afe8b905f90a2505050565b5f6102d86109a6565b805490915060ff600160401b820416159067ffffffffffffffff165f811580156102ff5750825b90505f8267ffffffffffffffff16600114801561031b5750303b155b905081158015610329575080155b156103475760405163f92ee8a960e01b815260040160405180910390fd5b845467ffffffffffffffff19166001178555831561037157845460ff60401b1916600160401b1785555b61038561038087890189610fe7565b6109ce565b7f5e399709a9ff1709f6f6be7268c8e5c3eeaa9da9cd9797e78f07ef287c3717fe87876040516103b69291906110fb565b60405180910390a1831561040457845460ff60401b19168555604051600181527fc7f505b2f371ae2175ee4913f4499e1f2633a7b5936321eed1cdaeb6115181d29060200160405180910390a15b50505050505050565b5f6104377f00000000000000000000000000000000000000000000000000000000000000006109df565b905090565b6104446108ac565b61044d5f6109e9565b565b5f61047a7f000000000000000000000000000000000000000000000000000000000000000083610a59565b92915050565b6104886108ac565b6104918161091b565b50565b61049c6108ac565b7f00000000000000000000000000000000000000000000000000000000000000006001600160a01b0384166104e45760405163d92e233d60e01b815260040160405180910390fd5b610502848360018111156104fa576104fa61110e565b839190610a6d565b61052a5760405163899ec36960e01b81526001600160a01b0385166004820152602401610285565b6105338361091b565b836001600160a01b03167fe3fc8b85534cae1885a3d3ab7ffada4519fb7776ee8bc3d045108542c86357a38360405161056c9190611122565b60405180910390a250505050565b5f7f00000000000000000000000000000000000000000000000000000000000000008215806105ac5750600381015483105b156105ba575f915050610803565b5f5b838110156107fc575f8585838181106105d7576105d7611148565b90506020028101906105e9919061115c565b6105f7906020810190610fe7565b90505f806106058584610a8a565b915091508161061b575f95505050505050610803565b5f81600181111561062e5761062e61110e565b90505f8160018111156106435761064361110e565b036106fc575f6106b88b8b8b8981811061065f5761065f611148565b9050602002810190610671919061115c565b61067f90602081019061117a565b8080601f0160208091040260200160405190810160405280939291908181526020018383808284375f92019190915250610ab092505050565b90506001600160a01b03811615806106e25750846001600160a01b0316816001600160a01b031614155b156106f6575f975050505050505050610803565b506107ec565b60018160018111156107105761071061110e565b036107de575f846001600160a01b0316631626ba7e8c8c8c8a81811061073857610738611148565b905060200281019061074a919061115c565b61075890602081019061117a565b6040518463ffffffff1660e01b8152600401610776939291906111bd565b602060405180830381865afa158015610791573d5f803e3d5ffd5b505050506040513d601f19601f820116820180604052508101906107b591906111df565b90506001600160e01b03198116630b135d3f60e11b146106f6575f975050505050505050610803565b5f9650505050505050610803565b5050600190920191506105bc9050565b5060019150505b9392505050565b6108126108ac565b6001600160a01b03811661083b57604051631e4fbdf760e01b81525f6004820152602401610285565b610491816109e9565b5f806108707f000000000000000000000000000000000000000000000000000000000000000084610ad8565b91509150915091565b61088483838361057a565b6108a7578282826040516364de46d160e11b815260040161028593929190611206565b505050565b336108de7f9016d09d72d40fdae2fd8ceac6b6234c7706214fd39c1cd1e609a0528c199300546001600160a01b031690565b6001600160a01b03161461044d5760405163118cdaa760e01b8152336004820152602401610285565b5f610803836001600160a01b038416610ae6565b7f0000000000000000000000000000000000000000000000000000000000000000811580610950575061094d816109df565b82115b156109715760405163651a749b60e01b815260048101839052602401610285565b6003810182905560405182907f6e8a187d7944998085dbd1f16b84c51c903bb727536cdba86962439aded2cfd7905f90a25050565b5f807ff0c57e16840df040f15088dc2f81fe391c3923bec73e23a9662efc9c229c6a0061047a565b6109d6610b02565b61049181610b27565b5f61047a82610b2f565b7f9016d09d72d40fdae2fd8ceac6b6234c7706214fd39c1cd1e609a0528c19930080546001600160a01b031981166001600160a01b03848116918217845560405192169182907f8be0079c531659141344cd1fd0a4f28419497f9722a3daafe3b4186f6b6457e0905f90a3505050565b5f610803836001600160a01b038416610b39565b5f610a82846001600160a01b03851684610b44565b949350505050565b5f808080610aa1866001600160a01b038716610b60565b909450925050505b9250929050565b5f805f80610abe8686610b98565b925092509250610ace8282610be1565b5090949350505050565b5f808080610aa18686610c9d565b5f81815260028301602052604081208190556108038383610cc6565b610b0a610cd1565b61044d57604051631afcd79f60e31b815260040160405180910390fd5b610812610b02565b5f61047a82610cea565b5f6108038383610cf3565b5f8281526002840160205260408120829055610a828484610d0a565b5f818152600283016020526040812054819080610b8d57610b818585610b39565b92505f9150610aa99050565b600192509050610aa9565b5f805f8351604103610bcf576020840151604085015160608601515f1a610bc188828585610d15565b955095509550505050610bda565b505081515f91506002905b9250925092565b5f826003811115610bf457610bf461110e565b03610bfd575050565b6001826003811115610c1157610c1161110e565b03610c2f5760405163f645eedf60e01b815260040160405180910390fd5b6002826003811115610c4357610c4361110e565b03610c645760405163fce698f760e01b815260048101829052602401610285565b6003826003811115610c7857610c7861110e565b03610c99576040516335e2f38360e21b815260048101829052602401610285565b5050565b5f8080610caa8585610ddd565b5f81815260029690960160205260409095205494959350505050565b5f6108038383610de8565b5f610cda6109a6565b54600160401b900460ff16919050565b5f61047a825490565b5f8181526001830160205260408120541515610803565b5f6108038383610ecb565b5f80807f7fffffffffffffffffffffffffffffff5d576e7357a4501ddfe92f46681b20a0841115610d4e57505f91506003905082610dd3565b604080515f808252602082018084528a905260ff891692820192909252606081018790526080810186905260019060a0016020604051602081039080840390855afa158015610d9f573d5f803e3d5ffd5b5050604051601f1901519150506001600160a01b038116610dca57505f925060019150829050610dd3565b92505f91508190505b9450945094915050565b5f6108038383610f17565b5f8181526001830160205260408120548015610ec2575f610e0a6001836112df565b85549091505f90610e1d906001906112df565b9050808214610e7c575f865f018281548110610e3b57610e3b611148565b905f5260205f200154905080875f018481548110610e5b57610e5b611148565b5f918252602080832090910192909255918252600188019052604090208390555b8554869080610e8d57610e8d6112fe565b600190038181905f5260205f20015f90559055856001015f8681526020019081526020015f205f90556001935050505061047a565b5f91505061047a565b5f818152600183016020526040812054610f1057508154600181810184555f84815260208082209093018490558454848252828601909352604090209190915561047a565b505f61047a565b5f825f018281548110610f2c57610f2c611148565b905f5260205f200154905092915050565b6001600160a01b0381168114610491575f80fd5b5f8060408385031215610f62575f80fd5b8235610f6d81610f3d565b946020939093013593505050565b5f8060208385031215610f8c575f80fd5b823567ffffffffffffffff80821115610fa3575f80fd5b818501915085601f830112610fb6575f80fd5b813581811115610fc4575f80fd5b866020828501011115610fd5575f80fd5b60209290920196919550909350505050565b5f60208284031215610ff7575f80fd5b813561080381610f3d565b5f60208284031215611012575f80fd5b5035919050565b5f805f6060848603121561102b575f80fd5b833561103681610f3d565b925060208401359150604084013560028110611050575f80fd5b809150509250925092565b5f805f6040848603121561106d575f80fd5b83359250602084013567ffffffffffffffff8082111561108b575f80fd5b818601915086601f83011261109e575f80fd5b8135818111156110ac575f80fd5b8760208260051b85010111156110c0575f80fd5b6020830194508093505050509250925092565b81835281816020850137505f828201602090810191909152601f909101601f19169091010190565b602081525f610a826020830184866110d3565b634e487b7160e01b5f52602160045260245ffd5b602081016002831061114257634e487b7160e01b5f52602160045260245ffd5b91905290565b634e487b7160e01b5f52603260045260245ffd5b5f8235603e19833603018112611170575f80fd5b9190910192915050565b5f808335601e1984360301811261118f575f80fd5b83018035915067ffffffffffffffff8211156111a9575f80fd5b602001915036819003821315610aa9575f80fd5b838152604060208201525f6111d66040830184866110d3565b95945050505050565b5f602082840312156111ef575f80fd5b81516001600160e01b031981168114610803575f80fd5b5f604080830186845260206040818601528186835260608601905060608760051b8701019250875f5b888110156112d057878503605f190183528135368b9003603e19018112611254575f80fd5b8a01803561126181610f3d565b6001600160a01b031686528085013536829003601e19018112611282575f80fd5b01848101903567ffffffffffffffff81111561129c575f80fd5b8036038213156112aa575f80fd5b87868801526112bc88880182846110d3565b96505050918301919083019060010161122f565b50929998505050505050505050565b8181038181111561047a57634e487b7160e01b5f52601160045260245ffd5b634e487b7160e01b5f52603160045260245ffdfea26469706673582212208bf0e6707fa9ba35aafc8d7164109b33713c18abee24038326d0acc6612312e564736f6c63430008190033","linkReferences":{}},"methodIdentifiers":{"addSigner(address,uint256,uint8)":"9aa1a31a","checkSignatures(bytes32,(address,bytes)[])":"b31078d3","initialize(bytes)":"439fab91","isSigner(address)":"7df73e27","owner()":"8da5cb5b","removeSigner(address,uint256)":"3bad5426","renounceOwnership()":"715018a6","requireValidSignatures(bytes32,(address,bytes)[])":"faa4da34","setThreshold(uint256)":"960bfe04","signerAt(uint256)":"fa3e6da4","signers()":"46f0975a","threshold()":"42cde4e8","transferOwnership(address)":"f2fde38b"},"id":129}