{"abi":[{"type":"constructor","inputs":[{"name":"name_","type":"string","internalType":"string"},{"name":"version_","type":"uint256","internalType":"uint256"}],"stateMutability":"nonpayable"},{"type":"receive","stateMutability":"payable"},{"type":"function","name":"DEFAULT_ADMIN_ROLE","inputs":[],"outputs":[{"name":"","type":"bytes32","internalType":"bytes32"}],"stateMutability":"view"},{"type":"function","name":"getRoleAdmin","inputs":[{"name":"role","type":"bytes32","internalType":"bytes32"}],"outputs":[{"name":"","type":"bytes32","internalType":"bytes32"}],"stateMutability":"view"},{"type":"function","name":"getRoleMember","inputs":[{"name":"role","type":"bytes32","internalType":"bytes32"},{"name":"index","type":"uint256","internalType":"uint256"}],"outputs":[{"name":"","type":"address","internalType":"address"}],"stateMutability":"view"},{"type":"function","name":"getRoleMemberCount","inputs":[{"name":"role","type":"bytes32","internalType":"bytes32"}],"outputs":[{"name":"","type":"uint256","internalType":"uint256"}],"stateMutability":"view"},{"type":"function","name":"getRoleMembers","inputs":[{"name":"role","type":"bytes32","internalType":"bytes32"}],"outputs":[{"name":"","type":"address[]","internalType":"address[]"}],"stateMutability":"view"},{"type":"function","name":"getStorageAt","inputs":[{"name":"slot","type":"bytes32","internalType":"bytes32"}],"outputs":[{"name":"","type":"tuple","internalType":"struct StorageSlot.Bytes32Slot","components":[{"name":"value","type":"bytes32","internalType":"bytes32"}]}],"stateMutability":"pure"},{"type":"function","name":"grantRole","inputs":[{"name":"role","type":"bytes32","internalType":"bytes32"},{"name":"account","type":"address","internalType":"address"}],"outputs":[],"stateMutability":"nonpayable"},{"type":"function","name":"hasRole","inputs":[{"name":"role","type":"bytes32","internalType":"bytes32"},{"name":"account","type":"address","internalType":"address"}],"outputs":[{"name":"","type":"bool","internalType":"bool"}],"stateMutability":"view"},{"type":"function","name":"hasSupportedRole","inputs":[{"name":"role","type":"bytes32","internalType":"bytes32"}],"outputs":[{"name":"","type":"bool","internalType":"bool"}],"stateMutability":"view"},{"type":"function","name":"initialize","inputs":[{"name":"initParams","type":"bytes","internalType":"bytes"}],"outputs":[],"stateMutability":"nonpayable"},{"type":"function","name":"onERC721Received","inputs":[{"name":"","type":"address","internalType":"address"},{"name":"","type":"address","internalType":"address"},{"name":"","type":"uint256","internalType":"uint256"},{"name":"","type":"bytes","internalType":"bytes"}],"outputs":[{"name":"","type":"bytes4","internalType":"bytes4"}],"stateMutability":"pure"},{"type":"function","name":"renounceRole","inputs":[{"name":"role","type":"bytes32","internalType":"bytes32"},{"name":"callerConfirmation","type":"address","internalType":"address"}],"outputs":[],"stateMutability":"nonpayable"},{"type":"function","name":"revokeRole","inputs":[{"name":"role","type":"bytes32","internalType":"bytes32"},{"name":"account","type":"address","internalType":"address"}],"outputs":[],"stateMutability":"nonpayable"},{"type":"function","name":"supportedRoleAt","inputs":[{"name":"index","type":"uint256","internalType":"uint256"}],"outputs":[{"name":"","type":"bytes32","internalType":"bytes32"}],"stateMutability":"view"},{"type":"function","name":"supportedRoles","inputs":[],"outputs":[{"name":"","type":"uint256","internalType":"uint256"}],"stateMutability":"view"},{"type":"function","name":"supportsInterface","inputs":[{"name":"interfaceId","type":"bytes4","internalType":"bytes4"}],"outputs":[{"name":"","type":"bool","internalType":"bool"}],"stateMutability":"view"},{"type":"function","name":"test","inputs":[],"outputs":[],"stateMutability":"nonpayable"},{"type":"event","name":"Initialized","inputs":[{"name":"version","type":"uint64","indexed":false,"internalType":"uint64"}],"anonymous":false},{"type":"event","name":"RoleAdded","inputs":[{"name":"role","type":"bytes32","indexed":true,"internalType":"bytes32"}],"anonymous":false},{"type":"event","name":"RoleAdminChanged","inputs":[{"name":"role","type":"bytes32","indexed":true,"internalType":"bytes32"},{"name":"previousAdminRole","type":"bytes32","indexed":true,"internalType":"bytes32"},{"name":"newAdminRole","type":"bytes32","indexed":true,"internalType":"bytes32"}],"anonymous":false},{"type":"event","name":"RoleGranted","inputs":[{"name":"role","type":"bytes32","indexed":true,"internalType":"bytes32"},{"name":"account","type":"address","indexed":true,"internalType":"address"},{"name":"sender","type":"address","indexed":true,"internalType":"address"}],"anonymous":false},{"type":"event","name":"RoleRemoved","inputs":[{"name":"role","type":"bytes32","indexed":true,"internalType":"bytes32"}],"anonymous":false},{"type":"event","name":"RoleRevoked","inputs":[{"name":"role","type":"bytes32","indexed":true,"internalType":"bytes32"},{"name":"account","type":"address","indexed":true,"internalType":"address"},{"name":"sender","type":"address","indexed":true,"internalType":"address"}],"anonymous":false},{"type":"error","name":"AccessControlBadConfirmation","inputs":[]},{"type":"error","name":"AccessControlUnauthorizedAccount","inputs":[{"name":"account","type":"address","internalType":"address"},{"name":"neededRole","type":"bytes32","internalType":"bytes32"}]},{"type":"error","name":"Forbidden","inputs":[]},{"type":"error","name":"InvalidInitialization","inputs":[]},{"type":"error","name":"NotInitializing","inputs":[]},{"type":"error","name":"ReentrancyGuardReentrantCall","inputs":[]},{"type":"error","name":"ZeroAddress","inputs":[]}],"bytecode":{"object":"0x60a060405234801561000f575f80fd5b5060405161122c38038061122c83398101604081905261002e916101c7565b8181818161003a61007b565b60408051808201909152600981526813595b1b1bddd050d360ba1b6020820152610065908383610118565b60805261007061007b565b5050505050506102f9565b5f610084610189565b805490915068010000000000000000900460ff16156100b65760405163f92ee8a960e01b815260040160405180910390fd5b80546001600160401b03908116146101155780546001600160401b0319166001600160401b0390811782556040519081527fc7f505b2f371ae2175ee4913f4499e1f2633a7b5936321eed1cdaeb6115181d29060200160405180910390a15b50565b5f60ff5f1b19600185858560405160200161013593929190610292565b604051602081830303815290604052805190602001205f1c61015791906102da565b60405160200161016991815260200190565b604051602081830303815290604052805190602001201690509392505050565b5f807ff0c57e16840df040f15088dc2f81fe391c3923bec73e23a9662efc9c229c6a005b92915050565b634e487b7160e01b5f52604160045260245ffd5b5f80604083850312156101d8575f80fd5b82516001600160401b03808211156101ee575f80fd5b818501915085601f830112610201575f80fd5b815181811115610213576102136101b3565b604051601f8201601f19908116603f0116810190838211818310171561023b5761023b6101b3565b81604052828152886020848701011115610253575f80fd5b8260208601602083015e5f602084830101528096505050505050602083015190509250929050565b5f81518060208401855e5f93019283525090919050565b7f6d656c6c6f772e666c657869626c652d7661756c74732e73746f726167652e0081525f6102cc6102c6601f84018761027b565b8561027b565b928352505060200192915050565b818103818111156101ad57634e487b7160e01b5f52601160045260245ffd5b608051610eff61032d5f395f818161042d01528181610566015281816105f4015281816106e1015261076a0152610eff5ff3fe6080604052600436106100fd575f3560e01c80634a46b4cf11610092578063a2cb31e511610062578063a2cb31e5146102ef578063a3246ad31461030e578063ca15c8731461033a578063d547741f14610359578063f8a8fd6d14610378575f80fd5b80634a46b4cf146102675780639010d07c1461028657806391d14854146102bd578063a217fddf146102dc575f80fd5b80632f2ff15d116100cd5780632f2ff15d146101f457806336568abe14610215578063419a205314610234578063439fab9114610248575f80fd5b806301ffc9a714610108578063150b7a021461013c5780631ca0027a14610180578063248a9ca3146101c7575f80fd5b3661010457005b5f80fd5b348015610113575f80fd5b50610127610122366004610c49565b610383565b60405190151581526020015b60405180910390f35b348015610147575f80fd5b50610167610156366004610cc9565b630a85bd0160e11b95945050505050565b6040516001600160e01b03199091168152602001610133565b34801561018b575f80fd5b506101b861019a366004610d37565b60408051602080820183525f90915281519081019091529054815290565b60405190518152602001610133565b3480156101d2575f80fd5b506101e66101e1366004610d37565b6103ad565b604051908152602001610133565b3480156101ff575f80fd5b5061021361020e366004610d4e565b6103cd565b005b348015610220575f80fd5b5061021361022f366004610d4e565b6103ef565b34801561023f575f80fd5b506101e6610427565b348015610253575f80fd5b50610213610262366004610d7c565b610456565b348015610272575f80fd5b50610127610281366004610d37565b610560565b348015610291575f80fd5b506102a56102a0366004610dbb565b61058b565b6040516001600160a01b039091168152602001610133565b3480156102c8575f80fd5b506101276102d7366004610d4e565b6105b8565b3480156102e7575f80fd5b506101e65f81565b3480156102fa575f80fd5b506101e6610309366004610d37565b6105ee565b348015610319575f80fd5b5061032d610328366004610d37565b610619565b6040516101339190610ddb565b348015610345575f80fd5b506101e6610354366004610d37565b610649565b348015610364575f80fd5b50610213610373366004610d4e565b61066d565b348015610213575f80fd5b5f6001600160e01b03198216635a05180f60e01b14806103a757506103a78261068b565b92915050565b5f9081525f80516020610eaa833981519152602052604090206001015490565b6103d6826103ad565b6103df816106bf565b6103e983836106cc565b50505050565b6001600160a01b03811633146104185760405163334bd91960e11b815260040160405180910390fd5b6104228282610746565b505050565b5f6104517f00000000000000000000000000000000000000000000000000000000000000006107c2565b905090565b5f61045f6107cb565b805490915060ff600160401b820416159067ffffffffffffffff165f811580156104865750825b90505f8267ffffffffffffffff1660011480156104a25750303b155b9050811580156104b0575080155b156104ce5760405163f92ee8a960e01b815260040160405180910390fd5b845467ffffffffffffffff1916600117855583156104f857845460ff60401b1916600160401b1785555b5f61050587890189610e27565b9050610510816107f3565b50831561055757845460ff60401b19168555604051600181527fc7f505b2f371ae2175ee4913f4499e1f2633a7b5936321eed1cdaeb6115181d29060200160405180910390a15b50505050505050565b5f6103a77f000000000000000000000000000000000000000000000000000000000000000083610830565b5f8281525f80516020610e8a8339815191526020819052604082206105b09084610847565b949350505050565b5f9182525f80516020610eaa833981519152602090815260408084206001600160a01b0393909316845291905290205460ff1690565b5f6103a77f000000000000000000000000000000000000000000000000000000000000000083610847565b5f8181525f80516020610e8a833981519152602081905260409091206060919061064290610852565b9392505050565b5f8181525f80516020610e8a833981519152602081905260408220610642906107c2565b610676826103ad565b61067f816106bf565b6103e98383610746565b565b5f6001600160e01b03198216637965db0b60e01b14806103a757506301ffc9a760e01b6001600160e01b03198316146103a7565b6106c9813361085e565b50565b5f6106d7838361089b565b1561073e576107067f0000000000000000000000000000000000000000000000000000000000000000846108dd565b156107365760405183907fea0f1c470fa813c725756c036120b6688028969f5afbc607918fcd1ff9229435905f90a25b5060016103a7565b505f92915050565b5f61075183836108e8565b1561073e5761075f83610649565b5f036107365761078f7f000000000000000000000000000000000000000000000000000000000000000084610921565b5060405183907f4c9a714f78b79aa08074addab7cbdb196cccdf6d67efbf0b99914db8a6b08e73905f90a25060016103a7565b5f6103a7825490565b5f807ff0c57e16840df040f15088dc2f81fe391c3923bec73e23a9662efc9c229c6a006103a7565b6107fb61092c565b6001600160a01b0381166108225760405163d92e233d60e01b815260040160405180910390fd5b61082c5f826106cc565b5050565b5f8181526001830160205260408120541515610642565b5f6106428383610951565b60605f61064283610977565b61086882826105b8565b61082c5760405163e2517d3f60e01b81526001600160a01b03821660048201526024810183905260440160405180910390fd5b5f5f80516020610e8a833981519152816108b585856109d0565b905080156105b0575f8581526020839052604090206108d49085610a71565b50949350505050565b5f6106428383610a81565b5f5f80516020610e8a833981519152816109028585610acd565b905080156105b0575f8581526020839052604090206108d49085610b46565b5f6106428383610b56565b610934610c30565b61068957604051631afcd79f60e31b815260040160405180910390fd5b5f825f01828154811061096657610966610e42565b905f5260205f200154905092915050565b6060815f018054806020026020016040519081016040528092919081815260200182805480156109c457602002820191905f5260205f20905b8154815260200190600101908083116109b0575b50505050509050919050565b5f5f80516020610eaa8339815191526109e984846105b8565b610a68575f848152602082815260408083206001600160a01b03871684529091529020805460ff19166001179055610a1e3390565b6001600160a01b0316836001600160a01b0316857f2f8788117e7eff1d82e926ec794901d17c78024a50270940304540a733656f0d60405160405180910390a460019150506103a7565b5f9150506103a7565b5f610642836001600160a01b0384165b5f818152600183016020526040812054610ac657508154600181810184555f8481526020808220909301849055845484825282860190935260409020919091556103a7565b505f6103a7565b5f5f80516020610eaa833981519152610ae684846105b8565b15610a68575f848152602082815260408083206001600160a01b0387168085529252808320805460ff1916905551339287917ff6391f5c32d9c69d2a47ea670b442974b53935d1edc7fd64eb21e047a839171b9190a460019150506103a7565b5f610642836001600160a01b0384165b5f8181526001830160205260408120548015610a68575f610b78600183610e56565b85549091505f90610b8b90600190610e56565b9050808214610bea575f865f018281548110610ba957610ba9610e42565b905f5260205f200154905080875f018481548110610bc957610bc9610e42565b5f918252602080832090910192909255918252600188019052604090208390555b8554869080610bfb57610bfb610e75565b600190038181905f5260205f20015f90559055856001015f8681526020019081526020015f205f9055600193505050506103a7565b5f610c396107cb565b54600160401b900460ff16919050565b5f60208284031215610c59575f80fd5b81356001600160e01b031981168114610642575f80fd5b6001600160a01b03811681146106c9575f80fd5b5f8083601f840112610c94575f80fd5b50813567ffffffffffffffff811115610cab575f80fd5b602083019150836020828501011115610cc2575f80fd5b9250929050565b5f805f805f60808688031215610cdd575f80fd5b8535610ce881610c70565b94506020860135610cf881610c70565b935060408601359250606086013567ffffffffffffffff811115610d1a575f80fd5b610d2688828901610c84565b969995985093965092949392505050565b5f60208284031215610d47575f80fd5b5035919050565b5f8060408385031215610d5f575f80fd5b823591506020830135610d7181610c70565b809150509250929050565b5f8060208385031215610d8d575f80fd5b823567ffffffffffffffff811115610da3575f80fd5b610daf85828601610c84565b90969095509350505050565b5f8060408385031215610dcc575f80fd5b50508035926020909101359150565b602080825282518282018190525f9190848201906040850190845b81811015610e1b5783516001600160a01b031683529284019291840191600101610df6565b50909695505050505050565b5f60208284031215610e37575f80fd5b813561064281610c70565b634e487b7160e01b5f52603260045260245ffd5b818103818111156103a757634e487b7160e01b5f52601160045260245ffd5b634e487b7160e01b5f52603160045260245ffdfec1f6fe24621ce81ec5827caf0253cadb74709b061630e6b55e8237170593200002dd7bc7dec4dceedda775e58dd541e08a116c6c53815c0bd028192f7b626800a26469706673582212204bc6b75038856f24c738dc51adb71afefea7585f092c787d41eb37f6a5fee1f164736f6c63430008190033","linkReferences":{}},"methodIdentifiers":{"DEFAULT_ADMIN_ROLE()":"a217fddf","getRoleAdmin(bytes32)":"248a9ca3","getRoleMember(bytes32,uint256)":"9010d07c","getRoleMemberCount(bytes32)":"ca15c873","getRoleMembers(bytes32)":"a3246ad3","getStorageAt(bytes32)":"1ca0027a","grantRole(bytes32,address)":"2f2ff15d","hasRole(bytes32,address)":"91d14854","hasSupportedRole(bytes32)":"4a46b4cf","initialize(bytes)":"439fab91","onERC721Received(address,address,uint256,bytes)":"150b7a02","renounceRole(bytes32,address)":"36568abe","revokeRole(bytes32,address)":"d547741f","supportedRoleAt(uint256)":"a2cb31e5","supportedRoles()":"419a2053","supportsInterface(bytes4)":"01ffc9a7","test()":"f8a8fd6d"},"id":153}