{"abi":[{"type":"constructor","inputs":[{"name":"name_","type":"string","internalType":"string"},{"name":"version_","type":"uint256","internalType":"uint256"},{"name":"depositQueueFactory_","type":"address","internalType":"address"},{"name":"redeemQueueFactory_","type":"address","internalType":"address"},{"name":"subvaultFactory_","type":"address","internalType":"address"},{"name":"verifierFactory_","type":"address","internalType":"address"}],"stateMutability":"nonpayable"},{"type":"receive","stateMutability":"payable"},{"type":"function","name":"CREATE_QUEUE_ROLE","inputs":[],"outputs":[{"name":"","type":"bytes32","internalType":"bytes32"}],"stateMutability":"view"},{"type":"function","name":"CREATE_SUBVAULT_ROLE","inputs":[],"outputs":[{"name":"","type":"bytes32","internalType":"bytes32"}],"stateMutability":"view"},{"type":"function","name":"DEFAULT_ADMIN_ROLE","inputs":[],"outputs":[{"name":"","type":"bytes32","internalType":"bytes32"}],"stateMutability":"view"},{"type":"function","name":"DISCONNECT_SUBVAULT_ROLE","inputs":[],"outputs":[{"name":"","type":"bytes32","internalType":"bytes32"}],"stateMutability":"view"},{"type":"function","name":"PULL_LIQUIDITY_ROLE","inputs":[],"outputs":[{"name":"","type":"bytes32","internalType":"bytes32"}],"stateMutability":"view"},{"type":"function","name":"PUSH_LIQUIDITY_ROLE","inputs":[],"outputs":[{"name":"","type":"bytes32","internalType":"bytes32"}],"stateMutability":"view"},{"type":"function","name":"RECONNECT_SUBVAULT_ROLE","inputs":[],"outputs":[{"name":"","type":"bytes32","internalType":"bytes32"}],"stateMutability":"view"},{"type":"function","name":"REMOVE_QUEUE_ROLE","inputs":[],"outputs":[{"name":"","type":"bytes32","internalType":"bytes32"}],"stateMutability":"view"},{"type":"function","name":"SET_HOOK_ROLE","inputs":[],"outputs":[{"name":"","type":"bytes32","internalType":"bytes32"}],"stateMutability":"view"},{"type":"function","name":"SET_QUEUE_LIMIT_ROLE","inputs":[],"outputs":[{"name":"","type":"bytes32","internalType":"bytes32"}],"stateMutability":"view"},{"type":"function","name":"SET_QUEUE_STATUS_ROLE","inputs":[],"outputs":[{"name":"","type":"bytes32","internalType":"bytes32"}],"stateMutability":"view"},{"type":"function","name":"assetAt","inputs":[{"name":"index","type":"uint256","internalType":"uint256"}],"outputs":[{"name":"","type":"address","internalType":"address"}],"stateMutability":"view"},{"type":"function","name":"callHook","inputs":[{"name":"assets","type":"uint256","internalType":"uint256"}],"outputs":[],"stateMutability":"nonpayable"},{"type":"function","name":"claimShares","inputs":[{"name":"account","type":"address","internalType":"address"}],"outputs":[],"stateMutability":"nonpayable"},{"type":"function","name":"claimableSharesOf","inputs":[{"name":"account","type":"address","internalType":"address"}],"outputs":[{"name":"shares","type":"uint256","internalType":"uint256"}],"stateMutability":"view"},{"type":"function","name":"createQueue","inputs":[{"name":"version","type":"uint256","internalType":"uint256"},{"name":"isDeposit","type":"bool","internalType":"bool"},{"name":"owner","type":"address","internalType":"address"},{"name":"asset","type":"address","internalType":"address"},{"name":"data","type":"bytes","internalType":"bytes"}],"outputs":[],"stateMutability":"nonpayable"},{"type":"function","name":"createSubvault","inputs":[{"name":"version","type":"uint256","internalType":"uint256"},{"name":"owner","type":"address","internalType":"address"},{"name":"verifier","type":"address","internalType":"address"}],"outputs":[{"name":"subvault","type":"address","internalType":"address"}],"stateMutability":"nonpayable"},{"type":"function","name":"defaultDepositHook","inputs":[],"outputs":[{"name":"","type":"address","internalType":"address"}],"stateMutability":"view"},{"type":"function","name":"defaultRedeemHook","inputs":[],"outputs":[{"name":"","type":"address","internalType":"address"}],"stateMutability":"view"},{"type":"function","name":"depositQueueFactory","inputs":[],"outputs":[{"name":"","type":"address","internalType":"contract IFactory"}],"stateMutability":"view"},{"type":"function","name":"disconnectSubvault","inputs":[{"name":"subvault","type":"address","internalType":"address"}],"outputs":[],"stateMutability":"nonpayable"},{"type":"function","name":"feeManager","inputs":[],"outputs":[{"name":"","type":"address","internalType":"contract IFeeManager"}],"stateMutability":"view"},{"type":"function","name":"getAssetCount","inputs":[],"outputs":[{"name":"","type":"uint256","internalType":"uint256"}],"stateMutability":"view"},{"type":"function","name":"getHook","inputs":[{"name":"queue","type":"address","internalType":"address"}],"outputs":[{"name":"","type":"address","internalType":"address"}],"stateMutability":"view"},{"type":"function","name":"getLiquidAssets","inputs":[],"outputs":[{"name":"","type":"uint256","internalType":"uint256"}],"stateMutability":"view"},{"type":"function","name":"getQueueCount","inputs":[],"outputs":[{"name":"","type":"uint256","internalType":"uint256"}],"stateMutability":"view"},{"type":"function","name":"getQueueCount","inputs":[{"name":"asset","type":"address","internalType":"address"}],"outputs":[{"name":"","type":"uint256","internalType":"uint256"}],"stateMutability":"view"},{"type":"function","name":"getRoleAdmin","inputs":[{"name":"role","type":"bytes32","internalType":"bytes32"}],"outputs":[{"name":"","type":"bytes32","internalType":"bytes32"}],"stateMutability":"view"},{"type":"function","name":"getRoleMember","inputs":[{"name":"role","type":"bytes32","internalType":"bytes32"},{"name":"index","type":"uint256","internalType":"uint256"}],"outputs":[{"name":"","type":"address","internalType":"address"}],"stateMutability":"view"},{"type":"function","name":"getRoleMemberCount","inputs":[{"name":"role","type":"bytes32","internalType":"bytes32"}],"outputs":[{"name":"","type":"uint256","internalType":"uint256"}],"stateMutability":"view"},{"type":"function","name":"getRoleMembers","inputs":[{"name":"role","type":"bytes32","internalType":"bytes32"}],"outputs":[{"name":"","type":"address[]","internalType":"address[]"}],"stateMutability":"view"},{"type":"function","name":"getStorageAt","inputs":[{"name":"slot","type":"bytes32","internalType":"bytes32"}],"outputs":[{"name":"","type":"tuple","internalType":"struct StorageSlot.Bytes32Slot","components":[{"name":"value","type":"bytes32","internalType":"bytes32"}]}],"stateMutability":"pure"},{"type":"function","name":"grantRole","inputs":[{"name":"role","type":"bytes32","internalType":"bytes32"},{"name":"account","type":"address","internalType":"address"}],"outputs":[],"stateMutability":"nonpayable"},{"type":"function","name":"handleReport","inputs":[{"name":"asset","type":"address","internalType":"address"},{"name":"priceD18","type":"uint224","internalType":"uint224"},{"name":"depositTimestamp","type":"uint32","internalType":"uint32"},{"name":"redeemTimestamp","type":"uint32","internalType":"uint32"}],"outputs":[],"stateMutability":"nonpayable"},{"type":"function","name":"hasAsset","inputs":[{"name":"asset","type":"address","internalType":"address"}],"outputs":[{"name":"","type":"bool","internalType":"bool"}],"stateMutability":"view"},{"type":"function","name":"hasQueue","inputs":[{"name":"queue","type":"address","internalType":"address"}],"outputs":[{"name":"","type":"bool","internalType":"bool"}],"stateMutability":"view"},{"type":"function","name":"hasRole","inputs":[{"name":"role","type":"bytes32","internalType":"bytes32"},{"name":"account","type":"address","internalType":"address"}],"outputs":[{"name":"","type":"bool","internalType":"bool"}],"stateMutability":"view"},{"type":"function","name":"hasSubvault","inputs":[{"name":"subvault","type":"address","internalType":"address"}],"outputs":[{"name":"","type":"bool","internalType":"bool"}],"stateMutability":"view"},{"type":"function","name":"hasSupportedRole","inputs":[{"name":"role","type":"bytes32","internalType":"bytes32"}],"outputs":[{"name":"","type":"bool","internalType":"bool"}],"stateMutability":"view"},{"type":"function","name":"hookPullAssets","inputs":[{"name":"subvault","type":"address","internalType":"address"},{"name":"asset","type":"address","internalType":"address"},{"name":"value","type":"uint256","internalType":"uint256"}],"outputs":[],"stateMutability":"nonpayable"},{"type":"function","name":"hookPushAssets","inputs":[{"name":"subvault","type":"address","internalType":"address"},{"name":"asset","type":"address","internalType":"address"},{"name":"value","type":"uint256","internalType":"uint256"}],"outputs":[],"stateMutability":"nonpayable"},{"type":"function","name":"initialize","inputs":[{"name":"initParams","type":"bytes","internalType":"bytes"}],"outputs":[],"stateMutability":"nonpayable"},{"type":"function","name":"isDepositQueue","inputs":[{"name":"queue","type":"address","internalType":"address"}],"outputs":[{"name":"","type":"bool","internalType":"bool"}],"stateMutability":"view"},{"type":"function","name":"isPausedQueue","inputs":[{"name":"queue","type":"address","internalType":"address"}],"outputs":[{"name":"","type":"bool","internalType":"bool"}],"stateMutability":"view"},{"type":"function","name":"onERC721Received","inputs":[{"name":"","type":"address","internalType":"address"},{"name":"","type":"address","internalType":"address"},{"name":"","type":"uint256","internalType":"uint256"},{"name":"","type":"bytes","internalType":"bytes"}],"outputs":[{"name":"","type":"bytes4","internalType":"bytes4"}],"stateMutability":"pure"},{"type":"function","name":"oracle","inputs":[],"outputs":[{"name":"","type":"address","internalType":"contract IOracle"}],"stateMutability":"view"},{"type":"function","name":"pullAssets","inputs":[{"name":"subvault","type":"address","internalType":"address"},{"name":"asset","type":"address","internalType":"address"},{"name":"value","type":"uint256","internalType":"uint256"}],"outputs":[],"stateMutability":"nonpayable"},{"type":"function","name":"pushAssets","inputs":[{"name":"subvault","type":"address","internalType":"address"},{"name":"asset","type":"address","internalType":"address"},{"name":"value","type":"uint256","internalType":"uint256"}],"outputs":[],"stateMutability":"nonpayable"},{"type":"function","name":"queueAt","inputs":[{"name":"asset","type":"address","internalType":"address"},{"name":"index","type":"uint256","internalType":"uint256"}],"outputs":[{"name":"","type":"address","internalType":"address"}],"stateMutability":"view"},{"type":"function","name":"queueLimit","inputs":[],"outputs":[{"name":"","type":"uint256","internalType":"uint256"}],"stateMutability":"view"},{"type":"function","name":"reconnectSubvault","inputs":[{"name":"subvault","type":"address","internalType":"address"}],"outputs":[],"stateMutability":"nonpayable"},{"type":"function","name":"redeemQueueFactory","inputs":[],"outputs":[{"name":"","type":"address","internalType":"contract IFactory"}],"stateMutability":"view"},{"type":"function","name":"removeQueue","inputs":[{"name":"queue","type":"address","internalType":"address"}],"outputs":[],"stateMutability":"nonpayable"},{"type":"function","name":"renounceRole","inputs":[{"name":"role","type":"bytes32","internalType":"bytes32"},{"name":"callerConfirmation","type":"address","internalType":"address"}],"outputs":[],"stateMutability":"nonpayable"},{"type":"function","name":"revokeRole","inputs":[{"name":"role","type":"bytes32","internalType":"bytes32"},{"name":"account","type":"address","internalType":"address"}],"outputs":[],"stateMutability":"nonpayable"},{"type":"function","name":"riskManager","inputs":[],"outputs":[{"name":"","type":"address","internalType":"contract IRiskManager"}],"stateMutability":"view"},{"type":"function","name":"setCustomHook","inputs":[{"name":"queue","type":"address","internalType":"address"},{"name":"hook","type":"address","internalType":"address"}],"outputs":[],"stateMutability":"nonpayable"},{"type":"function","name":"setDefaultDepositHook","inputs":[{"name":"hook","type":"address","internalType":"address"}],"outputs":[],"stateMutability":"nonpayable"},{"type":"function","name":"setDefaultRedeemHook","inputs":[{"name":"hook","type":"address","internalType":"address"}],"outputs":[],"stateMutability":"nonpayable"},{"type":"function","name":"setQueueLimit","inputs":[{"name":"limit","type":"uint256","internalType":"uint256"}],"outputs":[],"stateMutability":"nonpayable"},{"type":"function","name":"setQueueStatus","inputs":[{"name":"queue","type":"address","internalType":"address"},{"name":"isPaused","type":"bool","internalType":"bool"}],"outputs":[],"stateMutability":"nonpayable"},{"type":"function","name":"shareManager","inputs":[],"outputs":[{"name":"","type":"address","internalType":"contract IShareManager"}],"stateMutability":"view"},{"type":"function","name":"subvaultAt","inputs":[{"name":"index","type":"uint256","internalType":"uint256"}],"outputs":[{"name":"","type":"address","internalType":"address"}],"stateMutability":"view"},{"type":"function","name":"subvaultFactory","inputs":[],"outputs":[{"name":"","type":"address","internalType":"contract IFactory"}],"stateMutability":"view"},{"type":"function","name":"subvaults","inputs":[],"outputs":[{"name":"","type":"uint256","internalType":"uint256"}],"stateMutability":"view"},{"type":"function","name":"supportedRoleAt","inputs":[{"name":"index","type":"uint256","internalType":"uint256"}],"outputs":[{"name":"","type":"bytes32","internalType":"bytes32"}],"stateMutability":"view"},{"type":"function","name":"supportedRoles","inputs":[],"outputs":[{"name":"","type":"uint256","internalType":"uint256"}],"stateMutability":"view"},{"type":"function","name":"supportsInterface","inputs":[{"name":"interfaceId","type":"bytes4","internalType":"bytes4"}],"outputs":[{"name":"","type":"bool","internalType":"bool"}],"stateMutability":"view"},{"type":"function","name":"verifierFactory","inputs":[],"outputs":[{"name":"","type":"address","internalType":"contract IFactory"}],"stateMutability":"view"},{"type":"event","name":"AssetsPulled","inputs":[{"name":"asset","type":"address","indexed":true,"internalType":"address"},{"name":"subvault","type":"address","indexed":true,"internalType":"address"},{"name":"value","type":"uint256","indexed":false,"internalType":"uint256"}],"anonymous":false},{"type":"event","name":"AssetsPushed","inputs":[{"name":"asset","type":"address","indexed":true,"internalType":"address"},{"name":"subvault","type":"address","indexed":true,"internalType":"address"},{"name":"value","type":"uint256","indexed":false,"internalType":"uint256"}],"anonymous":false},{"type":"event","name":"CustomHookSet","inputs":[{"name":"queue","type":"address","indexed":true,"internalType":"address"},{"name":"hook","type":"address","indexed":true,"internalType":"address"}],"anonymous":false},{"type":"event","name":"DefaultHookSet","inputs":[{"name":"hook","type":"address","indexed":true,"internalType":"address"},{"name":"isDepositHook","type":"bool","indexed":false,"internalType":"bool"}],"anonymous":false},{"type":"event","name":"HookCalled","inputs":[{"name":"queue","type":"address","indexed":true,"internalType":"address"},{"name":"asset","type":"address","indexed":true,"internalType":"address"},{"name":"assets","type":"uint256","indexed":false,"internalType":"uint256"},{"name":"hook","type":"address","indexed":false,"internalType":"address"}],"anonymous":false},{"type":"event","name":"Initialized","inputs":[{"name":"version","type":"uint64","indexed":false,"internalType":"uint64"}],"anonymous":false},{"type":"event","name":"Initialized","inputs":[{"name":"initParams","type":"bytes","indexed":false,"internalType":"bytes"}],"anonymous":false},{"type":"event","name":"QueueCreated","inputs":[{"name":"queue","type":"address","indexed":true,"internalType":"address"},{"name":"asset","type":"address","indexed":true,"internalType":"address"},{"name":"isDepositQueue","type":"bool","indexed":false,"internalType":"bool"}],"anonymous":false},{"type":"event","name":"QueueLimitSet","inputs":[{"name":"limit","type":"uint256","indexed":false,"internalType":"uint256"}],"anonymous":false},{"type":"event","name":"QueueRemoved","inputs":[{"name":"queue","type":"address","indexed":true,"internalType":"address"},{"name":"asset","type":"address","indexed":true,"internalType":"address"}],"anonymous":false},{"type":"event","name":"ReportHandled","inputs":[{"name":"asset","type":"address","indexed":true,"internalType":"address"},{"name":"priceD18","type":"uint224","indexed":true,"internalType":"uint224"},{"name":"depositTimestamp","type":"uint32","indexed":false,"internalType":"uint32"},{"name":"redeemTimestamp","type":"uint32","indexed":false,"internalType":"uint32"},{"name":"fees","type":"uint256","indexed":false,"internalType":"uint256"}],"anonymous":false},{"type":"event","name":"RoleAdded","inputs":[{"name":"role","type":"bytes32","indexed":true,"internalType":"bytes32"}],"anonymous":false},{"type":"event","name":"RoleAdminChanged","inputs":[{"name":"role","type":"bytes32","indexed":true,"internalType":"bytes32"},{"name":"previousAdminRole","type":"bytes32","indexed":true,"internalType":"bytes32"},{"name":"newAdminRole","type":"bytes32","indexed":true,"internalType":"bytes32"}],"anonymous":false},{"type":"event","name":"RoleGranted","inputs":[{"name":"role","type":"bytes32","indexed":true,"internalType":"bytes32"},{"name":"account","type":"address","indexed":true,"internalType":"address"},{"name":"sender","type":"address","indexed":true,"internalType":"address"}],"anonymous":false},{"type":"event","name":"RoleRemoved","inputs":[{"name":"role","type":"bytes32","indexed":true,"internalType":"bytes32"}],"anonymous":false},{"type":"event","name":"RoleRevoked","inputs":[{"name":"role","type":"bytes32","indexed":true,"internalType":"bytes32"},{"name":"account","type":"address","indexed":true,"internalType":"address"},{"name":"sender","type":"address","indexed":true,"internalType":"address"}],"anonymous":false},{"type":"event","name":"SetQueueStatus","inputs":[{"name":"queue","type":"address","indexed":true,"internalType":"address"},{"name":"isPaused","type":"bool","indexed":true,"internalType":"bool"}],"anonymous":false},{"type":"event","name":"SharesClaimed","inputs":[{"name":"account","type":"address","indexed":true,"internalType":"address"}],"anonymous":false},{"type":"event","name":"SubvaultCreated","inputs":[{"name":"subvault","type":"address","indexed":true,"internalType":"address"},{"name":"version","type":"uint256","indexed":false,"internalType":"uint256"},{"name":"owner","type":"address","indexed":true,"internalType":"address"},{"name":"verifier","type":"address","indexed":true,"internalType":"address"}],"anonymous":false},{"type":"event","name":"SubvaultDisconnected","inputs":[{"name":"subvault","type":"address","indexed":true,"internalType":"address"}],"anonymous":false},{"type":"event","name":"SubvaultReconnected","inputs":[{"name":"subvault","type":"address","indexed":true,"internalType":"address"},{"name":"verifier","type":"address","indexed":true,"internalType":"address"}],"anonymous":false},{"type":"error","name":"AccessControlBadConfirmation","inputs":[]},{"type":"error","name":"AccessControlUnauthorizedAccount","inputs":[{"name":"account","type":"address","internalType":"address"},{"name":"neededRole","type":"bytes32","internalType":"bytes32"}]},{"type":"error","name":"AddressEmptyCode","inputs":[{"name":"target","type":"address","internalType":"address"}]},{"type":"error","name":"AlreadyConnected","inputs":[{"name":"subvault","type":"address","internalType":"address"}]},{"type":"error","name":"FailedCall","inputs":[]},{"type":"error","name":"Forbidden","inputs":[]},{"type":"error","name":"InsufficientBalance","inputs":[{"name":"balance","type":"uint256","internalType":"uint256"},{"name":"needed","type":"uint256","internalType":"uint256"}]},{"type":"error","name":"InvalidInitialization","inputs":[]},{"type":"error","name":"InvalidSubvault","inputs":[{"name":"subvault","type":"address","internalType":"address"}]},{"type":"error","name":"NotConnected","inputs":[{"name":"subvault","type":"address","internalType":"address"}]},{"type":"error","name":"NotEntity","inputs":[{"name":"subvault","type":"address","internalType":"address"}]},{"type":"error","name":"NotInitializing","inputs":[]},{"type":"error","name":"QueueLimitReached","inputs":[]},{"type":"error","name":"ReentrancyGuardReentrantCall","inputs":[]},{"type":"error","name":"SafeERC20FailedOperation","inputs":[{"name":"token","type":"address","internalType":"address"}]},{"type":"error","name":"UnsupportedAsset","inputs":[{"name":"asset","type":"address","internalType":"address"}]},{"type":"error","name":"ZeroAddress","inputs":[]},{"type":"error","name":"ZeroValue","inputs":[]}],"bytecode":{"object":"0x610160604052348015610010575f80fd5b5060405161472638038061472683398101604081905261002f91610282565b85858585838387878383818161004361011b565b60408051808201909152600981526813595b1b1bddd050d360ba1b602082015261006e9083836101b8565b60805261007961011b565b505050506100b16040518060400160405280600b81526020016a5661756c744d6f64756c6560a81b81525085856101b860201b60201c565b60e0526001600160a01b0391821660a0521660c052505060408051808201909152600b81526a53686172654d6f64756c6560a81b60208201526100f59085856101b8565b610140526001600160a01b03918216610100521661012052506103f39650505050505050565b5f610124610229565b805490915068010000000000000000900460ff16156101565760405163f92ee8a960e01b815260040160405180910390fd5b80546001600160401b03908116146101b55780546001600160401b0319166001600160401b0390811782556040519081527fc7f505b2f371ae2175ee4913f4499e1f2633a7b5936321eed1cdaeb6115181d29060200160405180910390a15b50565b5f60ff5f1b1960018585856040516020016101d59392919061038c565b604051602081830303815290604052805190602001205f1c6101f791906103d4565b60405160200161020991815260200190565b604051602081830303815290604052805190602001201690509392505050565b5f807ff0c57e16840df040f15088dc2f81fe391c3923bec73e23a9662efc9c229c6a005b92915050565b634e487b7160e01b5f52604160045260245ffd5b80516001600160a01b038116811461027d575f80fd5b919050565b5f805f805f8060c08789031215610297575f80fd5b86516001600160401b03808211156102ad575f80fd5b818901915089601f8301126102c0575f80fd5b8151818111156102d2576102d2610253565b604051601f8201601f19908116603f011681019083821181831017156102fa576102fa610253565b816040528281528c6020848701011115610312575f80fd5b8260208601602083015e5f60208483010152809a5050505050506020870151945061033f60408801610267565b935061034d60608801610267565b925061035b60808801610267565b915061036960a08801610267565b90509295509295509295565b5f81518060208401855e5f93019283525090919050565b7f6d656c6c6f772e666c657869626c652d7661756c74732e73746f726167652e0081525f6103c66103c0601f840187610375565b85610375565b928352505060200192915050565b8181038181111561024d57634e487b7160e01b5f52601160045260245ffd5b60805160a05160c05160e05161010051610120516101405161426b6104bb5f395f612e4201525f81816109750152611cd901525f818161078b0152611cff01525f818161119301528181611589015281816118b501528181611ba7015281816123040152818161239f0152818161244a015261324a01525f818161064a015281816116c4015261263d01525f81816109e6015281816117e8015261248b01525f8181611388015281816115be015281816123440152818161300a0152613093015261426b5ff3fe6080604052600436106103ed575f3560e01c8063850260ff1161020a578063b014f4451161011e578063e4f8d0e6116100a8578063eb56d52d11610078578063eb56d52d14610cc3578063ec0f580014610ce2578063ecef475f14610d01578063f31cb0c614610d20578063f68e730414610d3f575f80fd5b8063e4f8d0e614610c33578063e6c8cd9f14610c52578063e6ed8d7414610c71578063e984f35314610ca4575f80fd5b8063ca15c873116100ee578063ca15c87314610b8f578063d0fb020314610bae578063d27d250314610bc2578063d547741f14610be1578063d8b07a6514610c00575f80fd5b8063b014f44514610aff578063b1a62e3b14610b1e578063b2b71a2714610b51578063b91c935c14610b70575f80fd5b80639ff2cb9d1161019f578063a3246ad31161016f578063a3246ad314610a4e578063a35f620a14610a7a578063a567fb4714610a8e578063aa9239f514610aad578063adf167ce14610acc575f80fd5b80639ff2cb9d146109d5578063a0aead4d14610a08578063a217fddf14610a1c578063a2cb31e514610a2f575f80fd5b806392e6ece5116101da57806392e6ece5146109455780639662d42914610964578063974d942e146109975780639bd0911b146109b6575f80fd5b8063850260ff146108c95780638679ed7c146108e85780639010d07c1461090757806391d1485414610926575f80fd5b8063419a2053116103015780635636d54911610296578063651ae6c711610266578063651ae6c71461081c578063663ade061461084f5780636b8b1ccd146108825780637dc0d1d0146108965780638333903b146108aa575f80fd5b80635636d549146107ad57806358b7bf30146107c15780635c60173d146107f45780635d66b00a14610808575f80fd5b80634b694b96116102d15780634b694b961461071d5780634b812c1f1461073c57806352278ab71461075b57806352fd42541461077a575f80fd5b8063419a2053146106b7578063439fab91146106cb57806347842663146106ea5780634a46b4cf146106fe575f80fd5b80632f2ff15d1161038257806336568abe1161035257806336568abe146105fb578063370488161461061a578063387db78f146106395780633d4304e6146106845780634015b2a8146106a3575f80fd5b80632f2ff15d146105765780632f8ecb50146105955780633314bbb9146105b45780633471b337146105e7575f80fd5b806317cbc8b1116103bd57806317cbc8b1146104d25780631c14724f146104f15780631ca0027a14610510578063248a9ca314610557575f80fd5b806301ffc9a7146103f8578063040bee6d1461042c57806313cb953a1461044d578063150b7a021461048e575f80fd5b366103f457005b5f80fd5b348015610403575f80fd5b506104176104123660046139ed565b610d5f565b60405190151581526020015b60405180910390f35b348015610437575f80fd5b5061044b610446366004613a28565b610d89565b005b348015610458575f80fd5b506104807f32a781031f04cc60b32394e40124d1e87f54273bf26d0532a115a424f6a9329881565b604051908152602001610423565b348015610499575f80fd5b506104b96104a8366004613a88565b630a85bd0160e11b95945050505050565b6040516001600160e01b03199091168152602001610423565b3480156104dd575f80fd5b5061044b6104ec366004613af6565b610fa9565b3480156104fc575f80fd5b5061048061050b366004613a28565b611002565b34801561051b575f80fd5b5061054861052a366004613b34565b60408051602080820183525f90915281519081019091529054815290565b60405190518152602001610423565b348015610562575f80fd5b50610480610571366004613b34565b61112b565b348015610581575f80fd5b5061044b610590366004613b4b565b61114b565b3480156105a0575f80fd5b5061044b6105af366004613a28565b611167565b3480156105bf575f80fd5b506104807f68895691ff006f290ca74825ce06ed17fffab55af49f0274f49b7424f752583a81565b3480156105f2575f80fd5b50610480611224565b348015610606575f80fd5b5061044b610615366004613b4b565b611236565b348015610625575f80fd5b5061044b610634366004613a28565b61126e565b348015610644575f80fd5b5061066c7f000000000000000000000000000000000000000000000000000000000000000081565b6040516001600160a01b039091168152602001610423565b34801561068f575f80fd5b5061066c61069e366004613a28565b6112e8565b3480156106ae575f80fd5b5061066c611367565b3480156106c2575f80fd5b50610480611382565b3480156106d6575f80fd5b5061044b6106e5366004613b79565b6113b1565b3480156106f5575f80fd5b5061066c611586565b348015610709575f80fd5b50610417610718366004613b34565b6115b8565b348015610728575f80fd5b50610417610737366004613a28565b6115e3565b348015610747575f80fd5b5061066c610756366004613bb8565b611672565b348015610766575f80fd5b50610480610775366004613a28565b611951565b348015610785575f80fd5b5061066c7f000000000000000000000000000000000000000000000000000000000000000081565b3480156107b8575f80fd5b5061066c61197d565b3480156107cc575f80fd5b506104807fb557d53a2e72d8333ffa3bf2f556678becb5e995b0e25b7dca354627e550c08f81565b3480156107ff575f80fd5b5061066c611998565b348015610813575f80fd5b506104806119a1565b348015610827575f80fd5b506104807f9a4c49d6fb9452bbfe187968075d0fac7d7202d2b7f731d8cffbce9cf66756b281565b34801561085a575f80fd5b506104807ff610639f4b9b8986f875fcb4e49486da5c7aa449a6942b5013fabd061e9b9fff81565b34801561088d575f80fd5b50610480611b72565b3480156108a1575f80fd5b5061066c611b84565b3480156108b5575f80fd5b506104176108c4366004613a28565b611b9f565b3480156108d4575f80fd5b5061044b6108e3366004613c04565b611bcd565b3480156108f3575f80fd5b50610417610902366004613a28565b611e5c565b348015610912575f80fd5b5061066c610921366004613c84565b611e89565b348015610931575f80fd5b50610417610940366004613b4b565b611eae565b348015610950575f80fd5b5061041761095f366004613a28565b611ee4565b34801561096f575f80fd5b5061066c7f000000000000000000000000000000000000000000000000000000000000000081565b3480156109a2575f80fd5b5061044b6109b1366004613cbc565b611f11565b3480156109c1575f80fd5b5061066c6109d0366004613b34565b6122fc565b3480156109e0575f80fd5b5061066c7f000000000000000000000000000000000000000000000000000000000000000081565b348015610a13575f80fd5b5061048061232a565b348015610a27575f80fd5b506104805f81565b348015610a3a575f80fd5b50610480610a49366004613b34565b61233e565b348015610a59575f80fd5b50610a6d610a68366004613b34565b612369565b6040516104239190613d1c565b348015610a85575f80fd5b50610480612399565b348015610a99575f80fd5b50610417610aa8366004613a28565b6123c6565b348015610ab8575f80fd5b5061066c610ac7366004613b34565b6123dc565b348015610ad7575f80fd5b506104807f85c2023fdfb1e93dedf5d18f9bc0e79347e071d12740ba71aeb84a4fcbdc4b7981565b348015610b0a575f80fd5b5061044b610b19366004613af6565b6123f2565b348015610b29575f80fd5b506104807f6788636e7899d6d227901dc9f8c4c785401c0991724cf908dc65388af686da6f81565b348015610b5c575f80fd5b5061044b610b6b366004613a28565b61241d565b348015610b7b575f80fd5b5061066c610b8a366004613d68565b6127dc565b348015610b9a575f80fd5b50610480610ba9366004613b34565b61280a565b348015610bb9575f80fd5b5061066c61282e565b348015610bcd575f80fd5b5061044b610bdc366004613b34565b612849565b348015610bec575f80fd5b5061044b610bfb366004613b4b565b6129f0565b348015610c0b575f80fd5b506104807f6618a6d92147bbcacfb2ef2375976fc4c529eeeaeb72a66048296571370c694681565b348015610c3e575f80fd5b5061044b610c4d366004613d92565b612a0c565b348015610c5d575f80fd5b5061044b610c6c366004613af6565b612ab5565b348015610c7c575f80fd5b506104807f407fc42eadf1aba68b1d4a8c3c4aa2e8b6beac7957623f3694d0ad77bfb70e0681565b348015610caf575f80fd5b5061044b610cbe366004613af6565b612ae0565b348015610cce575f80fd5b5061044b610cdd366004613dbe565b612b1d565b348015610ced575f80fd5b5061044b610cfc366004613a28565b612bd1565b348015610d0c575f80fd5b5061044b610d1b366004613b34565b612c42565b348015610d2b575f80fd5b5061044b610d3a366004613a28565b612cb0565b348015610d4a575f80fd5b506104805f805160206141b683398151915281565b5f6001600160e01b03198216635a05180f60e01b1480610d835750610d8382612dff565b92915050565b7f9a4c49d6fb9452bbfe187968075d0fac7d7202d2b7f731d8cffbce9cf66756b2610db381612e33565b816001600160a01b031663c2f218966040518163ffffffff1660e01b8152600401602060405180830381865afa158015610def573d5f803e3d5ffd5b505050506040513d601f19601f82011682018060405250810190610e139190613dea565b610e3057604051631dd2188d60e31b815260040160405180910390fd5b5f826001600160a01b03166338d52e0f6040518163ffffffff1660e01b8152600401602060405180830381865afa158015610e6d573d5f803e3d5ffd5b505050506040513d601f19601f82011682018060405250810190610e919190613e05565b90505f610e9c612e40565b6001600160a01b0383165f908152600a820160205260409020909150610ec29085612e64565b610edf57604051631dd2188d60e31b815260040160405180910390fd5b6001600160a01b038085165f9081526008830160209081526040808320805460ff191690559285168252600a8401905220610f1990612e78565b5f03610f2e57610f2c600b820183612e64565b505b6001600160a01b0384165f908152600782016020526040812080546001600160a01b0319169055600582018054909190610f6790613e34565b909155506040516001600160a01b0380841691908616907faf660c1b265f07536d70b577e6dac1fed859eae81dca40591155a8fa2294553d905f90a350505050565b7f68895691ff006f290ca74825ce06ed17fffab55af49f0274f49b7424f752583a610fd381612e33565b610fdb612e81565b610fe6848484612eb8565b610ffc60015f8051602061421683398151915255565b50505050565b5f8061100c612e40565b9050600b81015f61101c82612e78565b90505f5b81811015611122575f6110338483612fea565b6001600160a01b0381165f908152600a87016020526040812091925061105882612e78565b90505f5b81811015611112575f61106f8483612fea565b6001600160a01b0381165f90815260088b01602052604090205490915060ff161561110957604051638903ab9d60e01b81526001600160a01b038c81166004830152821690638903ab9d90602401602060405180830381865afa1580156110d8573d5f803e3d5ffd5b505050506040513d601f19601f820116820180604052508101906110fc9190613e49565b611106908b613e60565b99505b5060010161105c565b5050600190920191506110209050565b50505050919050565b5f9081525f805160206141f6833981519152602052604090206001015490565b6111548261112b565b61115d81612e33565b610ffc8383612ff5565b7ff610639f4b9b8986f875fcb4e49486da5c7aa449a6942b5013fabd061e9b9fff61119181612e33565b7f00000000000000000000000000000000000000000000000000000000000000006111bf6001820184612e64565b6111ec57604051635c6a489f60e01b81526001600160a01b03841660048201526024015b60405180910390fd5b6040516001600160a01b038416907f95067a3324c952e40449419ed59015549ae2c2b2c5988efb9bdaaf33baf6f793905f90a2505050565b5f61122d612e40565b60050154905090565b6001600160a01b038116331461125f5760405163334bd91960e11b815260040160405180910390fd5b611269828261306f565b505050565b5f805160206141b683398151915261128581612e33565b8161128e612e40565b60030180546001600160a01b0319166001600160a01b0392831617905560405160018152908316907f59dc533a8345ccff036afdd89363a87154a5e6c51ff4fc507fc1865bb925438e906020015b60405180910390a25050565b5f806112f2612e40565b6001600160a01b038085165f908152600783016020526040902054919250168061135d576001600160a01b0384165f90815260088301602052604090205460ff1661134a5760048201546001600160a01b031661135f565b60038201546001600160a01b031661135f565b805b949350505050565b5f611370612e40565b600401546001600160a01b0316919050565b5f6113ac7f0000000000000000000000000000000000000000000000000000000000000000612e78565b905090565b5f6113ba6130eb565b805490915060ff600160401b820416159067ffffffffffffffff165f811580156113e15750825b90505f8267ffffffffffffffff1660011480156113fd5750303b155b90508115801561140b575080155b156114295760405163f92ee8a960e01b815260040160405180910390fd5b845467ffffffffffffffff19166001178555831561145357845460ff60401b1916600160401b1785555b5f805f805f805f805f8f8f81019061146b9190613ee1565b98509850985098509850985098509850985061148689613113565b611494888887878787613150565b61149d86613219565b5f5b81518110156114f4576114eb8282815181106114bd576114bd61408e565b60200260200101515f01518383815181106114da576114da61408e565b602002602001015160200151612ff5565b5060010161149f565b505050505050505050507f5e399709a9ff1709f6f6be7268c8e5c3eeaa9da9cd9797e78f07ef287c3717fe878760405161152f9291906140ca565b60405180910390a1831561157d57845460ff60401b19168555604051600181527fc7f505b2f371ae2175ee4913f4499e1f2633a7b5936321eed1cdaeb6115181d29060200160405180910390a15b50505050505050565b5f7f00000000000000000000000000000000000000000000000000000000000000005b546001600160a01b0316919050565b5f610d837f000000000000000000000000000000000000000000000000000000000000000083613289565b5f610d83826115f0612e40565b600a015f856001600160a01b03166338d52e0f6040518163ffffffff1660e01b8152600401602060405180830381865afa158015611630573d5f803e3d5ffd5b505050506040513d601f19601f820116820180604052508101906116549190613e05565b6001600160a01b0316815260208101919091526040015f20906132a0565b5f7f85c2023fdfb1e93dedf5d18f9bc0e79347e071d12740ba71aeb84a4fcbdc4b7961169d81612e33565b6116a5612e81565b6040516302910f8b60e31b81526001600160a01b0384811660048301527f000000000000000000000000000000000000000000000000000000000000000016906314887c5890602401602060405180830381865afa158015611709573d5f803e3d5ffd5b505050506040513d601f19601f8201168201806040525081019061172d9190613dea565b6117555760405163d0b5c30560e01b81526001600160a01b03841660048201526024016111e3565b306001600160a01b0316836001600160a01b031663fbfa77cf6040518163ffffffff1660e01b8152600401602060405180830381865afa15801561179b573d5f803e3d5ffd5b505050506040513d601f19601f820116820180604052508101906117bf9190613e05565b6001600160a01b0316146117e657604051631dd2188d60e31b815260040160405180910390fd5b7f00000000000000000000000000000000000000000000000000000000000000006001600160a01b03166346fbcbb28686863060405160200161183f9291906001600160a01b0392831681529116602082015260400190565b6040516020818303038152906040526040518463ffffffff1660e01b815260040161186c939291906140dd565b6020604051808303815f875af1158015611888573d5f803e3d5ffd5b505050506040513d601f19601f820116820180604052508101906118ac9190613e05565b91506118db60017f000000000000000000000000000000000000000000000000000000000000000001836132c1565b50826001600160a01b0316846001600160a01b0316836001600160a01b03167fae0bbc337ca4971dd982cb61e17432f83cf2e5647ad778f7db9ff18efd77a2118860405161192b91815260200190565b60405180910390a461194960015f8051602061421683398151915255565b509392505050565b5f610d8361195d612e40565b6001600160a01b0384165f908152600a9190910160205260409020612e78565b5f611986612e40565b600301546001600160a01b0316919050565b5f6115a9612e40565b5f803390505f816001600160a01b03166338d52e0f6040518163ffffffff1660e01b8152600401602060405180830381865afa1580156119e3573d5f803e3d5ffd5b505050506040513d601f19601f82011682018060405250810190611a079190613e05565b90505f611a12612e40565b6001600160a01b0383165f908152600a820160205260409020909150611a3890846132a0565b1580611a5d57506001600160a01b0383165f90815260088201602052604090205460ff165b15611a7b57604051631dd2188d60e31b815260040160405180910390fd5b5f611a85846112e8565b90506001600160a01b03811615611b0357604051630af5049b60e11b81526001600160a01b0384811660048301528216906315ea093690602401602060405180830381865afa158015611ada573d5f803e3d5ffd5b505050506040513d601f19601f82011682018060405250810190611afe9190613e49565b611b69565b6040516370a0823160e01b81523060048201526001600160a01b038416906370a0823190602401602060405180830381865afa158015611b45573d5f803e3d5ffd5b505050506040513d601f19601f82011682018060405250810190611b699190613e49565b94505050505090565b5f611b7b612e40565b60060154905090565b5f611b8d612e40565b600201546001600160a01b0316919050565b5f610d8360017f000000000000000000000000000000000000000000000000000000000000000001836132a0565b7f6788636e7899d6d227901dc9f8c4c785401c0991724cf908dc65388af686da6f611bf781612e33565b5f611c00612e40565b6002810154604051634df48c7360e11b81526001600160a01b038881166004830152929350911690639be918e690602401602060405180830381865afa158015611c4c573d5f803e3d5ffd5b505050506040513d601f19601f82011682018060405250810190611c709190613dea565b611c985760405163ee84f40b60e01b81526001600160a01b03861660048201526024016111e3565b5f81600501546001611caa9190613e60565b90508160060154811115611cd15760405163082d389160e31b815260040160405180910390fd5b5f88611cfd577f0000000000000000000000000000000000000000000000000000000000000000611d1f565b7f00000000000000000000000000000000000000000000000000000000000000005b6001600160a01b03166346fbcbb28b8a8a308b8b604051602001611d469493929190614128565b6040516020818303038152906040526040518463ffffffff1660e01b8152600401611d73939291906140dd565b6020604051808303815f875af1158015611d8f573d5f803e3d5ffd5b505050506040513d601f19601f82011682018060405250810190611db39190613e05565b600584018390556001600160a01b0388165f908152600a850160205260409020909150611de090826132c1565b50611dee600b8401886132c1565b506001600160a01b038181165f818152600886016020908152604091829020805460ff19168e15159081179091559151918252928a16927f8138cea23ce1869026f924550085f1d5666d82c6c948c921cf9003cac6bfea9c910160405180910390a350505050505050505050565b5f611e65612e40565b6001600160a01b039092165f90815260099290920160205250604090205460ff1690565b5f8281525f805160206141d683398151915260208190526040822061135f9084612fea565b5f9182525f805160206141f6833981519152602090815260408084206001600160a01b0393909316845291905290205460ff1690565b5f611eed612e40565b6001600160a01b039092165f90815260089290920160205250604090205460ff1690565b611f19612e81565b5f611f22612e40565b60028101549091506001600160a01b0316336001600160a01b031614611f5b57604051631dd2188d60e31b815260040160405180910390fd5b8054600182015460408051633a98ef3960e01b815290516001600160a01b0393841693909216915f91839163e0e193a29130918c918c918991633a98ef399160048083019260209291908290030181865afa158015611fbc573d5f803e3d5ffd5b505050506040513d601f19601f82011682018060405250810190611fe09190613e49565b6040516001600160e01b031960e087901b1681526001600160a01b0394851660048201529390921660248401526001600160e01b031660448301526064820152608401602060405180830381865afa15801561203e573d5f803e3d5ffd5b505050506040513d601f19601f820116820180604052508101906120629190613e49565b9050801561213557826001600160a01b03166340c10f19836001600160a01b031663469048406040518163ffffffff1660e01b8152600401602060405180830381865afa1580156120b5573d5f803e3d5ffd5b505050506040513d601f19601f820116820180604052508101906120d99190613e05565b6040516001600160e01b031960e084901b1681526001600160a01b039091166004820152602481018490526044015f604051808303815f87803b15801561211e575f80fd5b505af1158015612130573d5f803e3d5ffd5b505050505b604051634d71303160e11b81526001600160a01b0389811660048301526001600160e01b0389166024830152831690639ae26062906044015f604051808303815f87803b158015612184575f80fd5b505af1158015612196573d5f803e3d5ffd5b505050505f6121a3612e40565b6001600160a01b038a165f908152600a919091016020526040812091506121c982612e78565b90505f5b81811015612281575f6121e08483612fea565b6001600160a01b0381165f81815260088b0160205260409020549192509063b8c5ea8a908d9060ff16612213578b612215565b8c5b6040516001600160e01b031960e085901b1681526001600160e01b03909216600483015263ffffffff1660248201526044015f604051808303815f87803b15801561225e575f80fd5b505af1158015612270573d5f803e3d5ffd5b5050600190930192506121cd915050565b506040805163ffffffff808b168252891660208201529081018490526001600160e01b038a16906001600160a01b038c16907f24bbf515a701fcb7a993b1e8c3f201ab4e608f7b85c61b1f8cc0e19dc9d526539060600160405180910390a3505050505050610ffc60015f8051602061421683398151915255565b5f610d8360017f00000000000000000000000000000000000000000000000000000000000000000183612fea565b5f6113ac612336612e40565b600b01612e78565b5f610d837f000000000000000000000000000000000000000000000000000000000000000083612fea565b5f8181525f805160206141d68339815191526020819052604090912060609190612392906132d5565b9392505050565b5f6113ac7f0000000000000000000000000000000000000000000000000000000000000000600101612e78565b5f610d83826123d3612e40565b600b01906132a0565b5f610d83826123e9612e40565b600b0190612fea565b33301461241257604051631dd2188d60e31b815260040160405180910390fd5b611269838383612eb8565b7fb557d53a2e72d8333ffa3bf2f556678becb5e995b0e25b7dca354627e550c08f61244781612e33565b5f7f00000000000000000000000000000000000000000000000000000000000000006040516302910f8b60e31b81526001600160a01b0385811660048301529192507f0000000000000000000000000000000000000000000000000000000000000000909116906314887c5890602401602060405180830381865afa1580156124d2573d5f803e3d5ffd5b505050506040513d601f19601f820116820180604052508101906124f69190613dea565b61251e5760405163d0b5c30560e01b81526001600160a01b03841660048201526024016111e3565b306001600160a01b0316836001600160a01b031663fbfa77cf6040518163ffffffff1660e01b8152600401602060405180830381865afa158015612564573d5f803e3d5ffd5b505050506040513d601f19601f820116820180604052508101906125889190613e05565b6001600160a01b0316146125ba5760405163d034fb7960e01b81526001600160a01b03841660048201526024016111e3565b5f836001600160a01b0316632b7ac3f36040518163ffffffff1660e01b8152600401602060405180830381865afa1580156125f7573d5f803e3d5ffd5b505050506040513d601f19601f8201168201806040525081019061261b9190613e05565b6040516302910f8b60e31b81526001600160a01b0380831660048301529192507f0000000000000000000000000000000000000000000000000000000000000000909116906314887c5890602401602060405180830381865afa158015612684573d5f803e3d5ffd5b505050506040513d601f19601f820116820180604052508101906126a89190613dea565b6126d05760405163d0b5c30560e01b81526001600160a01b03821660048201526024016111e3565b306001600160a01b0316816001600160a01b031663fbfa77cf6040518163ffffffff1660e01b8152600401602060405180830381865afa158015612716573d5f803e3d5ffd5b505050506040513d601f19601f8201168201806040525081019061273a9190613e05565b6001600160a01b03161461276157604051631dd2188d60e31b815260040160405180910390fd5b61276e60018301856132c1565b61279657604051638cd80ed360e01b81526001600160a01b03851660048201526024016111e3565b806001600160a01b0316846001600160a01b03167ff75f2e4922769fc299f8f612c31f2d1f8ea0e6fa4c82fdb143bf9c8a070c974c60405160405180910390a350505050565b5f612392826127e9612e40565b6001600160a01b0386165f908152600a919091016020526040902090612fea565b5f8181525f805160206141d683398151915260208190526040822061239290612e78565b5f612837612e40565b600101546001600160a01b0316919050565b5f3390505f816001600160a01b03166338d52e0f6040518163ffffffff1660e01b8152600401602060405180830381865afa15801561288a573d5f803e3d5ffd5b505050506040513d601f19601f820116820180604052508101906128ae9190613e05565b90505f6128b9612e40565b90506128e8836128c7612e40565b6001600160a01b0385165f908152600a9190910160205260409020906132a0565b61290557604051631dd2188d60e31b815260040160405180910390fd5b5f61290f846112e8565b90506001600160a01b03811615612973576040516001600160a01b03841660248201526044810186905261297190829060640160408051601f198184030181529190526020810180516001600160e01b03166330f736c160e21b1790526132e1565b505b6001600160a01b0384165f90815260088301602052604090205460ff1661299f5761299f838587613353565b604080518681526001600160a01b03838116602083015280861692908716917fc23ec549723039bc8a35cac0162f81095410795793f7730887eb1a0e06ef5476910160405180910390a35050505050565b6129f98261112b565b612a0281612e33565b610ffc838361306f565b5f805160206141b6833981519152612a2381612e33565b6001600160a01b038316612a4a5760405163d92e233d60e01b815260040160405180910390fd5b81612a53612e40565b6001600160a01b038581165f818152600793909301602052604080842080546001600160a01b03191695841695909517909455925190851692917f329d0838d5265a7d9d220b95803da511a475abe411dc4df364c1d1b8b923cdf991a3505050565b333014612ad557604051631dd2188d60e31b815260040160405180910390fd5b611269838383613396565b7f32a781031f04cc60b32394e40124d1e87f54273bf26d0532a115a424f6a93298612b0a81612e33565b612b12612e81565b610fe6848484613396565b7f6618a6d92147bbcacfb2ef2375976fc4c529eeeaeb72a66048296571370c6946612b4781612e33565b612b50836115e3565b612b6d57604051631dd2188d60e31b815260040160405180910390fd5b81612b76612e40565b6001600160a01b0385165f8181526009929092016020526040808320805460ff191694151594909417909355915184151592917f0adde9ce751962c98f81b39c8c220e3e355e0427d8f497ad6533849e0887543d91a3505050565b5f805160206141b6833981519152612be881612e33565b81612bf1612e40565b60040180546001600160a01b0319166001600160a01b039283161790556040515f8152908316907f59dc533a8345ccff036afdd89363a87154a5e6c51ff4fc507fc1865bb925438e906020016112dc565b7f407fc42eadf1aba68b1d4a8c3c4aa2e8b6beac7957623f3694d0ad77bfb70e06612c6c81612e33565b81612c75612e40565b600601556040518281527f7abc95a9228ca8caf8cbd0d9add729de5d2032bb1792bb6c5faff0f175f1bd509060200160405180910390a15050565b5f612cb9612e40565b9050600b81015f612cc982612e78565b90505f5b81811015612dc5575f612ce08483612fea565b6001600160a01b0381165f908152600a870160205260408120919250612d0582612e78565b90505f5b81811015612db5575f612d1c8483612fea565b6001600160a01b0381165f90815260088b01602052604090205490915060ff1615612dac57604051630f41a04d60e11b81526001600160a01b038b81166004830152821690631e83409a906024016020604051808303815f875af1158015612d86573d5f803e3d5ffd5b505050506040513d601f19601f82011682018060405250810190612daa9190613dea565b505b50600101612d09565b505060019092019150612ccd9050565b506040516001600160a01b038516907f3a97aa17a51b3fa88e27cdce48823bea308838ed5ea8015ae0598abb1288954b905f90a250505050565b5f6001600160e01b03198216637965db0b60e01b1480610d8357506301ffc9a760e01b6001600160e01b0319831614610d83565b612e3d8133613455565b50565b7f000000000000000000000000000000000000000000000000000000000000000090565b5f612392836001600160a01b03841661348e565b5f610d83825490565b5f80516020614216833981519152805460011901612eb257604051633ee5aeb560e01b815260040160405180910390fd5b60029055565b612ec0611586565b6001600160a01b031663fea34d988484612ed98561415e565b6040516001600160e01b031960e086901b1681526001600160a01b03938416600482015292909116602483015260448201526064015f604051808303815f87803b158015612f25575f80fd5b505af1158015612f37573d5f803e3d5ffd5b50506040516387cd303d60e01b81526001600160a01b03858116600483015260248201859052861692506387cd303d91506044015f604051808303815f87803b158015612f82575f80fd5b505af1158015612f94573d5f803e3d5ffd5b50505050826001600160a01b0316826001600160a01b03167f409f90100010c596e4859c24945544ea3430a899b81522dadfd9671b9bc1a40283604051612fdd91815260200190565b60405180910390a3505050565b5f6123928383613571565b5f6130008383613597565b156130675761302f7f0000000000000000000000000000000000000000000000000000000000000000846135d9565b1561305f5760405183907fea0f1c470fa813c725756c036120b6688028969f5afbc607918fcd1ff9229435905f90a25b506001610d83565b505f92915050565b5f61307a83836135e4565b15613067576130888361280a565b5f0361305f576130b87f00000000000000000000000000000000000000000000000000000000000000008461361d565b5060405183907f4c9a714f78b79aa08074addab7cbdb196cccdf6d67efbf0b99914db8a6b08e73905f90a2506001610d83565b5f807ff0c57e16840df040f15088dc2f81fe391c3923bec73e23a9662efc9c229c6a00610d83565b61311b613628565b6001600160a01b0381166131425760405163d92e233d60e01b815260040160405180910390fd5b61314c5f82612ff5565b5050565b613158613628565b6001600160a01b038616158061317557506001600160a01b038516155b8061318757506001600160a01b038416155b156131a55760405163d92e233d60e01b815260040160405180910390fd5b5f6131ae612e40565b80546001600160a01b03199081166001600160a01b03998a161782556001820180548216988a16989098179097556002810180548816968916969096179095555060038401805486169387169390931790925560048301805490941694169390931790915560060155565b613221613628565b6001600160a01b0381166132485760405163d92e233d60e01b815260040160405180910390fd5b7f000000000000000000000000000000000000000000000000000000000000000080546001600160a01b0319166001600160a01b0392909216919091179055565b5f8181526001830160205260408120541515612392565b6001600160a01b0381165f9081526001830160205260408120541515612392565b5f612392836001600160a01b03841661364f565b60605f6123928361369b565b60605f80846001600160a01b0316846040516132fd9190614178565b5f60405180830381855af49150503d805f8114613335576040519150601f19603f3d011682016040523d82523d5f602084013e61333a565b606091505b509150915061334a8583836136f4565b95945050505050565b73eeeeeeeeeeeeeeeeeeeeeeeeeeeeeeeeeeeeeeed196001600160a01b03841601613382576112698282613750565b6112696001600160a01b03841683836137dc565b61339e611586565b604051631fd469b360e31b81526001600160a01b038581166004830152848116602483015260448201849052919091169063fea34d98906064015f604051808303815f87803b1580156133ef575f80fd5b505af1158015613401573d5f803e3d5ffd5b50505050613410828483613353565b826001600160a01b0316826001600160a01b03167f7ceb394e9ff104c51756ee69383bfb2d366c02d663c194870b8001bad9021aef83604051612fdd91815260200190565b61345f8282611eae565b61314c5760405163e2517d3f60e01b81526001600160a01b0382166004820152602481018390526044016111e3565b5f8181526001830160205260408120548015613568575f6134b060018361418e565b85549091505f906134c39060019061418e565b9050808214613522575f865f0182815481106134e1576134e161408e565b905f5260205f200154905080875f0184815481106135015761350161408e565b5f918252602080832090910192909255918252600188019052604090208390555b8554869080613533576135336141a1565b600190038181905f5260205f20015f90559055856001015f8681526020019081526020015f205f905560019350505050610d83565b5f915050610d83565b5f825f0182815481106135865761358661408e565b905f5260205f200154905092915050565b5f5f805160206141d6833981519152816135b1858561382e565b9050801561135f575f8581526020839052604090206135d090856132c1565b50949350505050565b5f612392838361364f565b5f5f805160206141d6833981519152816135fe85856138c6565b9050801561135f575f8581526020839052604090206135d09085612e64565b5f612392838361348e565b61363061393f565b61364d57604051631afcd79f60e31b815260040160405180910390fd5b565b5f81815260018301602052604081205461369457508154600181810184555f848152602080822090930184905584548482528286019093526040902091909155610d83565b505f610d83565b6060815f018054806020026020016040519081016040528092919081815260200182805480156136e857602002820191905f5260205f20905b8154815260200190600101908083116136d4575b50505050509050919050565b6060826137095761370482613958565b612392565b815115801561372057506001600160a01b0384163b155b1561374957604051639996b31560e01b81526001600160a01b03851660048201526024016111e3565b5092915050565b8047101561377a5760405163cf47918160e01b8152476004820152602481018290526044016111e3565b5f80836001600160a01b0316836040515f6040518083038185875af1925050503d805f81146137c4576040519150601f19603f3d011682016040523d82523d5f602084013e6137c9565b606091505b509150915081610ffc57610ffc81613958565b604080516001600160a01b038416602482015260448082018490528251808303909101815260649091019091526020810180516001600160e01b031663a9059cbb60e01b179052611269908490613981565b5f5f805160206141f68339815191526138478484611eae565b613568575f848152602082815260408083206001600160a01b03871684529091529020805460ff1916600117905561387c3390565b6001600160a01b0316836001600160a01b0316857f2f8788117e7eff1d82e926ec794901d17c78024a50270940304540a733656f0d60405160405180910390a46001915050610d83565b5f5f805160206141f68339815191526138df8484611eae565b15613568575f848152602082815260408083206001600160a01b0387168085529252808320805460ff1916905551339287917ff6391f5c32d9c69d2a47ea670b442974b53935d1edc7fd64eb21e047a839171b9190a46001915050610d83565b5f6139486130eb565b54600160401b900460ff16919050565b8051156139685780518082602001fd5b60405163d6bda27560e01b815260040160405180910390fd5b5f8060205f8451602086015f885af1806139a0576040513d5f823e3d81fd5b50505f513d915081156139b75780600114156139c4565b6001600160a01b0384163b155b15610ffc57604051635274afe760e01b81526001600160a01b03851660048201526024016111e3565b5f602082840312156139fd575f80fd5b81356001600160e01b031981168114612392575f80fd5b6001600160a01b0381168114612e3d575f80fd5b5f60208284031215613a38575f80fd5b813561239281613a14565b5f8083601f840112613a53575f80fd5b50813567ffffffffffffffff811115613a6a575f80fd5b602083019150836020828501011115613a81575f80fd5b9250929050565b5f805f805f60808688031215613a9c575f80fd5b8535613aa781613a14565b94506020860135613ab781613a14565b935060408601359250606086013567ffffffffffffffff811115613ad9575f80fd5b613ae588828901613a43565b969995985093965092949392505050565b5f805f60608486031215613b08575f80fd5b8335613b1381613a14565b92506020840135613b2381613a14565b929592945050506040919091013590565b5f60208284031215613b44575f80fd5b5035919050565b5f8060408385031215613b5c575f80fd5b823591506020830135613b6e81613a14565b809150509250929050565b5f8060208385031215613b8a575f80fd5b823567ffffffffffffffff811115613ba0575f80fd5b613bac85828601613a43565b90969095509350505050565b5f805f60608486031215613bca575f80fd5b833592506020840135613bdc81613a14565b91506040840135613bec81613a14565b809150509250925092565b8015158114612e3d575f80fd5b5f805f805f8060a08789031215613c19575f80fd5b863595506020870135613c2b81613bf7565b94506040870135613c3b81613a14565b93506060870135613c4b81613a14565b9250608087013567ffffffffffffffff811115613c66575f80fd5b613c7289828a01613a43565b979a9699509497509295939492505050565b5f8060408385031215613c95575f80fd5b50508035926020909101359150565b803563ffffffff81168114613cb7575f80fd5b919050565b5f805f8060808587031215613ccf575f80fd5b8435613cda81613a14565b935060208501356001600160e01b0381168114613cf5575f80fd5b9250613d0360408601613ca4565b9150613d1160608601613ca4565b905092959194509250565b602080825282518282018190525f9190848201906040850190845b81811015613d5c5783516001600160a01b031683529284019291840191600101613d37565b50909695505050505050565b5f8060408385031215613d79575f80fd5b8235613d8481613a14565b946020939093013593505050565b5f8060408385031215613da3575f80fd5b8235613dae81613a14565b91506020830135613b6e81613a14565b5f8060408385031215613dcf575f80fd5b8235613dda81613a14565b91506020830135613b6e81613bf7565b5f60208284031215613dfa575f80fd5b815161239281613bf7565b5f60208284031215613e15575f80fd5b815161239281613a14565b634e487b7160e01b5f52601160045260245ffd5b5f81613e4257613e42613e20565b505f190190565b5f60208284031215613e59575f80fd5b5051919050565b80820180821115610d8357610d83613e20565b634e487b7160e01b5f52604160045260245ffd5b6040805190810167ffffffffffffffff81118282101715613eaa57613eaa613e73565b60405290565b604051601f8201601f1916810167ffffffffffffffff81118282101715613ed957613ed9613e73565b604052919050565b5f805f805f805f805f6101208a8c031215613efa575f80fd5b613f048a35613a14565b89359850613f1560208b0135613a14565b60208a01359750613f2960408b0135613a14565b60408a01359650613f3d60608b0135613a14565b60608a01359550613f5160808b0135613a14565b60808a01359450613f6560a08b0135613a14565b60a08a01359350613f7960c08b0135613a14565b60c08a0135925060e08a0135915067ffffffffffffffff6101008b01351115613fa0575f80fd5b8a601f6101008c01358c010112613fb5575f80fd5b67ffffffffffffffff6101008b01358b01351115613fd557613fd5613e73565b613fec60206101008c01358c013560051b01613eb0565b6101008b01358b0180358083526020808401939260069290921b909101018d1015614015575f80fd5b60206101008d01358d01015b6101008d01358d01803560061b0160200181101561407b576040818f031215614048575f80fd5b614050613e87565b813581526140616020830135613a14565b602082810135828201529084529290920191604001614021565b5080925050509295985092959850929598565b634e487b7160e01b5f52603260045260245ffd5b81835281816020850137505f828201602090810191909152601f909101601f19169091010190565b602081525f61135f6020830184866140a2565b83815260018060a01b0383166020820152606060408201525f82518060608401528060208501608085015e5f608082850101526080601f19601f830116840101915050949350505050565b6001600160a01b038581168252841660208201526060604082018190525f9061415490830184866140a2565b9695505050505050565b5f600160ff1b820161417257614172613e20565b505f0390565b5f82518060208501845e5f920191825250919050565b81810381811115610d8357610d83613e20565b634e487b7160e01b5f52603160045260245ffdfe627f9e4ac2dadb64d045e7e6333c09f39ed34e0e066957955d0052b46d2e83e8c1f6fe24621ce81ec5827caf0253cadb74709b061630e6b55e8237170593200002dd7bc7dec4dceedda775e58dd541e08a116c6c53815c0bd028192f7b6268009b779b17422d0df92223018b32b4d1fa46e071723d6817e2486d003becc55f00a2646970667358221220d95f7b7a9f4402f02df7d40d00367ea85c8a302a7d2cdd18c1fe1b06557c65fc64736f6c63430008190033","linkReferences":{}},"methodIdentifiers":{"CREATE_QUEUE_ROLE()":"b1a62e3b","CREATE_SUBVAULT_ROLE()":"adf167ce","DEFAULT_ADMIN_ROLE()":"a217fddf","DISCONNECT_SUBVAULT_ROLE()":"663ade06","PULL_LIQUIDITY_ROLE()":"3314bbb9","PUSH_LIQUIDITY_ROLE()":"13cb953a","RECONNECT_SUBVAULT_ROLE()":"58b7bf30","REMOVE_QUEUE_ROLE()":"651ae6c7","SET_HOOK_ROLE()":"f68e7304","SET_QUEUE_LIMIT_ROLE()":"e6ed8d74","SET_QUEUE_STATUS_ROLE()":"d8b07a65","assetAt(uint256)":"aa9239f5","callHook(uint256)":"d27d2503","claimShares(address)":"f31cb0c6","claimableSharesOf(address)":"1c14724f","createQueue(uint256,bool,address,address,bytes)":"850260ff","createSubvault(uint256,address,address)":"4b812c1f","defaultDepositHook()":"5636d549","defaultRedeemHook()":"4015b2a8","depositQueueFactory()":"52fd4254","disconnectSubvault(address)":"2f8ecb50","feeManager()":"d0fb0203","getAssetCount()":"a0aead4d","getHook(address)":"3d4304e6","getLiquidAssets()":"5d66b00a","getQueueCount()":"3471b337","getQueueCount(address)":"52278ab7","getRoleAdmin(bytes32)":"248a9ca3","getRoleMember(bytes32,uint256)":"9010d07c","getRoleMemberCount(bytes32)":"ca15c873","getRoleMembers(bytes32)":"a3246ad3","getStorageAt(bytes32)":"1ca0027a","grantRole(bytes32,address)":"2f2ff15d","handleReport(address,uint224,uint32,uint32)":"974d942e","hasAsset(address)":"a567fb47","hasQueue(address)":"4b694b96","hasRole(bytes32,address)":"91d14854","hasSubvault(address)":"8333903b","hasSupportedRole(bytes32)":"4a46b4cf","hookPullAssets(address,address,uint256)":"b014f445","hookPushAssets(address,address,uint256)":"e6c8cd9f","initialize(bytes)":"439fab91","isDepositQueue(address)":"92e6ece5","isPausedQueue(address)":"8679ed7c","onERC721Received(address,address,uint256,bytes)":"150b7a02","oracle()":"7dc0d1d0","pullAssets(address,address,uint256)":"17cbc8b1","pushAssets(address,address,uint256)":"e984f353","queueAt(address,uint256)":"b91c935c","queueLimit()":"6b8b1ccd","reconnectSubvault(address)":"b2b71a27","redeemQueueFactory()":"9662d429","removeQueue(address)":"040bee6d","renounceRole(bytes32,address)":"36568abe","revokeRole(bytes32,address)":"d547741f","riskManager()":"47842663","setCustomHook(address,address)":"e4f8d0e6","setDefaultDepositHook(address)":"37048816","setDefaultRedeemHook(address)":"ec0f5800","setQueueLimit(uint256)":"ecef475f","setQueueStatus(address,bool)":"eb56d52d","shareManager()":"5c60173d","subvaultAt(uint256)":"9bd0911b","subvaultFactory()":"9ff2cb9d","subvaults()":"a35f620a","supportedRoleAt(uint256)":"a2cb31e5","supportedRoles()":"419a2053","supportsInterface(bytes4)":"01ffc9a7","verifierFactory()":"387db78f"},"id":144}