{"abi":[{"type":"constructor","inputs":[{"name":"name_","type":"string","internalType":"string"},{"name":"version_","type":"uint256","internalType":"uint256"}],"stateMutability":"nonpayable"},{"type":"function","name":"ALLOW_CALL_ROLE","inputs":[],"outputs":[{"name":"","type":"bytes32","internalType":"bytes32"}],"stateMutability":"view"},{"type":"function","name":"CALLER_ROLE","inputs":[],"outputs":[{"name":"","type":"bytes32","internalType":"bytes32"}],"stateMutability":"view"},{"type":"function","name":"DISALLOW_CALL_ROLE","inputs":[],"outputs":[{"name":"","type":"bytes32","internalType":"bytes32"}],"stateMutability":"view"},{"type":"function","name":"SET_MERKLE_ROOT_ROLE","inputs":[],"outputs":[{"name":"","type":"bytes32","internalType":"bytes32"}],"stateMutability":"view"},{"type":"function","name":"allowCalls","inputs":[{"name":"compactCalls","type":"tuple[]","internalType":"struct IVerifier.CompactCall[]","components":[{"name":"who","type":"address","internalType":"address"},{"name":"where","type":"address","internalType":"address"},{"name":"selector","type":"bytes4","internalType":"bytes4"}]}],"outputs":[],"stateMutability":"nonpayable"},{"type":"function","name":"allowedCallAt","inputs":[{"name":"index","type":"uint256","internalType":"uint256"}],"outputs":[{"name":"","type":"tuple","internalType":"struct IVerifier.CompactCall","components":[{"name":"who","type":"address","internalType":"address"},{"name":"where","type":"address","internalType":"address"},{"name":"selector","type":"bytes4","internalType":"bytes4"}]}],"stateMutability":"view"},{"type":"function","name":"allowedCalls","inputs":[],"outputs":[{"name":"","type":"uint256","internalType":"uint256"}],"stateMutability":"view"},{"type":"function","name":"disallowCalls","inputs":[{"name":"compactCalls","type":"tuple[]","internalType":"struct IVerifier.CompactCall[]","components":[{"name":"who","type":"address","internalType":"address"},{"name":"where","type":"address","internalType":"address"},{"name":"selector","type":"bytes4","internalType":"bytes4"}]}],"outputs":[],"stateMutability":"nonpayable"},{"type":"function","name":"getVerificationResult","inputs":[{"name":"who","type":"address","internalType":"address"},{"name":"where","type":"address","internalType":"address"},{"name":"value","type":"uint256","internalType":"uint256"},{"name":"data","type":"bytes","internalType":"bytes"},{"name":"payload","type":"tuple","internalType":"struct IVerifier.VerificationPayload","components":[{"name":"verificationType","type":"uint8","internalType":"enum IVerifier.VerificationType"},{"name":"verificationData","type":"bytes","internalType":"bytes"},{"name":"proof","type":"bytes32[]","internalType":"bytes32[]"}]}],"outputs":[{"name":"","type":"bool","internalType":"bool"}],"stateMutability":"view"},{"type":"function","name":"hashCall","inputs":[{"name":"call","type":"tuple","internalType":"struct IVerifier.CompactCall","components":[{"name":"who","type":"address","internalType":"address"},{"name":"where","type":"address","internalType":"address"},{"name":"selector","type":"bytes4","internalType":"bytes4"}]}],"outputs":[{"name":"","type":"bytes32","internalType":"bytes32"}],"stateMutability":"pure"},{"type":"function","name":"hashCall","inputs":[{"name":"call","type":"tuple","internalType":"struct IVerifier.ExtendedCall","components":[{"name":"who","type":"address","internalType":"address"},{"name":"where","type":"address","internalType":"address"},{"name":"value","type":"uint256","internalType":"uint256"},{"name":"data","type":"bytes","internalType":"bytes"}]}],"outputs":[{"name":"","type":"bytes32","internalType":"bytes32"}],"stateMutability":"pure"},{"type":"function","name":"initialize","inputs":[{"name":"initParams","type":"bytes","internalType":"bytes"}],"outputs":[],"stateMutability":"nonpayable"},{"type":"function","name":"isAllowedCall","inputs":[{"name":"who","type":"address","internalType":"address"},{"name":"where","type":"address","internalType":"address"},{"name":"callData","type":"bytes","internalType":"bytes"}],"outputs":[{"name":"","type":"bool","internalType":"bool"}],"stateMutability":"view"},{"type":"function","name":"merkleRoot","inputs":[],"outputs":[{"name":"","type":"bytes32","internalType":"bytes32"}],"stateMutability":"view"},{"type":"function","name":"setMerkleRoot","inputs":[{"name":"merkleRoot_","type":"bytes32","internalType":"bytes32"}],"outputs":[],"stateMutability":"nonpayable"},{"type":"function","name":"vault","inputs":[],"outputs":[{"name":"","type":"address","internalType":"contract IAccessControl"}],"stateMutability":"view"},{"type":"function","name":"verifyCall","inputs":[{"name":"who","type":"address","internalType":"address"},{"name":"where","type":"address","internalType":"address"},{"name":"value","type":"uint256","internalType":"uint256"},{"name":"data","type":"bytes","internalType":"bytes"},{"name":"payload","type":"tuple","internalType":"struct IVerifier.VerificationPayload","components":[{"name":"verificationType","type":"uint8","internalType":"enum IVerifier.VerificationType"},{"name":"verificationData","type":"bytes","internalType":"bytes"},{"name":"proof","type":"bytes32[]","internalType":"bytes32[]"}]}],"outputs":[],"stateMutability":"view"},{"type":"event","name":"Initialized","inputs":[{"name":"version","type":"uint64","indexed":false,"internalType":"uint64"}],"anonymous":false},{"type":"event","name":"Initialized","inputs":[{"name":"initParams","type":"bytes","indexed":false,"internalType":"bytes"}],"anonymous":false},{"type":"error","name":"CompactCallAlreadyAllowed","inputs":[{"name":"who","type":"address","internalType":"address"},{"name":"where","type":"address","internalType":"address"},{"name":"selector","type":"bytes4","internalType":"bytes4"}]},{"type":"error","name":"CompactCallNotFound","inputs":[{"name":"who","type":"address","internalType":"address"},{"name":"where","type":"address","internalType":"address"},{"name":"selector","type":"bytes4","internalType":"bytes4"}]},{"type":"error","name":"Forbidden","inputs":[]},{"type":"error","name":"InvalidInitialization","inputs":[]},{"type":"error","name":"InvalidLength","inputs":[]},{"type":"error","name":"NotInitializing","inputs":[]},{"type":"error","name":"VerificationFailed","inputs":[]},{"type":"error","name":"ZeroValue","inputs":[]}],"bytecode":{"object":"0x60a060405234801561000f575f80fd5b50604051611d1d380380611d1d83398101604081905261002e916101b6565b6040805180820190915260088152672b32b934b334b2b960c11b602082015261005890838361006a565b6080526100636100db565b50506102e8565b5f60ff5f1b19600185858560405160200161008793929190610281565b604051602081830303815290604052805190602001205f1c6100a991906102c9565b6040516020016100bb91815260200190565b604051602081830303815290604052805190602001201690509392505050565b5f6100e4610178565b805490915068010000000000000000900460ff16156101165760405163f92ee8a960e01b815260040160405180910390fd5b80546001600160401b03908116146101755780546001600160401b0319166001600160401b0390811782556040519081527fc7f505b2f371ae2175ee4913f4499e1f2633a7b5936321eed1cdaeb6115181d29060200160405180910390a15b50565b5f807ff0c57e16840df040f15088dc2f81fe391c3923bec73e23a9662efc9c229c6a005b92915050565b634e487b7160e01b5f52604160045260245ffd5b5f80604083850312156101c7575f80fd5b82516001600160401b03808211156101dd575f80fd5b818501915085601f8301126101f0575f80fd5b815181811115610202576102026101a2565b604051601f8201601f19908116603f0116810190838211818310171561022a5761022a6101a2565b81604052828152886020848701011115610242575f80fd5b8260208601602083015e5f602084830101528096505050505050602083015190509250929050565b5f81518060208401855e5f93019283525090919050565b7f6d656c6c6f772e666c657869626c652d7661756c74732e73746f726167652e0081525f6102bb6102b5601f84018761026a565b8561026a565b928352505060200192915050565b8181038181111561019c57634e487b7160e01b5f52601160045260245ffd5b6080516119de61033f5f395f81816101210152818161034801528181610430015281816105a3015281816106f2015281816108fc015281816109cc01528181610abf01528181610ede0152610f7601526119de5ff3fe608060405234801561000f575f80fd5b5060043610610106575f3560e01c8063774237fc1161009e578063ba3c34851161006e578063ba3c348514610291578063bffeda7d146102a4578063d46c2491146102b7578063e7815cd7146102ca578063fbfa77cf146102f1575f80fd5b8063774237fc1461020d5780637cb6475914610234578063a95f475414610247578063b27fb5091461026e575f80fd5b80633ae314e8116100d95780633ae314e8146101b8578063439fab91146101cb5780635a6ca9f9146101de5780636218e88814610205575f80fd5b806310749ebd1461010a5780632eb4a7ab1461011f57806337b893bf146101585780633ab854631461016b575b5f80fd5b61011d610118366004611247565b610311565b005b7f0000000000000000000000000000000000000000000000000000000000000000600101545b6040519081526020015b60405180910390f35b61011d6101663660046112dd565b61036c565b61017e61017936600461134b565b610585565b6040805182516001600160a01b03908116825260208085015190911690820152918101516001600160e01b0319169082015260600161014f565b61011d6101c63660046112dd565b61062e565b61011d6101d9366004611362565b610820565b6101457ff3354d076b52bf34f14c15ff5c85faef55353add7b5bb69cd8ac10c4b85748cf81565b6101456109c6565b6101457f877766a829235d063c3ba37802a4874fcf1b575d310fbe898df17d8ebabee46381565b61011d61024236600461134b565b6109f8565b6101457ffc199f685d023b44b528c5fcb9cebfe292e64340dd5729b20761da4ad1e9302481565b61028161027c366004611247565b610ae2565b604051901515815260200161014f565b61028161029f3660046113a0565b610e99565b6101456102b2366004611481565b610f0f565b6101456102c53660046114f0565b610f4d565b6101457f7e8318b807524ed75f0b7cc82d3cd61e590497e7502a54c698a969fa62dc0a2e81565b6102f9610f74565b6040516001600160a01b03909116815260200161014f565b61031f868686868686610ae2565b61033c5760405163439cc0cd60e01b815260040160405180910390fd5b505050505050565b60017f0000000000000000000000000000000000000000000000000000000000000000015490565b7f7e8318b807524ed75f0b7cc82d3cd61e590497e7502a54c698a969fa62dc0a2e610395610f74565b6001600160a01b03166391d1485482336040516001600160e01b031960e085901b16815260048101929092526001600160a01b03166024820152604401602060405180830381865afa1580156103ed573d5f803e3d5ffd5b505050506040513d601f19601f8201168201806040525081019061041191906115d8565b61042e57604051631dd2188d60e31b815260040160405180910390fd5b7f000000000000000000000000000000000000000000000000000000000000000060048101600282015f5b8581101561057c575f61048d888884818110610477576104776115fe565b9050606002018036038101906102b29190611481565b90506104998382610fa2565b61053d578787838181106104af576104af6115fe565b6104c59260206060909202019081019150611612565b8888848181106104d7576104d76115fe565b90506060020160200160208101906104ef9190611612565b898985818110610501576105016115fe565b9050606002016040016020810190610519919061162d565b6040516208153360e41b815260040161053493929190611648565b60405180910390fd5b87878381811061054f5761054f6115fe565b905060600201845f8381526020019081526020015f2081816105719190611695565b505050600101610459565b50505050505050565b604080516060810182525f80825260208201819052918101829052907f0000000000000000000000000000000000000000000000000000000000000000906105d06002830185610fb6565b5f90815260049092016020908152604092839020835160608101855281546001600160a01b039081168252600190920154918216928101929092526001600160e01b0319600160a01b90910460e01b16928101929092525092915050565b7ff3354d076b52bf34f14c15ff5c85faef55353add7b5bb69cd8ac10c4b85748cf610657610f74565b6001600160a01b03166391d1485482336040516001600160e01b031960e085901b16815260048101929092526001600160a01b03166024820152604401602060405180830381865afa1580156106af573d5f803e3d5ffd5b505050506040513d601f19601f820116820180604052508101906106d391906115d8565b6106f057604051631dd2188d60e31b815260040160405180910390fd5b7f000000000000000000000000000000000000000000000000000000000000000060048101600282015f5b8581101561057c575f610739888884818110610477576104776115fe565b90506107458382610fc1565b6107e15787878381811061075b5761075b6115fe565b6107719260206060909202019081019150611612565b888884818110610783576107836115fe565b905060600201602001602081019061079b9190611612565b8989858181106107ad576107ad6115fe565b90506060020160400160208101906107c5919061162d565b6040516310e9859b60e01b815260040161053493929190611648565b8787838181106107f3576107f36115fe565b905060600201845f8381526020019081526020015f2081816108159190611695565b50505060010161071b565b5f610829610fcc565b805490915060ff600160401b82041615906001600160401b03165f8115801561084f5750825b90505f826001600160401b0316600114801561086a5750303b155b905081158015610878575080155b156108965760405163f92ee8a960e01b815260040160405180910390fd5b845467ffffffffffffffff1916600117855583156108c057845460ff60401b1916600160401b1785555b5f806108ce888a018a6116f8565b90925090506001600160a01b0382166108fa57604051637c946ed760e01b815260040160405180910390fd5b7f000000000000000000000000000000000000000000000000000000000000000080546001600160a01b0319166001600160a01b038416178155600181018290556040517f5e399709a9ff1709f6f6be7268c8e5c3eeaa9da9cd9797e78f07ef287c3717fe9061096d908c908c9061174a565b60405180910390a1505050831561057c57845460ff60401b19168555604051600181527fc7f505b2f371ae2175ee4913f4499e1f2633a7b5936321eed1cdaeb6115181d29060200160405180910390a150505050505050565b5f6109f37f0000000000000000000000000000000000000000000000000000000000000000600201610ff4565b905090565b7ffc199f685d023b44b528c5fcb9cebfe292e64340dd5729b20761da4ad1e93024610a21610f74565b6001600160a01b03166391d1485482336040516001600160e01b031960e085901b16815260048101929092526001600160a01b03166024820152604401602060405180830381865afa158015610a79573d5f803e3d5ffd5b505050506040513d601f19601f82011682018060405250810190610a9d91906115d8565b610aba57604051631dd2188d60e31b815260040160405180910390fd5b5060017f00000000000000000000000000000000000000000000000000000000000000000155565b5f610aeb610f74565b604051632474521560e21b81527f877766a829235d063c3ba37802a4874fcf1b575d310fbe898df17d8ebabee46360048201526001600160a01b03898116602483015291909116906391d1485490604401602060405180830381865afa158015610b57573d5f803e3d5ffd5b505050506040513d601f19601f82011682018060405250810190610b7b91906115d8565b610b8657505f610e8f565b5f610b946020840184611779565b6003811115610ba557610ba5611765565b03610bbd57610bb687878686610e99565b9050610e8f565b365f610bcc6020850185611797565b90925090505f610bdf6020860186611779565b8383604051610bef9291906117d9565b604051908190038120610c0592916020016117e8565b60408051601f1981840301815282825280516020918201209083015201604051602081830303815290604052805190602001209050610c8d858060400190610c4d9190611812565b808060200260200160405190810160405280939291908181526020018383602002808284375f92019190915250610c879250610344915050565b83610ffd565b610c9c575f9350505050610e8f565b6002610cab6020870187611779565b6003811115610cbc57610cbc611765565b03610d4457610ccb8284611857565b610d3960405180608001604052808d6001600160a01b031681526020018c6001600160a01b031681526020018b81526020018a8a8080601f0160208091040260200160405190810160405280939291908181526020018383808284375f920191909152505050915250610f4d565b149350505050610e8f565b6001610d536020870187611779565b6003811115610d6457610d64611765565b03610dd45760048610801590610dca5750610d7f8284611857565b604080516060810182526001600160a01b03808e1682528c166020820152610d39918101610db060045f8c8e611874565b610db99161189b565b6001600160e01b0319169052610f0f565b9350505050610e8f565b6003610de36020870187611779565b6003811115610df457610df4611765565b03610e885782356001600160a01b0381166370e46bcb8c8c8c8c8c610e1c8a6020818e611874565b6040518863ffffffff1660e01b8152600401610e3e97969594939291906118cb565b602060405180830381865afa158015610e59573d5f803e3d5ffd5b505050506040513d601f19601f82011682018060405250810190610e7d91906115d8565b945050505050610e8f565b5f93505050505b9695505050505050565b5f60048210801590610f065750604080516060810182526001600160a01b03808816825286166020820152610f0691610edc91908101610db060045f888a611874565b7f000000000000000000000000000000000000000000000000000000000000000060020190611012565b95945050505050565b5f815f015182602001518360400151604051602001610f3093929190611648565b604051602081830303815290604052805190602001209050919050565b5f815f0151826020015183604001518460600151604051602001610f30949392919061191f565b7f0000000000000000000000000000000000000000000000000000000000000000546001600160a01b031690565b5f610fad8383611029565b90505b92915050565b5f610fad8383611075565b5f610fad838361109b565b5f807ff0c57e16840df040f15088dc2f81fe391c3923bec73e23a9662efc9c229c6a00610fb0565b5f610fb0825490565b5f82611009858461117e565b14949350505050565b5f8181526001830160205260408120541515610fad565b5f81815260018301602052604081205461106e57508154600181810184555f848152602080822090930184905584548482528286019093526040902091909155610fb0565b505f610fb0565b5f825f01828154811061108a5761108a6115fe565b905f5260205f200154905092915050565b5f8181526001830160205260408120548015611175575f6110bd600183611975565b85549091505f906110d090600190611975565b905080821461112f575f865f0182815481106110ee576110ee6115fe565b905f5260205f200154905080875f01848154811061110e5761110e6115fe565b5f918252602080832090910192909255918252600188019052604090208390555b855486908061114057611140611994565b600190038181905f5260205f20015f90559055856001015f8681526020019081526020015f205f905560019350505050610fb0565b5f915050610fb0565b5f81815b84518110156111b8576111ae828683815181106111a1576111a16115fe565b60200260200101516111c0565b9150600101611182565b509392505050565b5f8183106111da575f828152602084905260409020610fad565b5f838152602083905260409020610fad565b6001600160a01b0381168114611200575f80fd5b50565b5f8083601f840112611213575f80fd5b5081356001600160401b03811115611229575f80fd5b602083019150836020828501011115611240575f80fd5b9250929050565b5f805f805f8060a0878903121561125c575f80fd5b8635611267816111ec565b95506020870135611277816111ec565b94506040870135935060608701356001600160401b0380821115611299575f80fd5b6112a58a838b01611203565b909550935060808901359150808211156112bd575f80fd5b5087016060818a0312156112cf575f80fd5b809150509295509295509295565b5f80602083850312156112ee575f80fd5b82356001600160401b0380821115611304575f80fd5b818501915085601f830112611317575f80fd5b813581811115611325575f80fd5b866020606083028501011115611339575f80fd5b60209290920196919550909350505050565b5f6020828403121561135b575f80fd5b5035919050565b5f8060208385031215611373575f80fd5b82356001600160401b03811115611388575f80fd5b61139485828601611203565b90969095509350505050565b5f805f80606085870312156113b3575f80fd5b84356113be816111ec565b935060208501356113ce816111ec565b925060408501356001600160401b038111156113e8575f80fd5b6113f487828801611203565b95989497509550505050565b634e487b7160e01b5f52604160045260245ffd5b604051608081016001600160401b038111828210171561143657611436611400565b60405290565b604051601f8201601f191681016001600160401b038111828210171561146457611464611400565b604052919050565b6001600160e01b031981168114611200575f80fd5b5f60608284031215611491575f80fd5b604051606081018181106001600160401b03821117156114b3576114b3611400565b60405282356114c1816111ec565b815260208301356114d1816111ec565b602082015260408301356114e48161146c565b60408201529392505050565b5f6020808385031215611501575f80fd5b82356001600160401b0380821115611517575f80fd5b908401906080828703121561152a575f80fd5b611532611414565b823561153d816111ec565b81528284013561154c816111ec565b818501526040838101359082015260608301358281111561156b575f80fd5b80840193505086601f84011261157f575f80fd5b82358281111561159157611591611400565b6115a3601f8201601f1916860161143c565b925080835287858286010111156115b8575f80fd5b80858501868501375f908301909401939093526060830152509392505050565b5f602082840312156115e8575f80fd5b815180151581146115f7575f80fd5b9392505050565b634e487b7160e01b5f52603260045260245ffd5b5f60208284031215611622575f80fd5b81356115f7816111ec565b5f6020828403121561163d575f80fd5b81356115f78161146c565b6001600160a01b0393841681529190921660208201526001600160e01b0319909116604082015260600190565b80546001600160a01b0319166001600160a01b0392909216919091179055565b81356116a0816111ec565b6116aa8183611675565b506001810160208301356116bd816111ec565b6116c78183611675565b5060408301356116d68161146c565b815463ffffffff60a01b191660409190911c63ffffffff60a01b161790555050565b5f8060408385031215611709575f80fd5b8235611714816111ec565b946020939093013593505050565b81835281816020850137505f828201602090810191909152601f909101601f19169091010190565b602081525f61175d602083018486611722565b949350505050565b634e487b7160e01b5f52602160045260245ffd5b5f60208284031215611789575f80fd5b8135600481106115f7575f80fd5b5f808335601e198436030181126117ac575f80fd5b8301803591506001600160401b038211156117c5575f80fd5b602001915036819003821315611240575f80fd5b818382375f9101908152919050565b604081016004841061180857634e487b7160e01b5f52602160045260245ffd5b9281526020015290565b5f808335601e19843603018112611827575f80fd5b8301803591506001600160401b03821115611840575f80fd5b6020019150600581901b3603821315611240575f80fd5b80356020831015610fb0575f19602084900360031b1b1692915050565b5f8085851115611882575f80fd5b8386111561188e575f80fd5b5050820193919092039150565b6001600160e01b031981358181169160048510156118c35780818660040360031b1b83161692505b505092915050565b6001600160a01b038881168252871660208201526040810186905260a0606082018190525f906118fe9083018688611722565b8281036080840152611911818587611722565b9a9950505050505050505050565b5f60018060a01b038087168352808616602084015250836040830152608060608301528251806080840152806020850160a085015e5f60a0828501015260a0601f19601f83011684010191505095945050505050565b81810381811115610fb057634e487b7160e01b5f52601160045260245ffd5b634e487b7160e01b5f52603160045260245ffdfea2646970667358221220d7c6be211604ffce6070510b01ce280910ae4ecd08d87294c760b822f39aea7a64736f6c63430008190033","linkReferences":{}},"methodIdentifiers":{"ALLOW_CALL_ROLE()":"e7815cd7","CALLER_ROLE()":"774237fc","DISALLOW_CALL_ROLE()":"5a6ca9f9","SET_MERKLE_ROOT_ROLE()":"a95f4754","allowCalls((address,address,bytes4)[])":"37b893bf","allowedCallAt(uint256)":"3ab85463","allowedCalls()":"6218e888","disallowCalls((address,address,bytes4)[])":"3ae314e8","getVerificationResult(address,address,uint256,bytes,(uint8,bytes,bytes32[]))":"b27fb509","hashCall((address,address,bytes4))":"bffeda7d","hashCall((address,address,uint256,bytes))":"d46c2491","initialize(bytes)":"439fab91","isAllowedCall(address,address,bytes)":"ba3c3485","merkleRoot()":"2eb4a7ab","setMerkleRoot(bytes32)":"7cb64759","vault()":"fbfa77cf","verifyCall(address,address,uint256,bytes,(uint8,bytes,bytes32[]))":"10749ebd"},"id":131}