{"abi":[{"type":"constructor","inputs":[{"name":"name_","type":"string","internalType":"string"},{"name":"version_","type":"uint256","internalType":"uint256"}],"stateMutability":"nonpayable"},{"type":"function","name":"acceptProposedImplementation","inputs":[{"name":"implementation","type":"address","internalType":"address"}],"outputs":[],"stateMutability":"nonpayable"},{"type":"function","name":"create","inputs":[{"name":"version","type":"uint256","internalType":"uint256"},{"name":"owner","type":"address","internalType":"address"},{"name":"initParams","type":"bytes","internalType":"bytes"}],"outputs":[{"name":"instance","type":"address","internalType":"address"}],"stateMutability":"nonpayable"},{"type":"function","name":"entities","inputs":[],"outputs":[{"name":"","type":"uint256","internalType":"uint256"}],"stateMutability":"view"},{"type":"function","name":"entityAt","inputs":[{"name":"index","type":"uint256","internalType":"uint256"}],"outputs":[{"name":"","type":"address","internalType":"address"}],"stateMutability":"view"},{"type":"function","name":"implementationAt","inputs":[{"name":"index","type":"uint256","internalType":"uint256"}],"outputs":[{"name":"","type":"address","internalType":"address"}],"stateMutability":"view"},{"type":"function","name":"implementations","inputs":[],"outputs":[{"name":"","type":"uint256","internalType":"uint256"}],"stateMutability":"view"},{"type":"function","name":"initialize","inputs":[{"name":"data","type":"bytes","internalType":"bytes"}],"outputs":[],"stateMutability":"nonpayable"},{"type":"function","name":"isBlacklisted","inputs":[{"name":"version","type":"uint256","internalType":"uint256"}],"outputs":[{"name":"","type":"bool","internalType":"bool"}],"stateMutability":"view"},{"type":"function","name":"isEntity","inputs":[{"name":"entity","type":"address","internalType":"address"}],"outputs":[{"name":"","type":"bool","internalType":"bool"}],"stateMutability":"view"},{"type":"function","name":"owner","inputs":[],"outputs":[{"name":"","type":"address","internalType":"address"}],"stateMutability":"view"},{"type":"function","name":"proposalAt","inputs":[{"name":"index","type":"uint256","internalType":"uint256"}],"outputs":[{"name":"","type":"address","internalType":"address"}],"stateMutability":"view"},{"type":"function","name":"proposals","inputs":[],"outputs":[{"name":"","type":"uint256","internalType":"uint256"}],"stateMutability":"view"},{"type":"function","name":"proposeImplementation","inputs":[{"name":"implementation","type":"address","internalType":"address"}],"outputs":[],"stateMutability":"nonpayable"},{"type":"function","name":"renounceOwnership","inputs":[],"outputs":[],"stateMutability":"nonpayable"},{"type":"function","name":"setBlacklistStatus","inputs":[{"name":"version","type":"uint256","internalType":"uint256"},{"name":"flag","type":"bool","internalType":"bool"}],"outputs":[],"stateMutability":"nonpayable"},{"type":"function","name":"transferOwnership","inputs":[{"name":"newOwner","type":"address","internalType":"address"}],"outputs":[],"stateMutability":"nonpayable"},{"type":"event","name":"AcceptProposedImplementation","inputs":[{"name":"implementation","type":"address","indexed":false,"internalType":"address"}],"anonymous":false},{"type":"event","name":"Created","inputs":[{"name":"instance","type":"address","indexed":true,"internalType":"address"},{"name":"version","type":"uint256","indexed":true,"internalType":"uint256"},{"name":"owner","type":"address","indexed":true,"internalType":"address"},{"name":"initParams","type":"bytes","indexed":false,"internalType":"bytes"}],"anonymous":false},{"type":"event","name":"Initialized","inputs":[{"name":"version","type":"uint64","indexed":false,"internalType":"uint64"}],"anonymous":false},{"type":"event","name":"Initialized","inputs":[{"name":"initParams","type":"bytes","indexed":false,"internalType":"bytes"}],"anonymous":false},{"type":"event","name":"OwnershipTransferred","inputs":[{"name":"previousOwner","type":"address","indexed":true,"internalType":"address"},{"name":"newOwner","type":"address","indexed":true,"internalType":"address"}],"anonymous":false},{"type":"event","name":"ProposeImplementation","inputs":[{"name":"implementation","type":"address","indexed":false,"internalType":"address"}],"anonymous":false},{"type":"event","name":"SetBlacklistStatus","inputs":[{"name":"version","type":"uint256","indexed":false,"internalType":"uint256"},{"name":"flag","type":"bool","indexed":false,"internalType":"bool"}],"anonymous":false},{"type":"error","name":"BlacklistedVersion","inputs":[{"name":"version","type":"uint256","internalType":"uint256"}]},{"type":"error","name":"ImplementationAlreadyAccepted","inputs":[{"name":"implementation","type":"address","internalType":"address"}]},{"type":"error","name":"ImplementationAlreadyProposed","inputs":[{"name":"implementation","type":"address","internalType":"address"}]},{"type":"error","name":"ImplementationNotProposed","inputs":[{"name":"implementation","type":"address","internalType":"address"}]},{"type":"error","name":"InvalidInitialization","inputs":[]},{"type":"error","name":"NotInitializing","inputs":[]},{"type":"error","name":"OutOfBounds","inputs":[{"name":"index","type":"uint256","internalType":"uint256"}]},{"type":"error","name":"OwnableInvalidOwner","inputs":[{"name":"owner","type":"address","internalType":"address"}]},{"type":"error","name":"OwnableUnauthorizedAccount","inputs":[{"name":"account","type":"address","internalType":"address"}]}],"bytecode":{"object":"0x60a060405234801561000f575f80fd5b50604051611fe6380380611fe683398101604081905261002e916101b5565b604080518082019091526007815266466163746f727960c81b6020820152610057908383610069565b6080526100626100da565b50506102e7565b5f60ff5f1b19600185858560405160200161008693929190610280565b604051602081830303815290604052805190602001205f1c6100a891906102c8565b6040516020016100ba91815260200190565b604051602081830303815290604052805190602001201690509392505050565b5f6100e3610177565b805490915068010000000000000000900460ff16156101155760405163f92ee8a960e01b815260040160405180910390fd5b80546001600160401b03908116146101745780546001600160401b0319166001600160401b0390811782556040519081527fc7f505b2f371ae2175ee4913f4499e1f2633a7b5936321eed1cdaeb6115181d29060200160405180910390a15b50565b5f807ff0c57e16840df040f15088dc2f81fe391c3923bec73e23a9662efc9c229c6a005b92915050565b634e487b7160e01b5f52604160045260245ffd5b5f80604083850312156101c6575f80fd5b82516001600160401b03808211156101dc575f80fd5b818501915085601f8301126101ef575f80fd5b815181811115610201576102016101a1565b604051601f8201601f19908116603f01168101908382118183101715610229576102296101a1565b81604052828152886020848701011115610241575f80fd5b8260208601602083015e5f602084830101528096505050505050602083015190509250929050565b5f81518060208401855e5f93019283525090919050565b7f6d656c6c6f772e666c657869626c652d7661756c74732e73746f726167652e0081525f6102ba6102b4601f840187610269565b85610269565b928352505060200192915050565b8181038181111561019b57634e487b7160e01b5f52601160045260245ffd5b608051611c9a61034c5f395f818161019b01528181610294015281816102c5015281816102f4015281816104610152818161061101528181610640015281816106700152818161073c015281816107640152818161083c015261086b0152611c9a5ff3fe608060405234801561000f575f80fd5b50600436106100fb575f3560e01c806367f72122116100935780639dd18c15116100635780639dd18c1514610242578063d46bd10c14610255578063e4ccf77014610268578063f2fde38b1461027b575f80fd5b806367f72122146101e4578063715018a6146101f75780638da5cb5b146101ff57806394341e491461022f575f80fd5b806346fbcbb2116100ce57806346fbcbb21461015a5780634752f9ef1461018557806355ef20e6146101c95780635bb838cb146101d1575f80fd5b806314887c58146100ff5780631615fd031461012757806330e9012c1461013d578063439fab9114610145575b5f80fd5b61011261010d366004610c70565b61028e565b60405190151581526020015b60405180910390f35b61012f6102bf565b60405190815260200161011e565b61012f6102ee565b610158610153366004610cd0565b61031b565b005b61016d610168366004610d0f565b61045e565b6040516001600160a01b03909116815260200161011e565b610112610193366004610d67565b5f90815260067f000000000000000000000000000000000000000000000000000000000000000001602052604090205460ff1690565b61012f61060b565b61016d6101df366004610d67565b610638565b6101586101f2366004610c70565b610666565b610158610721565b7f9016d09d72d40fdae2fd8ceac6b6234c7706214fd39c1cd1e609a0528c199300546001600160a01b031661016d565b61016d61023d366004610d67565b610734565b610158610250366004610c70565b610762565b61016d610263366004610d67565b610836565b610158610276366004610d7e565b610861565b610158610289366004610c70565b610913565b5f6102b97f000000000000000000000000000000000000000000000000000000000000000083610950565b92915050565b5f6102e97f0000000000000000000000000000000000000000000000000000000000000000610974565b905090565b5f6102e97f0000000000000000000000000000000000000000000000000000000000000000600201610974565b5f61032461097d565b805490915060ff600160401b820416159067ffffffffffffffff165f8115801561034b5750825b90505f8267ffffffffffffffff1660011480156103675750303b155b905081158015610375575080155b156103935760405163f92ee8a960e01b815260040160405180910390fd5b845467ffffffffffffffff1916600117855583156103bd57845460ff60401b1916600160401b1785555b5f6103ca87890189610c70565b90506103d5816109a5565b7f5e399709a9ff1709f6f6be7268c8e5c3eeaa9da9cd9797e78f07ef287c3717fe8888604051610406929190610db0565b60405180910390a150831561045557845460ff60401b19168555604051600181527fc7f505b2f371ae2175ee4913f4499e1f2633a7b5936321eed1cdaeb6115181d29060200160405180910390a15b50505050505050565b5f7f000000000000000000000000000000000000000000000000000000000000000061048c60028201610974565b86106104b357604051635f7644f960e01b8152600481018790526024015b60405180910390fd5b5f86815260068201602052604090205460ff16156104e757604051638e04f87760e01b8152600481018790526024016104aa565b5f6104f560028301886109b6565b90505f8787878761050587610974565b604051602001610519959493929190610dde565b6040516020818303038152906040528051906020012090508082888888604051602401610547929190610db0565b60408051601f198184030181529181526020820180516001600160e01b031663439fab9160e01b1790525161057b90610c4f565b61058793929190610e12565b8190604051809103905ff59050801580156105a4573d5f803e3d5ffd5b5093506105b183856109c1565b50866001600160a01b031688856001600160a01b03167f92b7437b02c7a4a0cfdb056ac9735ad28097b10ea3bbe8772f03db7036f3c32489896040516105f8929190610db0565b60405180910390a4505050949350505050565b5f6102e97f0000000000000000000000000000000000000000000000000000000000000000600401610974565b5f6102b960047f000000000000000000000000000000000000000000000000000000000000000001836109b6565b61066e6109d5565b7f000000000000000000000000000000000000000000000000000000000000000061069c6004820183610950565b6106c45760405163275e7ebb60e01b81526001600160a01b03831660048201526024016104aa565b6106d16004820183610a30565b506106df60028201836109c1565b506040516001600160a01b03831681527f8cfd7e650820c03befd8be6e34461606f189350196deda290d2073858d62a05e906020015b60405180910390a15050565b6107296109d5565b6107325f610a44565b565b5f6102b960027f000000000000000000000000000000000000000000000000000000000000000001836109b6565b7f00000000000000000000000000000000000000000000000000000000000000006107906002820183610950565b156107b957604051630bd376f560e01b81526001600160a01b03831660048201526024016104aa565b6107c66004820183610950565b156107ef5760405163ae1144b160e01b81526001600160a01b03831660048201526024016104aa565b6107fc60048201836109c1565b506040516001600160a01b03831681527f54b8ad8606c439bbc4663d5a29c481a99867a1cd0c3e4be3b9a9f4ffc600a7d090602001610715565b5f6102b97f0000000000000000000000000000000000000000000000000000000000000000836109b6565b6108696109d5565b7f000000000000000000000000000000000000000000000000000000000000000061089660028201610974565b83106108b857604051635f7644f960e01b8152600481018490526024016104aa565b5f838152600682016020908152604091829020805460ff19168515159081179091558251868152918201527ff447dc19ae4926f34080722ae3897d9309143530c04dbe5a8467724c42ab2fce910160405180910390a1505050565b61091b6109d5565b6001600160a01b03811661094457604051631e4fbdf760e01b81525f60048201526024016104aa565b61094d81610a44565b50565b6001600160a01b0381165f90815260018301602052604081205415155b9392505050565b5f6102b9825490565b5f807ff0c57e16840df040f15088dc2f81fe391c3923bec73e23a9662efc9c229c6a006102b9565b6109ad610ab4565b61094d81610ad9565b5f61096d8383610ae1565b5f61096d836001600160a01b038416610b07565b33610a077f9016d09d72d40fdae2fd8ceac6b6234c7706214fd39c1cd1e609a0528c199300546001600160a01b031690565b6001600160a01b0316146107325760405163118cdaa760e01b81523360048201526024016104aa565b5f61096d836001600160a01b038416610b53565b7f9016d09d72d40fdae2fd8ceac6b6234c7706214fd39c1cd1e609a0528c19930080546001600160a01b031981166001600160a01b03848116918217845560405192169182907f8be0079c531659141344cd1fd0a4f28419497f9722a3daafe3b4186f6b6457e0905f90a3505050565b610abc610c36565b61073257604051631afcd79f60e31b815260040160405180910390fd5b61091b610ab4565b5f825f018281548110610af657610af6610e61565b905f5260205f200154905092915050565b5f818152600183016020526040812054610b4c57508154600181810184555f8481526020808220909301849055845484825282860190935260409020919091556102b9565b505f6102b9565b5f8181526001830160205260408120548015610c2d575f610b75600183610e75565b85549091505f90610b8890600190610e75565b9050808214610be7575f865f018281548110610ba657610ba6610e61565b905f5260205f200154905080875f018481548110610bc657610bc6610e61565b5f918252602080832090910192909255918252600188019052604090208390555b8554869080610bf857610bf8610e94565b600190038181905f5260205f20015f90559055856001015f8681526020019081526020015f205f9055600193505050506102b9565b5f9150506102b9565b5f610c3f61097d565b54600160401b900460ff16919050565b610dbc80610ea983390190565b6001600160a01b038116811461094d575f80fd5b5f60208284031215610c80575f80fd5b813561096d81610c5c565b5f8083601f840112610c9b575f80fd5b50813567ffffffffffffffff811115610cb2575f80fd5b602083019150836020828501011115610cc9575f80fd5b9250929050565b5f8060208385031215610ce1575f80fd5b823567ffffffffffffffff811115610cf7575f80fd5b610d0385828601610c8b565b90969095509350505050565b5f805f8060608587031215610d22575f80fd5b843593506020850135610d3481610c5c565b9250604085013567ffffffffffffffff811115610d4f575f80fd5b610d5b87828801610c8b565b95989497509550505050565b5f60208284031215610d77575f80fd5b5035919050565b5f8060408385031215610d8f575f80fd5b8235915060208301358015158114610da5575f80fd5b809150509250929050565b60208152816020820152818360408301375f818301604090810191909152601f909201601f19160101919050565b8581526bffffffffffffffffffffffff198560601b1660208201528284603483013760349201918201526054019392505050565b5f60018060a01b0380861683528085166020840152506060604083015282518060608401528060208501608085015e5f608082850101526080601f19601f830116840101915050949350505050565b634e487b7160e01b5f52603260045260245ffd5b818103818111156102b957634e487b7160e01b5f52601160045260245ffd5b634e487b7160e01b5f52603160045260245ffdfe60a0604052604051610dbc380380610dbc8339810160408190526100229161036a565b828161002e828261008c565b50508160405161003d9061032e565b6001600160a01b039091168152602001604051809103905ff080158015610066573d5f803e3d5ffd5b506001600160a01b031660805261008461007f60805190565b6100ea565b50505061044b565b61009582610157565b6040516001600160a01b038316907fbc7cd75a20ee27fd9adebab32041f755214dbc6bffa90cc0225b39da2e5c2d3b905f90a28051156100de576100d982826101d5565b505050565b6100e6610248565b5050565b7f7e644d79422f17c01e4894b5f4f588d331ebfa28653d42ae832dc59e38c9798f6101295f80516020610d9c833981519152546001600160a01b031690565b604080516001600160a01b03928316815291841660208301520160405180910390a161015481610269565b50565b806001600160a01b03163b5f0361019157604051634c9c8ce360e01b81526001600160a01b03821660048201526024015b60405180910390fd5b807f360894a13ba1a3210667c828492db98dca3e2076cc3735a920a3ca505d382bbc5b80546001600160a01b0319166001600160a01b039290921691909117905550565b60605f80846001600160a01b0316846040516101f19190610435565b5f60405180830381855af49150503d805f8114610229576040519150601f19603f3d011682016040523d82523d5f602084013e61022e565b606091505b50909250905061023f8583836102a6565b95945050505050565b34156102675760405163b398979f60e01b815260040160405180910390fd5b565b6001600160a01b03811661029257604051633173bdd160e11b81525f6004820152602401610188565b805f80516020610d9c8339815191526101b4565b6060826102bb576102b682610305565b6102fe565b81511580156102d257506001600160a01b0384163b155b156102fb57604051639996b31560e01b81526001600160a01b0385166004820152602401610188565b50805b9392505050565b8051156103155780518082602001fd5b60405163d6bda27560e01b815260040160405180910390fd5b6104e7806108b583390190565b80516001600160a01b0381168114610351575f80fd5b919050565b634e487b7160e01b5f52604160045260245ffd5b5f805f6060848603121561037c575f80fd5b6103858461033b565b92506103936020850161033b565b60408501519092506001600160401b03808211156103af575f80fd5b818601915086601f8301126103c2575f80fd5b8151818111156103d4576103d4610356565b604051601f8201601f19908116603f011681019083821181831017156103fc576103fc610356565b81604052828152896020848701011115610414575f80fd5b8260208601602083015e5f6020848301015280955050505050509250925092565b5f82518060208501845e5f920191825250919050565b6080516104536104625f395f601001526104535ff3fe608060405261000c61000e565b005b7f00000000000000000000000000000000000000000000000000000000000000006001600160a01b0316330361007a575f356001600160e01b03191663278f794360e11b14610070576040516334ad5dbb60e21b815260040160405180910390fd5b610078610082565b565b6100786100b0565b5f806100913660048184610303565b81019061009e919061033e565b915091506100ac82826100c0565b5050565b6100786100bb61011a565b610151565b6100c98261016f565b6040516001600160a01b038316907fbc7cd75a20ee27fd9adebab32041f755214dbc6bffa90cc0225b39da2e5c2d3b905f90a28051156101125761010d82826101ea565b505050565b6100ac61025c565b5f61014c7f360894a13ba1a3210667c828492db98dca3e2076cc3735a920a3ca505d382bbc546001600160a01b031690565b905090565b365f80375f80365f845af43d5f803e80801561016b573d5ff35b3d5ffd5b806001600160a01b03163b5f036101a957604051634c9c8ce360e01b81526001600160a01b03821660048201526024015b60405180910390fd5b7f360894a13ba1a3210667c828492db98dca3e2076cc3735a920a3ca505d382bbc80546001600160a01b0319166001600160a01b0392909216919091179055565b60605f80846001600160a01b0316846040516102069190610407565b5f60405180830381855af49150503d805f811461023e576040519150601f19603f3d011682016040523d82523d5f602084013e610243565b606091505b509150915061025385838361027b565b95945050505050565b34156100785760405163b398979f60e01b815260040160405180910390fd5b6060826102905761028b826102da565b6102d3565b81511580156102a757506001600160a01b0384163b155b156102d057604051639996b31560e01b81526001600160a01b03851660048201526024016101a0565b50805b9392505050565b8051156102ea5780518082602001fd5b60405163d6bda27560e01b815260040160405180910390fd5b5f8085851115610311575f80fd5b8386111561031d575f80fd5b5050820193919092039150565b634e487b7160e01b5f52604160045260245ffd5b5f806040838503121561034f575f80fd5b82356001600160a01b0381168114610365575f80fd5b9150602083013567ffffffffffffffff80821115610381575f80fd5b818501915085601f830112610394575f80fd5b8135818111156103a6576103a661032a565b604051601f8201601f19908116603f011681019083821181831017156103ce576103ce61032a565b816040528281528860208487010111156103e6575f80fd5b826020860160208301375f6020848301015280955050505050509250929050565b5f82518060208501845e5f92019182525091905056fea2646970667358221220d97eaf6413661ec158cd95206e2d8b2d570512e88949f67b8e1a4f4c3cb9964464736f6c63430008190033608060405234801561000f575f80fd5b506040516104e73803806104e783398101604081905261002e916100bb565b806001600160a01b03811661005c57604051631e4fbdf760e01b81525f600482015260240160405180910390fd5b6100658161006c565b50506100e8565b5f80546001600160a01b038381166001600160a01b0319831681178455604051919092169283917f8be0079c531659141344cd1fd0a4f28419497f9722a3daafe3b4186f6b6457e09190a35050565b5f602082840312156100cb575f80fd5b81516001600160a01b03811681146100e1575f80fd5b9392505050565b6103f2806100f55f395ff3fe608060405260043610610049575f3560e01c8063715018a61461004d5780638da5cb5b146100635780639623609d1461008e578063ad3cb1cc146100a1578063f2fde38b146100de575b5f80fd5b348015610058575f80fd5b506100616100fd565b005b34801561006e575f80fd5b505f546040516001600160a01b0390911681526020015b60405180910390f35b61006161009c366004610260565b610110565b3480156100ac575f80fd5b506100d1604051806040016040528060058152602001640352e302e360dc1b81525081565b604051610085919061035d565b3480156100e9575f80fd5b506100616100f8366004610376565b61017b565b6101056101bd565b61010e5f6101e9565b565b6101186101bd565b60405163278f794360e11b81526001600160a01b03841690634f1ef2869034906101489086908690600401610391565b5f604051808303818588803b15801561015f575f80fd5b505af1158015610171573d5f803e3d5ffd5b5050505050505050565b6101836101bd565b6001600160a01b0381166101b157604051631e4fbdf760e01b81525f60048201526024015b60405180910390fd5b6101ba816101e9565b50565b5f546001600160a01b0316331461010e5760405163118cdaa760e01b81523360048201526024016101a8565b5f80546001600160a01b038381166001600160a01b0319831681178455604051919092169283917f8be0079c531659141344cd1fd0a4f28419497f9722a3daafe3b4186f6b6457e09190a35050565b6001600160a01b03811681146101ba575f80fd5b634e487b7160e01b5f52604160045260245ffd5b5f805f60608486031215610272575f80fd5b833561027d81610238565b9250602084013561028d81610238565b9150604084013567ffffffffffffffff808211156102a9575f80fd5b818601915086601f8301126102bc575f80fd5b8135818111156102ce576102ce61024c565b604051601f8201601f19908116603f011681019083821181831017156102f6576102f661024c565b8160405282815289602084870101111561030e575f80fd5b826020860160208301375f6020848301015280955050505050509250925092565b5f81518084528060208401602086015e5f602082860101526020601f19601f83011685010191505092915050565b602081525f61036f602083018461032f565b9392505050565b5f60208284031215610386575f80fd5b813561036f81610238565b6001600160a01b03831681526040602082018190525f906103b49083018461032f565b94935050505056fea2646970667358221220a06578278239d43cd8c11c0c01c8cd9a871efd38d80c47db6703c3146837754f64736f6c63430008190033b53127684a568b3173ae13b9f8a6016e243e63b6e8ee1178d6a717850b5d6103a26469706673582212200237ea610c3e032f5ae5b20d7d7762fe087a533f115d25391396dd8db7f2dbd264736f6c63430008190033","linkReferences":{}},"methodIdentifiers":{"acceptProposedImplementation(address)":"67f72122","create(uint256,address,bytes)":"46fbcbb2","entities()":"1615fd03","entityAt(uint256)":"d46bd10c","implementationAt(uint256)":"94341e49","implementations()":"30e9012c","initialize(bytes)":"439fab91","isBlacklisted(uint256)":"4752f9ef","isEntity(address)":"14887c58","owner()":"8da5cb5b","proposalAt(uint256)":"5bb838cb","proposals()":"55ef20e6","proposeImplementation(address)":"9dd18c15","renounceOwnership()":"715018a6","setBlacklistStatus(uint256,bool)":"e4ccf770","transferOwnership(address)":"f2fde38b"},"id":73}