{"abi":[{"type":"constructor","inputs":[{"name":"name_","type":"string","internalType":"string"},{"name":"version_","type":"uint256","internalType":"uint256"},{"name":"consensusFactory_","type":"address","internalType":"address"}],"stateMutability":"nonpayable"},{"type":"function","name":"ORDER_TYPEHASH","inputs":[],"outputs":[{"name":"","type":"bytes32","internalType":"bytes32"}],"stateMutability":"view"},{"type":"function","name":"asset","inputs":[],"outputs":[{"name":"","type":"address","internalType":"address"}],"stateMutability":"view"},{"type":"function","name":"canBeRemoved","inputs":[],"outputs":[{"name":"","type":"bool","internalType":"bool"}],"stateMutability":"pure"},{"type":"function","name":"claim","inputs":[{"name":"","type":"address","internalType":"address"}],"outputs":[{"name":"","type":"bool","internalType":"bool"}],"stateMutability":"nonpayable"},{"type":"function","name":"claimableOf","inputs":[{"name":"","type":"address","internalType":"address"}],"outputs":[{"name":"","type":"uint256","internalType":"uint256"}],"stateMutability":"view"},{"type":"function","name":"consensus","inputs":[],"outputs":[{"name":"","type":"address","internalType":"contract IConsensus"}],"stateMutability":"view"},{"type":"function","name":"consensusFactory","inputs":[],"outputs":[{"name":"","type":"address","internalType":"contract IFactory"}],"stateMutability":"view"},{"type":"function","name":"deposit","inputs":[{"name":"order","type":"tuple","internalType":"struct ISignatureQueue.Order","components":[{"name":"orderId","type":"uint256","internalType":"uint256"},{"name":"queue","type":"address","internalType":"address"},{"name":"asset","type":"address","internalType":"address"},{"name":"caller","type":"address","internalType":"address"},{"name":"recipient","type":"address","internalType":"address"},{"name":"ordered","type":"uint256","internalType":"uint256"},{"name":"requested","type":"uint256","internalType":"uint256"},{"name":"deadline","type":"uint256","internalType":"uint256"},{"name":"nonce","type":"uint256","internalType":"uint256"}]},{"name":"signatures","type":"tuple[]","internalType":"struct IConsensus.Signature[]","components":[{"name":"signer","type":"address","internalType":"address"},{"name":"signature","type":"bytes","internalType":"bytes"}]}],"outputs":[],"stateMutability":"payable"},{"type":"function","name":"eip712Domain","inputs":[],"outputs":[{"name":"fields","type":"bytes1","internalType":"bytes1"},{"name":"name","type":"string","internalType":"string"},{"name":"version","type":"string","internalType":"string"},{"name":"chainId","type":"uint256","internalType":"uint256"},{"name":"verifyingContract","type":"address","internalType":"address"},{"name":"salt","type":"bytes32","internalType":"bytes32"},{"name":"extensions","type":"uint256[]","internalType":"uint256[]"}],"stateMutability":"view"},{"type":"function","name":"handleReport","inputs":[{"name":"","type":"uint224","internalType":"uint224"},{"name":"","type":"uint32","internalType":"uint32"}],"outputs":[],"stateMutability":"view"},{"type":"function","name":"hashOrder","inputs":[{"name":"order","type":"tuple","internalType":"struct ISignatureQueue.Order","components":[{"name":"orderId","type":"uint256","internalType":"uint256"},{"name":"queue","type":"address","internalType":"address"},{"name":"asset","type":"address","internalType":"address"},{"name":"caller","type":"address","internalType":"address"},{"name":"recipient","type":"address","internalType":"address"},{"name":"ordered","type":"uint256","internalType":"uint256"},{"name":"requested","type":"uint256","internalType":"uint256"},{"name":"deadline","type":"uint256","internalType":"uint256"},{"name":"nonce","type":"uint256","internalType":"uint256"}]}],"outputs":[{"name":"","type":"bytes32","internalType":"bytes32"}],"stateMutability":"view"},{"type":"function","name":"initialize","inputs":[{"name":"initData","type":"bytes","internalType":"bytes"}],"outputs":[],"stateMutability":"nonpayable"},{"type":"function","name":"nonces","inputs":[{"name":"account","type":"address","internalType":"address"}],"outputs":[{"name":"","type":"uint256","internalType":"uint256"}],"stateMutability":"view"},{"type":"function","name":"validateOrder","inputs":[{"name":"order","type":"tuple","internalType":"struct ISignatureQueue.Order","components":[{"name":"orderId","type":"uint256","internalType":"uint256"},{"name":"queue","type":"address","internalType":"address"},{"name":"asset","type":"address","internalType":"address"},{"name":"caller","type":"address","internalType":"address"},{"name":"recipient","type":"address","internalType":"address"},{"name":"ordered","type":"uint256","internalType":"uint256"},{"name":"requested","type":"uint256","internalType":"uint256"},{"name":"deadline","type":"uint256","internalType":"uint256"},{"name":"nonce","type":"uint256","internalType":"uint256"}]},{"name":"signatures","type":"tuple[]","internalType":"struct IConsensus.Signature[]","components":[{"name":"signer","type":"address","internalType":"address"},{"name":"signature","type":"bytes","internalType":"bytes"}]}],"outputs":[],"stateMutability":"view"},{"type":"function","name":"vault","inputs":[],"outputs":[{"name":"","type":"address","internalType":"address"}],"stateMutability":"view"},{"type":"event","name":"EIP712DomainChanged","inputs":[],"anonymous":false},{"type":"event","name":"Initialized","inputs":[{"name":"version","type":"uint64","indexed":false,"internalType":"uint64"}],"anonymous":false},{"type":"event","name":"Initialized","inputs":[{"name":"initParams","type":"bytes","indexed":false,"internalType":"bytes"}],"anonymous":false},{"type":"event","name":"OrderExecuted","inputs":[{"name":"order","type":"tuple","indexed":false,"internalType":"struct ISignatureQueue.Order","components":[{"name":"orderId","type":"uint256","internalType":"uint256"},{"name":"queue","type":"address","internalType":"address"},{"name":"asset","type":"address","internalType":"address"},{"name":"caller","type":"address","internalType":"address"},{"name":"recipient","type":"address","internalType":"address"},{"name":"ordered","type":"uint256","internalType":"uint256"},{"name":"requested","type":"uint256","internalType":"uint256"},{"name":"deadline","type":"uint256","internalType":"uint256"},{"name":"nonce","type":"uint256","internalType":"uint256"}]},{"name":"signatures","type":"tuple[]","indexed":false,"internalType":"struct IConsensus.Signature[]","components":[{"name":"signer","type":"address","internalType":"address"},{"name":"signature","type":"bytes","internalType":"bytes"}]}],"anonymous":false},{"type":"error","name":"FailedCall","inputs":[]},{"type":"error","name":"InsufficientBalance","inputs":[{"name":"balance","type":"uint256","internalType":"uint256"},{"name":"needed","type":"uint256","internalType":"uint256"}]},{"type":"error","name":"InvalidAsset","inputs":[{"name":"asset","type":"address","internalType":"address"}]},{"type":"error","name":"InvalidCaller","inputs":[{"name":"caller","type":"address","internalType":"address"}]},{"type":"error","name":"InvalidInitialization","inputs":[]},{"type":"error","name":"InvalidNonce","inputs":[{"name":"account","type":"address","internalType":"address"},{"name":"nonce","type":"uint256","internalType":"uint256"}]},{"type":"error","name":"InvalidPrice","inputs":[]},{"type":"error","name":"InvalidQueue","inputs":[{"name":"queue","type":"address","internalType":"address"}]},{"type":"error","name":"InvalidValue","inputs":[]},{"type":"error","name":"NotEntity","inputs":[]},{"type":"error","name":"NotInitializing","inputs":[]},{"type":"error","name":"OrderExpired","inputs":[{"name":"deadline","type":"uint256","internalType":"uint256"}]},{"type":"error","name":"ReentrancyGuardReentrantCall","inputs":[]},{"type":"error","name":"SafeERC20FailedOperation","inputs":[{"name":"token","type":"address","internalType":"address"}]},{"type":"error","name":"ZeroValue","inputs":[]}],"bytecode":{"object":"0x60c060405234801561000f575f80fd5b5060405161230f38038061230f83398101604081905261002e916101f2565b8282826100686040518060400160405280600e81526020016d5369676e6174757265517565756560901b815250848461008b60201b60201c565b60a0526001600160a01b0381166080526100806100fc565b505050505050610333565b5f60ff5f1b1960018585856040516020016100a8939291906102cc565b604051602081830303815290604052805190602001205f1c6100ca9190610314565b6040516020016100dc91815260200190565b604051602081830303815290604052805190602001201690509392505050565b5f610105610199565b805490915068010000000000000000900460ff16156101375760405163f92ee8a960e01b815260040160405180910390fd5b80546001600160401b03908116146101965780546001600160401b0319166001600160401b0390811782556040519081527fc7f505b2f371ae2175ee4913f4499e1f2633a7b5936321eed1cdaeb6115181d29060200160405180910390a15b50565b5f807ff0c57e16840df040f15088dc2f81fe391c3923bec73e23a9662efc9c229c6a005b92915050565b634e487b7160e01b5f52604160045260245ffd5b80516001600160a01b03811681146101ed575f80fd5b919050565b5f805f60608486031215610204575f80fd5b83516001600160401b038082111561021a575f80fd5b818601915086601f83011261022d575f80fd5b81518181111561023f5761023f6101c3565b604051601f8201601f19908116603f01168101908382118183101715610267576102676101c3565b8160405282815289602084870101111561027f575f80fd5b8260208601602083015e5f602084830101528097505050505050602084015191506102ac604085016101d7565b90509250925092565b5f81518060208401855e5f93019283525090919050565b7f6d656c6c6f772e666c657869626c652d7661756c74732e73746f726167652e0081525f610306610300601f8401876102b5565b856102b5565b928352505060200192915050565b818103818111156101bd57634e487b7160e01b5f52601160045260245ffd5b60805160a051611f8361038c5f395f818161012a015281816101bb0152818161024301528181610411015281816106ba01528181610b9701528181610cc80152610f3e01525f818161028201526104b60152611f835ff3fe6080604052600436106100e4575f3560e01c8063b219bb1811610087578063c746bc9811610057578063c746bc98146102e8578063f7598a6314610307578063f973a20914610326578063fbfa77cf14610359575f80fd5b8063b219bb1814610271578063b8c5ea8a146102a4578063c16275af146102c2578063c2f21896146102d5575f80fd5b80637ecebe00116100c25780637ecebe001461019057806384b0196e146101f45780638903ab9d1461021b5780638ef3f76114610235575f80fd5b80631e83409a146100e857806338d52e0f1461011c578063439fab911461016f575b5f80fd5b3480156100f3575f80fd5b506101076101023660046116f9565b505f90565b60405190151581526020015b60405180910390f35b348015610127575f80fd5b507f0000000000000000000000000000000000000000000000000000000000000000600201546001600160a01b03165b6040516001600160a01b039091168152602001610113565b34801561017a575f80fd5b5061018e610189366004611714565b61036d565b005b34801561019b575f80fd5b506101e66101aa3660046116f9565b6001600160a01b03165f90815260037f000000000000000000000000000000000000000000000000000000000000000001602052604090205490565b604051908152602001610113565b3480156101ff575f80fd5b506102086105f7565b60405161011397969594939291906117ae565b348015610226575f80fd5b506101e66101023660046116f9565b348015610240575f80fd5b507f0000000000000000000000000000000000000000000000000000000000000000546001600160a01b0316610157565b34801561027c575f80fd5b506101577f000000000000000000000000000000000000000000000000000000000000000081565b3480156102af575f80fd5b5061018e6102be366004611845565b5050565b61018e6102d03660046118a6565b6106a5565b3480156102e0575f80fd5b506001610107565b3480156102f3575f80fd5b506101e6610302366004611928565b6109e9565b348015610312575f80fd5b5061018e6103213660046118a6565b610ae3565b348015610331575f80fd5b506101e67fb367c53189b3057a91923801116b5f9c4e7211a314d1961f94770747512a1b6881565b348015610364575f80fd5b50610157610f3a565b5f610376610f6b565b805490915060ff600160401b820416159067ffffffffffffffff165f8115801561039d5750825b90505f8267ffffffffffffffff1660011480156103b95750303b155b9050811580156103c7575080155b156103e55760405163f92ee8a960e01b815260040160405180910390fd5b845467ffffffffffffffff19166001178555831561040f57845460ff60401b1916600160401b1785555b7f0000000000000000000000000000000000000000000000000000000000000000606061043e8989018a6119af565b6001850180546001600160a01b039384166001600160a01b03199182161790915560028601805494909316931692909217905580519091505f908190819061048f9085016020908101908601611a9a565b6040516302910f8b60e31b81526001600160a01b03848116600483015293965091945092507f0000000000000000000000000000000000000000000000000000000000000000909116906314887c5890602401602060405180830381865afa1580156104fd573d5f803e3d5ffd5b505050506040513d601f19601f820116820180604052508101906105219190611b1b565b61053e5760405163184849cf60e01b815260040160405180910390fd5b610546610f93565b6105508282610fa5565b84546001600160a01b0319166001600160a01b0384161785556040517f5e399709a9ff1709f6f6be7268c8e5c3eeaa9da9cd9797e78f07ef287c3717fe9061059b908e908e90611b5c565b60405180910390a1505050505083156105ee57845460ff60401b19168555604051600181527fc7f505b2f371ae2175ee4913f4499e1f2633a7b5936321eed1cdaeb6115181d29060200160405180910390a15b50505050505050565b5f60608082808083815f80516020611f2e833981519152805490915015801561062257506001810154155b61066b5760405162461bcd60e51b81526020600482015260156024820152741152540dcc4c8e88155b9a5b9a5d1a585b1a5e9959605a1b60448201526064015b60405180910390fd5b610673610fb7565b61067b611077565b604080515f80825260208201909252600f60f81b9c939b5091995046985030975095509350915050565b6106ad6110b5565b6106b8838383610ae3565b7f00000000000000000000000000000000000000000000000000000000000000006003015f6106ed60808601606087016116f9565b6001600160a01b0316815260208101919091526040015f90812080549161071383611b8b565b90915550610746905061072c60608501604086016116f9565b61073c60808601606087016116f9565b8560a001356110ff565b5f61074f610f3a565b905061076f61076460608601604087016116f9565b828660a00135611159565b60405163d27d250360e01b815260a085013560048201526001600160a01b0382169063d27d2503906024015f604051808303815f87803b1580156107b1575f80fd5b505af11580156107c3573d5f803e3d5ffd5b50505050806001600160a01b031663478426636040518163ffffffff1660e01b8152600401602060405180830381865afa158015610803573d5f803e3d5ffd5b505050506040513d601f19601f820116820180604052508101906108279190611ba3565b6001600160a01b03166382dcf07461084560608701604088016116f9565b6040516001600160e01b031960e084901b1681526001600160a01b03909116600482015260a087013560248201526044015f604051808303815f87803b15801561088d575f80fd5b505af115801561089f573d5f803e3d5ffd5b50505050806001600160a01b0316635c60173d6040518163ffffffff1660e01b8152600401602060405180830381865afa1580156108df573d5f803e3d5ffd5b505050506040513d601f19601f820116820180604052508101906109039190611ba3565b6001600160a01b03166340c10f1961092160a08701608088016116f9565b6040516001600160e01b031960e084901b1681526001600160a01b03909116600482015260c087013560248201526044015f604051808303815f87803b158015610969575f80fd5b505af115801561097b573d5f803e3d5ffd5b505050507f529ea661537779719fddfa315e820f5de2bf343f7b33f4f9791b42c6d7ce30d38484846040516109b293929190611c89565b60405180910390a1506109e460017f9b779b17422d0df92223018b32b4d1fa46e071723d6817e2486d003becc55f0055565b505050565b5f610add7fb367c53189b3057a91923801116b5f9c4e7211a314d1961f94770747512a1b688335610a2060408601602087016116f9565b610a3060608701604088016116f9565b610a4060808801606089016116f9565b610a5060a0890160808a016116f9565b6040805160208101979097528601949094526001600160a01b0392831660608601529082166080850152811660a084810191909152911660c0838101919091529085013560e08381019190915290850135610100838101919091529085013561012083015284013561014082015261016001604051602081830303815290604052805190602001206111c2565b92915050565b428360e001351015610b0e576040516306b4c23760e21b815260e08401356004820152602401610662565b30610b1f60408501602086016116f9565b6001600160a01b031614610b6257610b3d60408401602085016116f9565b60405163cca72ba560e01b81526001600160a01b039091166004820152602401610662565b60a08301351580610b75575060c0830135155b15610b9357604051637c946ed760e01b815260040160405180910390fd5b60027f000000000000000000000000000000000000000000000000000000000000000001546001600160a01b0316610bd160608501604086016116f9565b6001600160a01b031614610c1457610bef60608401604085016116f9565b6040516337bce3c560e11b81526001600160a01b039091166004820152602401610662565b33610c2560808501606086016116f9565b6001600160a01b031614610c6857610c4360808401606085016116f9565b60405163065ece9760e51b81526001600160a01b039091166004820152602401610662565b610c7b6101aa60808501606086016116f9565b83610100013514610cc657610c9660808401606085016116f9565b60405163dbc205b160e01b81526001600160a01b0390911660048201526101008401356024820152604401610662565b7f0000000000000000000000000000000000000000000000000000000000000000546001600160a01b031663faa4da34610cff856109e9565b84846040518463ffffffff1660e01b8152600401610d1f93929190611d45565b5f6040518083038186803b158015610d35575f80fd5b505afa158015610d47573d5f803e3d5ffd5b505050505f610d54610f3a565b90505f816001600160a01b0316637dc0d1d06040518163ffffffff1660e01b8152600401602060405180830381865afa158015610d93573d5f803e3d5ffd5b505050506040513d601f19601f82011682018060405250810190610db79190611ba3565b90506001600160a01b03811615610f33576040516392e6ece560e01b81523060048201525f906001600160a01b038416906392e6ece590602401602060405180830381865afa158015610e0c573d5f803e3d5ffd5b505050506040513d601f19601f82011682018060405250810190610e309190611b1b565b15610e5757610e508660c00135670de0b6b3a76400008860a001356111ee565b9050610e77565b610e748660a00135670de0b6b3a76400008860c00135600161129f565b90505b5f806001600160a01b03841663816c885084610e9960608c0160408d016116f9565b6040516001600160e01b031960e085901b16815260048101929092526001600160a01b031660248201526044016040805180830381865afa158015610ee0573d5f803e3d5ffd5b505050506040513d601f19601f82011682018060405250810190610f049190611d5e565b91509150811580610f125750805b15610f2f5760405162bfc92160e01b815260040160405180910390fd5b5050505b5050505050565b60017f000000000000000000000000000000000000000000000000000000000000000001546001600160a01b031690565b5f807ff0c57e16840df040f15088dc2f81fe391c3923bec73e23a9662efc9c229c6a00610add565b610f9b6112ea565b610fa361130f565b565b610fad6112ea565b6102be8282611317565b7fa16a46d94261c7517cc8ff89f61c0ce93598e3c849801011dee649a6a557d10280546060915f80516020611f2e83398151915291610ff590611d8f565b80601f016020809104026020016040519081016040528092919081815260200182805461102190611d8f565b801561106c5780601f106110435761010080835404028352916020019161106c565b820191905f5260205f20905b81548152906001019060200180831161104f57829003601f168201915b505050505091505090565b7fa16a46d94261c7517cc8ff89f61c0ce93598e3c849801011dee649a6a557d10380546060915f80516020611f2e83398151915291610ff590611d8f565b7f9b779b17422d0df92223018b32b4d1fa46e071723d6817e2486d003becc55f008054600119016110f957604051633ee5aeb560e01b815260040160405180910390fd5b60029055565b73eeeeeeeeeeeeeeeeeeeeeeeeeeeeeeeeeeeeeeed196001600160a01b03841601611144578034146109e457604051632a9ffab760e21b815260040160405180910390fd5b6109e46001600160a01b038416833084611376565b73eeeeeeeeeeeeeeeeeeeeeeeeeeeeeeeeeeeeeeed196001600160a01b03841601611188576109e482826113e3565b6109e46001600160a01b038416838361146f565b60017f9b779b17422d0df92223018b32b4d1fa46e071723d6817e2486d003becc55f0055565b5f610add6111ce6114a0565b8360405161190160f01b8152600281019290925260228201526042902090565b5f805f6111fb86866114ae565b91509150815f0361121f5783818161121557611215611dc1565b0492505050611298565b8184116112365761123660038515026011186114ca565b5f848688095f868103871696879004966002600389028118808a02820302808a02820302808a02820302808a02820302808a02820302808a02909103029181900381900460010185841190960395909502919093039390930492909217029150505b9392505050565b5f6112cc6112ac836114db565b80156112c757505f84806112c2576112c2611dc1565b868809115b151590565b6112d78686866111ee565b6112e19190611dd5565b95945050505050565b6112f2611507565b610fa357604051631afcd79f60e31b815260040160405180910390fd5b61119c6112ea565b61131f6112ea565b5f80516020611f2e8339815191527fa16a46d94261c7517cc8ff89f61c0ce93598e3c849801011dee649a6a557d1026113588482611e2c565b50600381016113678382611e2c565b505f8082556001909101555050565b6040516001600160a01b0384811660248301528381166044830152606482018390526113dd9186918216906323b872dd906084015b604051602081830303815290604052915060e01b6020820180516001600160e01b038381831617835250505050611520565b50505050565b8047101561140d5760405163cf47918160e01b815247600482015260248101829052604401610662565b5f80836001600160a01b0316836040515f6040518083038185875af1925050503d805f8114611457576040519150601f19603f3d011682016040523d82523d5f602084013e61145c565b606091505b5091509150816113dd576113dd8161158c565b6040516001600160a01b038381166024830152604482018390526109e491859182169063a9059cbb906064016113ab565b5f6114a96115b8565b905090565b5f805f1983850993909202808410938190039390930393915050565b634e487b715f52806020526024601cfd5b5f60028260038111156114f0576114f0611eec565b6114fa9190611f00565b60ff166001149050919050565b5f611510610f6b565b54600160401b900460ff16919050565b5f8060205f8451602086015f885af18061153f576040513d5f823e3d81fd5b50505f513d91508115611556578060011415611563565b6001600160a01b0384163b155b156113dd57604051635274afe760e01b81526001600160a01b0385166004820152602401610662565b80511561159c5780518082602001fd5b60405163d6bda27560e01b815260040160405180910390fd5b50565b5f7f8b73c3c69bb8fe3d512ecc4cf759cc79239f7b179b0ffacaa9a75d522b39400f6115e261162b565b6115ea611693565b60408051602081019490945283019190915260608201524660808201523060a082015260c00160405160208183030381529060405280519060200120905090565b5f5f80516020611f2e83398151915281611643610fb7565b80519091501561165b57805160209091012092915050565b8154801561166a579392505050565b7fc5d2460186f7233c927e7db2dcc703c0e500b653ca82273b7bfad8045d85a470935050505090565b5f5f80516020611f2e833981519152816116ab611077565b8051909150156116c357805160209091012092915050565b6001820154801561166a579392505050565b6001600160a01b03811681146115b5575f80fd5b80356116f4816116d5565b919050565b5f60208284031215611709575f80fd5b8135611298816116d5565b5f8060208385031215611725575f80fd5b823567ffffffffffffffff8082111561173c575f80fd5b818501915085601f83011261174f575f80fd5b81358181111561175d575f80fd5b86602082850101111561176e575f80fd5b60209290920196919550909350505050565b5f81518084528060208401602086015e5f602082860101526020601f19601f83011685010191505092915050565b60ff60f81b881681525f602060e060208401526117ce60e084018a611780565b83810360408501526117e0818a611780565b606085018990526001600160a01b038816608086015260a0850187905284810360c0860152855180825260208088019350909101905f5b8181101561183357835183529284019291840191600101611817565b50909c9b505050505050505050505050565b5f8060408385031215611856575f80fd5b82356001600160e01b038116811461186c575f80fd5b9150602083013563ffffffff81168114611884575f80fd5b809150509250929050565b5f61012082840312156118a0575f80fd5b50919050565b5f805f61014084860312156118b9575f80fd5b6118c3858561188f565b925061012084013567ffffffffffffffff808211156118e0575f80fd5b818601915086601f8301126118f3575f80fd5b813581811115611901575f80fd5b8760208260051b8501011115611915575f80fd5b6020830194508093505050509250925092565b5f6101208284031215611939575f80fd5b611298838361188f565b634e487b7160e01b5f52604160045260245ffd5b604051601f8201601f1916810167ffffffffffffffff8111828210171561198057611980611943565b604052919050565b5f67ffffffffffffffff8211156119a1576119a1611943565b50601f01601f191660200190565b5f805f606084860312156119c1575f80fd5b83356119cc816116d5565b925060208401356119dc816116d5565b9150604084013567ffffffffffffffff8111156119f7575f80fd5b8401601f81018613611a07575f80fd5b8035611a1a611a1582611988565b611957565b818152876020838501011115611a2e575f80fd5b816020840160208301375f602083830101528093505050509250925092565b5f82601f830112611a5c575f80fd5b8151611a6a611a1582611988565b818152846020838601011115611a7e575f80fd5b8160208501602083015e5f918101602001919091529392505050565b5f805f60608486031215611aac575f80fd5b8351611ab7816116d5565b602085015190935067ffffffffffffffff80821115611ad4575f80fd5b611ae087838801611a4d565b93506040860151915080821115611af5575f80fd5b50611b0286828701611a4d565b9150509250925092565b805180151581146116f4575f80fd5b5f60208284031215611b2b575f80fd5b61129882611b0c565b81835281816020850137505f828201602090810191909152601f909101601f19169091010190565b602081525f611b6f602083018486611b34565b949350505050565b634e487b7160e01b5f52601160045260245ffd5b5f60018201611b9c57611b9c611b77565b5060010190565b5f60208284031215611bb3575f80fd5b8151611298816116d5565b5f8383855260208086019550808560051b830101845f5b87811015611c7c57848303601f19018952813536889003603e19018112611bfa575f80fd5b870160408135611c09816116d5565b6001600160a01b031685528186013536839003601e19018112611c2a575f80fd5b90910185810191903567ffffffffffffffff811115611c47575f80fd5b803603831315611c55575f80fd5b8187870152611c678287018285611b34565b9b87019b955050509184019150600101611bd5565b5090979650505050505050565b5f610140853583526020860135611c9f816116d5565b6001600160a01b03166020840152611cb9604087016116e9565b6001600160a01b03166040840152611cd3606087016116e9565b6001600160a01b03166060840152611ced608087016116e9565b6001600160a01b03811660808501525060a086013560a084015260c086013560c084015260e086013560e084015261010080870135818501525080610120840152611d3b8184018587611bbe565b9695505050505050565b838152604060208201525f6112e1604083018486611bbe565b5f8060408385031215611d6f575f80fd5b611d7883611b0c565b9150611d8660208401611b0c565b90509250929050565b600181811c90821680611da357607f821691505b6020821081036118a057634e487b7160e01b5f52602260045260245ffd5b634e487b7160e01b5f52601260045260245ffd5b80820180821115610add57610add611b77565b601f8211156109e457805f5260205f20601f840160051c81016020851015611e0d5750805b601f840160051c820191505b81811015610f33575f8155600101611e19565b815167ffffffffffffffff811115611e4657611e46611943565b611e5a81611e548454611d8f565b84611de8565b602080601f831160018114611e8d575f8415611e765750858301515b5f19600386901b1c1916600185901b178555611ee4565b5f85815260208120601f198616915b82811015611ebb57888601518255948401946001909101908401611e9c565b5085821015611ed857878501515f19600388901b60f8161c191681555b505060018460011b0185555b505050505050565b634e487b7160e01b5f52602160045260245ffd5b5f60ff831680611f1e57634e487b7160e01b5f52601260045260245ffd5b8060ff8416069150509291505056fea16a46d94261c7517cc8ff89f61c0ce93598e3c849801011dee649a6a557d100a264697066735822122053f4977465122814e6511a9df05cb391b7d2aa0bb46d4c6b9d2fc80ee6d3f90164736f6c63430008190033","linkReferences":{}},"methodIdentifiers":{"ORDER_TYPEHASH()":"f973a209","asset()":"38d52e0f","canBeRemoved()":"c2f21896","claim(address)":"1e83409a","claimableOf(address)":"8903ab9d","consensus()":"8ef3f761","consensusFactory()":"b219bb18","deposit((uint256,address,address,address,address,uint256,uint256,uint256,uint256),(address,bytes)[])":"c16275af","eip712Domain()":"84b0196e","handleReport(uint224,uint32)":"b8c5ea8a","hashOrder((uint256,address,address,address,address,uint256,uint256,uint256,uint256))":"c746bc98","initialize(bytes)":"439fab91","nonces(address)":"7ecebe00","validateOrder((uint256,address,address,address,address,uint256,uint256,uint256,uint256),(address,bytes)[])":"f7598a63","vault()":"fbfa77cf"},"id":139}