{"abi":[{"type":"function","name":"calculateHash","inputs":[{"name":"bitmask","type":"bytes","internalType":"bytes"},{"name":"who","type":"address","internalType":"address"},{"name":"where","type":"address","internalType":"address"},{"name":"value","type":"uint256","internalType":"uint256"},{"name":"data","type":"bytes","internalType":"bytes"}],"outputs":[{"name":"","type":"bytes32","internalType":"bytes32"}],"stateMutability":"pure"},{"type":"function","name":"verifyCall","inputs":[{"name":"who","type":"address","internalType":"address"},{"name":"where","type":"address","internalType":"address"},{"name":"value","type":"uint256","internalType":"uint256"},{"name":"data","type":"bytes","internalType":"bytes"},{"name":"verificationData","type":"bytes","internalType":"bytes"}],"outputs":[{"name":"","type":"bool","internalType":"bool"}],"stateMutability":"pure"}],"bytecode":{"object":"0x6080604052348015600e575f80fd5b506104988061001c5f395ff3fe608060405234801561000f575f80fd5b5060043610610034575f3560e01c806370e46bcb14610038578063d0b8c4a914610060575b5f80fd5b61004b6100463660046102da565b610081565b60405190151581526020015b60405180910390f35b61007361006e36600461036e565b6100cf565b604051908152602001610057565b5f8235602080850135850190810190358061009d8860606103e5565b146100ad575f93505050506100c4565b6100bc82828d8d8d8d8d6100cf565b831493505050505b979650505050505050565b5f80806bffffffffffffffffffffffff19606089901b166100f36020838c8e61040a565b6100fc91610431565b16604051602001610117929190918252602082015260400190565b60408051601f198184030181529181528151602092830120925082916bffffffffffffffffffffffff1960608a901b1691610153918c8e61040a565b61015c91610431565b16604051602001610177929190918252602082015260400190565b60405160208183030381529060405280519060200120905080855f1b8a8a6040906060926101a79392919061040a565b6101b091610431565b166040516020016101cb929190918252602082015260400190565b6040516020818303038152906040528051906020012090505f5b8381101561026d57818a8a6101fb8460606103e5565b81811061020a5761020a61044e565b9050013560f81c60f81b8686848181106102265761022661044e565b604080516020810196909652920135929092166001600160f81b031916908301525060410160408051601f19818403018152919052805160209091012091506001016101e5565b5098975050505050505050565b80356001600160a01b0381168114610290575f80fd5b919050565b5f8083601f8401126102a5575f80fd5b50813567ffffffffffffffff8111156102bc575f80fd5b6020830191508360208285010111156102d3575f80fd5b9250929050565b5f805f805f805f60a0888a0312156102f0575f80fd5b6102f98861027a565b96506103076020890161027a565b955060408801359450606088013567ffffffffffffffff8082111561032a575f80fd5b6103368b838c01610295565b909650945060808a013591508082111561034e575f80fd5b5061035b8a828b01610295565b989b979a50959850939692959293505050565b5f805f805f805f60a0888a031215610384575f80fd5b873567ffffffffffffffff8082111561039b575f80fd5b6103a78b838c01610295565b90995097508791506103bb60208b0161027a565b96506103c960408b0161027a565b955060608a0135945060808a013591508082111561034e575f80fd5b8082018082111561040457634e487b7160e01b5f52601160045260245ffd5b92915050565b5f8085851115610418575f80fd5b83861115610424575f80fd5b5050820193919092039150565b80356020831015610404575f19602084900360031b1b1692915050565b634e487b7160e01b5f52603260045260245ffdfea2646970667358221220be1d6d144158533863283032311004b2f5428f8b14ad463c3bdfa662cf3e1fdb64736f6c63430008190033","linkReferences":{}},"methodIdentifiers":{"calculateHash(bytes,address,address,uint256,bytes)":"d0b8c4a9","verifyCall(address,address,uint256,bytes,bytes)":"70e46bcb"},"id":128}