{"abi":[{"type":"constructor","inputs":[{"name":"name_","type":"string","internalType":"string"},{"name":"version_","type":"uint256","internalType":"uint256"}],"stateMutability":"nonpayable"},{"type":"function","name":"baseAsset","inputs":[{"name":"vault","type":"address","internalType":"address"}],"outputs":[{"name":"","type":"address","internalType":"address"}],"stateMutability":"view"},{"type":"function","name":"calculateDepositFee","inputs":[{"name":"shares","type":"uint256","internalType":"uint256"}],"outputs":[{"name":"","type":"uint256","internalType":"uint256"}],"stateMutability":"view"},{"type":"function","name":"calculateFee","inputs":[{"name":"vault","type":"address","internalType":"address"},{"name":"asset","type":"address","internalType":"address"},{"name":"priceD18","type":"uint256","internalType":"uint256"},{"name":"totalShares","type":"uint256","internalType":"uint256"}],"outputs":[{"name":"shares","type":"uint256","internalType":"uint256"}],"stateMutability":"view"},{"type":"function","name":"calculateRedeemFee","inputs":[{"name":"shares","type":"uint256","internalType":"uint256"}],"outputs":[{"name":"","type":"uint256","internalType":"uint256"}],"stateMutability":"view"},{"type":"function","name":"depositFeeD6","inputs":[],"outputs":[{"name":"","type":"uint24","internalType":"uint24"}],"stateMutability":"view"},{"type":"function","name":"feeRecipient","inputs":[],"outputs":[{"name":"","type":"address","internalType":"address"}],"stateMutability":"view"},{"type":"function","name":"initialize","inputs":[{"name":"data","type":"bytes","internalType":"bytes"}],"outputs":[],"stateMutability":"nonpayable"},{"type":"function","name":"minPriceD18","inputs":[{"name":"vault","type":"address","internalType":"address"}],"outputs":[{"name":"","type":"uint256","internalType":"uint256"}],"stateMutability":"view"},{"type":"function","name":"owner","inputs":[],"outputs":[{"name":"","type":"address","internalType":"address"}],"stateMutability":"view"},{"type":"function","name":"performanceFeeD6","inputs":[],"outputs":[{"name":"","type":"uint24","internalType":"uint24"}],"stateMutability":"view"},{"type":"function","name":"protocolFeeD6","inputs":[],"outputs":[{"name":"","type":"uint24","internalType":"uint24"}],"stateMutability":"view"},{"type":"function","name":"redeemFeeD6","inputs":[],"outputs":[{"name":"","type":"uint24","internalType":"uint24"}],"stateMutability":"view"},{"type":"function","name":"renounceOwnership","inputs":[],"outputs":[],"stateMutability":"nonpayable"},{"type":"function","name":"setBaseAsset","inputs":[{"name":"vault","type":"address","internalType":"address"},{"name":"baseAsset_","type":"address","internalType":"address"}],"outputs":[],"stateMutability":"nonpayable"},{"type":"function","name":"setFeeRecipient","inputs":[{"name":"feeRecipient_","type":"address","internalType":"address"}],"outputs":[],"stateMutability":"nonpayable"},{"type":"function","name":"setFees","inputs":[{"name":"depositFeeD6_","type":"uint24","internalType":"uint24"},{"name":"redeemFeeD6_","type":"uint24","internalType":"uint24"},{"name":"performanceFeeD6_","type":"uint24","internalType":"uint24"},{"name":"protocolFeeD6_","type":"uint24","internalType":"uint24"}],"outputs":[],"stateMutability":"nonpayable"},{"type":"function","name":"timestamps","inputs":[{"name":"vault","type":"address","internalType":"address"}],"outputs":[{"name":"","type":"uint256","internalType":"uint256"}],"stateMutability":"view"},{"type":"function","name":"transferOwnership","inputs":[{"name":"newOwner","type":"address","internalType":"address"}],"outputs":[],"stateMutability":"nonpayable"},{"type":"function","name":"updateState","inputs":[{"name":"asset","type":"address","internalType":"address"},{"name":"priceD18","type":"uint256","internalType":"uint256"}],"outputs":[],"stateMutability":"nonpayable"},{"type":"event","name":"Initialized","inputs":[{"name":"version","type":"uint64","indexed":false,"internalType":"uint64"}],"anonymous":false},{"type":"event","name":"Initialized","inputs":[{"name":"initParams","type":"bytes","indexed":false,"internalType":"bytes"}],"anonymous":false},{"type":"event","name":"OwnershipTransferred","inputs":[{"name":"previousOwner","type":"address","indexed":true,"internalType":"address"},{"name":"newOwner","type":"address","indexed":true,"internalType":"address"}],"anonymous":false},{"type":"event","name":"SetBaseAsset","inputs":[{"name":"vault","type":"address","indexed":true,"internalType":"address"},{"name":"baseAsset","type":"address","indexed":true,"internalType":"address"}],"anonymous":false},{"type":"event","name":"SetFeeRecipient","inputs":[{"name":"feeRecipient","type":"address","indexed":true,"internalType":"address"}],"anonymous":false},{"type":"event","name":"SetFees","inputs":[{"name":"depositFeeD6","type":"uint24","indexed":false,"internalType":"uint24"},{"name":"redeemFeeD6","type":"uint24","indexed":false,"internalType":"uint24"},{"name":"performanceFeeD6","type":"uint24","indexed":false,"internalType":"uint24"},{"name":"protocolFeeD6","type":"uint24","indexed":false,"internalType":"uint24"}],"anonymous":false},{"type":"event","name":"UpdateState","inputs":[{"name":"vault","type":"address","indexed":true,"internalType":"address"},{"name":"asset","type":"address","indexed":true,"internalType":"address"},{"name":"priceD18","type":"uint256","indexed":false,"internalType":"uint256"}],"anonymous":false},{"type":"error","name":"BaseAssetAlreadySet","inputs":[{"name":"vault","type":"address","internalType":"address"},{"name":"baseAsset","type":"address","internalType":"address"}]},{"type":"error","name":"InvalidFees","inputs":[{"name":"depositFeeD6","type":"uint24","internalType":"uint24"},{"name":"redeemFeeD6","type":"uint24","internalType":"uint24"},{"name":"performanceFeeD6","type":"uint24","internalType":"uint24"},{"name":"protocolFeeD6","type":"uint24","internalType":"uint24"}]},{"type":"error","name":"InvalidInitialization","inputs":[]},{"type":"error","name":"NotInitializing","inputs":[]},{"type":"error","name":"OwnableInvalidOwner","inputs":[{"name":"owner","type":"address","internalType":"address"}]},{"type":"error","name":"OwnableUnauthorizedAccount","inputs":[{"name":"account","type":"address","internalType":"address"}]},{"type":"error","name":"ZeroAddress","inputs":[]}],"bytecode":{"object":"0x60a060405234801561000f575f80fd5b5060405161144838038061144883398101604081905261002e916101b8565b60408051808201909152600a8152692332b2a6b0b730b3b2b960b11b602082015261005a90838361006c565b6080526100656100dd565b50506102ea565b5f60ff5f1b19600185858560405160200161008993929190610283565b604051602081830303815290604052805190602001205f1c6100ab91906102cb565b6040516020016100bd91815260200190565b604051602081830303815290604052805190602001201690509392505050565b5f6100e661017a565b805490915068010000000000000000900460ff16156101185760405163f92ee8a960e01b815260040160405180910390fd5b80546001600160401b03908116146101775780546001600160401b0319166001600160401b0390811782556040519081527fc7f505b2f371ae2175ee4913f4499e1f2633a7b5936321eed1cdaeb6115181d29060200160405180910390a15b50565b5f807ff0c57e16840df040f15088dc2f81fe391c3923bec73e23a9662efc9c229c6a005b92915050565b634e487b7160e01b5f52604160045260245ffd5b5f80604083850312156101c9575f80fd5b82516001600160401b03808211156101df575f80fd5b818501915085601f8301126101f2575f80fd5b815181811115610204576102046101a4565b604051601f8201601f19908116603f0116810190838211818310171561022c5761022c6101a4565b81604052828152886020848701011115610244575f80fd5b8260208601602083015e5f602084830101528096505050505050602083015190509250929050565b5f81518060208401855e5f93019283525090919050565b7f6d656c6c6f772e666c657869626c652d7661756c74732e73746f726167652e0081525f6102bd6102b7601f84018761026c565b8561026c565b928352505060200192915050565b8181038181111561019e57634e487b7160e01b5f52601160045260245ffd5b6080516110eb61035d5f395f8181610141015281816101d501528181610233015281816102c30152818161030301528181610351015281816103b4015281816104380152818161052401528181610720015281816108130152818161085301528181610a750152610b4401526110eb5ff3fe608060405234801561000f575f80fd5b506004361061011c575f3560e01c80638da5cb5b116100a9578063e0e193a21161006e578063e0e193a21461033c578063e3707d181461034f578063e74b981b14610382578063e9c98e6814610395578063f2fde38b146103df575f80fd5b80638da5cb5b14610274578063980679e2146102a45780639ae26062146102ee578063a51fac2214610301578063bf9587fb14610334575f80fd5b806346904840116100ef57806346904840146101d357806346f6cd2714610203578063715018a6146102165780637f0c60101461021e5780638005c6de14610231575f80fd5b806319b3ebea146101205780631ded75b41461018a578063247d284b1461019f578063439fab91146101c0575b5f80fd5b61016d61012e366004610dc2565b6001600160a01b039081165f90815260037f00000000000000000000000000000000000000000000000000000000000000000160205260409020541690565b6040516001600160a01b0390911681526020015b60405180910390f35b61019d610198366004610ddd565b6103f2565b005b6101b26101ad366004610e14565b61051a565b604051908152602001610181565b61019d6101ce366004610e2b565b610573565b7f0000000000000000000000000000000000000000000000000000000000000000546001600160a01b031661016d565b61019d610211366004610eae565b6106df565b61019d6106f9565b6101b261022c366004610e14565b61070c565b7f000000000000000000000000000000000000000000000000000000000000000054600160e81b900462ffffff165b60405162ffffff9091168152602001610181565b7f9016d09d72d40fdae2fd8ceac6b6234c7706214fd39c1cd1e609a0528c199300546001600160a01b031661016d565b6101b26102b2366004610dc2565b6001600160a01b03165f90815260027f000000000000000000000000000000000000000000000000000000000000000001602052604090205490565b61019d6102fc366004610eff565b610719565b7f000000000000000000000000000000000000000000000000000000000000000054600160d01b900462ffffff16610260565b610260610811565b6101b261034a366004610f29565b610842565b7f000000000000000000000000000000000000000000000000000000000000000054600160a01b900462ffffff16610260565b61019d610390366004610dc2565b61096a565b6101b26103a3366004610dc2565b6001600160a01b03165f90815260017f000000000000000000000000000000000000000000000000000000000000000001602052604090205490565b61019d6103ed366004610dc2565b61097e565b6103fa6109b8565b6001600160a01b038216158061041757506001600160a01b038116155b156104355760405163d92e233d60e01b815260040160405180910390fd5b5f7f00000000000000000000000000000000000000000000000000000000000000006001600160a01b038481165f90815260038301602052604090205491925016156104c1576001600160a01b038381165f81815260038401602052604090819020549051635e7b423360e11b8152600481019290925290911660248201526044015b60405180910390fd5b6001600160a01b038381165f81815260038401602052604080822080546001600160a01b0319169487169485179055517f3b2050d40f5dc88f766d8678058178aab19aa9c73a67800b54628ff5b3bd15f69190a3505050565b5f620f42406105547f00000000000000000000000000000000000000000000000000000000000000005462ffffff600160a01b9091041690565b6105639062ffffff1684610f80565b61056d9190610fab565b92915050565b5f61057c610a13565b805490915060ff600160401b820416159067ffffffffffffffff165f811580156105a35750825b90505f8267ffffffffffffffff1660011480156105bf5750303b155b9050811580156105cd575080155b156105eb5760405163f92ee8a960e01b815260040160405180910390fd5b845467ffffffffffffffff19166001178555831561061557845460ff60401b1916600160401b1785555b5f80808080806106278c8e018e610fca565b95509550955095509550955061063c86610a3b565b61064585610a4c565b61065184848484610adb565b7f5e399709a9ff1709f6f6be7268c8e5c3eeaa9da9cd9797e78f07ef287c3717fe8d8d60405161068292919061103e565b60405180910390a150505050505083156106d657845460ff60401b19168555604051600181527fc7f505b2f371ae2175ee4913f4499e1f2633a7b5936321eed1cdaeb6115181d29060200160405180910390a15b50505050505050565b6106e76109b8565b6106f384848484610adb565b50505050565b6107016109b8565b61070a5f610c1a565b565b5f620f4240610554610811565b335f8181527f0000000000000000000000000000000000000000000000000000000000000000600381016020526040909120549091906001600160a01b038581169116146107675750505050565b6001600160a01b0381165f90815260028301602052604090205480158061078d57508381115b156107af576001600160a01b0382165f90815260028401602052604090208490555b6001600160a01b038083165f8181526001860160205260409081902042905551918716917f460d73b7c22bbbab34011f9b96d35654d7648b64131f49c795324b961eeb3925906108029088815260200190565b60405180910390a35050505050565b7f000000000000000000000000000000000000000000000000000000000000000054600160b81b900462ffffff1690565b6001600160a01b038481165f9081527f0000000000000000000000000000000000000000000000000000000000000000600381016020526040822054919290918116908616036108f4576001600160a01b0386165f90815260028201602052604090205480851080156108b457508015155b156108f2576108ef6108c6868361106c565b83546108df908790600160d01b900462ffffff16610f80565b69d3c21bcecceda1000000610c8a565b92505b505b6001600160a01b0386165f908152600182016020526040902054801580159061091c57508042115b15610960576109538461092f834261106c565b84546109479190600160e81b900462ffffff16610f80565b651cae8c13e000610c8a565b61095d908461107f565b92505b5050949350505050565b6109726109b8565b61097b81610a4c565b50565b6109866109b8565b6001600160a01b0381166109af57604051631e4fbdf760e01b81525f60048201526024016104b8565b61097b81610c1a565b336109ea7f9016d09d72d40fdae2fd8ceac6b6234c7706214fd39c1cd1e609a0528c199300546001600160a01b031690565b6001600160a01b03161461070a5760405163118cdaa760e01b81523360048201526024016104b8565b5f807ff0c57e16840df040f15088dc2f81fe391c3923bec73e23a9662efc9c229c6a0061056d565b610a43610d3b565b61097b81610d60565b6001600160a01b038116610a735760405163d92e233d60e01b815260040160405180910390fd5b7f000000000000000000000000000000000000000000000000000000000000000080546001600160a01b0319166001600160a01b03831690811782556040517f2e979f80fe4d43055c584cf4a8467c55875ea36728fc37176c05acd784eb7a73905f90a25050565b620f42408183610aeb8688611092565b610af59190611092565b610aff9190611092565b62ffffff161115610b4257604051630e9b677f60e11b815262ffffff808616600483015280851660248301528084166044830152821660648201526084016104b8565b7f0000000000000000000000000000000000000000000000000000000000000000805462ffffff838116600160e81b81026001600160e81b03878416600160d01b8102919091166001600160d01b038a8616600160b81b810262ffffff60b81b19978e16600160a01b81029890981665ffffffffffff60a01b199099169890981797909717161791909117855560408051938452602084019490945282840152606082015290517f81dd8e63f2d9b91e56d22c805329f99fda578f10e2fb1e84b7096f2b8ee4ea4c9181900360800190a15050505050565b7f9016d09d72d40fdae2fd8ceac6b6234c7706214fd39c1cd1e609a0528c19930080546001600160a01b031981166001600160a01b03848116918217845560405192169182907f8be0079c531659141344cd1fd0a4f28419497f9722a3daafe3b4186f6b6457e0905f90a3505050565b5f805f610c978686610d68565b91509150815f03610cbb57838181610cb157610cb1610f97565b0492505050610d34565b818411610cd257610cd26003851502601118610d84565b5f848688095f868103871696879004966002600389028118808a02820302808a02820302808a02820302808a02820302808a02820302808a02909103029181900381900460010185841190960395909502919093039390930492909217029150505b9392505050565b610d43610d95565b61070a57604051631afcd79f60e31b815260040160405180910390fd5b610986610d3b565b5f805f1983850993909202808410938190039390930393915050565b634e487b715f52806020526024601cfd5b5f610d9e610a13565b54600160401b900460ff16919050565b6001600160a01b038116811461097b575f80fd5b5f60208284031215610dd2575f80fd5b8135610d3481610dae565b5f8060408385031215610dee575f80fd5b8235610df981610dae565b91506020830135610e0981610dae565b809150509250929050565b5f60208284031215610e24575f80fd5b5035919050565b5f8060208385031215610e3c575f80fd5b823567ffffffffffffffff80821115610e53575f80fd5b818501915085601f830112610e66575f80fd5b813581811115610e74575f80fd5b866020828501011115610e85575f80fd5b60209290920196919550909350505050565b803562ffffff81168114610ea9575f80fd5b919050565b5f805f8060808587031215610ec1575f80fd5b610eca85610e97565b9350610ed860208601610e97565b9250610ee660408601610e97565b9150610ef460608601610e97565b905092959194509250565b5f8060408385031215610f10575f80fd5b8235610f1b81610dae565b946020939093013593505050565b5f805f8060808587031215610f3c575f80fd5b8435610f4781610dae565b93506020850135610f5781610dae565b93969395505050506040820135916060013590565b634e487b7160e01b5f52601160045260245ffd5b808202811582820484141761056d5761056d610f6c565b634e487b7160e01b5f52601260045260245ffd5b5f82610fc557634e487b7160e01b5f52601260045260245ffd5b500490565b5f805f805f8060c08789031215610fdf575f80fd5b8635610fea81610dae565b95506020870135610ffa81610dae565b945061100860408801610e97565b935061101660608801610e97565b925061102460808801610e97565b915061103260a08801610e97565b90509295509295509295565b60208152816020820152818360408301375f818301604090810191909152601f909201601f19160101919050565b8181038181111561056d5761056d610f6c565b8082018082111561056d5761056d610f6c565b62ffffff8181168382160190808211156110ae576110ae610f6c565b509291505056fea2646970667358221220cbb29852bb67d686467aa46b5d23b8c027f658aeb381216108a0e6e450775d9164736f6c63430008190033","linkReferences":{}},"methodIdentifiers":{"baseAsset(address)":"19b3ebea","calculateDepositFee(uint256)":"247d284b","calculateFee(address,address,uint256,uint256)":"e0e193a2","calculateRedeemFee(uint256)":"7f0c6010","depositFeeD6()":"e3707d18","feeRecipient()":"46904840","initialize(bytes)":"439fab91","minPriceD18(address)":"980679e2","owner()":"8da5cb5b","performanceFeeD6()":"a51fac22","protocolFeeD6()":"8005c6de","redeemFeeD6()":"bf9587fb","renounceOwnership()":"715018a6","setBaseAsset(address,address)":"1ded75b4","setFeeRecipient(address)":"e74b981b","setFees(uint24,uint24,uint24,uint24)":"46f6cd27","timestamps(address)":"e9c98e68","transferOwnership(address)":"f2fde38b","updateState(address,uint256)":"9ae26062"},"id":116}