{"abi":[{"type":"function","name":"ETH","inputs":[],"outputs":[{"name":"","type":"address","internalType":"address"}],"stateMutability":"view"},{"type":"error","name":"InvalidValue","inputs":[]}],"bytecode":{"object":"0x60a26032600b8282823980515f1a607314602657634e487b7160e01b5f525f60045260245ffd5b305f52607381538281f3fe73000000000000000000000000000000000000000030146080604052600436106032575f3560e01c80638322fff2146036575b5f80fd5b605073eeeeeeeeeeeeeeeeeeeeeeeeeeeeeeeeeeeeeeee81565b6040516001600160a01b03909116815260200160405180910390f3fea26469706673582212208f219645c0de5faa8b5e737341bbbd55d9674fa29a287b0638f550c1eb8f666b64736f6c63430008190033","linkReferences":{}},"methodIdentifiers":{"ETH()":"8322fff2"},"id":114}