{"abi":[{"type":"constructor","inputs":[{"name":"name_","type":"string","internalType":"string"},{"name":"version_","type":"uint256","internalType":"uint256"}],"stateMutability":"nonpayable"},{"type":"function","name":"ACCEPT_REPORT_ROLE","inputs":[],"outputs":[{"name":"","type":"bytes32","internalType":"bytes32"}],"stateMutability":"view"},{"type":"function","name":"ADD_SUPPORTED_ASSETS_ROLE","inputs":[],"outputs":[{"name":"","type":"bytes32","internalType":"bytes32"}],"stateMutability":"view"},{"type":"function","name":"REMOVE_SUPPORTED_ASSETS_ROLE","inputs":[],"outputs":[{"name":"","type":"bytes32","internalType":"bytes32"}],"stateMutability":"view"},{"type":"function","name":"SET_SECURITY_PARAMS_ROLE","inputs":[],"outputs":[{"name":"","type":"bytes32","internalType":"bytes32"}],"stateMutability":"view"},{"type":"function","name":"SUBMIT_REPORTS_ROLE","inputs":[],"outputs":[{"name":"","type":"bytes32","internalType":"bytes32"}],"stateMutability":"view"},{"type":"function","name":"acceptReport","inputs":[{"name":"asset","type":"address","internalType":"address"},{"name":"priceD18","type":"uint256","internalType":"uint256"},{"name":"timestamp","type":"uint32","internalType":"uint32"}],"outputs":[],"stateMutability":"nonpayable"},{"type":"function","name":"addSupportedAssets","inputs":[{"name":"assets","type":"address[]","internalType":"address[]"}],"outputs":[],"stateMutability":"nonpayable"},{"type":"function","name":"getReport","inputs":[{"name":"asset","type":"address","internalType":"address"}],"outputs":[{"name":"","type":"tuple","internalType":"struct IOracle.DetailedReport","components":[{"name":"priceD18","type":"uint224","internalType":"uint224"},{"name":"timestamp","type":"uint32","internalType":"uint32"},{"name":"isSuspicious","type":"bool","internalType":"bool"}]}],"stateMutability":"view"},{"type":"function","name":"initialize","inputs":[{"name":"initParams","type":"bytes","internalType":"bytes"}],"outputs":[],"stateMutability":"nonpayable"},{"type":"function","name":"isSupportedAsset","inputs":[{"name":"asset","type":"address","internalType":"address"}],"outputs":[{"name":"","type":"bool","internalType":"bool"}],"stateMutability":"view"},{"type":"function","name":"removeSupportedAssets","inputs":[{"name":"assets","type":"address[]","internalType":"address[]"}],"outputs":[],"stateMutability":"nonpayable"},{"type":"function","name":"securityParams","inputs":[],"outputs":[{"name":"","type":"tuple","internalType":"struct IOracle.SecurityParams","components":[{"name":"maxAbsoluteDeviation","type":"uint224","internalType":"uint224"},{"name":"suspiciousAbsoluteDeviation","type":"uint224","internalType":"uint224"},{"name":"maxRelativeDeviationD18","type":"uint64","internalType":"uint64"},{"name":"suspiciousRelativeDeviationD18","type":"uint64","internalType":"uint64"},{"name":"timeout","type":"uint32","internalType":"uint32"},{"name":"depositInterval","type":"uint32","internalType":"uint32"},{"name":"redeemInterval","type":"uint32","internalType":"uint32"}]}],"stateMutability":"view"},{"type":"function","name":"setSecurityParams","inputs":[{"name":"securityParams_","type":"tuple","internalType":"struct IOracle.SecurityParams","components":[{"name":"maxAbsoluteDeviation","type":"uint224","internalType":"uint224"},{"name":"suspiciousAbsoluteDeviation","type":"uint224","internalType":"uint224"},{"name":"maxRelativeDeviationD18","type":"uint64","internalType":"uint64"},{"name":"suspiciousRelativeDeviationD18","type":"uint64","internalType":"uint64"},{"name":"timeout","type":"uint32","internalType":"uint32"},{"name":"depositInterval","type":"uint32","internalType":"uint32"},{"name":"redeemInterval","type":"uint32","internalType":"uint32"}]}],"outputs":[],"stateMutability":"nonpayable"},{"type":"function","name":"setVault","inputs":[{"name":"vault_","type":"address","internalType":"address"}],"outputs":[],"stateMutability":"nonpayable"},{"type":"function","name":"submitReports","inputs":[{"name":"reports","type":"tuple[]","internalType":"struct IOracle.Report[]","components":[{"name":"asset","type":"address","internalType":"address"},{"name":"priceD18","type":"uint224","internalType":"uint224"}]}],"outputs":[],"stateMutability":"nonpayable"},{"type":"function","name":"supportedAssetAt","inputs":[{"name":"index","type":"uint256","internalType":"uint256"}],"outputs":[{"name":"","type":"address","internalType":"address"}],"stateMutability":"view"},{"type":"function","name":"supportedAssets","inputs":[],"outputs":[{"name":"","type":"uint256","internalType":"uint256"}],"stateMutability":"view"},{"type":"function","name":"validatePrice","inputs":[{"name":"priceD18","type":"uint256","internalType":"uint256"},{"name":"asset","type":"address","internalType":"address"}],"outputs":[{"name":"isValid","type":"bool","internalType":"bool"},{"name":"isSuspicious","type":"bool","internalType":"bool"}],"stateMutability":"view"},{"type":"function","name":"vault","inputs":[],"outputs":[{"name":"","type":"address","internalType":"contract IShareModule"}],"stateMutability":"view"},{"type":"event","name":"Initialized","inputs":[{"name":"version","type":"uint64","indexed":false,"internalType":"uint64"}],"anonymous":false},{"type":"event","name":"Initialized","inputs":[{"name":"initParams","type":"bytes","indexed":false,"internalType":"bytes"}],"anonymous":false},{"type":"event","name":"ReportAccepted","inputs":[{"name":"asset","type":"address","indexed":true,"internalType":"address"},{"name":"priceD18","type":"uint224","indexed":true,"internalType":"uint224"},{"name":"timestamp","type":"uint32","indexed":true,"internalType":"uint32"}],"anonymous":false},{"type":"event","name":"ReportsSubmitted","inputs":[{"name":"reports","type":"tuple[]","indexed":false,"internalType":"struct IOracle.Report[]","components":[{"name":"asset","type":"address","internalType":"address"},{"name":"priceD18","type":"uint224","internalType":"uint224"}]}],"anonymous":false},{"type":"event","name":"SecurityParamsSet","inputs":[{"name":"securityParams","type":"tuple","indexed":false,"internalType":"struct IOracle.SecurityParams","components":[{"name":"maxAbsoluteDeviation","type":"uint224","internalType":"uint224"},{"name":"suspiciousAbsoluteDeviation","type":"uint224","internalType":"uint224"},{"name":"maxRelativeDeviationD18","type":"uint64","internalType":"uint64"},{"name":"suspiciousRelativeDeviationD18","type":"uint64","internalType":"uint64"},{"name":"timeout","type":"uint32","internalType":"uint32"},{"name":"depositInterval","type":"uint32","internalType":"uint32"},{"name":"redeemInterval","type":"uint32","internalType":"uint32"}]}],"anonymous":false},{"type":"event","name":"SetVault","inputs":[{"name":"vault","type":"address","indexed":true,"internalType":"address"}],"anonymous":false},{"type":"event","name":"SupportedAssetsAdded","inputs":[{"name":"assets","type":"address[]","indexed":false,"internalType":"address[]"}],"anonymous":false},{"type":"event","name":"SupportedAssetsRemoved","inputs":[{"name":"assets","type":"address[]","indexed":false,"internalType":"address[]"}],"anonymous":false},{"type":"error","name":"AlreadySupportedAsset","inputs":[{"name":"asset","type":"address","internalType":"address"}]},{"type":"error","name":"Forbidden","inputs":[]},{"type":"error","name":"InvalidInitialization","inputs":[]},{"type":"error","name":"InvalidPrice","inputs":[{"name":"priceD18","type":"uint256","internalType":"uint256"}]},{"type":"error","name":"InvalidReport","inputs":[]},{"type":"error","name":"NotInitializing","inputs":[]},{"type":"error","name":"ReentrancyGuardReentrantCall","inputs":[]},{"type":"error","name":"TooEarly","inputs":[{"name":"timestamp","type":"uint256","internalType":"uint256"},{"name":"minTimestamp","type":"uint256","internalType":"uint256"}]},{"type":"error","name":"UnsupportedAsset","inputs":[{"name":"asset","type":"address","internalType":"address"}]},{"type":"error","name":"ZeroValue","inputs":[]}],"bytecode":{"object":"0x60a060405234801561000f575f80fd5b506040516123a13803806123a183398101604081905261002e916101b4565b6040805180820190915260068152654f7261636c6560d01b6020820152610056908383610068565b6080526100616100d9565b50506102e6565b5f60ff5f1b1960018585856040516020016100859392919061027f565b604051602081830303815290604052805190602001205f1c6100a791906102c7565b6040516020016100b991815260200190565b604051602081830303815290604052805190602001201690509392505050565b5f6100e2610176565b805490915068010000000000000000900460ff16156101145760405163f92ee8a960e01b815260040160405180910390fd5b80546001600160401b03908116146101735780546001600160401b0319166001600160401b0390811782556040519081527fc7f505b2f371ae2175ee4913f4499e1f2633a7b5936321eed1cdaeb6115181d29060200160405180910390a15b50565b5f807ff0c57e16840df040f15088dc2f81fe391c3923bec73e23a9662efc9c229c6a005b92915050565b634e487b7160e01b5f52604160045260245ffd5b5f80604083850312156101c5575f80fd5b82516001600160401b03808211156101db575f80fd5b818501915085601f8301126101ee575f80fd5b815181811115610200576102006101a0565b604051601f8201601f19908116603f01168101908382118183101715610228576102286101a0565b81604052828152886020848701011115610240575f80fd5b8260208601602083015e5f602084830101528096505050505050602083015190509250929050565b5f81518060208401855e5f93019283525090919050565b7f6d656c6c6f772e666c657869626c652d7661756c74732e73746f726167652e0081525f6102b96102b3601f840187610268565b85610268565b928352505060200192915050565b8181038181111561019a57634e487b7160e01b5f52601160045260245ffd5b6080516120a36102fe5f395f61114101526120a35ff3fe608060405234801561000f575f80fd5b506004361061011c575f3560e01c8063816c8850116100a9578063a3bdae3e1161006e578063a3bdae3e146102d0578063a80ce55c14610316578063c663be591461031e578063d4ad5f3814610331578063fbfa77cf14610358575f80fd5b8063816c8850146102365780638f88cbfb146102605780638fe4d996146102735780639be918e6146102865780639f79f613146102a9575f80fd5b806358f3d554116100ef57806358f3d554146101c15780636094fd57146101d45780636817031b146101e95780636c038d03146101fc57806375a3eea41461020f575f80fd5b8063074cd3531461012057806342c74b191461015a578063439fab911461018557806356679cf41461019a575b5f80fd5b6101477f79abe62d91dbd05fcda41b212f4c8c1f1d8be54ccddf859de3ccd1361b71fcb681565b6040519081526020015b60405180910390f35b61016d6101683660046119ae565b610360565b6040516001600160a01b039091168152602001610151565b6101986101933660046119c5565b61037c565b005b6101477f341f4b58682c3a888bdb3eb9a8a4452a6e847be8a380eb3d742794b4f9ac0ab381565b6101986101cf366004611a30565b6104ae565b6101dc61058c565b6040516101519190611a46565b6101986101f7366004611ad7565b61064e565b61019861020a366004611b03565b6106f1565b6101477f73c07eddbe5b5274995c8e6cbe94d644cedc04911df3baf934188d230ca7a2cd81565b610249610244366004611b3c565b61095b565b604080519215158352901515602083015201610151565b61019861026e366004611b66565b610a38565b610198610281366004611bc2565b610d6a565b610299610294366004611ad7565b610e68565b6040519015158152602001610151565b6101477f748ab7827e75e9f34387e3ded8598f06eb04cc7bb90fff07bc6dc2a74837702181565b6102e36102de366004611ad7565b610e7e565b6040805182516001600160e01b0316815260208084015163ffffffff169082015291810151151590820152606001610151565b610147610f37565b61019861032c366004611bc2565b610f50565b6101477fb54eea9408efadf36da92cc5ecd8af0f45d6dd90de54634bbc5a2113ddcb505d81565b61016d611127565b5f6103768261036d61113f565b60040190611163565b92915050565b5f610385611175565b805490915060ff600160401b82041615906001600160401b03165f811580156103ab5750825b90505f826001600160401b031660011480156103c65750303b155b9050811580156103d4575080155b156103f25760405163f92ee8a960e01b815260040160405180910390fd5b845467ffffffffffffffff19166001178555831561041c57845460ff60401b1916600160401b1785555b610426878761119d565b7f5e399709a9ff1709f6f6be7268c8e5c3eeaa9da9cd9797e78f07ef287c3717fe8787604051610457929190611c1e565b60405180910390a183156104a557845460ff60401b19168555604051600181527fc7f505b2f371ae2175ee4913f4499e1f2633a7b5936321eed1cdaeb6115181d29060200160405180910390a15b50505050505050565b7f79abe62d91dbd05fcda41b212f4c8c1f1d8be54ccddf859de3ccd1361b71fcb66104d761113f565b546001600160a01b03166391d1485482336040516001600160e01b031960e085901b16815260048101929092526001600160a01b03166024820152604401602060405180830381865afa158015610530573d5f803e3d5ffd5b505050506040513d601f19601f820116820180604052508101906105549190611c4c565b61057157604051631dd2188d60e31b815260040160405180910390fd5b61058861058336849003840184611d8b565b6111d7565b5050565b6040805160e0810182525f80825260208201819052918101829052606081018290526080810182905260a0810182905260c08101919091526105cc61113f565b6040805160e08101825260018301546001600160e01b03908116825260028401541660208201526003909201546001600160401b0380821692840192909252600160401b8104909116606083015263ffffffff600160801b820481166080840152600160a01b8204811660a0840152600160c01b9091041660c0820152919050565b6001600160a01b03811661067557604051637c946ed760e01b815260040160405180910390fd5b5f61067e61113f565b80549091506001600160a01b0316156106aa5760405163f92ee8a960e01b815260040160405180910390fd5b80546001600160a01b0319166001600160a01b03831690811782556040517fd459c7242e23d490831b5676a611c4342d899d28f342d89ae80793e56a930f30905f90a25050565b6106f96113a2565b7f341f4b58682c3a888bdb3eb9a8a4452a6e847be8a380eb3d742794b4f9ac0ab361072261113f565b546001600160a01b03166391d1485482336040516001600160e01b031960e085901b16815260048101929092526001600160a01b03166024820152604401602060405180830381865afa15801561077b573d5f803e3d5ffd5b505050506040513d601f19601f8201168201806040525081019061079f9190611c4c565b6107bc57604051631dd2188d60e31b815260040160405180910390fd5b5f6107c561113f565b6001600160a01b0386165f908152600682016020526040902060018101549192509060ff161580610800575080546001600160e01b03168514155b8061081c5750805463ffffffff858116600160e01b9092041614155b1561083a57604051632d56b1d560e21b815260040160405180910390fd5b6001818101805460ff19169055825482546003850154928501926001600160a01b039092169163974d942e918a916001600160e01b039091169061088b90600160a01b900463ffffffff168a611db9565b60028601546108a790600160c01b900463ffffffff168b611db9565b6040518563ffffffff1660e01b81526004016108c69493929190611dd6565b5f604051808303815f87803b1580156108dd575f80fd5b505af11580156108ef573d5f803e3d5ffd5b5050835460405163ffffffff891693506001600160e01b0390911691506001600160a01b038a16907f3a1824dfb9fd7ed29622fdd2dbee7465c0a7c183a50399f3c22dd93275eb81e8905f90a45050505061095660015f8051602061204e83398151915255565b505050565b5f805f61096661113f565b905061097560048201856113ec565b610985575f809250925050610a31565b6001600160a01b0384165f908152600682016020908152604091829020825160e08101845260018501546001600160e01b0390811682526002860154169281019290925260038401546001600160401b0380821694840194909452600160401b8104909316606083015263ffffffff600160801b840481166080840152600160a01b8404811660a0840152600160c01b90930490921660c0820152610a2b91879161140d565b92509250505b9250929050565b610a406113a2565b7fb54eea9408efadf36da92cc5ecd8af0f45d6dd90de54634bbc5a2113ddcb505d610a6961113f565b546001600160a01b03166391d1485482336040516001600160e01b031960e085901b16815260048101929092526001600160a01b03166024820152604401602060405180830381865afa158015610ac2573d5f803e3d5ffd5b505050506040513d601f19601f82011682018060405250810190610ae69190611c4c565b610b0357604051631dd2188d60e31b815260040160405180910390fd5b5f610b0c61113f565b6040805160e08101825260018301546001600160e01b039081168252600284015416602082015260038301546001600160401b0380821693830193909352600160401b8104909216606082015263ffffffff600160801b830481166080830152600160a01b8304811660a08301819052600160c01b9093041660c08201529192505f90610b999042611e0e565b90505f8260c0015163ffffffff1642610bb29190611e0e565b84549091506001600160a01b031660048501600686015f5b89811015610d1257368b8b83818110610be557610be5611e21565b604002919091019150610c079050610c006020830183611ad7565b85906113ec565b610c4257610c186020820182611ad7565b60405163ee84f40b60e01b81526001600160a01b0390911660048201526024015b60405180910390fd5b610c8988610c566040840160208501611e35565b855f610c656020870187611ad7565b6001600160a01b03166001600160a01b031681526020019081526020015f2061150b565b15610d09576001600160a01b03851663974d942e610caa6020840184611ad7565b610cba6040850160208601611e35565b8a8a6040518563ffffffff1660e01b8152600401610cdb9493929190611dd6565b5f604051808303815f87803b158015610cf2575f80fd5b505af1158015610d04573d5f803e3d5ffd5b505050505b50600101610bca565b507f6207881df9938c524ec52b013997b3ef32ee1920c23952e3c43835a4136ba3308a8a604051610d44929190611e4e565b60405180910390a1505050505050505061058860015f8051602061204e83398151915255565b7f73c07eddbe5b5274995c8e6cbe94d644cedc04911df3baf934188d230ca7a2cd610d9361113f565b546001600160a01b03166391d1485482336040516001600160e01b031960e085901b16815260048101929092526001600160a01b03166024820152604401602060405180830381865afa158015610dec573d5f803e3d5ffd5b505050506040513d601f19601f82011682018060405250810190610e109190611c4c565b610e2d57604051631dd2188d60e31b815260040160405180910390fd5b6109568383808060200260200160405190810160405280939291908181526020018383602002808284375f9201919091525061162892505050565b5f61037682610e7561113f565b600401906113ec565b604080516060810182525f8082526020820181905291810182905290610ea261113f565b9050610eb160048201846113ec565b610ed95760405163ee84f40b60e01b81526001600160a01b0384166004820152602401610c39565b6001600160a01b039092165f90815260069092016020908152604092839020835160608101855281546001600160e01b038116825263ffffffff600160e01b90910416928101929092526001015460ff161515928101929092525090565b5f610f4b610f4361113f565b6004016116ec565b905090565b7f748ab7827e75e9f34387e3ded8598f06eb04cc7bb90fff07bc6dc2a748377021610f7961113f565b546001600160a01b03166391d1485482336040516001600160e01b031960e085901b16815260048101929092526001600160a01b03166024820152604401602060405180830381865afa158015610fd2573d5f803e3d5ffd5b505050506040513d601f19601f82011682018060405250810190610ff69190611c4c565b61101357604051631dd2188d60e31b815260040160405180910390fd5b5f61101c61113f565b905060048101600682015f5b858110156110e55761106187878381811061104557611045611e21565b905060200201602081019061105a9190611ad7565b84906116f5565b61108c5786868281811061107757611077611e21565b9050602002016020810190610c189190611ad7565b815f8888848181106110a0576110a0611e21565b90506020020160208101906110b59190611ad7565b6001600160a01b0316815260208101919091526040015f9081209081556001908101805460ff1916905501611028565b507fc74b9ab6707f00d2a30e1b7c6481ef0ff0b4da5731dbd05125273b1511157bca8686604051611117929190611eb4565b60405180910390a1505050505050565b5f61113061113f565b546001600160a01b0316919050565b7f000000000000000000000000000000000000000000000000000000000000000090565b5f61116e8383611709565b9392505050565b5f807ff0c57e16840df040f15088dc2f81fe391c3923bec73e23a9662efc9c229c6a00610376565b6111a561172f565b6111ad611756565b5f806111bb83850185611eff565b915091506111c8826111d7565b6111d181611628565b50505050565b5f6111e061113f565b82519091506001600160e01b03161580611205575060208201516001600160e01b0316155b8061121b575060408201516001600160401b0316155b80611231575060608201516001600160401b0316155b806112445750608082015163ffffffff16155b80611257575060a082015163ffffffff16155b8061126a575060c082015163ffffffff16155b1561128857604051637c946ed760e01b815260040160405180910390fd5b81516001820180546001600160e01b039283166001600160e01b03199182161790915560208401516002840180549190931691161790556040808301516003830180546060860151608087015160a088015160c089015163ffffffff908116600160c01b0263ffffffff60c01b19928216600160a01b0263ffffffff60a01b1992909416600160801b029190911667ffffffffffffffff60801b196001600160401b03958616600160401b026fffffffffffffffffffffffffffffffff1990971695909816949094179490941795909516919091171792909216919091179055517fef8badbaaae9b3c2f8c7610a3ff289138f59c38a4f08862894f28d9ab42c112f90611396908490611a46565b60405180910390a15050565b5f8051602061204e8339815191528054600119016113d357604051633ee5aeb560e01b815260040160405180910390fd5b60029055565b60015f8051602061204e83398151915255565b6001600160a01b0381165f908152600183016020526040812054151561116e565b81545f9081906001600160e01b0316808203611430576001809250925050611503565b5f818711611447576114428783611e0e565b611451565b6114518288611e0e565b90505f61146782670de0b6b3a764000085611766565b86519091506001600160e01b031682118061148e575085604001516001600160401b031681115b156114a1575f8094509450505050611503565b600187015460ff16156114bd5760018094509450505050611503565b85602001516001600160e01b03168211806114e4575085606001516001600160401b031681115b156114f85760018094509450505050611503565b60015f945094505050505b935093915050565b80545f90600160e01b900463ffffffff161580159061154e575081546080850151429161154691600160e01b90910463ffffffff1690611fbc565b63ffffffff16115b801561155f5750600182015460ff16155b156115ad5781546080850151429161158591600160e01b90910463ffffffff1690611fbc565b60405163e58369d160e01b8152600481019290925263ffffffff166024820152604401610c39565b5f806115c3856001600160e01b0316858861140d565b91509150816115f057604051637cb1974360e11b81526001600160e01b0386166004820152602401610c39565b6001600160e01b038516600160e01b4263ffffffff160217845560018401805460ff1916911580159290921790559150509392505050565b5f61163161113f565b60040190505f5b82518110156116bc5761166d83828151811061165657611656611e21565b60200260200101518361181690919063ffffffff16565b6116b45782818151811061168357611683611e21565b602002602001015160405163f30f791160e01b8152600401610c3991906001600160a01b0391909116815260200190565b600101611638565b507f1f029c70079633ea369bfbd5e7d5a4fecb22a0747808ca4b4ad819a655b4a4cf826040516113969190611fd9565b5f610376825490565b5f61116e836001600160a01b03841661182a565b5f825f01828154811061171e5761171e611e21565b905f5260205f200154905092915050565b611737611914565b61175457604051631afcd79f60e31b815260040160405180910390fd5b565b61175e61172f565b61175461192d565b5f805f6117738686611935565b91509150815f036117975783818161178d5761178d612025565b049250505061116e565b8184116117ae576117ae6003851502601118611951565b5f848688095f868103871696879004966002600389028118808a02820302808a02820302808a02820302808a02820302808a02820302808a02909103029181900381900460010185841190960395909502919093039390930492909217029150509392505050565b5f61116e836001600160a01b038416611962565b5f8181526001830160205260408120548015611904575f61184c600183611e0e565b85549091505f9061185f90600190611e0e565b90508082146118be575f865f01828154811061187d5761187d611e21565b905f5260205f200154905080875f01848154811061189d5761189d611e21565b5f918252602080832090910192909255918252600188019052604090208390555b85548690806118cf576118cf612039565b600190038181905f5260205f20015f90559055856001015f8681526020019081526020015f205f905560019350505050610376565b5f915050610376565b5092915050565b5f61191d611175565b54600160401b900460ff16919050565b6113d961172f565b5f805f1983850993909202808410938190039390930393915050565b634e487b715f52806020526024601cfd5b5f8181526001830160205260408120546119a757508154600181810184555f848152602080822090930184905584548482528286019093526040902091909155610376565b505f610376565b5f602082840312156119be575f80fd5b5035919050565b5f80602083850312156119d6575f80fd5b82356001600160401b03808211156119ec575f80fd5b818501915085601f8301126119ff575f80fd5b813581811115611a0d575f80fd5b866020828501011115611a1e575f80fd5b60209290920196919550909350505050565b5f60e08284031215611a40575f80fd5b50919050565b5f60e08201905060018060e01b038084511683528060208501511660208401525060408301516001600160401b0380821660408501528060608601511660608501525050608083015163ffffffff80821660808501528060a08601511660a08501528060c08601511660c0850152505092915050565b80356001600160a01b0381168114611ad2575f80fd5b919050565b5f60208284031215611ae7575f80fd5b61116e82611abc565b803563ffffffff81168114611ad2575f80fd5b5f805f60608486031215611b15575f80fd5b611b1e84611abc565b925060208401359150611b3360408501611af0565b90509250925092565b5f8060408385031215611b4d575f80fd5b82359150611b5d60208401611abc565b90509250929050565b5f8060208385031215611b77575f80fd5b82356001600160401b0380821115611b8d575f80fd5b818501915085601f830112611ba0575f80fd5b813581811115611bae575f80fd5b8660208260061b8501011115611a1e575f80fd5b5f8060208385031215611bd3575f80fd5b82356001600160401b0380821115611be9575f80fd5b818501915085601f830112611bfc575f80fd5b813581811115611c0a575f80fd5b8660208260051b8501011115611a1e575f80fd5b60208152816020820152818360408301375f818301604090810191909152601f909201601f19160101919050565b5f60208284031215611c5c575f80fd5b8151801515811461116e575f80fd5b634e487b7160e01b5f52604160045260245ffd5b604051601f8201601f191681016001600160401b0381118282101715611ca757611ca7611c6b565b604052919050565b80356001600160e01b0381168114611ad2575f80fd5b80356001600160401b0381168114611ad2575f80fd5b5f60e08284031215611ceb575f80fd5b60405160e081018181106001600160401b0382111715611d0d57611d0d611c6b565b604052905080611d1c83611caf565b8152611d2a60208401611caf565b6020820152611d3b60408401611cc5565b6040820152611d4c60608401611cc5565b6060820152611d5d60808401611af0565b6080820152611d6e60a08401611af0565b60a0820152611d7f60c08401611af0565b60c08201525092915050565b5f60e08284031215611d9b575f80fd5b61116e8383611cdb565b634e487b7160e01b5f52601160045260245ffd5b63ffffffff82811682821603908082111561190d5761190d611da5565b6001600160a01b039490941684526001600160e01b0392909216602084015263ffffffff908116604084015216606082015260800190565b8181038181111561037657610376611da5565b634e487b7160e01b5f52603260045260245ffd5b5f60208284031215611e45575f80fd5b61116e82611caf565b60208082528181018390525f90604080840186845b87811015611ea7576001600160a01b03611e7c83611abc565b1683526001600160e01b03611e92838701611caf565b16838601529183019190830190600101611e63565b5090979650505050505050565b60208082528181018390525f908460408401835b86811015611ef4576001600160a01b03611ee184611abc565b1682529183019190830190600101611ec8565b509695505050505050565b5f806101008385031215611f11575f80fd5b611f1b8484611cdb565b915060e08301356001600160401b0380821115611f36575f80fd5b818501915085601f830112611f49575f80fd5b8135602082821115611f5d57611f5d611c6b565b8160051b9250611f6e818401611c7f565b8281529284018101928181019089851115611f87575f80fd5b948201945b84861015611fac57611f9d86611abc565b82529482019490820190611f8c565b8096505050505050509250929050565b63ffffffff81811683821601908082111561190d5761190d611da5565b602080825282518282018190525f9190848201906040850190845b818110156120195783516001600160a01b031683529284019291840191600101611ff4565b50909695505050505050565b634e487b7160e01b5f52601260045260245ffd5b634e487b7160e01b5f52603160045260245ffdfe9b779b17422d0df92223018b32b4d1fa46e071723d6817e2486d003becc55f00a264697066735822122003c6ca52c02ccf99e2f2afa1938c5855b4949863535f370a645cff5ef08c615264736f6c63430008190033","linkReferences":{}},"methodIdentifiers":{"ACCEPT_REPORT_ROLE()":"56679cf4","ADD_SUPPORTED_ASSETS_ROLE()":"75a3eea4","REMOVE_SUPPORTED_ASSETS_ROLE()":"9f79f613","SET_SECURITY_PARAMS_ROLE()":"074cd353","SUBMIT_REPORTS_ROLE()":"d4ad5f38","acceptReport(address,uint256,uint32)":"6c038d03","addSupportedAssets(address[])":"8fe4d996","getReport(address)":"a3bdae3e","initialize(bytes)":"439fab91","isSupportedAsset(address)":"9be918e6","removeSupportedAssets(address[])":"c663be59","securityParams()":"6094fd57","setSecurityParams((uint224,uint224,uint64,uint64,uint32,uint32,uint32))":"58f3d554","setVault(address)":"6817031b","submitReports((address,uint224)[])":"8f88cbfb","supportedAssetAt(uint256)":"42c74b19","supportedAssets()":"a80ce55c","validatePrice(uint256,address)":"816c8850","vault()":"fbfa77cf"},"id":127}