{"abi":[{"type":"constructor","inputs":[{"name":"vaultFactory_","type":"address","internalType":"address"},{"name":"farmFactory_","type":"address","internalType":"address"},{"name":"name_","type":"string","internalType":"string"},{"name":"version_","type":"uint256","internalType":"uint256"}],"stateMutability":"nonpayable"},{"type":"function","name":"CALLER_ROLE","inputs":[],"outputs":[{"name":"","type":"bytes32","internalType":"bytes32"}],"stateMutability":"view"},{"type":"function","name":"DEFAULT_ADMIN_ROLE","inputs":[],"outputs":[{"name":"","type":"bytes32","internalType":"bytes32"}],"stateMutability":"view"},{"type":"function","name":"MELLOW_VAULT_ROLE","inputs":[],"outputs":[{"name":"","type":"bytes32","internalType":"bytes32"}],"stateMutability":"view"},{"type":"function","name":"SYMBIOTIC_FARM_ROLE","inputs":[],"outputs":[{"name":"","type":"bytes32","internalType":"bytes32"}],"stateMutability":"view"},{"type":"function","name":"SYMBIOTIC_VAULT_ROLE","inputs":[],"outputs":[{"name":"","type":"bytes32","internalType":"bytes32"}],"stateMutability":"view"},{"type":"function","name":"farmFactory","inputs":[],"outputs":[{"name":"","type":"address","internalType":"contract ISymbioticRegistry"}],"stateMutability":"view"},{"type":"function","name":"getRoleAdmin","inputs":[{"name":"role","type":"bytes32","internalType":"bytes32"}],"outputs":[{"name":"","type":"bytes32","internalType":"bytes32"}],"stateMutability":"view"},{"type":"function","name":"getRoleMember","inputs":[{"name":"role","type":"bytes32","internalType":"bytes32"},{"name":"index","type":"uint256","internalType":"uint256"}],"outputs":[{"name":"","type":"address","internalType":"address"}],"stateMutability":"view"},{"type":"function","name":"getRoleMemberCount","inputs":[{"name":"role","type":"bytes32","internalType":"bytes32"}],"outputs":[{"name":"","type":"uint256","internalType":"uint256"}],"stateMutability":"view"},{"type":"function","name":"getRoleMembers","inputs":[{"name":"role","type":"bytes32","internalType":"bytes32"}],"outputs":[{"name":"","type":"address[]","internalType":"address[]"}],"stateMutability":"view"},{"type":"function","name":"grantRole","inputs":[{"name":"role","type":"bytes32","internalType":"bytes32"},{"name":"account","type":"address","internalType":"address"}],"outputs":[],"stateMutability":"nonpayable"},{"type":"function","name":"hasRole","inputs":[{"name":"role","type":"bytes32","internalType":"bytes32"},{"name":"account","type":"address","internalType":"address"}],"outputs":[{"name":"","type":"bool","internalType":"bool"}],"stateMutability":"view"},{"type":"function","name":"hasSupportedRole","inputs":[{"name":"role","type":"bytes32","internalType":"bytes32"}],"outputs":[{"name":"","type":"bool","internalType":"bool"}],"stateMutability":"view"},{"type":"function","name":"initialize","inputs":[{"name":"data","type":"bytes","internalType":"bytes"}],"outputs":[],"stateMutability":"nonpayable"},{"type":"function","name":"renounceRole","inputs":[{"name":"role","type":"bytes32","internalType":"bytes32"},{"name":"callerConfirmation","type":"address","internalType":"address"}],"outputs":[],"stateMutability":"nonpayable"},{"type":"function","name":"revokeRole","inputs":[{"name":"role","type":"bytes32","internalType":"bytes32"},{"name":"account","type":"address","internalType":"address"}],"outputs":[],"stateMutability":"nonpayable"},{"type":"function","name":"supportedRoleAt","inputs":[{"name":"index","type":"uint256","internalType":"uint256"}],"outputs":[{"name":"","type":"bytes32","internalType":"bytes32"}],"stateMutability":"view"},{"type":"function","name":"supportedRoles","inputs":[],"outputs":[{"name":"","type":"uint256","internalType":"uint256"}],"stateMutability":"view"},{"type":"function","name":"supportsInterface","inputs":[{"name":"interfaceId","type":"bytes4","internalType":"bytes4"}],"outputs":[{"name":"","type":"bool","internalType":"bool"}],"stateMutability":"view"},{"type":"function","name":"vaultFactory","inputs":[],"outputs":[{"name":"","type":"address","internalType":"contract ISymbioticRegistry"}],"stateMutability":"view"},{"type":"function","name":"verifyCall","inputs":[{"name":"who","type":"address","internalType":"address"},{"name":"where","type":"address","internalType":"address"},{"name":"value","type":"uint256","internalType":"uint256"},{"name":"callData","type":"bytes","internalType":"bytes"},{"name":"","type":"bytes","internalType":"bytes"}],"outputs":[{"name":"","type":"bool","internalType":"bool"}],"stateMutability":"view"},{"type":"event","name":"Initialized","inputs":[{"name":"version","type":"uint64","indexed":false,"internalType":"uint64"}],"anonymous":false},{"type":"event","name":"RoleAdded","inputs":[{"name":"role","type":"bytes32","indexed":true,"internalType":"bytes32"}],"anonymous":false},{"type":"event","name":"RoleAdminChanged","inputs":[{"name":"role","type":"bytes32","indexed":true,"internalType":"bytes32"},{"name":"previousAdminRole","type":"bytes32","indexed":true,"internalType":"bytes32"},{"name":"newAdminRole","type":"bytes32","indexed":true,"internalType":"bytes32"}],"anonymous":false},{"type":"event","name":"RoleGranted","inputs":[{"name":"role","type":"bytes32","indexed":true,"internalType":"bytes32"},{"name":"account","type":"address","indexed":true,"internalType":"address"},{"name":"sender","type":"address","indexed":true,"internalType":"address"}],"anonymous":false},{"type":"event","name":"RoleRemoved","inputs":[{"name":"role","type":"bytes32","indexed":true,"internalType":"bytes32"}],"anonymous":false},{"type":"event","name":"RoleRevoked","inputs":[{"name":"role","type":"bytes32","indexed":true,"internalType":"bytes32"},{"name":"account","type":"address","indexed":true,"internalType":"address"},{"name":"sender","type":"address","indexed":true,"internalType":"address"}],"anonymous":false},{"type":"error","name":"AccessControlBadConfirmation","inputs":[]},{"type":"error","name":"AccessControlUnauthorizedAccount","inputs":[{"name":"account","type":"address","internalType":"address"},{"name":"neededRole","type":"bytes32","internalType":"bytes32"}]},{"type":"error","name":"InvalidInitialization","inputs":[]},{"type":"error","name":"NotInitializing","inputs":[]},{"type":"error","name":"ZeroValue","inputs":[]}],"bytecode":{"object":"0x60e060405234801561000f575f80fd5b5060405161198438038061198483398101604081905261002e916101fc565b818181816100646040518060400160405280600981526020016813595b1b1bddd050d360ba1b815250838361009560201b60201c565b60805261006f610106565b5061007a9050610106565b5050506001600160a01b0392831660a052501660c05261034d565b5f60ff5f1b1960018585856040516020016100b2939291906102e6565b604051602081830303815290604052805190602001205f1c6100d4919061032e565b6040516020016100e691815260200190565b604051602081830303815290604052805190602001201690509392505050565b5f61010f6101a3565b805490915068010000000000000000900460ff16156101415760405163f92ee8a960e01b815260040160405180910390fd5b80546001600160401b03908116146101a05780546001600160401b0319166001600160401b0390811782556040519081527fc7f505b2f371ae2175ee4913f4499e1f2633a7b5936321eed1cdaeb6115181d29060200160405180910390a15b50565b5f807ff0c57e16840df040f15088dc2f81fe391c3923bec73e23a9662efc9c229c6a005b92915050565b80516001600160a01b03811681146101e3575f80fd5b919050565b634e487b7160e01b5f52604160045260245ffd5b5f805f806080858703121561020f575f80fd5b610218856101cd565b9350610226602086016101cd565b60408601519093506001600160401b0380821115610242575f80fd5b818701915087601f830112610255575f80fd5b815181811115610267576102676101e8565b604051601f8201601f19908116603f0116810190838211818310171561028f5761028f6101e8565b816040528281528a60208487010111156102a7575f80fd5b8260208601602083015e5f928101602001929092525060609790970151959894975050505050565b5f81518060208401855e5f93019283525090919050565b7f6d656c6c6f772e666c657869626c652d7661756c74732e73746f726167652e0081525f61032061031a601f8401876102cf565b856102cf565b928352505060200192915050565b818103818111156101c757634e487b7160e01b5f52601160045260245ffd5b60805160a05160c0516115f16103935f395f61021501525f61033b01525f818161040701528181610634015281816109fb01528181610ae60152610b6f01526115f15ff3fe608060405234801561000f575f80fd5b5060043610610132575f3560e01c806370e46bcb116100b4578063a2cb31e511610079578063a2cb31e5146102b6578063a3246ad3146102c9578063c7cc5f24146102e9578063ca15c87314610310578063d547741f14610323578063d8a06f7314610336575f80fd5b806370e46bcb1461024f578063774237fc146102625780639010d07c1461028957806391d148541461029c578063a217fddf146102af575f80fd5b8063403ec940116100fa578063403ec940146101bb578063419a2053146101e2578063439fab91146101ea5780634a46b4cf146101fd5780636d25e17514610210575f80fd5b806301ffc9a714610136578063248a9ca31461015e5780632f2ff15d1461017f57806336568abe146101945780633cfa1929146101a7575b5f80fd5b610149610144366004610fd7565b61035d565b60405190151581526020015b60405180910390f35b61017161016c366004610ffe565b610387565b604051908152602001610155565b61019261018d366004611029565b6103a7565b005b6101926101a2366004611029565b6103c9565b6101715f8051602061157c83398151915281565b6101717fefe4de88b49c8b8f17f4c2ff9d6f775c4747e6bf57255a802349a8ebf484223981565b610171610401565b6101926101f836600461109c565b610430565b61014961020b366004610ffe565b61062e565b6102377f000000000000000000000000000000000000000000000000000000000000000081565b6040516001600160a01b039091168152602001610155565b61014961025d3660046110db565b610659565b6101717f3b48a429628aa7e067d22e77e8f4703a9d84dc4efdabe07716c4d0322e7f271481565b610237610297366004611173565b610992565b6101496102aa366004611029565b6109bf565b6101715f81565b6101716102c4366004610ffe565b6109f5565b6102dc6102d7366004610ffe565b610a20565b6040516101559190611193565b6101717f909c8b12bf402721ba65c08a75ac086b15941cd32bcb6ecba9dc69a7757d1ca981565b61017161031e366004610ffe565b610a50565b610192610331366004611029565b610a74565b6102377f000000000000000000000000000000000000000000000000000000000000000081565b5f6001600160e01b03198216635a05180f60e01b1480610381575061038182610a90565b92915050565b5f9081525f8051602061159c833981519152602052604090206001015490565b6103b082610387565b6103b981610ac4565b6103c38383610ad1565b50505050565b6001600160a01b03811633146103f25760405163334bd91960e11b815260040160405180910390fd5b6103fc8282610b4b565b505050565b5f61042b7f0000000000000000000000000000000000000000000000000000000000000000610bc7565b905090565b5f610439610bd0565b805490915060ff600160401b820416159067ffffffffffffffff165f811580156104605750825b90505f8267ffffffffffffffff16600114801561047c5750303b155b90508115801561048a575080155b156104a85760405163f92ee8a960e01b815260040160405180910390fd5b845467ffffffffffffffff1916600117855583156104d257845460ff60401b1916600160401b1785555b5f80806104e1898b018b6112b3565b919450925090506001600160a01b03831661050f57604051637c946ed760e01b815260040160405180910390fd5b6105195f84610ad1565b505f5b82518110156105db575f6001600160a01b031683828151811061054157610541611382565b60200260200101516001600160a01b0316148061057857505f801b82828151811061056e5761056e611382565b6020026020010151145b1561059657604051637c946ed760e01b815260040160405180910390fd5b6105d28282815181106105ab576105ab611382565b60200260200101518483815181106105c5576105c5611382565b6020026020010151610ad1565b5060010161051c565b50505050831561062557845460ff60401b19168555604051600181527fc7f505b2f371ae2175ee4913f4499e1f2633a7b5936321eed1cdaeb6115181d29060200160405180910390a15b50505050505050565b5f6103817f000000000000000000000000000000000000000000000000000000000000000083610bf8565b5f851515806106685750600484105b8061069a57506106987f3b48a429628aa7e067d22e77e8f4703a9d84dc4efdabe07716c4d0322e7f2714896109bf565b155b156106a657505f610987565b5f6106b46004828789611396565b6106bd916113bd565b90506106e97f909c8b12bf402721ba65c08a75ac086b15941cd32bcb6ecba9dc69a7757d1ca9896109bf565b1561086557632e06043760e21b6001600160e01b03198216016107d7575f80610715876004818b611396565b81019061072291906113ed565b9150915061073d5f8051602061157c833981519152836109bf565b1580610747575080155b15610757575f9350505050610987565b8787604051610767929190611417565b6040519081900381206001600160a01b03841660248301526044820183905290849060640160408051601f198184030181529190526020810180516001600160e01b03166001600160e01b0319909316929092178252519020146107d0575f9350505050610987565b5050610981565b630c010c5d60e01b6001600160e01b03198216016107fe575f80610715876004818b611396565b632a9609b560e11b6001600160e01b031982160161085c575f80610825876004818b611396565b81019061083291906113ed565b9150915061084d5f8051602061157c833981519152836109bf565b610757575f9350505050610987565b5f915050610987565b61088f7fefe4de88b49c8b8f17f4c2ff9d6f775c4747e6bf57255a802349a8ebf4842239896109bf565b1561085c5763a2f4adfb60e01b6001600160e01b031982160161085c575f80806108bc886004818c611396565b8101906108c99190611426565b9250925092506108e65f8051602061157c833981519152846109bf565b15806108f957506001600160a01b038216155b1561090a575f945050505050610987565b888860405161091a929190611417565b604051809103902084848484604051602401610938939291906114d9565b60408051601f198184030181529190526020810180516001600160e01b03166001600160e01b03199093169290921782525190201461097d575f945050505050610987565b5050505b60019150505b979650505050505050565b5f8281525f8051602061155c8339815191526020819052604082206109b79084610c0f565b949350505050565b5f9182525f8051602061159c833981519152602090815260408084206001600160a01b0393909316845291905290205460ff1690565b5f6103817f000000000000000000000000000000000000000000000000000000000000000083610c0f565b5f8181525f8051602061155c8339815191526020819052604090912060609190610a4990610c1a565b9392505050565b5f8181525f8051602061155c833981519152602081905260408220610a4990610bc7565b610a7d82610387565b610a8681610ac4565b6103c38383610b4b565b5f6001600160e01b03198216637965db0b60e01b148061038157506301ffc9a760e01b6001600160e01b0319831614610381565b610ace8133610c26565b50565b5f610adc8383610c67565b15610b4357610b0b7f000000000000000000000000000000000000000000000000000000000000000084610ca9565b15610b3b5760405183907fea0f1c470fa813c725756c036120b6688028969f5afbc607918fcd1ff9229435905f90a25b506001610381565b505f92915050565b5f610b568383610cb4565b15610b4357610b6483610a50565b5f03610b3b57610b947f000000000000000000000000000000000000000000000000000000000000000084610ced565b5060405183907f4c9a714f78b79aa08074addab7cbdb196cccdf6d67efbf0b99914db8a6b08e73905f90a2506001610381565b5f610381825490565b5f807ff0c57e16840df040f15088dc2f81fe391c3923bec73e23a9662efc9c229c6a00610381565b5f8181526001830160205260408120541515610a49565b5f610a498383610cf8565b60605f610a4983610d1e565b610c3082826109bf565b610c635760405163e2517d3f60e01b81526001600160a01b03821660048201526024810183905260440160405180910390fd5b5050565b5f5f8051602061155c83398151915281610c818585610d77565b905080156109b7575f858152602083905260409020610ca09085610e18565b50949350505050565b5f610a498383610e28565b5f5f8051602061155c83398151915281610cce8585610e74565b905080156109b7575f858152602083905260409020610ca09085610eed565b5f610a498383610efd565b5f825f018281548110610d0d57610d0d611382565b905f5260205f200154905092915050565b6060815f01805480602002602001604051908101604052809291908181526020018280548015610d6b57602002820191905f5260205f20905b815481526020019060010190808311610d57575b50505050509050919050565b5f5f8051602061159c833981519152610d9084846109bf565b610e0f575f848152602082815260408083206001600160a01b03871684529091529020805460ff19166001179055610dc53390565b6001600160a01b0316836001600160a01b0316857f2f8788117e7eff1d82e926ec794901d17c78024a50270940304540a733656f0d60405160405180910390a46001915050610381565b5f915050610381565b5f610a49836001600160a01b0384165b5f818152600183016020526040812054610e6d57508154600181810184555f848152602080822090930184905584548482528286019093526040902091909155610381565b505f610381565b5f5f8051602061159c833981519152610e8d84846109bf565b15610e0f575f848152602082815260408083206001600160a01b0387168085529252808320805460ff1916905551339287917ff6391f5c32d9c69d2a47ea670b442974b53935d1edc7fd64eb21e047a839171b9190a46001915050610381565b5f610a49836001600160a01b0384165b5f8181526001830160205260408120548015610e0f575f610f1f600183611528565b85549091505f90610f3290600190611528565b9050808214610f91575f865f018281548110610f5057610f50611382565b905f5260205f200154905080875f018481548110610f7057610f70611382565b5f918252602080832090910192909255918252600188019052604090208390555b8554869080610fa257610fa2611547565b600190038181905f5260205f20015f90559055856001015f8681526020019081526020015f205f905560019350505050610381565b5f60208284031215610fe7575f80fd5b81356001600160e01b031981168114610a49575f80fd5b5f6020828403121561100e575f80fd5b5035919050565b6001600160a01b0381168114610ace575f80fd5b5f806040838503121561103a575f80fd5b82359150602083013561104c81611015565b809150509250929050565b5f8083601f840112611067575f80fd5b50813567ffffffffffffffff81111561107e575f80fd5b602083019150836020828501011115611095575f80fd5b9250929050565b5f80602083850312156110ad575f80fd5b823567ffffffffffffffff8111156110c3575f80fd5b6110cf85828601611057565b90969095509350505050565b5f805f805f805f60a0888a0312156110f1575f80fd5b87356110fc81611015565b9650602088013561110c81611015565b955060408801359450606088013567ffffffffffffffff8082111561112f575f80fd5b61113b8b838c01611057565b909650945060808a0135915080821115611153575f80fd5b506111608a828b01611057565b989b979a50959850939692959293505050565b5f8060408385031215611184575f80fd5b50508035926020909101359150565b602080825282518282018190525f9190848201906040850190845b818110156111d35783516001600160a01b0316835292840192918401916001016111ae565b50909695505050505050565b634e487b7160e01b5f52604160045260245ffd5b604051601f8201601f1916810167ffffffffffffffff8111828210171561121c5761121c6111df565b604052919050565b5f67ffffffffffffffff82111561123d5761123d6111df565b5060051b60200190565b5f82601f830112611256575f80fd5b8135602061126b61126683611224565b6111f3565b8083825260208201915060208460051b87010193508684111561128c575f80fd5b602086015b848110156112a85780358352918301918301611291565b509695505050505050565b5f805f606084860312156112c5575f80fd5b83356112d081611015565b925060208481013567ffffffffffffffff808211156112ed575f80fd5b818701915087601f830112611300575f80fd5b813561130e61126682611224565b81815260059190911b8301840190848101908a83111561132c575f80fd5b938501935b8285101561135357843561134481611015565b82529385019390850190611331565b96505050604087013592508083111561136a575f80fd5b505061137886828701611247565b9150509250925092565b634e487b7160e01b5f52603260045260245ffd5b5f80858511156113a4575f80fd5b838611156113b0575f80fd5b5050820193919092039150565b6001600160e01b031981358181169160048510156113e55780818660040360031b1b83161692505b505092915050565b5f80604083850312156113fe575f80fd5b823561140981611015565b946020939093013593505050565b818382375f9101908152919050565b5f805f60608486031215611438575f80fd5b833561144381611015565b925060208481013561145481611015565b9250604085013567ffffffffffffffff80821115611470575f80fd5b818701915087601f830112611483575f80fd5b813581811115611495576114956111df565b6114a7601f8201601f191685016111f3565b915080825288848285010111156114bc575f80fd5b80848401858401375f848284010152508093505050509250925092565b5f60018060a01b0380861683528085166020840152506060604083015282518060608401528060208501608085015e5f608082850101526080601f19601f830116840101915050949350505050565b8181038181111561038157634e487b7160e01b5f52601160045260245ffd5b634e487b7160e01b5f52603160045260245ffdfec1f6fe24621ce81ec5827caf0253cadb74709b061630e6b55e82371705932000abf80feb2ee273d208fadd5ac778f2fc719588bcc130607c0fcddd743ce6f6c102dd7bc7dec4dceedda775e58dd541e08a116c6c53815c0bd028192f7b626800a26469706673582212201132feaecfd9846978c1751f20885da9e1c499efc3f8a5e7d167c2973381140b64736f6c63430008190033","linkReferences":{}},"methodIdentifiers":{"CALLER_ROLE()":"774237fc","DEFAULT_ADMIN_ROLE()":"a217fddf","MELLOW_VAULT_ROLE()":"3cfa1929","SYMBIOTIC_FARM_ROLE()":"403ec940","SYMBIOTIC_VAULT_ROLE()":"c7cc5f24","farmFactory()":"6d25e175","getRoleAdmin(bytes32)":"248a9ca3","getRoleMember(bytes32,uint256)":"9010d07c","getRoleMemberCount(bytes32)":"ca15c873","getRoleMembers(bytes32)":"a3246ad3","grantRole(bytes32,address)":"2f2ff15d","hasRole(bytes32,address)":"91d14854","hasSupportedRole(bytes32)":"4a46b4cf","initialize(bytes)":"439fab91","renounceRole(bytes32,address)":"36568abe","revokeRole(bytes32,address)":"d547741f","supportedRoleAt(uint256)":"a2cb31e5","supportedRoles()":"419a2053","supportsInterface(bytes4)":"01ffc9a7","vaultFactory()":"d8a06f73","verifyCall(address,address,uint256,bytes,bytes)":"70e46bcb"},"id":135}