{"abi":[{"type":"constructor","inputs":[{"name":"name_","type":"string","internalType":"string"},{"name":"version_","type":"uint256","internalType":"uint256"}],"stateMutability":"nonpayable"},{"type":"function","name":"ASSET_ROLE","inputs":[],"outputs":[{"name":"","type":"bytes32","internalType":"bytes32"}],"stateMutability":"view"},{"type":"function","name":"CALLER_ROLE","inputs":[],"outputs":[{"name":"","type":"bytes32","internalType":"bytes32"}],"stateMutability":"view"},{"type":"function","name":"DEFAULT_ADMIN_ROLE","inputs":[],"outputs":[{"name":"","type":"bytes32","internalType":"bytes32"}],"stateMutability":"view"},{"type":"function","name":"RECIPIENT_ROLE","inputs":[],"outputs":[{"name":"","type":"bytes32","internalType":"bytes32"}],"stateMutability":"view"},{"type":"function","name":"getRoleAdmin","inputs":[{"name":"role","type":"bytes32","internalType":"bytes32"}],"outputs":[{"name":"","type":"bytes32","internalType":"bytes32"}],"stateMutability":"view"},{"type":"function","name":"getRoleMember","inputs":[{"name":"role","type":"bytes32","internalType":"bytes32"},{"name":"index","type":"uint256","internalType":"uint256"}],"outputs":[{"name":"","type":"address","internalType":"address"}],"stateMutability":"view"},{"type":"function","name":"getRoleMemberCount","inputs":[{"name":"role","type":"bytes32","internalType":"bytes32"}],"outputs":[{"name":"","type":"uint256","internalType":"uint256"}],"stateMutability":"view"},{"type":"function","name":"getRoleMembers","inputs":[{"name":"role","type":"bytes32","internalType":"bytes32"}],"outputs":[{"name":"","type":"address[]","internalType":"address[]"}],"stateMutability":"view"},{"type":"function","name":"grantRole","inputs":[{"name":"role","type":"bytes32","internalType":"bytes32"},{"name":"account","type":"address","internalType":"address"}],"outputs":[],"stateMutability":"nonpayable"},{"type":"function","name":"hasRole","inputs":[{"name":"role","type":"bytes32","internalType":"bytes32"},{"name":"account","type":"address","internalType":"address"}],"outputs":[{"name":"","type":"bool","internalType":"bool"}],"stateMutability":"view"},{"type":"function","name":"hasSupportedRole","inputs":[{"name":"role","type":"bytes32","internalType":"bytes32"}],"outputs":[{"name":"","type":"bool","internalType":"bool"}],"stateMutability":"view"},{"type":"function","name":"initialize","inputs":[{"name":"data","type":"bytes","internalType":"bytes"}],"outputs":[],"stateMutability":"nonpayable"},{"type":"function","name":"renounceRole","inputs":[{"name":"role","type":"bytes32","internalType":"bytes32"},{"name":"callerConfirmation","type":"address","internalType":"address"}],"outputs":[],"stateMutability":"nonpayable"},{"type":"function","name":"revokeRole","inputs":[{"name":"role","type":"bytes32","internalType":"bytes32"},{"name":"account","type":"address","internalType":"address"}],"outputs":[],"stateMutability":"nonpayable"},{"type":"function","name":"supportedRoleAt","inputs":[{"name":"index","type":"uint256","internalType":"uint256"}],"outputs":[{"name":"","type":"bytes32","internalType":"bytes32"}],"stateMutability":"view"},{"type":"function","name":"supportedRoles","inputs":[],"outputs":[{"name":"","type":"uint256","internalType":"uint256"}],"stateMutability":"view"},{"type":"function","name":"supportsInterface","inputs":[{"name":"interfaceId","type":"bytes4","internalType":"bytes4"}],"outputs":[{"name":"","type":"bool","internalType":"bool"}],"stateMutability":"view"},{"type":"function","name":"verifyCall","inputs":[{"name":"who","type":"address","internalType":"address"},{"name":"where","type":"address","internalType":"address"},{"name":"value","type":"uint256","internalType":"uint256"},{"name":"callData","type":"bytes","internalType":"bytes"},{"name":"","type":"bytes","internalType":"bytes"}],"outputs":[{"name":"","type":"bool","internalType":"bool"}],"stateMutability":"view"},{"type":"event","name":"Initialized","inputs":[{"name":"version","type":"uint64","indexed":false,"internalType":"uint64"}],"anonymous":false},{"type":"event","name":"RoleAdded","inputs":[{"name":"role","type":"bytes32","indexed":true,"internalType":"bytes32"}],"anonymous":false},{"type":"event","name":"RoleAdminChanged","inputs":[{"name":"role","type":"bytes32","indexed":true,"internalType":"bytes32"},{"name":"previousAdminRole","type":"bytes32","indexed":true,"internalType":"bytes32"},{"name":"newAdminRole","type":"bytes32","indexed":true,"internalType":"bytes32"}],"anonymous":false},{"type":"event","name":"RoleGranted","inputs":[{"name":"role","type":"bytes32","indexed":true,"internalType":"bytes32"},{"name":"account","type":"address","indexed":true,"internalType":"address"},{"name":"sender","type":"address","indexed":true,"internalType":"address"}],"anonymous":false},{"type":"event","name":"RoleRemoved","inputs":[{"name":"role","type":"bytes32","indexed":true,"internalType":"bytes32"}],"anonymous":false},{"type":"event","name":"RoleRevoked","inputs":[{"name":"role","type":"bytes32","indexed":true,"internalType":"bytes32"},{"name":"account","type":"address","indexed":true,"internalType":"address"},{"name":"sender","type":"address","indexed":true,"internalType":"address"}],"anonymous":false},{"type":"error","name":"AccessControlBadConfirmation","inputs":[]},{"type":"error","name":"AccessControlUnauthorizedAccount","inputs":[{"name":"account","type":"address","internalType":"address"},{"name":"neededRole","type":"bytes32","internalType":"bytes32"}]},{"type":"error","name":"InvalidInitialization","inputs":[]},{"type":"error","name":"NotInitializing","inputs":[]},{"type":"error","name":"ZeroValue","inputs":[]}],"bytecode":{"object":"0x60a060405234801561000f575f80fd5b5060405161164138038061164183398101604081905261002e916101cf565b818181816100646040518060400160405280600981526020016813595b1b1bddd050d360ba1b815250838361008360201b60201c565b60805261006f6100f4565b5061007a90506100f4565b50505050610301565b5f60ff5f1b1960018585856040516020016100a09392919061029a565b604051602081830303815290604052805190602001205f1c6100c291906102e2565b6040516020016100d491815260200190565b604051602081830303815290604052805190602001201690509392505050565b5f6100fd610191565b805490915068010000000000000000900460ff161561012f5760405163f92ee8a960e01b815260040160405180910390fd5b80546001600160401b039081161461018e5780546001600160401b0319166001600160401b0390811782556040519081527fc7f505b2f371ae2175ee4913f4499e1f2633a7b5936321eed1cdaeb6115181d29060200160405180910390a15b50565b5f807ff0c57e16840df040f15088dc2f81fe391c3923bec73e23a9662efc9c229c6a005b92915050565b634e487b7160e01b5f52604160045260245ffd5b5f80604083850312156101e0575f80fd5b82516001600160401b03808211156101f6575f80fd5b818501915085601f830112610209575f80fd5b81518181111561021b5761021b6101bb565b604051601f8201601f19908116603f01168101908382118183101715610243576102436101bb565b8160405282815288602084870101111561025b575f80fd5b8260208601602083015e5f602084830101528096505050505050602083015190509250929050565b5f81518060208401855e5f93019283525090919050565b7f6d656c6c6f772e666c657869626c652d7661756c74732e73746f726167652e0081525f6102d46102ce601f840187610283565b85610283565b928352505060200192915050565b818103818111156101b557634e487b7160e01b5f52601160045260245ffd5b60805161130c6103355f395f8181610384015281816105b1015281816108380152818161092301526109ac015261130c5ff3fe608060405234801561000f575f80fd5b5060043610610111575f3560e01c8063774237fc1161009e578063a217fddf1161006e578063a217fddf1461027a578063a2cb31e514610281578063a3246ad314610294578063ca15c873146102b4578063d547741f146102c7575f80fd5b8063774237fc146101ee5780638595f32a146102155780639010d07c1461023c57806391d1485414610267575f80fd5b806336568abe116100e457806336568abe1461019a578063419a2053146101ad578063439fab91146101b55780634a46b4cf146101c857806370e46bcb146101db575f80fd5b806301ffc9a71461011557806303100aa41461013d578063248a9ca3146101725780632f2ff15d14610185575b5f80fd5b610128610123366004610e14565b6102da565b60405190151581526020015b60405180910390f35b6101647f8b4b1250247f1cbb35f7f69415df3cf642553a6953f81fae69e135c5feefc94b81565b604051908152602001610134565b610164610180366004610e3b565b610304565b610198610193366004610e66565b610324565b005b6101986101a8366004610e66565b610346565b61016461037e565b6101986101c3366004610ed9565b6103ad565b6101286101d6366004610e3b565b6105ab565b6101286101e9366004610f18565b6105d6565b6101647fc896aac795f7376adc96049886670c0e28cf66652e338a4139e37d250345605881565b6101647f7c6c5b36d31deb1f0c3cbcc15c12c0be85fe383faacee29701116ad6cfb3a29a81565b61024f61024a366004610fb0565b6107cf565b6040516001600160a01b039091168152602001610134565b610128610275366004610e66565b6107fc565b6101645f81565b61016461028f366004610e3b565b610832565b6102a76102a2366004610e3b565b61085d565b6040516101349190610fd0565b6101646102c2366004610e3b565b61088d565b6101986102d5366004610e66565b6108b1565b5f6001600160e01b03198216635a05180f60e01b14806102fe57506102fe826108cd565b92915050565b5f9081525f805160206112b7833981519152602052604090206001015490565b61032d82610304565b61033681610901565b610340838361090e565b50505050565b6001600160a01b038116331461036f5760405163334bd91960e11b815260040160405180910390fd5b6103798282610988565b505050565b5f6103a87f0000000000000000000000000000000000000000000000000000000000000000610a04565b905090565b5f6103b6610a0d565b805490915060ff600160401b820416159067ffffffffffffffff165f811580156103dd5750825b90505f8267ffffffffffffffff1660011480156103f95750303b155b905081158015610407575080155b156104255760405163f92ee8a960e01b815260040160405180910390fd5b845467ffffffffffffffff19166001178555831561044f57845460ff60401b1916600160401b1785555b5f808061045e898b018b6110f0565b919450925090506001600160a01b03831661048c57604051637c946ed760e01b815260040160405180910390fd5b6104965f8461090e565b505f5b8251811015610558575f6001600160a01b03168382815181106104be576104be6111bf565b60200260200101516001600160a01b031614806104f557505f801b8282815181106104eb576104eb6111bf565b6020026020010151145b1561051357604051637c946ed760e01b815260040160405180910390fd5b61054f828281518110610528576105286111bf565b6020026020010151848381518110610542576105426111bf565b602002602001015161090e565b50600101610499565b5050505083156105a257845460ff60401b19168555604051600181527fc7f505b2f371ae2175ee4913f4499e1f2633a7b5936321eed1cdaeb6115181d29060200160405180910390a15b50505050505050565b5f6102fe7f000000000000000000000000000000000000000000000000000000000000000083610a35565b5f851515806105e6575060448414155b8061061857506106167f8b4b1250247f1cbb35f7f69415df3cf642553a6953f81fae69e135c5feefc94b886107fc565b155b8061064a57506106487fc896aac795f7376adc96049886670c0e28cf66652e338a4139e37d2503456058896107fc565b155b1561065657505f6107c4565b5f61066460048287896111d3565b61066d916111fa565b90506001600160e01b0319811663095ea7b360e01b148061069e57506001600160e01b0319811663a9059cbb60e01b145b156107b5575f806106b2876004818b6111d3565b8101906106bf919061122a565b90925090506001600160a01b03821615806106f357506001600160e01b0319831663a9059cbb60e01b1480156106f3575080155b8061072557506107237f7c6c5b36d31deb1f0c3cbcc15c12c0be85fe383faacee29701116ad6cfb3a29a836107fc565b155b15610735575f93505050506107c4565b8787604051610745929190611254565b6040519081900381206001600160a01b03841660248301526044820183905290849060640160408051601f198184030181529190526020810180516001600160e01b03166001600160e01b0319909316929092178252519020146107ae575f93505050506107c4565b50506107be565b5f9150506107c4565b60019150505b979650505050505050565b5f8281525f805160206112978339815191526020819052604082206107f49084610a4c565b949350505050565b5f9182525f805160206112b7833981519152602090815260408084206001600160a01b0393909316845291905290205460ff1690565b5f6102fe7f000000000000000000000000000000000000000000000000000000000000000083610a4c565b5f8181525f80516020611297833981519152602081905260409091206060919061088690610a57565b9392505050565b5f8181525f8051602061129783398151915260208190526040822061088690610a04565b6108ba82610304565b6108c381610901565b6103408383610988565b5f6001600160e01b03198216637965db0b60e01b14806102fe57506301ffc9a760e01b6001600160e01b03198316146102fe565b61090b8133610a63565b50565b5f6109198383610aa4565b15610980576109487f000000000000000000000000000000000000000000000000000000000000000084610ae6565b156109785760405183907fea0f1c470fa813c725756c036120b6688028969f5afbc607918fcd1ff9229435905f90a25b5060016102fe565b505f92915050565b5f6109938383610af1565b15610980576109a18361088d565b5f03610978576109d17f000000000000000000000000000000000000000000000000000000000000000084610b2a565b5060405183907f4c9a714f78b79aa08074addab7cbdb196cccdf6d67efbf0b99914db8a6b08e73905f90a25060016102fe565b5f6102fe825490565b5f807ff0c57e16840df040f15088dc2f81fe391c3923bec73e23a9662efc9c229c6a006102fe565b5f8181526001830160205260408120541515610886565b5f6108868383610b35565b60605f61088683610b5b565b610a6d82826107fc565b610aa05760405163e2517d3f60e01b81526001600160a01b03821660048201526024810183905260440160405180910390fd5b5050565b5f5f8051602061129783398151915281610abe8585610bb4565b905080156107f4575f858152602083905260409020610add9085610c55565b50949350505050565b5f6108868383610c65565b5f5f8051602061129783398151915281610b0b8585610cb1565b905080156107f4575f858152602083905260409020610add9085610d2a565b5f6108868383610d3a565b5f825f018281548110610b4a57610b4a6111bf565b905f5260205f200154905092915050565b6060815f01805480602002602001604051908101604052809291908181526020018280548015610ba857602002820191905f5260205f20905b815481526020019060010190808311610b94575b50505050509050919050565b5f5f805160206112b7833981519152610bcd84846107fc565b610c4c575f848152602082815260408083206001600160a01b03871684529091529020805460ff19166001179055610c023390565b6001600160a01b0316836001600160a01b0316857f2f8788117e7eff1d82e926ec794901d17c78024a50270940304540a733656f0d60405160405180910390a460019150506102fe565b5f9150506102fe565b5f610886836001600160a01b0384165b5f818152600183016020526040812054610caa57508154600181810184555f8481526020808220909301849055845484825282860190935260409020919091556102fe565b505f6102fe565b5f5f805160206112b7833981519152610cca84846107fc565b15610c4c575f848152602082815260408083206001600160a01b0387168085529252808320805460ff1916905551339287917ff6391f5c32d9c69d2a47ea670b442974b53935d1edc7fd64eb21e047a839171b9190a460019150506102fe565b5f610886836001600160a01b0384165b5f8181526001830160205260408120548015610c4c575f610d5c600183611263565b85549091505f90610d6f90600190611263565b9050808214610dce575f865f018281548110610d8d57610d8d6111bf565b905f5260205f200154905080875f018481548110610dad57610dad6111bf565b5f918252602080832090910192909255918252600188019052604090208390555b8554869080610ddf57610ddf611282565b600190038181905f5260205f20015f90559055856001015f8681526020019081526020015f205f9055600193505050506102fe565b5f60208284031215610e24575f80fd5b81356001600160e01b031981168114610886575f80fd5b5f60208284031215610e4b575f80fd5b5035919050565b6001600160a01b038116811461090b575f80fd5b5f8060408385031215610e77575f80fd5b823591506020830135610e8981610e52565b809150509250929050565b5f8083601f840112610ea4575f80fd5b50813567ffffffffffffffff811115610ebb575f80fd5b602083019150836020828501011115610ed2575f80fd5b9250929050565b5f8060208385031215610eea575f80fd5b823567ffffffffffffffff811115610f00575f80fd5b610f0c85828601610e94565b90969095509350505050565b5f805f805f805f60a0888a031215610f2e575f80fd5b8735610f3981610e52565b96506020880135610f4981610e52565b955060408801359450606088013567ffffffffffffffff80821115610f6c575f80fd5b610f788b838c01610e94565b909650945060808a0135915080821115610f90575f80fd5b50610f9d8a828b01610e94565b989b979a50959850939692959293505050565b5f8060408385031215610fc1575f80fd5b50508035926020909101359150565b602080825282518282018190525f9190848201906040850190845b818110156110105783516001600160a01b031683529284019291840191600101610feb565b50909695505050505050565b634e487b7160e01b5f52604160045260245ffd5b604051601f8201601f1916810167ffffffffffffffff811182821017156110595761105961101c565b604052919050565b5f67ffffffffffffffff82111561107a5761107a61101c565b5060051b60200190565b5f82601f830112611093575f80fd5b813560206110a86110a383611061565b611030565b8083825260208201915060208460051b8701019350868411156110c9575f80fd5b602086015b848110156110e557803583529183019183016110ce565b509695505050505050565b5f805f60608486031215611102575f80fd5b833561110d81610e52565b925060208481013567ffffffffffffffff8082111561112a575f80fd5b818701915087601f83011261113d575f80fd5b813561114b6110a382611061565b81815260059190911b8301840190848101908a831115611169575f80fd5b938501935b8285101561119057843561118181610e52565b8252938501939085019061116e565b9650505060408701359250808311156111a7575f80fd5b50506111b586828701611084565b9150509250925092565b634e487b7160e01b5f52603260045260245ffd5b5f80858511156111e1575f80fd5b838611156111ed575f80fd5b5050820193919092039150565b6001600160e01b031981358181169160048510156112225780818660040360031b1b83161692505b505092915050565b5f806040838503121561123b575f80fd5b823561124681610e52565b946020939093013593505050565b818382375f9101908152919050565b818103818111156102fe57634e487b7160e01b5f52601160045260245ffd5b634e487b7160e01b5f52603160045260245ffdfec1f6fe24621ce81ec5827caf0253cadb74709b061630e6b55e8237170593200002dd7bc7dec4dceedda775e58dd541e08a116c6c53815c0bd028192f7b626800a26469706673582212205077c05384c430d698cafaf6258d8899729b115726866f4c28327f284446cb9a64736f6c63430008190033","linkReferences":{}},"methodIdentifiers":{"ASSET_ROLE()":"03100aa4","CALLER_ROLE()":"774237fc","DEFAULT_ADMIN_ROLE()":"a217fddf","RECIPIENT_ROLE()":"8595f32a","getRoleAdmin(bytes32)":"248a9ca3","getRoleMember(bytes32,uint256)":"9010d07c","getRoleMemberCount(bytes32)":"ca15c873","getRoleMembers(bytes32)":"a3246ad3","grantRole(bytes32,address)":"2f2ff15d","hasRole(bytes32,address)":"91d14854","hasSupportedRole(bytes32)":"4a46b4cf","initialize(bytes)":"439fab91","renounceRole(bytes32,address)":"36568abe","revokeRole(bytes32,address)":"d547741f","supportedRoleAt(uint256)":"a2cb31e5","supportedRoles()":"419a2053","supportsInterface(bytes4)":"01ffc9a7","verifyCall(address,address,uint256,bytes,bytes)":"70e46bcb"},"id":132}