{"abi":[{"type":"constructor","inputs":[{"name":"name_","type":"string","internalType":"string"},{"name":"version_","type":"uint256","internalType":"uint256"},{"name":"consensusFactory_","type":"address","internalType":"address"}],"stateMutability":"nonpayable"},{"type":"function","name":"ORDER_TYPEHASH","inputs":[],"outputs":[{"name":"","type":"bytes32","internalType":"bytes32"}],"stateMutability":"view"},{"type":"function","name":"asset","inputs":[],"outputs":[{"name":"","type":"address","internalType":"address"}],"stateMutability":"view"},{"type":"function","name":"canBeRemoved","inputs":[],"outputs":[{"name":"","type":"bool","internalType":"bool"}],"stateMutability":"pure"},{"type":"function","name":"claim","inputs":[{"name":"","type":"address","internalType":"address"}],"outputs":[{"name":"","type":"bool","internalType":"bool"}],"stateMutability":"nonpayable"},{"type":"function","name":"claimableOf","inputs":[{"name":"","type":"address","internalType":"address"}],"outputs":[{"name":"","type":"uint256","internalType":"uint256"}],"stateMutability":"view"},{"type":"function","name":"consensus","inputs":[],"outputs":[{"name":"","type":"address","internalType":"contract IConsensus"}],"stateMutability":"view"},{"type":"function","name":"consensusFactory","inputs":[],"outputs":[{"name":"","type":"address","internalType":"contract IFactory"}],"stateMutability":"view"},{"type":"function","name":"eip712Domain","inputs":[],"outputs":[{"name":"fields","type":"bytes1","internalType":"bytes1"},{"name":"name","type":"string","internalType":"string"},{"name":"version","type":"string","internalType":"string"},{"name":"chainId","type":"uint256","internalType":"uint256"},{"name":"verifyingContract","type":"address","internalType":"address"},{"name":"salt","type":"bytes32","internalType":"bytes32"},{"name":"extensions","type":"uint256[]","internalType":"uint256[]"}],"stateMutability":"view"},{"type":"function","name":"handleReport","inputs":[{"name":"","type":"uint224","internalType":"uint224"},{"name":"","type":"uint32","internalType":"uint32"}],"outputs":[],"stateMutability":"view"},{"type":"function","name":"hashOrder","inputs":[{"name":"order","type":"tuple","internalType":"struct ISignatureQueue.Order","components":[{"name":"orderId","type":"uint256","internalType":"uint256"},{"name":"queue","type":"address","internalType":"address"},{"name":"asset","type":"address","internalType":"address"},{"name":"caller","type":"address","internalType":"address"},{"name":"recipient","type":"address","internalType":"address"},{"name":"ordered","type":"uint256","internalType":"uint256"},{"name":"requested","type":"uint256","internalType":"uint256"},{"name":"deadline","type":"uint256","internalType":"uint256"},{"name":"nonce","type":"uint256","internalType":"uint256"}]}],"outputs":[{"name":"","type":"bytes32","internalType":"bytes32"}],"stateMutability":"view"},{"type":"function","name":"initialize","inputs":[{"name":"initData","type":"bytes","internalType":"bytes"}],"outputs":[],"stateMutability":"nonpayable"},{"type":"function","name":"nonces","inputs":[{"name":"account","type":"address","internalType":"address"}],"outputs":[{"name":"","type":"uint256","internalType":"uint256"}],"stateMutability":"view"},{"type":"function","name":"redeem","inputs":[{"name":"order","type":"tuple","internalType":"struct ISignatureQueue.Order","components":[{"name":"orderId","type":"uint256","internalType":"uint256"},{"name":"queue","type":"address","internalType":"address"},{"name":"asset","type":"address","internalType":"address"},{"name":"caller","type":"address","internalType":"address"},{"name":"recipient","type":"address","internalType":"address"},{"name":"ordered","type":"uint256","internalType":"uint256"},{"name":"requested","type":"uint256","internalType":"uint256"},{"name":"deadline","type":"uint256","internalType":"uint256"},{"name":"nonce","type":"uint256","internalType":"uint256"}]},{"name":"signatures","type":"tuple[]","internalType":"struct IConsensus.Signature[]","components":[{"name":"signer","type":"address","internalType":"address"},{"name":"signature","type":"bytes","internalType":"bytes"}]}],"outputs":[],"stateMutability":"payable"},{"type":"function","name":"validateOrder","inputs":[{"name":"order","type":"tuple","internalType":"struct ISignatureQueue.Order","components":[{"name":"orderId","type":"uint256","internalType":"uint256"},{"name":"queue","type":"address","internalType":"address"},{"name":"asset","type":"address","internalType":"address"},{"name":"caller","type":"address","internalType":"address"},{"name":"recipient","type":"address","internalType":"address"},{"name":"ordered","type":"uint256","internalType":"uint256"},{"name":"requested","type":"uint256","internalType":"uint256"},{"name":"deadline","type":"uint256","internalType":"uint256"},{"name":"nonce","type":"uint256","internalType":"uint256"}]},{"name":"signatures","type":"tuple[]","internalType":"struct IConsensus.Signature[]","components":[{"name":"signer","type":"address","internalType":"address"},{"name":"signature","type":"bytes","internalType":"bytes"}]}],"outputs":[],"stateMutability":"view"},{"type":"function","name":"vault","inputs":[],"outputs":[{"name":"","type":"address","internalType":"address"}],"stateMutability":"view"},{"type":"event","name":"EIP712DomainChanged","inputs":[],"anonymous":false},{"type":"event","name":"Initialized","inputs":[{"name":"version","type":"uint64","indexed":false,"internalType":"uint64"}],"anonymous":false},{"type":"event","name":"Initialized","inputs":[{"name":"initParams","type":"bytes","indexed":false,"internalType":"bytes"}],"anonymous":false},{"type":"event","name":"OrderExecuted","inputs":[{"name":"order","type":"tuple","indexed":false,"internalType":"struct ISignatureQueue.Order","components":[{"name":"orderId","type":"uint256","internalType":"uint256"},{"name":"queue","type":"address","internalType":"address"},{"name":"asset","type":"address","internalType":"address"},{"name":"caller","type":"address","internalType":"address"},{"name":"recipient","type":"address","internalType":"address"},{"name":"ordered","type":"uint256","internalType":"uint256"},{"name":"requested","type":"uint256","internalType":"uint256"},{"name":"deadline","type":"uint256","internalType":"uint256"},{"name":"nonce","type":"uint256","internalType":"uint256"}]},{"name":"signatures","type":"tuple[]","indexed":false,"internalType":"struct IConsensus.Signature[]","components":[{"name":"signer","type":"address","internalType":"address"},{"name":"signature","type":"bytes","internalType":"bytes"}]}],"anonymous":false},{"type":"error","name":"FailedCall","inputs":[]},{"type":"error","name":"InsufficientAssets","inputs":[{"name":"requested","type":"uint256","internalType":"uint256"},{"name":"available","type":"uint256","internalType":"uint256"}]},{"type":"error","name":"InsufficientBalance","inputs":[{"name":"balance","type":"uint256","internalType":"uint256"},{"name":"needed","type":"uint256","internalType":"uint256"}]},{"type":"error","name":"InvalidAsset","inputs":[{"name":"asset","type":"address","internalType":"address"}]},{"type":"error","name":"InvalidCaller","inputs":[{"name":"caller","type":"address","internalType":"address"}]},{"type":"error","name":"InvalidInitialization","inputs":[]},{"type":"error","name":"InvalidNonce","inputs":[{"name":"account","type":"address","internalType":"address"},{"name":"nonce","type":"uint256","internalType":"uint256"}]},{"type":"error","name":"InvalidPrice","inputs":[]},{"type":"error","name":"InvalidQueue","inputs":[{"name":"queue","type":"address","internalType":"address"}]},{"type":"error","name":"NotEntity","inputs":[]},{"type":"error","name":"NotInitializing","inputs":[]},{"type":"error","name":"OrderExpired","inputs":[{"name":"deadline","type":"uint256","internalType":"uint256"}]},{"type":"error","name":"ReentrancyGuardReentrantCall","inputs":[]},{"type":"error","name":"SafeERC20FailedOperation","inputs":[{"name":"token","type":"address","internalType":"address"}]},{"type":"error","name":"ZeroValue","inputs":[]}],"bytecode":{"object":"0x60c060405234801561000f575f80fd5b5060405161237d38038061237d83398101604081905261002e916101f2565b8282826100686040518060400160405280600e81526020016d5369676e6174757265517565756560901b815250848461008b60201b60201c565b60a0526001600160a01b0381166080526100806100fc565b505050505050610333565b5f60ff5f1b1960018585856040516020016100a8939291906102cc565b604051602081830303815290604052805190602001205f1c6100ca9190610314565b6040516020016100dc91815260200190565b604051602081830303815290604052805190602001201690509392505050565b5f610105610199565b805490915068010000000000000000900460ff16156101375760405163f92ee8a960e01b815260040160405180910390fd5b80546001600160401b03908116146101965780546001600160401b0319166001600160401b0390811782556040519081527fc7f505b2f371ae2175ee4913f4499e1f2633a7b5936321eed1cdaeb6115181d29060200160405180910390a15b50565b5f807ff0c57e16840df040f15088dc2f81fe391c3923bec73e23a9662efc9c229c6a005b92915050565b634e487b7160e01b5f52604160045260245ffd5b80516001600160a01b03811681146101ed575f80fd5b919050565b5f805f60608486031215610204575f80fd5b83516001600160401b038082111561021a575f80fd5b818601915086601f83011261022d575f80fd5b81518181111561023f5761023f6101c3565b604051601f8201601f19908116603f01168101908382118183101715610267576102676101c3565b8160405282815289602084870101111561027f575f80fd5b8260208601602083015e5f602084830101528097505050505050602084015191506102ac604085016101d7565b90509250925092565b5f81518060208401855e5f93019283525090919050565b7f6d656c6c6f772e666c657869626c652d7661756c74732e73746f726167652e0081525f610306610300601f8401876102b5565b856102b5565b928352505060200192915050565b818103818111156101bd57634e487b7160e01b5f52601160045260245ffd5b60805160a051611ff161038c5f395f818161012a015281816101bb0152818161024301528181610411015281816106ba01528181610c7401528181610da5015261101b01525f818161029501526104b60152611ff15ff3fe6080604052600436106100e4575f3560e01c8063b05c1d9711610087578063c746bc9811610057578063c746bc98146102e8578063f7598a6314610307578063f973a20914610326578063fbfa77cf14610359575f80fd5b8063b05c1d9714610271578063b219bb1814610284578063b8c5ea8a146102b7578063c2f21896146102d5575f80fd5b80637ecebe00116100c25780637ecebe001461019057806384b0196e146101f45780638903ab9d1461021b5780638ef3f76114610235575f80fd5b80631e83409a146100e857806338d52e0f1461011c578063439fab911461016f575b5f80fd5b3480156100f3575f80fd5b50610107610102366004611736565b505f90565b60405190151581526020015b60405180910390f35b348015610127575f80fd5b507f0000000000000000000000000000000000000000000000000000000000000000600201546001600160a01b03165b6040516001600160a01b039091168152602001610113565b34801561017a575f80fd5b5061018e610189366004611751565b61036d565b005b34801561019b575f80fd5b506101e66101aa366004611736565b6001600160a01b03165f90815260037f000000000000000000000000000000000000000000000000000000000000000001602052604090205490565b604051908152602001610113565b3480156101ff575f80fd5b506102086105f7565b60405161011397969594939291906117eb565b348015610226575f80fd5b506101e6610102366004611736565b348015610240575f80fd5b507f0000000000000000000000000000000000000000000000000000000000000000546001600160a01b0316610157565b61018e61027f366004611899565b6106a5565b34801561028f575f80fd5b506101577f000000000000000000000000000000000000000000000000000000000000000081565b3480156102c2575f80fd5b5061018e6102d136600461191b565b5050565b3480156102e0575f80fd5b506001610107565b3480156102f3575f80fd5b506101e6610302366004611965565b610ac6565b348015610312575f80fd5b5061018e610321366004611899565b610bc0565b348015610331575f80fd5b506101e67fb367c53189b3057a91923801116b5f9c4e7211a314d1961f94770747512a1b6881565b348015610364575f80fd5b50610157611017565b5f610376611048565b805490915060ff600160401b820416159067ffffffffffffffff165f8115801561039d5750825b90505f8267ffffffffffffffff1660011480156103b95750303b155b9050811580156103c7575080155b156103e55760405163f92ee8a960e01b815260040160405180910390fd5b845467ffffffffffffffff19166001178555831561040f57845460ff60401b1916600160401b1785555b7f0000000000000000000000000000000000000000000000000000000000000000606061043e8989018a6119ec565b6001850180546001600160a01b039384166001600160a01b03199182161790915560028601805494909316931692909217905580519091505f908190819061048f9085016020908101908601611ad7565b6040516302910f8b60e31b81526001600160a01b03848116600483015293965091945092507f0000000000000000000000000000000000000000000000000000000000000000909116906314887c5890602401602060405180830381865afa1580156104fd573d5f803e3d5ffd5b505050506040513d601f19601f820116820180604052508101906105219190611b58565b61053e5760405163184849cf60e01b815260040160405180910390fd5b610546611070565b6105508282611082565b84546001600160a01b0319166001600160a01b0384161785556040517f5e399709a9ff1709f6f6be7268c8e5c3eeaa9da9cd9797e78f07ef287c3717fe9061059b908e908e90611b99565b60405180910390a1505050505083156105ee57845460ff60401b19168555604051600181527fc7f505b2f371ae2175ee4913f4499e1f2633a7b5936321eed1cdaeb6115181d29060200160405180910390a15b50505050505050565b5f60608082808083815f80516020611f9c833981519152805490915015801561062257506001810154155b61066b5760405162461bcd60e51b81526020600482015260156024820152741152540dcc4c8e88155b9a5b9a5d1a585b1a5e9959605a1b60448201526064015b60405180910390fd5b610673611094565b61067b611154565b604080515f80825260208201909252600f60f81b9c939b5091995046985030975095509350915050565b6106ad611192565b6106b8838383610bc0565b7f00000000000000000000000000000000000000000000000000000000000000006003015f6106ed6080860160608701611736565b6001600160a01b0316815260208101919091526040015f90812080549161071383611bc8565b91905055505f610721611017565b9050806001600160a01b0316635d66b00a6040518163ffffffff1660e01b8152600401602060405180830381865afa15801561075f573d5f803e3d5ffd5b505050506040513d601f19601f820116820180604052508101906107839190611be0565b8460c001351115610815578360c00135816001600160a01b0316635d66b00a6040518163ffffffff1660e01b8152600401602060405180830381865afa1580156107cf573d5f803e3d5ffd5b505050506040513d601f19601f820116820180604052508101906107f39190611be0565b60405163b97fded160e01b815260048101929092526024820152604401610662565b806001600160a01b0316635c60173d6040518163ffffffff1660e01b8152600401602060405180830381865afa158015610851573d5f803e3d5ffd5b505050506040513d601f19601f820116820180604052508101906108759190611bf7565b6001600160a01b0316639dc29fac61089360a0870160808801611736565b6040516001600160e01b031960e084901b1681526001600160a01b03909116600482015260a087013560248201526044015f604051808303815f87803b1580156108db575f80fd5b505af11580156108ed573d5f803e3d5ffd5b505060405163d27d250360e01b815260c087013560048201526001600160a01b038416925063d27d250391506024015f604051808303815f87803b158015610933575f80fd5b505af1158015610945573d5f803e3d5ffd5b50610978925061095e9150506060860160408701611736565b61096e60a0870160808801611736565b8660c001356111dc565b806001600160a01b031663478426636040518163ffffffff1660e01b8152600401602060405180830381865afa1580156109b4573d5f803e3d5ffd5b505050506040513d601f19601f820116820180604052508101906109d89190611bf7565b6001600160a01b03166382dcf0746109f66060870160408801611736565b610a0360c0880135611c12565b6040516001600160e01b031960e085901b1681526001600160a01b03909216600483015260248201526044015f604051808303815f87803b158015610a46575f80fd5b505af1158015610a58573d5f803e3d5ffd5b505050507f529ea661537779719fddfa315e820f5de2bf343f7b33f4f9791b42c6d7ce30d3848484604051610a8f93929190611cf7565b60405180910390a150610ac160017f9b779b17422d0df92223018b32b4d1fa46e071723d6817e2486d003becc55f0055565b505050565b5f610bba7fb367c53189b3057a91923801116b5f9c4e7211a314d1961f94770747512a1b688335610afd6040860160208701611736565b610b0d6060870160408801611736565b610b1d6080880160608901611736565b610b2d60a0890160808a01611736565b6040805160208101979097528601949094526001600160a01b0392831660608601529082166080850152811660a084810191909152911660c0838101919091529085013560e0838101919091529085013561010083810191909152908501356101208301528401356101408201526101600160405160208183030381529060405280519060200120611245565b92915050565b428360e001351015610beb576040516306b4c23760e21b815260e08401356004820152602401610662565b30610bfc6040850160208601611736565b6001600160a01b031614610c3f57610c1a6040840160208501611736565b60405163cca72ba560e01b81526001600160a01b039091166004820152602401610662565b60a08301351580610c52575060c0830135155b15610c7057604051637c946ed760e01b815260040160405180910390fd5b60027f000000000000000000000000000000000000000000000000000000000000000001546001600160a01b0316610cae6060850160408601611736565b6001600160a01b031614610cf157610ccc6060840160408501611736565b6040516337bce3c560e11b81526001600160a01b039091166004820152602401610662565b33610d026080850160608601611736565b6001600160a01b031614610d4557610d206080840160608501611736565b60405163065ece9760e51b81526001600160a01b039091166004820152602401610662565b610d586101aa6080850160608601611736565b83610100013514610da357610d736080840160608501611736565b60405163dbc205b160e01b81526001600160a01b0390911660048201526101008401356024820152604401610662565b7f0000000000000000000000000000000000000000000000000000000000000000546001600160a01b031663faa4da34610ddc85610ac6565b84846040518463ffffffff1660e01b8152600401610dfc93929190611db3565b5f6040518083038186803b158015610e12575f80fd5b505afa158015610e24573d5f803e3d5ffd5b505050505f610e31611017565b90505f816001600160a01b0316637dc0d1d06040518163ffffffff1660e01b8152600401602060405180830381865afa158015610e70573d5f803e3d5ffd5b505050506040513d601f19601f82011682018060405250810190610e949190611bf7565b90506001600160a01b03811615611010576040516392e6ece560e01b81523060048201525f906001600160a01b038416906392e6ece590602401602060405180830381865afa158015610ee9573d5f803e3d5ffd5b505050506040513d601f19601f82011682018060405250810190610f0d9190611b58565b15610f3457610f2d8660c00135670de0b6b3a76400008860a00135611271565b9050610f54565b610f518660a00135670de0b6b3a76400008860c001356001611322565b90505b5f806001600160a01b03841663816c885084610f7660608c0160408d01611736565b6040516001600160e01b031960e085901b16815260048101929092526001600160a01b031660248201526044016040805180830381865afa158015610fbd573d5f803e3d5ffd5b505050506040513d601f19601f82011682018060405250810190610fe19190611dcc565b91509150811580610fef5750805b1561100c5760405162bfc92160e01b815260040160405180910390fd5b5050505b5050505050565b60017f000000000000000000000000000000000000000000000000000000000000000001546001600160a01b031690565b5f807ff0c57e16840df040f15088dc2f81fe391c3923bec73e23a9662efc9c229c6a00610bba565b61107861136d565b611080611392565b565b61108a61136d565b6102d1828261139a565b7fa16a46d94261c7517cc8ff89f61c0ce93598e3c849801011dee649a6a557d10280546060915f80516020611f9c833981519152916110d290611dfd565b80601f01602080910402602001604051908101604052809291908181526020018280546110fe90611dfd565b80156111495780601f1061112057610100808354040283529160200191611149565b820191905f5260205f20905b81548152906001019060200180831161112c57829003601f168201915b505050505091505090565b7fa16a46d94261c7517cc8ff89f61c0ce93598e3c849801011dee649a6a557d10380546060915f80516020611f9c833981519152916110d290611dfd565b7f9b779b17422d0df92223018b32b4d1fa46e071723d6817e2486d003becc55f008054600119016111d657604051633ee5aeb560e01b815260040160405180910390fd5b60029055565b73eeeeeeeeeeeeeeeeeeeeeeeeeeeeeeeeeeeeeeed196001600160a01b0384160161120b57610ac182826113f9565b610ac16001600160a01b038416838361148b565b60017f9b779b17422d0df92223018b32b4d1fa46e071723d6817e2486d003becc55f0055565b5f610bba6112516114dd565b8360405161190160f01b8152600281019290925260228201526042902090565b5f805f61127e86866114eb565b91509150815f036112a25783818161129857611298611e2f565b049250505061131b565b8184116112b9576112b96003851502601118611507565b5f848688095f868103871696879004966002600389028118808a02820302808a02820302808a02820302808a02820302808a02820302808a02909103029181900381900460010185841190960395909502919093039390930492909217029150505b9392505050565b5f61134f61132f83611518565b801561134a57505f848061134557611345611e2f565b868809115b151590565b61135a868686611271565b6113649190611e43565b95945050505050565b611375611544565b61108057604051631afcd79f60e31b815260040160405180910390fd5b61121f61136d565b6113a261136d565b5f80516020611f9c8339815191527fa16a46d94261c7517cc8ff89f61c0ce93598e3c849801011dee649a6a557d1026113db8482611e9a565b50600381016113ea8382611e9a565b505f8082556001909101555050565b804710156114235760405163cf47918160e01b815247600482015260248101829052604401610662565b5f80836001600160a01b0316836040515f6040518083038185875af1925050503d805f811461146d576040519150601f19603f3d011682016040523d82523d5f602084013e611472565b606091505b509150915081611485576114858161155d565b50505050565b604080516001600160a01b038416602482015260448082018490528251808303909101815260649091019091526020810180516001600160e01b031663a9059cbb60e01b179052610ac1908490611589565b5f6114e66115f5565b905090565b5f805f1983850993909202808410938190039390930393915050565b634e487b715f52806020526024601cfd5b5f600282600381111561152d5761152d611f5a565b6115379190611f6e565b60ff166001149050919050565b5f61154d611048565b54600160401b900460ff16919050565b80511561156d5780518082602001fd5b60405163d6bda27560e01b815260040160405180910390fd5b50565b5f8060205f8451602086015f885af1806115a8576040513d5f823e3d81fd5b50505f513d915081156115bf5780600114156115cc565b6001600160a01b0384163b155b1561148557604051635274afe760e01b81526001600160a01b0385166004820152602401610662565b5f7f8b73c3c69bb8fe3d512ecc4cf759cc79239f7b179b0ffacaa9a75d522b39400f61161f611668565b6116276116d0565b60408051602081019490945283019190915260608201524660808201523060a082015260c00160405160208183030381529060405280519060200120905090565b5f5f80516020611f9c83398151915281611680611094565b80519091501561169857805160209091012092915050565b815480156116a7579392505050565b7fc5d2460186f7233c927e7db2dcc703c0e500b653ca82273b7bfad8045d85a470935050505090565b5f5f80516020611f9c833981519152816116e8611154565b80519091501561170057805160209091012092915050565b600182015480156116a7579392505050565b6001600160a01b0381168114611586575f80fd5b803561173181611712565b919050565b5f60208284031215611746575f80fd5b813561131b81611712565b5f8060208385031215611762575f80fd5b823567ffffffffffffffff80821115611779575f80fd5b818501915085601f83011261178c575f80fd5b81358181111561179a575f80fd5b8660208285010111156117ab575f80fd5b60209290920196919550909350505050565b5f81518084528060208401602086015e5f602082860101526020601f19601f83011685010191505092915050565b60ff60f81b881681525f602060e0602084015261180b60e084018a6117bd565b838103604085015261181d818a6117bd565b606085018990526001600160a01b038816608086015260a0850187905284810360c0860152855180825260208088019350909101905f5b8181101561187057835183529284019291840191600101611854565b50909c9b505050505050505050505050565b5f6101208284031215611893575f80fd5b50919050565b5f805f61014084860312156118ac575f80fd5b6118b68585611882565b925061012084013567ffffffffffffffff808211156118d3575f80fd5b818601915086601f8301126118e6575f80fd5b8135818111156118f4575f80fd5b8760208260051b8501011115611908575f80fd5b6020830194508093505050509250925092565b5f806040838503121561192c575f80fd5b82356001600160e01b0381168114611942575f80fd5b9150602083013563ffffffff8116811461195a575f80fd5b809150509250929050565b5f6101208284031215611976575f80fd5b61131b8383611882565b634e487b7160e01b5f52604160045260245ffd5b604051601f8201601f1916810167ffffffffffffffff811182821017156119bd576119bd611980565b604052919050565b5f67ffffffffffffffff8211156119de576119de611980565b50601f01601f191660200190565b5f805f606084860312156119fe575f80fd5b8335611a0981611712565b92506020840135611a1981611712565b9150604084013567ffffffffffffffff811115611a34575f80fd5b8401601f81018613611a44575f80fd5b8035611a57611a52826119c5565b611994565b818152876020838501011115611a6b575f80fd5b816020840160208301375f602083830101528093505050509250925092565b5f82601f830112611a99575f80fd5b8151611aa7611a52826119c5565b818152846020838601011115611abb575f80fd5b8160208501602083015e5f918101602001919091529392505050565b5f805f60608486031215611ae9575f80fd5b8351611af481611712565b602085015190935067ffffffffffffffff80821115611b11575f80fd5b611b1d87838801611a8a565b93506040860151915080821115611b32575f80fd5b50611b3f86828701611a8a565b9150509250925092565b80518015158114611731575f80fd5b5f60208284031215611b68575f80fd5b61131b82611b49565b81835281816020850137505f828201602090810191909152601f909101601f19169091010190565b602081525f611bac602083018486611b71565b949350505050565b634e487b7160e01b5f52601160045260245ffd5b5f60018201611bd957611bd9611bb4565b5060010190565b5f60208284031215611bf0575f80fd5b5051919050565b5f60208284031215611c07575f80fd5b815161131b81611712565b5f600160ff1b8201611c2657611c26611bb4565b505f0390565b5f8383855260208086019550808560051b830101845f5b87811015611cea57848303601f19018952813536889003603e19018112611c68575f80fd5b870160408135611c7781611712565b6001600160a01b031685528186013536839003601e19018112611c98575f80fd5b90910185810191903567ffffffffffffffff811115611cb5575f80fd5b803603831315611cc3575f80fd5b8187870152611cd58287018285611b71565b9b87019b955050509184019150600101611c43565b5090979650505050505050565b5f610140853583526020860135611d0d81611712565b6001600160a01b03166020840152611d2760408701611726565b6001600160a01b03166040840152611d4160608701611726565b6001600160a01b03166060840152611d5b60808701611726565b6001600160a01b03811660808501525060a086013560a084015260c086013560c084015260e086013560e084015261010080870135818501525080610120840152611da98184018587611c2c565b9695505050505050565b838152604060208201525f611364604083018486611c2c565b5f8060408385031215611ddd575f80fd5b611de683611b49565b9150611df460208401611b49565b90509250929050565b600181811c90821680611e1157607f821691505b60208210810361189357634e487b7160e01b5f52602260045260245ffd5b634e487b7160e01b5f52601260045260245ffd5b80820180821115610bba57610bba611bb4565b601f821115610ac157805f5260205f20601f840160051c81016020851015611e7b5750805b601f840160051c820191505b81811015611010575f8155600101611e87565b815167ffffffffffffffff811115611eb457611eb4611980565b611ec881611ec28454611dfd565b84611e56565b602080601f831160018114611efb575f8415611ee45750858301515b5f19600386901b1c1916600185901b178555611f52565b5f85815260208120601f198616915b82811015611f2957888601518255948401946001909101908401611f0a565b5085821015611f4657878501515f19600388901b60f8161c191681555b505060018460011b0185555b505050505050565b634e487b7160e01b5f52602160045260245ffd5b5f60ff831680611f8c57634e487b7160e01b5f52601260045260245ffd5b8060ff8416069150509291505056fea16a46d94261c7517cc8ff89f61c0ce93598e3c849801011dee649a6a557d100a2646970667358221220cb4fe9ca4dcabfb317d250a128fbe742ea4e8a035b53aee0b39c8e6897603f2864736f6c63430008190033","linkReferences":{}},"methodIdentifiers":{"ORDER_TYPEHASH()":"f973a209","asset()":"38d52e0f","canBeRemoved()":"c2f21896","claim(address)":"1e83409a","claimableOf(address)":"8903ab9d","consensus()":"8ef3f761","consensusFactory()":"b219bb18","eip712Domain()":"84b0196e","handleReport(uint224,uint32)":"b8c5ea8a","hashOrder((uint256,address,address,address,address,uint256,uint256,uint256,uint256))":"c746bc98","initialize(bytes)":"439fab91","nonces(address)":"7ecebe00","redeem((uint256,address,address,address,address,uint256,uint256,uint256,uint256),(address,bytes)[])":"b05c1d97","validateOrder((uint256,address,address,address,address,uint256,uint256,uint256,uint256),(address,bytes)[])":"f7598a63","vault()":"fbfa77cf"},"id":141}