{"abi":[{"type":"constructor","inputs":[{"name":"shareManagerFactory_","type":"address","internalType":"address"},{"name":"feeManagerFactory_","type":"address","internalType":"address"},{"name":"riskManagerFactory_","type":"address","internalType":"address"},{"name":"oracleFactory_","type":"address","internalType":"address"},{"name":"vaultFactory_","type":"address","internalType":"address"}],"stateMutability":"nonpayable"},{"type":"function","name":"create","inputs":[{"name":"params","type":"tuple","internalType":"struct VaultConfigurator.InitParams","components":[{"name":"version","type":"uint256","internalType":"uint256"},{"name":"proxyAdmin","type":"address","internalType":"address"},{"name":"vaultAdmin","type":"address","internalType":"address"},{"name":"shareManagerVersion","type":"uint256","internalType":"uint256"},{"name":"shareManagerParams","type":"bytes","internalType":"bytes"},{"name":"feeManagerVersion","type":"uint256","internalType":"uint256"},{"name":"feeManagerParams","type":"bytes","internalType":"bytes"},{"name":"riskManagerVersion","type":"uint256","internalType":"uint256"},{"name":"riskManagerParams","type":"bytes","internalType":"bytes"},{"name":"oracleVersion","type":"uint256","internalType":"uint256"},{"name":"oracleParams","type":"bytes","internalType":"bytes"},{"name":"defaultDepositHook","type":"address","internalType":"address"},{"name":"defaultRedeemHook","type":"address","internalType":"address"},{"name":"queueLimit","type":"uint256","internalType":"uint256"},{"name":"roleHolders","type":"tuple[]","internalType":"struct Vault.RoleHolder[]","components":[{"name":"role","type":"bytes32","internalType":"bytes32"},{"name":"holder","type":"address","internalType":"address"}]}]}],"outputs":[{"name":"shareManager","type":"address","internalType":"address"},{"name":"feeManager","type":"address","internalType":"address"},{"name":"riskManager","type":"address","internalType":"address"},{"name":"oracle","type":"address","internalType":"address"},{"name":"vault","type":"address","internalType":"address"}],"stateMutability":"nonpayable"},{"type":"function","name":"feeManagerFactory","inputs":[],"outputs":[{"name":"","type":"address","internalType":"contract IFactory"}],"stateMutability":"view"},{"type":"function","name":"oracleFactory","inputs":[],"outputs":[{"name":"","type":"address","internalType":"contract IFactory"}],"stateMutability":"view"},{"type":"function","name":"riskManagerFactory","inputs":[],"outputs":[{"name":"","type":"address","internalType":"contract IFactory"}],"stateMutability":"view"},{"type":"function","name":"shareManagerFactory","inputs":[],"outputs":[{"name":"","type":"address","internalType":"contract IFactory"}],"stateMutability":"view"},{"type":"function","name":"vaultFactory","inputs":[],"outputs":[{"name":"","type":"address","internalType":"contract IFactory"}],"stateMutability":"view"}],"bytecode":{"object":"0x610120604052348015610010575f80fd5b50604051610a54380380610a5483398101604081905261002f91610073565b6001600160a01b0394851660805292841660a05290831660c052821660e05216610100526100d4565b80516001600160a01b038116811461006e575f80fd5b919050565b5f805f805f60a08688031215610087575f80fd5b61009086610058565b945061009e60208701610058565b93506100ac60408701610058565b92506100ba60608701610058565b91506100c860808701610058565b90509295509295909350565b60805160a05160c05160e051610100516109226101325f395f818161016f01526104dd01525f818161014801526103b701525f818160ad015261030401525f81816069015261025201525f818161012101526101a001526109225ff3fe608060405234801561000f575f80fd5b5060043610610060575f3560e01c80632b34963c1461006457806336c9cf10146100a857806349ead595146100cf57806397f1c89a1461011c578063c7f7fb9014610143578063d8a06f731461016a575b5f80fd5b61008b7f000000000000000000000000000000000000000000000000000000000000000081565b6040516001600160a01b0390911681526020015b60405180910390f35b61008b7f000000000000000000000000000000000000000000000000000000000000000081565b6100e26100dd366004610690565b610191565b604080516001600160a01b03968716815294861660208601529285169284019290925283166060830152909116608082015260a00161009f565b61008b7f000000000000000000000000000000000000000000000000000000000000000081565b61008b7f000000000000000000000000000000000000000000000000000000000000000081565b61008b7f000000000000000000000000000000000000000000000000000000000000000081565b5f808080806001600160a01b037f0000000000000000000000000000000000000000000000000000000000000000166346fbcbb260608801356101da60408a0160208b016106e6565b6101e760808b018b610701565b6040518563ffffffff1660e01b8152600401610206949392919061074b565b6020604051808303815f875af1158015610222573d5f803e3d5ffd5b505050506040513d601f19601f820116820180604052508101906102469190610791565b94506001600160a01b037f0000000000000000000000000000000000000000000000000000000000000000166346fbcbb260a088013561028c60408a0160208b016106e6565b61029960c08b018b610701565b6040518563ffffffff1660e01b81526004016102b8949392919061074b565b6020604051808303815f875af11580156102d4573d5f803e3d5ffd5b505050506040513d601f19601f820116820180604052508101906102f89190610791565b93506001600160a01b037f0000000000000000000000000000000000000000000000000000000000000000166346fbcbb260e088013561033e60408a0160208b016106e6565b61034c6101008b018b610701565b6040518563ffffffff1660e01b815260040161036b949392919061074b565b6020604051808303815f875af1158015610387573d5f803e3d5ffd5b505050506040513d601f19601f820116820180604052508101906103ab9190610791565b92506001600160a01b037f0000000000000000000000000000000000000000000000000000000000000000166346fbcbb26101208801356103f260408a0160208b016106e6565b6104006101408b018b610701565b6040518563ffffffff1660e01b815260040161041f949392919061074b565b6020604051808303815f875af115801561043b573d5f803e3d5ffd5b505050506040513d601f19601f8201168201806040525081019061045f9190610791565b91505f61047260608801604089016106e6565b868686866104886101808d016101608e016106e6565b61049a6101a08e016101808f016106e6565b8d6101a001358e806101c001906104b191906107ac565b6040516020016104ca9a999897969594939291906107f2565b60405160208183030381529060405290507f00000000000000000000000000000000000000000000000000000000000000006001600160a01b03166346fbcbb2885f013589602001602081019061052191906106e6565b846040518463ffffffff1660e01b8152600401610540939291906108a1565b6020604051808303815f875af115801561055c573d5f803e3d5ffd5b505050506040513d601f19601f820116820180604052508101906105809190610791565b604051636817031b60e01b81526001600160a01b03808316600483015291935090871690636817031b906024015f604051808303815f87803b1580156105c4575f80fd5b505af11580156105d6573d5f803e3d5ffd5b5050604051636817031b60e01b81526001600160a01b03858116600483015287169250636817031b91506024015f604051808303815f87803b15801561061a575f80fd5b505af115801561062c573d5f803e3d5ffd5b5050604051636817031b60e01b81526001600160a01b03858116600483015286169250636817031b91506024015f604051808303815f87803b158015610670575f80fd5b505af1158015610682573d5f803e3d5ffd5b505050505091939590929450565b5f602082840312156106a0575f80fd5b813567ffffffffffffffff8111156106b6575f80fd5b82016101e081850312156106c8575f80fd5b9392505050565b6001600160a01b03811681146106e3575f80fd5b50565b5f602082840312156106f6575f80fd5b81356106c8816106cf565b5f808335601e19843603018112610716575f80fd5b83018035915067ffffffffffffffff821115610730575f80fd5b602001915036819003821315610744575f80fd5b9250929050565b8481526001600160a01b03841660208201526060604082018190528101829052818360808301375f818301608090810191909152601f909201601f191601019392505050565b5f602082840312156107a1575f80fd5b81516106c8816106cf565b5f808335601e198436030181126107c1575f80fd5b83018035915067ffffffffffffffff8211156107db575f80fd5b6020019150600681901b3603821315610744575f80fd5b6001600160a01b038b811682528a81166020808401919091528a82166040808501919091528a83166060850152898316608085015288831660a085015287831660c085015260e08401879052610120610100850181905284018590525f926101408501928792855b88811015610889578435865282850135610873816106cf565b841686840152948101949381019360010161085a565b5050505050809150509b9a5050505050505050505050565b83815260018060a01b0383166020820152606060408201525f82518060608401528060208501608085015e5f608082850101526080601f19601f83011684010191505094935050505056fea26469706673582212200aaa59efa6621ab809abb8132a1fffb08f7021e65486e63327a608c4bf37471164736f6c63430008190033","linkReferences":{}},"methodIdentifiers":{"create((uint256,address,address,uint256,bytes,uint256,bytes,uint256,bytes,uint256,bytes,address,address,uint256,(bytes32,address)[]))":"49ead595","feeManagerFactory()":"2b34963c","oracleFactory()":"c7f7fb90","riskManagerFactory()":"36c9cf10","shareManagerFactory()":"97f1c89a","vaultFactory()":"d8a06f73"},"id":145}